:100000000C9411010C943B010C943B010C943B01AA
:100010000C943B010C943B010C943B010C943B0170
:100020000C943B010C943B010C943B010C943B0160
:100030000C943B010C946A010C943B010C943B0121
:100040000C943B010C943B010C941C270C943B0139
:100050000C94CA220C9400230C943B010C943B0199
:100060000C943B010C943B010C94460D0C943B0109
:100070000C9461230C9497230C943B010C943B014A
:100080000C943B010C943B010C943B0100407A1012
:10009000F35A00A0724E18090010A5D4E80000E839
:1000A0007648170000E40B54020000CA9A3B000097
:1000B00000E1F505000080969800000040420F0026
:1000C0000000A08601000000102700000000E803E7
:1000D000000000006400000000000A0000000000B2
:1000E0000100000000002C76D888DC674F0823DF71
:1000F000C1DFAE59E1B1B796E5E3E453C63AE65144
:10010000997696E8E6C28426EB898C9B62ED407C6A
:100110006FFCEFBC9C9F40F2BAA56FA5F490055A06
:100120002AF75C936B6CF9676DC11BFCE0E40D472B
:10013000FEF520E6B500D0ED902E0300943577054E
:100140000080841E080000204E0A000000C80C3306
:100150003333330F986E12831141EF8D2114893B95
:10016000E65516CFFEE6DB18D1844B381BF77C1D15
:10017000901DA4BBE424203284725E228100C9F168
:1001800024ECA1E53D277C3C3E5E2B3D3F2F5B5D93
:100190003B2C2A225C000000000203000A0B000036
:1001A0000000050409080000000000000000000035
:1001B000000000000000010204081020408001023D
:1001C0000408102040800102040810204080010231
:1001D000040810204080020202020202020204040B
:1001E00004040404040403030303030303030101DD
:1001F0000101010101010000200023002600290067
:1002000000002200250028002B000000210024000F
:1002100027002A0084015B0C5F1279153423CB235D
:10022000960111241FBECFEFD0E4DEBFCDBF12E098
:10023000A0E0B1E0E4E7FFE500E00BBF02C00790FB
:100240000D92A430B107D9F72AE0A4E0B2E001C0D2
:100250001D92A436B207E1F711E0C0E1D1E004C07D
:100260002197FE010E94632ACA30D107C9F70E9474
:100270000D270C94AD2F0C940000DC01ED91FC9146
:100280000190F081E02D09940CB405FC0DC09EBDD9
:1002900000000DB407FEFDCF9EB58EBD00000DB46D
:1002A00007FEFDCF8EB508958EBD00000DB407FE8C
:1002B000FDCF8EB59EBD00000DB407FEFDCF9EB5EF
:1002C0000895982F92959F708F702AE0929F800DCD
:1002D000112408951F920F920FB60F9211248F933D
:1002E000809105028F5F80930502809104028F5FE9
:1002F0008093040210928500109284008F910F90D9
:100300000FBE0F901F9018956BE071E08BE196E0A7
:100310000E945B256CE371E085E196E00E945B251D
:1003200063E072E08FE096E00C945B258FE096E04E
:100330000E94E92485E196E00E94E9248BE196E0A1
:100340000C94E924CF93DF9361E570E081E296E0BD
:100350000E94DA0B70E060E081E296E00E943D01CD
:1003600081E296E00E94580C46E050E061E570E0C2
:1003700081E296E00E94550C81E296E00E944D0BCE
:100380000E9461018093060281E296E00E944D0B7B
:100390008F770E946101D82F81E296E00E944D0B79
:1003A0008F770E946101C82F81E296E00E944D0B79
:1003B0000E94610190E0B0E0A0E08093070290937A
:1003C0000802A0930902B0930A0281E296E00E941B
:1003D0004D0B0E94610124E6829FC0011124092E69
:1003E000000CAA0BBB0B40910702509108026091D0
:1003F000090270910A02840F951FA61FB71F8093F0
:10040000070290930802A0930902B0930A0281E2C6
:1004100096E00E944D0B0E94610140E157E2849FEB
:100420009001859F300D1124032E000C440B550BB9
:100430008091070290910802A0910902B0910A02EE
:10044000280F391F4A1F5B1FA0E1BEE00E946C2AE3
:10045000AB01BC012CE3C29FC0011124092E000C8A
:10046000AA0BBB0B8D0F911DA11DB11D840F951FF4
:10047000A61FB71F8093070290930802A09309025A
:10048000B0930A02DF91CF9108958F929F92AF921D
:10049000BF92EF92FF920F931F93CF93DF93CDB74D
:1004A000DEB7A7970FB6F894DEBF0FBECDBF61E0F1
:1004B00083E10E94812860E082E10E9481280FE0B0
:1004C00012E08BE0E82E82E0F82E812C912C540172
:1004D000F80181918F01880E911CA11CB11CF6E0DE
:1004E0000B301F07A9F763E072E0CE0182960E94ED
:1004F0005B250E94A2016CE471E0CE0182960E940D
:10050000BE2660910B0670910C064AE0CE01019662
:100510000E94D325BE016F5F7F4FCE0182960E945D
:10052000B726CE0101960E94E92466EA71E0CE0169
:1005300082960E94BE264091070250910802609167
:10054000090270910A022AE0CE0101960E94FF255D
:10055000BE016F5F7F4FCE0182960E94B726CE010B
:1005600001960E94E9246AE871E0CE0182960E9419
:10057000BE264AE060910602CE0101960E947A25CD
:10058000BE016F5F7F4FCE0182960E94B726CE01DB
:1005900001960E94E92466EA71E0CE0182960E94EB
:1005A000BE262AE0B501A401CE0101960E94FF25D6
:1005B000BE016F5F7F4FCE0182960E94B726CE01AB
:1005C00001960E94E92466EA71E0CE0182960E94BB
:1005D000BE26F70161917F014AE0CE0101960E949B
:1005E0007A25BE016F5F7F4FCE0182960E94B726AB
:1005F000CE0101960E94E9240E151F0521F7809176
:10060000060161E0882309F470C08EE00E94812811
:1006100064E083EC96E00E94A91063E571E0882312
:1006200009F45CC040910F065091100623E163EC81
:1006300076E0CE0101960E94C911CE0101960E947A
:100640009D0F882309F448C0BE016E5D7F4FCE0127
:1006500001960E945524CE0101960E948B0F61E005
:1006600084E00E94812860E08EE00E94812860E0A2
:100670008DE00E94812880910B0690910C060196D6
:10068000893FFAE29F0708F065C090930C068093BB
:100690000B0661E082E10E94812860E083E10E9414
:1006A000812861E070E080E090E00E949727CE0111
:1006B00082960E94E924A7960FB6F894DEBF0FBE7B
:1006C000CDBFDF91CF911F910F91FF90EF90BF9021
:1006D000AF909F908F90089562E671E089EB99E06A
:1006E0000E94672410920601BACF8DE00E948128F3
:1006F000AEA0BFA010E000E0FF24FA948DE10E94BC
:10070000AF28892B19F0FA94F110F8CF82E390E02A
:100710000E94D0277801FFEFEF1AFF0AB801CE013F
:1007200082960E94FA26FC0160818CE199E00E9489
:100730004A24AE14BF0460F48CE199E00E94512475
:10074000BE016E5D7F4F89EB99E00E9455248BCFEF
:100750008701D2CF10920C0610920B0660910D0605
:1007600070910E066F5F7F4F70930E0660930D06BB
:100770004AE0CE014C960E94D325BE01645E7F4FB5
:10078000CE0101960E9443266CE671E0CE010196EF
:100790000E94E026BC018FE096E00E942C26CE014C
:1007A00001960E94E924CE014C960E94E92461E75B
:1007B00071E089EB99E00E9442246FE076E089EBDA
:1007C00099E00E94552465CF0F931F93CF93DF9339
:1007D000C82F65E570E081E296E00E94DA0B0C2EEE
:1007E000000CDD0BBE0181E296E00E943D0181E23A
:1007F00096E00E94580C41E050E065E570E081E22F
:1008000096E00E94550C81E296E00E944D0B8C010F
:1008100065E570E081E296E00E94DA0BBE016F5F51
:100820007F4F81E296E00E943D0181E296E00E94C6
:10083000580C41E050E065E570E081E296E00E94EE
:10084000550C81E296E00E944D0B20E0382FC90143
:10085000800F911FDF91CF911F910F910895CF933A
:10086000DF93CDB7DEB7A1970FB6F894DEBF0FBE0A
:10087000CDBF61E083E10E94812860E082E10E94B7
:10088000812863E072E0CE014C960E945B250E94B5
:10089000A2016CE771E0CE014C960E94BE266091E9
:1008A0000B0670910C064AE0CE0101960E94D325FA
:1008B000BE016F5F7F4FCE014C960E94B726CE01DE
:1008C00001960E94E92466EA71E0CE014C960E94EE
:1008D000BE26409107025091080260910902709172
:1008E0000A022AE0CE0101960E94FF25BE016F5F39
:1008F0007F4FCE014C960E94B726CE0101960E94F2
:10090000E9246AE871E0CE014C960E94BE264AE0D6
:1009100060910602CE0101960E947A25BE016F5FAA
:100920007F4FCE014C960E94B726CE0101960E94C1
:10093000E92466EA71E0CE014C960E94BE2688E06A
:100940000E94E4034AE0BC01CE0101960E94A72563
:10095000BE016F5F7F4FCE014C960E94B726CE013D
:1009600001960E94E92466EA71E0CE014C960E944D
:10097000BE268AE00E94E4034AE0BC01CE01019653
:100980000E94A725BE016F5F7F4FCE014C960E944B
:10099000B726CE0101960E94E92466EA71E0CE01F5
:1009A0004C960E94BE2684E00E94E4034AE0BC010B
:1009B000CE0101960E94A725BE016F5F7F4FCE0139
:1009C0004C960E94B726CE0101960E94E92466EA61
:1009D00071E0CE014C960E94BE2686E00E94E403A0
:1009E0004AE0BC01CE0101960E94A725BE016F5FBF
:1009F0007F4FCE014C960E94B726CE0101960E94F1
:100A0000E92466EA71E0CE014C960E94BE268CE095
:100A10000E94E403BC01990F880B990B0E9448299E
:100A20002DEC3CEC4CEC5DE30E94D42923E333E94C
:100A300048E853E40E94D928AB01BC0122E0CE0172
:100A400001960E945B26BE016F5F7F4FCE014C96E0
:100A50000E94B726CE0101960E94E92480910601EA
:100A6000882349F164E083EC96E00E94A91063E5D5
:100A700071E08823E9F140910F065091100623E1BF
:100A800063EC76E0CE0101960E94C911CE01019679
:100A90000E949D0F882351F1BE01645E7F4FCE01FD
:100AA00001960E945524CE0101960E948B0F61E0B1
:100AB00084E00E94812861E082E10E94812860E058
:100AC00083E10E94812861E070E080E090E00E9474
:100AD0009727CE014C960E94E924A1960FB6F89470
:100AE000DEBF0FBECDBFDF91CF91089562E671E00A
:100AF00089EB99E00E94672410920601D8CFCF922B
:100B0000DF92EF92FF920F931F93CF93DF93CDB7B6
:100B1000DEB7C254D1090FB6F894DEBF0FBECDBF09
:100B200026E040E052EC61E070E08CE199E00E9448
:100B3000782226E040E052EC61E070E089EB99E039
:100B40000E94782263E871E089EB99E00E946724B3
:100B500060E08BE10E94452860E085E10E94452825
:100B600060E08DE10E94452861E086E10E94452811
:100B700061E087E10E94452860E080E00E9445280E
:100B800061E082E10E94452861E082E10E948128C3
:100B900061E083E10E94452861E083E00E944528EE
:100BA00061E084E00E94452860E085E00E944528DD
:100BB00060E086E00E94452861E087E00E944528C9
:100BC00061E083E10E94812861E084E00E94812845
:100BD00060E087E00E94812860E083E00E94812835
:100BE0006AE670E081E296E00E94DA0B62E081E260
:100BF00096E00E94700B60E872E081E296E00E944D
:100C00003D0181E296E00E94580C6AE670E081E2C4
:100C100096E00E94DA0B64E181E296E00E94700B9C
:100C200062E281E296E00E94700B69E181E296E067
:100C30000E94700B60EA81E296E00E94700B66E50C
:100C400081E296E00E94700B60E081E296E00E94F3
:100C5000700B61E081E296E00E94700B81E296E009
:100C60000E94580C6AE670E081E296E00E94DA0B7E
:100C70006AE181E296E00E94700B6FEB81E296E000
:100C80000E94700B81E296E00E94580C6AE670E0C8
:100C900081E296E00E94DA0B66E281E296E00E9431
:100CA000700B6CE881E296E00E94700B81E296E0A6
:100CB0000E94580C8BE10E94AF2810E0892B09F0AC
:100CC0009BC261E084E10E94452861E084E10E94CA
:100CD000812815E060E570E080E090E00E949727B1
:100CE00061E08CE00E94452861E08CE00E94812850
:100CF00060E570E080E090E00E94972760E08CE083
:100D00000E948128115031F761E08CE00E94812817
:100D100008EC10E084EB90E00E94D02761E08FE0C7
:100D20000E94452861E08FE00E94812884EB90E0DA
:100D30000E94D02761E08FE00E94452860E08FE0AC
:100D40000E9481280150110929F740EA56E861E024
:100D500070E081E296E00E94CC0B6CE871E089EBD8
:100D600099E00E94672461E082E00E94452861E0EA
:100D700082E00E94812861E08AE10E94452861E0CA
:100D80008AE10E94812860E087E10E94812861E079
:100D900086E10E94812861E570E081E296E00E9490
:100DA000DA0B63E281E296E00E94700B60E081E280
:100DB00096E00E94700B60E081E296E00E94700B6A
:100DC00065E081E296E00E94700B60E081E296E0CF
:100DD0000E94700B60E081E296E00E94700B67E970
:100DE00081E296E00E94700B60E081E296E00E9452
:100DF000700B60E081E296E00E94700B81E296E069
:100E00000E94580C61E570E081E296E00E94DA0BE6
:100E10006FE270E081E296E00E943D016CE270E0DA
:100E200081E296E00E943D0181E296E00E94580C2A
:100E300061E570E081E296E00E94DA0B68E270E022
:100E400081E296E00E943D0167E970E081E296E070
:100E50000E943D0181E296E00E94580C61E570E03D
:100E600081E296E00E94DA0B60E081E296E00E9467
:100E7000700B60E081E296E00E94700B60E081E21E
:100E800096E00E94700B60E081E296E00E94700B99
:100E900060E081E296E00E94700B60E081E296E003
:100EA0000E94700B60E081E296E00E94700B81E28C
:100EB00096E00E94580C65E971E0CE0101960E940F
:100EC0005B2565E176E0CE0101960E94CD2664EABD
:100ED00071E00E94E0266BE176E00E94CD2666EA92
:100EE00071E00E94E026BC01CE01CD960E9443260F
:100EF000CE0101960E94E92469E570E081E296E066
:100F00000E94DA0B68E070E081E296E00E943D0109
:100F100070E060E081E296E00E943D0181E296E0AF
:100F20000E94580C40E169E581E296E00E94520C73
:100F300010E181E296E00E944D0B082F803130F4E1
:100F400068EA71E0CE01CD960E94BE2640E1602F96
:100F5000CE0101960E947A25BE016F5F7F4FCE01C0
:100F6000CD960E94B726CE0101960E94E924115029
:100F700001F76AEA71E0CE01CD960E94BE2668E5CF
:100F800070E081E296E00E94DA0B68E070E081E2B6
:100F900096E00E943D0170E060E081E296E00E94F0
:100FA0003D0181E296E00E94580C40E168E581E253
:100FB00096E00E94520C10E181E296E00E944D0BF7
:100FC000082F803130F468EA71E0CE01CD960E949E
:100FD000BE2640E1602FCE0101960E947A25BE0117
:100FE0006F5F7F4FCE01CD960E94B726CE0101964E
:100FF0000E94E924115001F760E082E10E948128FB
:1010000064E083EC96E00E94A910811108C063E5BA
:1010100071E089EB99E00E9467241092060181E05B
:1010200090E090930E0680930D0660910D067091EE
:101030000E06683C710508F00AC14AE0CE014C96E4
:101040000E94D325BE01645E7F4FCE0101960E94AF
:1010500043266CE671E0CE0101960E94E026BC01B9
:101060008FE096E00E942C26CE0101960E94E92492
:10107000CE014C960E94E92460910F0670911006F3
:1010800083EC96E00E945412882309F4E0C080911A
:101090000D0690910E060196C4CF013108F04FC0A5
:1010A00061E570E081E296E00E94DA0B68E270E0B0
:1010B00081E296E00E943D0165E070E081E296E009
:1010C0000E943D0181E296E00E94580C88ECE82ED7
:1010D000F12C8AEF90E00E94D02761E08FE00E941F
:1010E000452861E08FE00E9481288AEF90E00E940D
:1010F000D02761E08FE00E94452860E08FE00E94E9
:10110000812881E0E81AF10821F76AE670E081E2BF
:1011100096E00E94DA0B68E181E296E00E94700B93
:101120006AE081E296E00E94700B81E296E00E9404
:10113000580C68E873E180E090E00E949727111155
:101140005AC061E083E00E94812861E08CE00E9447
:10115000452861E08CE00E94812808EC10E08AEFCD
:1011600090E00E94D02761E08FE00E94452861E076
:101170008FE00E9481288AEF90E00E94D02761E0F2
:101180008FE00E94452860E08FE00E948128015096
:10119000110929F708EC10E084EB90E00E94D027B9
:1011A00061E08FE00E94452861E08FE00E94812885
:1011B00084EB90E00E94D02761E08FE00E944528F8
:1011C00060E08FE00E9481280150110929F761E752
:1011D00070E081E296E00E94DA0B60E081E296E046
:1011E0000E94700B63E181E296E00E94700B81E245
:1011F00096E00E94580C11E000E06AE670E081E29F
:1012000096E00E94DA0B6DE270E081E296E00E94C7
:101210003D0181E296E00E94580C41E050E06AE610
:1012200070E081E296E00E94550C81E296E00E9417
:101230004D0BF82EE894F7F80F1509F42ECF68EE51
:1012400073E080E090E00E9497270F2DD6CF609149
:101250000D0670910E066150710970930E06609331
:101260000D064AE0CE014C960E94D325BE01645E75
:101270007F4FCE0101960E9443266CE671E0CE01BD
:1012800001960E94E026BC018FE096E00E942C2689
:10129000CE0101960E94E924CE014C960E94E924D9
:1012A00015E060E570E080E090E00E94972761E043
:1012B0008DE00E94452861E08DE00E94812860E574
:1012C00070E080E090E00E94972760E08DE00E944F
:1012D0008128115031F761E08DE00E948128409112
:1012E0000F065091100623E163EC76E0CE014C9698
:1012F0000E94C911CE014C960E944D0F6B017C01DA
:1013000062EB71E089EB99E00E9442242AE030E030
:10131000B701A60189EB99E00E94D72489E6C81697
:1013200080E2D80689E5E806F10408F45BC0CE0146
:101330004C960E948B0F60910D0670910E066F5FA8
:101340007F4F70930E0660930D064AE0CE01C7965C
:101350000E94D325BE01695C7F4FCE0101960E9499
:1013600043266CE671E0CE0101960E94E026BC01A6
:101370008FE096E00E942C26CE0101960E94E9247F
:10138000CE01C7960E94E92440910F0650911006A5
:1013900023E163EC76E0CE0101960E94C9118B81B6
:1013A0009C819F8F8E8F8D819E81AF81B88588A310
:1013B00099A3AAA3BBA389859A85AB85BC858CA379
:1013C0009DA3AEA3BFA3DE011D96FE01B896CE017C
:1013D000C5962D912193E817F907D9F78A8D9B8D32
:1013E0009EAB8DAB61E771E089EB99E00E944224EE
:1013F0006FE076E089EB99E00E945524CE014C968F
:101400000E949D0F882309F471C0BE01635C7F4F69
:10141000CE014C960E945524CE014C960E948B0F13
:10142000BE01635C7F4F89EB99E00E94552461E027
:1014300082E10E94812861E084E10E94452860E009
:1014400084E10E94812815E060E570E080E090E092
:101450000E94972761E08EE00E94452861E08EE0BF
:101460000E94812860E570E080E090E00E9497276C
:1014700060E08EE00E948128115031F760E08CE03E
:101480000E94812860E08DE00E94812861E082E076
:101490000E94452860E082E00E948128F894109222
:1014A00080008DE08093810087E998E9909389001E
:1014B00080938800109285001092840082E08093CF
:1014C0006F007894CE01CD960E94E924CE5BDF4F69
:1014D0000FB6F894DEBF0FBECDBFDF91CF911F9145
:1014E0000F91FF90EF90DF90CF90089562E671E04A
:1014F00089EB99E00E9467241092060191CFCBE01E
:10150000D2E0199286E0CB30D807D9F761E087E1C5
:101510000E94812860E086E10E94812890E080E0BE
:101520000E94440161E086E10E9481281092050238
:101530001092040218998DC0809105028230D0F378
:10154000109205028BE10E94AF28682F8DE00E9467
:1015500081288BE10E94AF28892B09F44DC061E5F9
:1015600070E081E296E00E94DA0B68E270E081E2CE
:1015700096E00E943D0165E070E081E296E00E9405
:101580003D0181E296E00E94580C08EC10E08AEFE1
:1015900090E00E94D02761E08FE00E94452861E042
:1015A0008FE00E9481288AEF90E00E94D02761E0BE
:1015B0008FE00E94452860E08FE00E948128015062
:1015C000110929F76AE670E081E296E00E94DA0BE1
:1015D00068E181E296E00E94700B6AE081E296E0A9
:1015E0000E94700B81E296E00E94580C60E177E265
:1015F00080E090E00E94972761E086E10E948128C8
:1016000060E087E10E9481280E944502EBE0F2E061
:101610001192CE17DF07E1F7809104028C3020F0A1
:10162000109204020E942F0461E087E10E94812849
:1016300060E086E10E94812890E080E00E94440101
:1016400061E086E10E94812810928500109284005A
:1016500071CF60E086E10E94812890E080E00E94E6
:10166000440126E0969587952A95E1F7FC01E55F10
:10167000FD4F80818F3F11F08F5F808361E086E1B5
:101680000E94812857CF90E080E008958091510614
:1016900090915206891B990B089590915206809162
:1016A00051062FEF3FEF981748F4E92FF0E0ED5A7D
:1016B000F94F208130E09F5F90935206C901089551
:1016C000E091520680915106E81730F4F0E0ED5AAF
:1016D000F94F808190E008958FEF9FEF089508956E
:1016E000CF93DF931F92CDB7DEB7698320912D068C
:1016F0002223F9F020912E06203258F021E030E02C
:10170000FC013383228390E080E00F90DF91CF9142
:10171000089580912F06E82FF0E0E05DF94F998160
:1017200090838F5F80932F0680932E0681E090E058
:10173000ECCF61E0CE0101960E940F0DF7CFCF9262
:10174000DF92EF92FF920F931F93CF93DF937C0171
:10175000CB018A0120912D06222389F0EB016B0138
:10176000C40ED51ECC15DD0569F06991D701ED9148
:10177000FC910190F081E02DC7010995F3CF642F12
:101780000E940F0DC801DF91CF911F910F91FF9023
:10179000EF90DF90CF900895CB01BA010C946C0CC0
:1017A00081E080932D066093500610922F061092D0
:1017B0002E0608950C94D00B0F93062F21E0409134
:1017C0002E0660E376E0809150060E94BF0C1092D6
:1017D0002F0610922E0610922D060F9108954F920B
:1017E0005F926F927F92AF92BF92CF92EF92FF92F1
:1017F0000F931F93CF93DF935C01F62ED42F280114
:101800003901EE2019F10E94D00BCE2DC43008F022
:10181000C3E0C150B8F028E0C29FC0011124A30169
:10182000920104C056954795379527958A95D2F72A
:10183000B901D501ED91FC910190F081E02DC50138
:101840000995E7CF60E0C5010E94DC0B4D2FD13236
:1018500008F040E22C2D63E576E08F2D0E947F0C8E
:101860001092520680935106DF91CF911F910F91F4
:10187000FF90EF90CF90BF90AF907F906F905F9070
:101880004F900895CF92EF920F931F93C22EE12CA9
:1018900000E010E098010E94EF0B1F910F91EF9074
:1018A000CF90089521E00C94420C21E00C94420C5E
:1018B00061E00C94DC0BE1E2F6E01382128288EE28
:1018C00093E0A0E0B0E084839583A683B78381ECA6
:1018D00091E09183808308959B01AC0160E072E107
:1018E0008AE790E00E94412A2051310941095109BB
:1018F00056954795379527952093B800089541321E
:10190000E0F59091C2069111FCCF91E09093C20650
:101910002093C0062FEF209373067093BA0660934E
:10192000B9061092B806240F2093B7069093C1060B
:101930009091C106880F892B8093C1068091BF06C4
:101940008130C9F41092BF068091C1068093BB001C
:101950008091BC0083FDF8CF85EC8093BC00809122
:10196000C2068130E1F38091B806841710F44091EB
:10197000B806842F089585EEF0CF40E0FACF0F939C
:10198000413208F044C09091C2069111FCCF92E020
:101990009093C2060093C0069FEF909373067093D6
:1019A000BA066093B9061092B8064093B706109233
:1019B000C1069091C106880F892B8093C106809142
:1019C000BF06813011F51092BF068091C106809349
:1019D000BB008091BC0083FDF8CF85EC8093BC00F8
:1019E000222321F08091C2068230D1F380917306C8
:1019F0008F3F79F080917306803269F08091730691
:101A0000803359F084E00F91089585EEE7CF81E0AF
:101A1000FACF80E0F8CF82E0F6CF83E0F4CF2091D8
:101A20009506260F3327331F21323105ECF4209120
:101A3000C206FC0190E080E0243069F082E0089565
:101A4000A09195062191AC014956594FA40FB52F8D
:101A5000B11D2C930196861798F380919506680F17
:101A60006093950680E0089581E0089585ED809368
:101A7000BC008091BC0084FDFCCF1092C20608958A
:101A800085EC8093BC001092C20608951F920F92BD
:101A90000FB60F9211240BB60F922F933F934F93D3
:101AA0005F936F937F938F939F93AF93BF93EF93C6
:101AB000FF938091B900887F803609F44EC008F00A
:101AC00041C0883209F4AAC028F5803109F49EC0CB
:101AD000C8F4882309F407C1883009F497C0FF913E
:101AE000EF91BF91AF919F918F917F916F915F9196
:101AF0004F913F912F910F900BBE0F900FBE0F9003
:101B00001F901895883109F489C0803241F780937D
:101B1000730615C0803409F4A6C048F48033B9F3C5
:101B20008833E9F6809373060E94400DD8CF803544
:101B300009F489C0883509F49EC0883481F60E9472
:101B4000360DCDCF883909F494C038F5883729F09F
:101B500050F4883611F0803711F683E08093C20686
:101B60001092740657C0883809F483C0803919F080
:101B7000803809F0B4CF80917406803208F079C0C3
:101B8000E091740681E08E0F809374068091BB0013
:101B9000F0E0EB58F94F80833DC0803B39F0E0F432
:101BA000803A09F485C0883A09F099CF84E080939F
:101BB000C2061092960610929506E091BD06F0912D
:101BC000BE0609958091950681110FC081E0809332
:101BD00095061092970609C0803C09F482C0883CA3
:101BE00009F47FC0883B09F07ACFE091960681E046
:101BF0008E0F80939606F0E0E956F94F808180932E
:101C0000BB00909196068091950631C08091C106E7
:101C10008093BB0085EC8093BC0061CF9091B806A7
:101C20008091B7069817B8F58091B9069091BA06D9
:101C3000E091B80621E02E0F2093B806E80FF92FA7
:101C4000F11D8081E5CF2091B9063091BA06E0916F
:101C5000B80681E08E0F8093B8068091BB00E20F3A
:101C6000F32FF11D80839091B8068091B7069817E5
:101C700088F285E8D0CF2091B9063091BA06E0917C
:101C8000B80681E08E0F8093B8068091BB00E20F0A
:101C9000F32FF11D80838091C006811150CF81E028
:101CA0008093BF0684EA8093BC001092C20617CFCF
:101CB0000E94400D80917406803230F4E0917406E9
:101CC000F0E0EB58F94F10826091740670E0E091FB
:101CD000BB06F091BC0685E796E009951092740664
:101CE000FECE85ECE0CF1092730629CFCF93DF9321
:101CF0001F92CDB7DEB76983DC01ED91FC910280C4
:101D0000F381E02D41E050E0BE016F5F7F4F099508
:101D10000F90DF91CF910895CF93DF93EC01E98D80
:101D2000FA8D309749F481E090E09B838A8390E0BC
:101D300080E0DF91CF91089513821282898D9A8D70
:101D40000E94011BE98DFA8D22813381232B59F7E3
:101D5000F0CFFC01818D928D009711F00C949018BA
:101D60000895CF93DF931F92CDB7DEB741E050E0E7
:101D7000BE016F5F7F4F0E94B416019731F48981D5
:101D800090E00F90DF91CF9108958FEF9FEFF9CF03
:101D9000FC01818D928D009711F00C94B10E8FEFA4
:101DA0009FEF08950F931F93CF93DF93EC01898DDD
:101DB0009A8D10E000E0009799F00E94B10E8C011E
:101DC0000F3F100769F0898D9A8DFC01428553857C
:101DD0006485758541505109610971090E94FC179C
:101DE000C801DF91CF911F910F910895EF92FF925B
:101DF0000F931F93CF93DF93EC017B018A011B822A
:101E00001A8288EE93E0A0E0B0E08C839D83AE83DD
:101E1000BF8383ED91E0998388838DE190E00E94F8
:101E2000A42A9A8F898F009779F02DE1F701DC01C0
:101E300001900D922A95E1F74CE050E0B801CE01F7
:101E40000C960E94D22C188EDF91CF911F910F918A
:101E5000FF90EF900895FC011382128288EE93E0C8
:101E6000A0E0B0E084839583A683B78383ED91E0FF
:101E700091838083128E118E14860895DC01599609
:101E8000ED91FC91309729F0628573858485958565
:101E900008956FEF7FEFCB010895DC015996ED9126
:101EA000FC91309729F06389748985899689089512
:101EB00060E070E0CB010895CF92DF92EF92FF9245
:101EC000CF93DF93FC01218D328D232B09F1EC019F
:101ED0000E944D0F6B017C01CE010E943E0FA701B5
:101EE0009601261B370B480B590BDA01C9018115E6
:101EF00030E89307A105B10520F08FEF9FE7A0E040
:101F0000B0E0DF91CF91FF90EF90DF90CF900895F8
:101F100090E080E0F6CFCF93DF93EC01898D9A8D2E
:101F2000009741F00E94D918898D9A8D0E94402B0C
:101F30001A8E198EDF91CF910895DC015996ED919B
:101F4000FC91309721F081E09581911101C080E0F2
:101F500008951F93CF93DF93CDB7DEB76D970FB67C
:101F6000F894DEBF0FBECDBFAB011C821B8227EEF3
:101F700031E03A8329831E8221E0BC01CE01019623
:101F80000E94141A11E081110CC010E0812F6D968F
:101F90000FB6F894DEBF0FBECDBFDF91CF911F917A
:101FA0000895CE0101960E94D918F0CFEF92FF92CA
:101FB0000F931F93CF93DF937B01DB012D913C9116
:101FC000FC01E20FF31F60816F3211F42F5F3F4F6E
:101FD0008C01020F131FEA01F0E0E0E0D8017D91CF
:101FE0008D017F3249F0772339F02F5F3F4F3196D3
:101FF0007993EC30F10591F7E40FF51F1082FC01A5
:10200000E20FF31F40814F3211F42F5F3F4FF70172
:1020100031832083280F391F81E0D9019C919111D0
:1020200001C080E0DF91CF911F910F91FF90EF9061
:1020300008954F925F926F927F928F929F92AF928C
:10204000BF92CF92DF92EF92FF920F931F93CF93A5
:10205000DF93CDB7DEB7C954D1090FB6F894DEBF10
:102060000FBECDBF5C016B013A01490119A218A254
:1020700087EE91E09F8F8E8F1BA21C821B829A831A
:1020800089831E822A961FAE1EAE2A978B017E017F
:102090008EE1E80EF11C44244394AE01455C5F4F91
:1020A000BE01685B7F4FC5010E94D60F582E482F96
:1020B00044259401BE01655C7F4FC801F301099579
:1020C000811120C00C151D05C9F480E0C75BDF4FEE
:1020D0000FB6F894DEBF0FBECDBFDF91CF911F9139
:1020E0000F91FF90EF90DF90CF90BF90AF909F90B7
:1020F0008F907F906F905F904F900895C8010E94DD
:10210000D918E3CF552091F021E0AE01455C5F4F37
:10211000B801C7010E94141A582E0C151D0571F044
:10212000C8010E94D91851100EC0CFCF0C151D0543
:1021300019F0C8010E94D91881E0C8CF882329F27C
:102140008E010F5F1F4F902F812F8701E92EF82EF0
:10215000A4CF0F931F93CF93DF93EC01162F8FA57E
:10216000882321F0CE018A960E94D918412F61E080
:10217000CE010E947613811102C090E012C08E0140
:10218000045F1F4F41E0BE01C8010E943B2088232D
:1021900071F0B801CE018A960E94641691E08823FE
:1021A00061F3892FDF91CF911F910F91089540E046
:1021B000BE01C8010E943B208823F9F2EACFFC014E
:1021C000DB0112968D919C9113979383828387EE06
:1021D00091E09183808314968C9114978483159653
:1021E0008C911597858316964D915D916D917C919B
:1021F000199746835783608771871A964D915D9131
:102200006D917C911D9742875387648775871E96D1
:102210004D915D916D917C91519746875787608B69
:10222000718B52968C915297828B53964D915D9102
:102230006D917C915697438B548B658B768B57961B
:102240004D915D916D917C915A97478B508F618F25
:10225000728F5B968D919C91948F838F08954F928E
:102260005F926F927F928F929F92AF92BF92CF9226
:10227000DF92EF92FF920F931F93CF93DF93CDB72F
:10228000DEB7C754D1090FB6F894DEBF0FBECDBF7D
:102290005C014A013901665D7F4F7E018EE1E80EE7
:1022A000F11CC7010E94DF101C821B8287EE91E0A7
:1022B0009A8389831E828401FE0131966F015E2C10
:1022C0004F2C6FE270E0C8010E94C02C009709F407
:1022D00055C0F80120812F3219F40F5F1F4FF1CF45
:1022E000801B8D3008F08CE0E82EF12CA701B8019E
:1022F000CE01CB960E94D22CEBE3F0E0EC0FFD1F59
:10230000EE0DFF1D1082C6010E94D91821E0AE011A
:10231000455C5F4F652D742DC6010E94141A811112
:1023200021C0F5011382128287EE91E091838083B0
:102330001582C501C95BDF4F0FB6F894DEBF0FBE33
:10234000CDBFDF91CF911F910F91FF90EF90DF9064
:10235000CF90BF90AF909F908F907F906F905F9045
:102360004F9008950E0D1F1D852D942D0E94D91894
:10237000C2015C2C4D2CC92ED82EA3CF08191909E7
:10238000F30111830083652D742DC5010E94DF10B8
:10239000D0CFAF92BF92CF92DF92FF920F931F9355
:1023A000CF93DF93CDB7DEB7C955D1090FB6F894F7
:1023B000DEBF0FBECDBF6C015B018A01F22E9E0114
:1023C000285A3F4FCE01CB960E942F116A968EADB0
:1023D0009FAD6A97080F191FF8018081811110C005
:1023E000BE01655C7F4FCE0101960E94DF1041EE79
:1023F00051E0BE016F5F7F4FC6010E94F60E0FC015
:1024000019A218A287EE91E09F8F8E8F1BA22196B2
:102410008FAD2197811115C0C6010E942B0FC601F7
:10242000C75ADF4F0FB6F894DEBF0FBECDBFDF91A6
:10243000CF911F910F91FF90DF90CF90BF90AF9001
:10244000089582508230F8F4B501665D7F4F2F2DDC
:10245000A801CE014E960E94141A8823E9F28F2D0E
:10246000867041F049A95AA96BA97CA9CE014E9664
:102470000E94FC17BE01625E7F4FCE0101960E9452
:10248000DF10A801B6CF2F2DA801BE01655C7F4FDC
:10249000CE014E960E94141A882309F4BDCFCE01B6
:1024A000CB960E94D918DBCFFB01BC01665D7F4F44
:1024B00030E020E049EA5FE0CF010C941910E3EC32
:1024C000F6E0158216821186138682E090E0A0E085
:1024D000B0E084879587A687B78713A215A614A6B0
:1024E00087EE91E093A782A717A608959FB7F89467
:1024F00020911A0980911809213019F48DBB9FBFD2
:1025000008958FBF089520911A09222381F03FB7C3
:10251000F89420911A09213069F42DB320931809F9
:102520004DB320911909209524232DBB3FBF8CBDAD
:102530009DBD089530931809FACF8EBD00000DB4EB
:1025400007FEFDCF8EB508958FEF0C949D1261E0CC
:10255000FC0184810E94812880910C07882339F036
:1025600010920C0780911A0981110C94761208952B
:10257000CF93DF93EC0180910C07811109C081E0BA
:1025800080930C0780910D0790910E070E94831293
:1025900060E08C81DF91CF910C948128CF93DF9301
:1025A000EC018E81882389F08F8198859C012F5FB3
:1025B0003F4F38872F838230924018F40E94A41234
:1025C000F3CFCE010E94A7121E82DF91CF91089512
:1025D000673028F026E1FC01258380E00895623011
:1025E00079F038F06430A9F090F06530A1F082E520
:1025F00008C080E580930D0781E080930E07089561
:1026000080E580930D0710920E0781E0089581E523
:10261000F1CF81E5F6CF82E5EDCF0F931F93CF93F6
:10262000DF93EB010E9466278B010E94A4128F3F6B
:1026300069F00E946627601B710B6C177D07A8F379
:1026400080E0DF91CF911F910F91089581E0F9CF44
:102650008F929F92AF92BF92FF920F931F93CF934F
:10266000DF93EC01F62E49015A010E94CE12CE01F1
:102670000E94B8126CE271E0CE010E940D138F2D02
:1026800080640E949D1208E110E0D501C401002E73
:1026900004C0B695A795979587950A94D2F70E949E
:1026A0009D1208501109083F8FEF180771F785E94F
:1026B000FF2021F088E0F8120DC087E80E949D12EB
:1026C00010E00E94A4128A8787FF06C01F3F21F0F6
:1026D0001F5FF7CF8FEFF2CFDF91CF911F910F9157
:1026E000FF90BF90AF909F908F9008958F929F9290
:1026F000AF92BF92EF92FF920F931F93CF93DF930E
:10270000EC01E62E1B8619861E821D824C830E94D8
:1027100066278B0161E08C810E94452861E08C81F5
:102720000E9481280E945B2182E580930D0781E051
:1027300080930E0780910D0790910E070E948312DF
:102740002AE0F22E8FEF0E949D12FA94F110FACF38
:1027500080911A0981110E947612CE010E94B8124E
:1027600020E030E0A90160E0CE010E942813F82E9D
:102770008A8781E0F816C1F00E946627601B710B02
:10278000613D774068F381E08D83CE010E94A712FE
:1027900080E0DF91CF911F910F91FF90EF90BF905C
:1027A000AF909F908F9008952AEA31E040E050E08A
:1027B00068E0CE010E94281382FF25C0FB868B852E
:1027C000812C912C5401823029F4812C912CA12C44
:1027D00080E4B82E20E030E0A90167E3CE010E943A
:1027E0002813A501940169E2CE010E9428138A876B
:1027F0008823C1F00E946627601B710B613D774002
:1028000048F388E0C1CF94E0F92E0E94A4128A8791
:10281000FA94F110FACF8A3A11F082E0B5CF82E053
:102820008B87CDCF8B858230C1F420E030E0A901C9
:102830006AE3CE010E942813882311F086E0A4CF1A
:102840000E94A412807C803C11F483E08B870E945C
:10285000A4120E94A4120E94A412CE010E94A712E8
:102860006E2DCE01DF91CF911F910F91FF90EF90D0
:10287000BF90AF909F908F900C94E8120F931F938E
:10288000CF93DF93EC010E9466278B010E94A41274
:102890008A878F3F91F40E946627601B710B6D320F
:1028A0007140A0F38FE08D83CE010E94A71280E0DB
:1028B000DF91CF911F910F9108958E3F11F08DE020
:1028C000F2CF81E0F5CFCF92DF92EF92FF920F939C
:1028D0001F93CF93DF93EC016901C801820F931F0F
:1028E0008130924048F58E81882371F088819981EA
:1028F000AA81BB8184179507A607B70729F48F81A2
:102900009885C816D90670F5488359836A837B83F6
:102910008B85833039F089E0440F551F661F771F80
:102920008A95D1F79A01AB0161E1CE010E9428138B
:10293000882379F083E08D83CE010E94A71280E086
:10294000DF91CF911F910F91FF90EF90DF90CF908B
:102950000895CE010E943E14882371F318861F82C9
:1029600081E08E838F8198858C159D0560F06701CD
:10297000E00EF11EEC14FD0471F00E94A412F601A9
:1029800081936F01F7CF0E94A4128F8198850196E1
:1029900098878F83E7CF8F819885080F191F188735
:1029A0000F838985882319F00115124018F0CE0194
:1029B0000E94CE1281E0C4CFEF92FF920F931F933B
:1029C0000115110539F00E9463141F910F91FF90BA
:1029D000EF90089581E0F9CFEF92FF920F931F934C
:1029E000790100E012E030E020E00E9463141F91C2
:1029F0000F91FF90EF900895EF92FF920F931F9326
:102A0000CF93DF938C01862F7A010E949D12E701FC
:102A10008EEFF81A89910E949D12CE15DF05D1F72D
:102A20008FEF0E949D128FEF0E949D120E94A412B0
:102A3000F80182878F71853069F081E18583C80153
:102A40000E94A71280E0DF91CF911F910F91FF901C
:102A5000EF90089581E0F7CF0F931F93CF93DF930B
:102A6000EC01890182E1411551056105710599F07B
:102A70008B85833039F089E0440F551F661F771F1F
:102A80008A95D1F79A01AB0168E1CE010E94281323
:102A9000882339F084E08D83CE010E94A71280E064
:102AA00023C0A8016EEFCE010E94FC148823A1F37D
:102AB00068E572E0CE010E940D13811102C085E12C
:102AC000EACF20E030E0A9016DE0CE010E9428139A
:102AD000882311F084E1DFCF0E94A4128111FACF84
:102AE000CE010E94A71281E0DF91CF911F910F913B
:102AF0000895EDE0F7E080E5808381E0818308952B
:102B00000895CF93DF93EC019C012A5F3F4F41E092
:102B100050E060E070E08B8D9C8D0E94DA1E88236F
:102B2000A1F08F89988DA98DBA8D892B8A2B8B2B3B
:102B300059F48E819F81A885B9858F8B988FA98F35
:102B4000BA8F8C8180688C8381E0DF91CF9108956A
:102B50008F929F92AF92BF92CF92DF92EF92FF92AD
:102B6000CF93DF93EC010E94811581110CC080E0AE
:102B7000DF91CF91FF90EF90DF90CF90BF90AF901B
:102B80009F908F900895EB8DFC8DCE80DF80E88440
:102B9000F98482E0C81AD108E108F108858504C0EB
:102BA000CC0CDD1CEE1CFF1C8A95D2F78685978520
:102BB000A089B189C80ED91EEA1EFB1E8481460178
:102BC0005701880E911CA11CB11C8C149D04AE04ED
:102BD000BF0461F081E0881A9108A108B108C5011D
:102BE000B4010E94281D8111F0CFC1CFEB8DFC8D67
:102BF000258580E092E0A0E0B0E004C0880F991F36
:102C0000AA1FBB1F2A95D2F74B895C896D897E89E3
:102C1000840F951FA61FB71F8B8B9C8BAD8BBE8B14
:102C200081E0A6CFCF93DF93EC01462F6E857F85A1
:102C3000888999890E94ED1C882351F08A8920E2B5
:102C4000829FC0011124885E984FDF91CF91089533
:102C500090E080E0FACFFB019B01255F3F4F40E20F
:102C600041932E173F07E1F7DC0120E037E09D910B
:102C7000492F992319F19E3229F43A3059F028E06E
:102C80003AE0F5CFE6E8F1E08491882329F0319627
:102C90009813FACF80E017C03217A8F05FED590FF4
:102CA0005E3588F48FE9890F8A3110F440EE490FC0
:102CB000FB01E20FF11D40832F5FD9CF81E0FB01C3
:102CC0009081903239F308950F931F93CF93DF9340
:102CD000FC012581222331F080E0DF91CF911F910B
:102CE0000F9108958B01EC01FB018789803139F543
:102CF00082E08D831F8A188E198E1A8E808D918D99
:102D0000B0E0A0E025E0880F991FAA1FBB1F2A95FD
:102D1000D1F78B8B9C8BAD8BBE8B1C8F0B8F81E087
:102D20008C831E821F82188619861A861B861C8633
:102D30001D861E861F86188A198A1A8ACECF80326F
:102D400059F683E08D83428D538D648D758D4F8B45
:102D5000588F698F7A8F9E012D5E3F4FC8010E9468
:102D6000CD1D8111DACFB8CF2F923F924F925F9253
:102D70006F927F928F929F92AF92BF92CF92DF928B
:102D8000EF92FF920F931F93CF93DF93EC015B01C0
:102D90002A018D81811115C08FEF9FEFDF91CF91B7
:102DA0001F910F91FF90EF90DF90CF90BF90AF9069
:102DB0009F908F907F906F905F904F903F902F905B
:102DC00008958C8180FFE8CF0B891C892D893E896D
:102DD0004A855B856C857D85C201B0E0A0E0680115
:102DE0007901C41AD50AE60AF70AC816D906EA060E
:102DF000FB0618F42801441A550A42011E0126E078
:102E0000220E311C8114910409F4B3C04A855B85FC
:102E10006C857D856A0181E0D8228B8D9C8D8A012D
:102E20009B01E9E03695279517950795EA95D1F727
:102E3000ED81E230E1F5FC01628D738D848D958D1D
:102E4000600F711F821F931F612C22E0722E6C187D
:102E50007D088614970408F434012C8126FD04C0F3
:102E60006114F2E07F0671F40091070110910801EE
:102E70002091090130910A01061717072807390721
:102E800009F053C040E00E94ED1C882309F484CF70
:102E9000C601885E984FD5019C01260D371DFC01A7
:102EA0002E173F0709F460C041914D93F9CFFC0103
:102EB00074807A947022C114D10471F471100CC022
:102EC000452B462B472B39F58F89988DA98DBA8DC7
:102ED0008E839F83A887B987EB8DFC8D6E817F8160
:102EE000888599856250710981099109258504C0F9
:102EF000660F771F881F991F2A95D2F706851785B9
:102F000020893189600F711F821F931F670D711D0A
:102F1000811D911D99CF4E815F81688579859101D1
:102F20000E944C1D8111D8CF37CF750183019601C6
:102F3000AB01BC0180911607909117070E94DC1429
:102F4000882309F429CFA60CB71C8A859B85AC85FC
:102F5000BD85860D971DA11DB11D8A879B87AC87F6
:102F6000BD87861897084ECF281B390BA20EB31EBB
:102F7000ECCFC20113CFFF920F931F93CF93DF9338
:102F80001F92CDB7DEB7FC0125812230C8F08C013D
:102F9000428553856485758585E076956795579557
:102FA00047958A95D1F7F42FFF70FF2E41E050E04E
:102FB000BE016F5F7F4FC8010E94B416019719F0E0
:102FC00090E080E012C0F80182859385A485B585E4
:102FD0004F96A11DB11D82879387A487B587F0E224
:102FE000FF9EC0011124885E984F0F90DF91CF9112
:102FF0001F910F91FF9008958F929F92AF92BF9271
:10300000CF92DF92EF92FF920F931F93CF93DF93B4
:10301000EC018D8181110EC080E0DF91CF911F9175
:103020000F91FF90EF90DF90CF90BF90AF909F9067
:103030008F9008950B891C892D893E8904171507E7
:103040002607370748F34A015B01823031F48A864C
:103050009B86AC86BD8681E0E0CF81149104A104FB
:10306000B10449F41E821F82188619861A861B86AF
:103070001C861D86F0CF0A851B852C853D85EB8D32
:10308000FC8D858590E00996B901A8014150510950
:1030900061097109082E04C0769567955795479583
:1030A0000A94D2F775016401E1E0CE1AD108E10873
:1030B000F10804C0F694E794D794C7948A95D2F7A0
:1030C000C416D506E606F70620F0012B022B032BCB
:1030D00011F58F89988DA98DBA8D8E839F83A887CE
:1030E000B9878E010A5F1F4FC114D104E104F104B6
:1030F00009F4ADCF4E815F816885798598018B8D0C
:103100009C8D0E944C1D91E0C91AD108E108F1087C
:103110008111EACF81CFC41AD50AE60AF70AE1CFB6
:103120000F931F93CF93DF93EC018D818823D9F107
:103130008C8187FF32C061E0CE010E9412168C01A3
:10314000892B89F18D81823048F48B899C89AD89E6
:10315000BE89F801848F958FA68FB78F8F89988D40
:10316000F801938F828F8F89988DA98DBA8DB58B39
:10317000A48BE0910F07F0911007309759F0B80138
:103180006A5E7F4FC80148960995F801808D918D40
:10319000938B828B8C818F778C83DF91CF911F9162
:1031A0000F910C94B21C80E0DF91CF911F910F9191
:1031B0000895CF93DF93EC010E949018882311F0BB
:1031C0001D8281E0DF91CF9108954F925F926F92BF
:1031D0007F928F929F92AF92BF92EF92FF920F9346
:1031E0001F93CF93DF9300D000D0CDB7DEB7FC01A3
:1031F00085818130A1F080E00F900F900F900F90AB
:10320000DF91CF911F910F91FF90EF90BF90AF9002
:103210009F908F907F906F905F904F9008958481E2
:1032200081FFE9CF83899489A589B6898417950799
:10323000A607B70700F3892B8A2B8B2B09F477C0DD
:103240004A015B017F014284538464847584CF0109
:103250000E94FC17882379F2F701838D948D8114E5
:103260009104A104B10449F54789508D618D728D97
:103270000E94E51F882309F4BECFF701178A108E3C
:10328000118E128EF701838A948AA58AB68A848168
:1032900080688483C7010E949018882309F4ABCF0B
:1032A000B501A401441655066606770610F4B3016D
:1032B000A201C7010E94FC179FCF468157816085FC
:1032C00071859E012F5F3F4F0E944C1D882309F49A
:1032D00092CFF701838D948D49815A816B817C81D6
:1032E000FC0127892031F1F408EF1FEF20E030E0E6
:1032F000401751076207730728F60E94E51F8823CD
:1033000009F479CFF70146815781608571850FEF08
:103310001FEF2FEF3FE0838D948D0E94381E8111A7
:10332000B1CF69CF08EF1FEF2FEF3FE0E1CF81E092
:1033300063CFCF92DF92EF92FF921F93CF93DF93F1
:10334000EC0180E2689FF0011124E85EF84F93855C
:10335000917161F0842F827449F080E0DF91CF9108
:103360001F91FF90EF90DF90CF900895142F6A8BFC
:103370008091070190910801A0910901B0910A0183
:103380008E879F87A88BB98BC488D588F12CE12CB8
:103390007601DD24CC24CF8AD88EE98EFA8E828DF8
:1033A000938DB0E0A0E0AC01BD014C295D296E29F0
:1033B0007F294F8B588F698F7A8F8385887129F584
:1033C000848D958DA68DB78D8B8B9C8BAD8BBE8B95
:1033D00081E08D83812F8F708C831E821F821886DF
:1033E00019861A861B861C861D8681E016FFB6CFBD
:1033F00040E050E0BA01CE01DF91CF911F91FF90E4
:10340000EF90DF90CF900C94E518803109F0A5CFB4
:103410009E012D5E3F4F8B8D9C8D0E94CD1D88237C
:1034200009F49BCF84E0D5CFBF92CF92DF92EF9289
:10343000FF920F931F93CF93DF93CDB7DEB72B97F8
:103440000FB6F894DEBF0FBECDBFFC013581311140
:103450000BC0C22E8B017C01BE016F5F7F4FCA0182
:103460000E942B16811102C080E0A1C0F801838D5B
:10347000948DF701948F838FF8011682178210863E
:1034800011861286138614861586B12CF801828562
:103490009385A485B5854389548965897689841780
:1034A0009507A607B70788F525E0B695A7959795E0
:1034B00087952A95D1F7F82FFF70DF2EC8010E945B
:1034C000BB17009789F2FC012081222341F0253EA1
:1034D00009F059C0BB2029F0BB24B394D7CFB11059
:1034E0000EC0F701D28A4091070150910801609106
:1034F000090170910A0146875787608B718BFC0127
:1035000080818111E9CFBB24B3948C2D82718231EB
:1035100009F0AACFBB2009F45AC061E0C7010E949C
:1035200012168C01892B09F49FCF80E2F8011192C9
:103530008A95E9F78BE0FE013196D80101900D9252
:103540008A95E1F7E0910F07F0911007309709F4A1
:103550004EC0B801625F7F4FC80140960995F801DF
:1035600080899189938B828B918F808F86859785B7
:10357000978B868B0E94B21C882309F475CF4C2D43
:10358000F701628911C04BE050E0BC01CE01019609
:103590000E94AA2C892B09F079CF8C2D80734C2D99
:1035A0006D2D803309F460CFC7010E9499192B96C5
:1035B0000FB6F894DEBF0FBECDBFDF91CF911F9144
:1035C0000F91FF90EF90DF90CF90BF900895F8019A
:1035D0008581823009F448CFC8010E94A81588234C
:1035E00009F442CFF701128A08E117E09ECF81E289
:1035F00098E2F801918B808B80E098E0978786872E
:10360000AECF2F923F924F925F926F927F928F92A6
:103610009F92AF92BF92CF92DF92EF92FF920F9361
:103620001F93CF93DF9300D000D0CDB7DEB78C01CE
:103630006B011A01DC0115968C911597813009F008
:10364000C8C014968C9181FFC4C082FDAEC04101F8
:10365000D8011A964D915D916D917C911D978114C1
:10366000910409F429C15B968D919C915C97FC01B2
:1036700074802FEF270D2A013B0139E0769467947F
:10368000579447943A95D1F7722E74207A01F1E05D
:10369000FF22711020C0E114F104E9F416964D9157
:1036A0005D916D917C9119974115510561057105E9
:1036B00009F098C057968D919D910D90BC91A02DC9
:1036C0000097A105B10509F0AFC0C8010E9481159E
:1036D000882309F47EC080E092E08E199F0954018E
:1036E0008815990508F45C01D8015B964D915C91B1
:1036F0005C9716968D919D910D90BC91A02D02978F
:10370000A109B109FA01258504C0880F991FAA1FD4
:10371000BB1F2A95D2F74685578560897189840F2A
:10372000951FA61FB71F9C01AD01270D311D411D1F
:10373000511D29013A01A11432E0B30609F07AC003
:103740008091070190910801A0910901B0910A01AF
:1037500084159505A605B70559F48FEF9FEFDC0199
:103760008093070190930801A0930901B0930A0187
:103770009601B301A20180911607909117070E944C
:103780002C15882331F19EEFD91A8A189B08F8016D
:1037900082859385A485B5858A0D9B1DA11DB11DCC
:1037A00082879387A487B58753CFF80143895489CB
:1037B0006589768982859385A485B58548175907DB
:1037C0006A077B0709F443CFC8010E94FC178111E7
:1037D0003ECF81E090E0D80113969C938E93129790
:1037E00080E007C09E012F5F3F4F0E944C1D81115A
:1037F00002C090E07BC089819A81AB81BC81F801D5
:10380000238D348DF901278948EF5FEF60E070E088
:10381000203121F048EF5FEF6FEF7FE084179507CD
:10382000A607B70708F051CFF80186839783A087D2
:10383000B18751CFE114F10491F5D8011A964D9159
:103840005D916D917C911D9753968D919D910D90F9
:10385000BC91A02D481759076A077B0700F10E9409
:10386000B21C882309F4B5CF409207015092080199
:103870006092090170920A0180911507816080931E
:1038800015079701285E384FD601C9018A0D9B1D87
:10389000F9018E179F0759F04D914193FACF41E0FE
:1038A000C301B2010E94ED1C8111EBCF92CF821BAC
:1038B000930BC80ED91E69CF14968C91149753960A
:1038C000CD90DD90ED90FC905697C416D506E60697
:1038D000F70618F5F801438B548B658B768B80685F
:1038E0008483F801848183FD25C0C1010F900F906E
:1038F0000F900F90DF91CF911F910F91FF90EF905C
:10390000DF90CF90BF90AF909F908F907F906F90FF
:103910005F904F903F902F90089520910F07309126
:103920001007232BF1F221143104D9F28068149688
:103930008C93D7CFC8010E949018882309F449CFEF
:10394000D4CFCF93DF931F92CDB7DEB7698341E029
:1039500050E0BE016F5F7F4F0E94011B0F90DF910F
:10396000CF910895809115078823A9F1409107010F
:10397000509108016091090170910A0128E137E036
:1039800080911607909117070E942C15811102C093
:1039900080E008954091110750911207609113073C
:1039A00070911407411551056105710591F028E1E9
:1039B00037E080911607909117070E942C158823F5
:1039C00039F31092110710921207109213071092F8
:1039D00014071092150781E00895CF92DF92EF92BD
:1039E000FF92CF936B017C01C42F809107019091CE
:1039F0000801A0910901B0910A018C159D05AE0541
:103A0000BF05F9F00E94B21C811107C080E0CF9180
:103A1000FF90EF90DF90CF90089528E137E0B70155
:103A2000A60180911607909117070E94EC14882335
:103A300069F3C0920701D0920801E0920901F09267
:103A40000A01409115074C2B4093150781E0DFCF09
:103A5000CF92DF92EF92FF926B017C010E94B21C29
:103A60008823A9F0E8E1F7E0119289E0E831F8074E
:103A7000D9F7C0920701D0920801E0920901F092B3
:103A80000A018091150781608093150781E0FF90FE
:103A9000EF90DF90CF9008958F929F92AF92BF9258
:103AA000CF92DF92EF92FF920F931F93CF93DF930A
:103AB000FC0181859285A385B4850196A11DB11D68
:103AC00084179507A607B70770F480E0DF91CF91C0
:103AD0001F910F91FF90EF90DF90CF90BF90AF902C
:103AE0009F908F90089583889488A588B688878949
:103AF000803189F5BB27A72F962F852FE9016A0111
:103B00007B018F01BC01CD01680D791D8A1D9B1DB4
:103B10008090070190900801A0900901B0900A01DF
:103B200086169706A806B90601F5F801878980313F
:103B300011F5DD24EE24FF24F601EE0FFF1FE85EF1
:103B4000F84F80819181B0E0A0E088839983AA83B7
:103B5000BB8381E0BBCFDB01CA01C7E0B695A79567
:103B600097958795CA95D1F7C9CF40E00E94ED1C83
:103B70008111DBCFAACFE894C7F8DD24EE24FF241F
:103B8000F601EE0FFF1FEE0FFF1FE85EF84F80817A
:103B90009181A281B381BF70D8CF4F925F926F9213
:103BA0007F92AF92BF92CF92DF92EF92FF920F93EC
:103BB0001F93CF93DF9300D000D0CDB7DEB78C0139
:103BC00049835A836B837C835901C12CD12C7601A4
:103BD000412C82E0582E612C712C49815A816B81D5
:103BE0007C819E012F5F3F4FC8010E944C1D88239E
:103BF00039F1F8018585A301920104C0220F331F1A
:103C0000441F551F8A95D2F7DA01C901C80ED91E83
:103C1000EA1EFB1E49815A816B817C818789803134
:103C200011F188EF9FEFAFEFBFE0481759076A0720
:103C30007B0798F2F501C082D182E282F38281E0B3
:103C40000F900F900F900F90DF91CF911F910F91D8
:103C5000FF90EF90DF90CF90BF90AF907F906F90EC
:103C60005F904F90089588EF9FEFA0E0B0E0DDCF28
:103C70004F925F926F927F928F929F92AF92BF927C
:103C8000CF92DF92EF92FF920F931F93CF93DF9328
:103C9000EC01423051056105710590F480E0DF913F
:103CA000CF911F910F91FF90EF90DF90CF90BF9039
:103CB000AF909F908F907F906F905F904F900895FE
:103CC00089859A85AB85BC850196A11DB11D841798
:103CD0009507A607B70710F3CB88DC88ED88FE8828
:103CE0008F89803109F042C0BB27A72F962F852FDF
:103CF000480159012A013B01C80ED91EEA1EFB1ECC
:103D00008091070190910801A0910901B0910A01E9
:103D1000C816D906EA06FB0699F58F898031C1F5E8
:103D2000B301A201552766277727440F551F485E28
:103D3000584FFA01918280828091150781608093AB
:103D400015078A89823080F08D819E81AF81B88588
:103D50008C0D9D1DAE1DBF1D809311079093120702
:103D6000A0931307B093140781E099CFDB01CA0138
:103D7000E7E0B695A79597958795EA95D1F7B8CFDF
:103D800040E0C701B6010E94ED1C8111C6CF86CF6D
:103D9000B301A2014F77552766277727440F551F98
:103DA000440F551F485E584FFA0180829182A282CB
:103DB000B382C2CF2F923F924F925F926F927F92C7
:103DC0008F929F92AF92BF92CF92DF92EF92FF922B
:103DD0000F931F93CF93DF93CDB7DEB72F970FB617
:103DE000F894DEBF0FBECDBF3C01488759876A8774
:103DF0007B873F832E83D901CD90DD90ED90FC90A1
:103E0000C114D104E104F10439F0BFEFCB1ADB0A8D
:103E1000EB0AFB0A1D8210C0FC01C080D180E28049
:103E2000F380F1E0FD83088519852A853B85013003
:103E300011052105310571F7F30181859285A3856F
:103E4000B4858C019D010F5F1F4F2F4F3F4F0C8793
:103E50001D872E873F8746015701212C312C2101D8
:103E6000F30181859285A385B485281639064A0613
:103E70005B0608F044C00C851D852E853F8508151E
:103E800019052A053B0550F482E0882E912CA12CBF
:103E9000B12C92E0C92ED12CE12CF12C9E012F5F88
:103EA0003F4FB501A401C3010E944C1D882339F185
:103EB000D501C4010196A11DB11D49815A816B81B3
:103EC0007C81452B462B472BA9F5AC01BD014C1934
:103ED0005D096E097F09088519852A853B8540178C
:103EE00051076207730741F50FEF1FEF2FEF3FE018
:103EF000B501A401C3010E94381E811125C01D8295
:103F00008D812F960FB6F894DEBF0FBECDBFDF9127
:103F1000CF911F910F91FF90EF90DF90CF90BF90C6
:103F2000AF909F908F907F906F905F904F903F9059
:103F30002F9008956C017D011FEF211A310A410A6B
:103F4000510A4C015D018CCFC814D904EA04FB046A
:103F500088F41401250121E0221A31084108510892
:103F600095018401B201A101C3010E94381E5201D2
:103F70004101C3CFAE81BF814D915D916D917C9127
:103F8000411551056105710561F4EE81FF81C08223
:103F9000D182E282F382FD81F1110BC001E00D8339
:103FA000AFCF97018601C3010E94381E8111EDCF6A
:103FB000A6CF1FEFC11AD10AE10AF10AD301CD92AF
:103FC000DD92ED92FC9213979BCFAF92BF92CF926E
:103FD000DF92EF92FF920F931F93CF93DF9300D066
:103FE00000D0CDB7DEB75C016A017B0182E090E0D2
:103FF000A0E0B0E0F50180839183A283B3839E01AA
:104000002F5F3F4FB701A601C5010E944C1D8823B9
:1040100081F100E010E09801B701A601C5010E94FE
:10402000381E882331F1C980DA80EB80FC80F501ED
:1040300087898031C9F088EF9FEFAFEFBFE0C816E6
:10404000D906EA06FB06D8F281E00F900F900F9098
:104050000F90DF91CF911F910F91FF90EF90DF9024
:10406000CF90BF90AF90089588EF9FEFA0E0B0E0B1
:10407000E6CF80E0EACF8F929F92AF92BF92CF922D
:10408000DF92EF92FF920F931F93CF93DF93EC0198
:10409000142F7093170760931607442309F478C010
:1040A000453070F080E0DF91CF911F910F91FF902C
:1040B000EF90DF90CF90BF90AF909F908F9008953A
:1040C00040E060E070E0CB010E94ED1C882351F3DA
:1040D000812F8150990BAC0164E0440F551F6A9504
:1040E000E1F7485E584FFA01E254FE4F80818F7726
:1040F000C9F63C9680819181A281B3818436910575
:10410000A105B10578F24A535E4FFA01C080D18013
:10411000E280F380C114D104E104F10419F240E01B
:10412000C701B6010E94ED1C882309F4BBCF809122
:104130002307909124078115924009F0B3CF909105
:104140002807992309F4AECF20912607309127073D
:10415000232B09F4A7CF80912507882309F4A2CF48
:104160009A8B8C831D8690E041E050E02D85E22FF4
:10417000BA01022E02C0660F771F0A94E2F7861773
:10418000970751F031E0320F3D87283078F38ACF1E
:10419000C12CD12C7601C3CF20912E0730912F074F
:1041A00050E040E02115310541F420913C07309169
:1041B0003D0740913E0750913F072D833E834F833B
:1041C0005887809126079091270746015701880E4E
:1041D000991EA11CB11C8B8A9C8AAD8ABE8A009153
:1041E000290710912A07198F088FA0912807B0E09E
:1041F0000E946C2ADC01CB01880D991DAA1DBB1DF4
:104200008A8F9B8FAC8FBD8F25E0000F111F2A95E1
:10421000E1F701501E4F012F11270695800F911FC6
:10422000A11DB11D8E879F87A88BB98B00912B078D
:1042300010912C0730E020E00115110541F40091A8
:1042400038071091390720913A0730913B07C81A77
:10425000D90AEA0AFB0AC00ED11EE21EF31E04C0F0
:10426000F694E794D794C794EA95D2F7C986DA868C
:10427000EB86FC868CE025EFC2162FE0D206E10427
:10428000F10440F085EFC8168FEFD806E104F10481
:1042900020F480E18F8B81E006CF809144079091DC
:1042A0004507A0914607B09147078A8F9B8FAC8F37
:1042B000BD8F80E2EFCFCF93CFB7F89480911B09E9
:1042C000811127C0EAEDF1E08491EAEBF1E09491ED
:1042D000E82FF0E0EE0FFF1FE65FFD4FA591B491D0
:1042E000EC91E92321F461E084E00E94812861E0FF
:1042F00084E00E9445288CB580618CBD8CB58064BB
:104300008CBD61E087E00E94452861E085E00E9465
:10431000452880911B098F5F80931B09CFBFCF91E8
:104320000895FC01918D228D892F90E0805C9F4F34
:10433000821B91098F7399270895FC01918D828DBD
:10434000981731F0828DE80FF11D858D90E008956A
:104350008FEF9FEF0895FC01918D828D981761F08A
:10436000A28DAE0FBF2FB11D5D968C91928D9F5F78
:104370009F73928F90E008958FEF9FEF0895FC0157
:10438000538D448D252F30E0842F90E0821B930BBA
:10439000541710F0CF960895019708958AE293E29A
:1043A000892B49F080E090E0892B29F00E942A2394
:1043B00081110E94000081EC93E2892B49F080E09A
:1043C00090E0892B29F00E94C12381110C940000F8
:1043D0000895FC01A48DA80FB92FB11DA35ABF4F9A
:1043E0002C91848D90E001968F739927848FA689F4
:1043F000B7892C93A089B1898C91837080648C9348
:10440000938D848D981306C00288F389E02D8081F6
:104410008F7D80830895CF93DF93EC01888D88236F
:10442000B9F0AA89BB89E889F9898C9185FD03C017
:10443000808186FD0DC00FB607FCF7CF8C9185FFFC
:10444000F2CF808185FFEDCFCE010E94E921E9CF37
:10445000DF91CF910895EF92FF920F931F93CF9327
:10446000DF93EC0181E0888F9B8D8C8D98131AC0AF
:10447000E889F989808185FF15C09FB7F894EE8996
:10448000FF896083E889F9898081837080648083F3
:104490009FBF81E090E0DF91CF911F910F91FF903E
:1044A000EF900895F62E0B8D10E00F5F1F4F0F73E6
:1044B0001127E02E8C8D8E110CC00FB607FCFACFA1
:1044C000E889F989808185FFF5CFCE010E94E92135
:1044D000F1CFEB8DEC0FFD2FF11DE35AFF4FF08272
:1044E0009FB7F8940B8FEA89FB8980818062CFCFD8
:1044F000CF92DF92EF92FF921F93CF93DF93EC0165
:104500006A017B01122F60E874E88EE190E0A70158
:1045100096010E94412A21503109410951095695BD
:10452000479537952795E889F98982E08083211599
:1045300080E1380798F0E889F989108260E472E434
:104540008FE090E0A70196010E94412A2150310995
:10455000410951095695479537952795EC85FD8575
:104560003083EE85FF852083188EEC89FD891083CA
:10457000EA89FB89808188698083EA89FB89808157
:104580008F7D8083DF91CF911F91FF90EF90DF901F
:10459000CF9008951F920F920FB60F9211240BB671
:1045A0000F922F938F939F93EF93FF93E0912C099A
:1045B000F0912D098081E0913209F091330982FD5B
:1045C0001DC09081809135098F5F8F7320913609CE
:1045D000821741F0E0913509F0E0E45EF64F958FE7
:1045E00080933509FF91EF919F918F912F910F90BB
:1045F0000BBE0F900FBE0F901F9018958081F2CFC9
:104600001F920F920FB60F9211240BB60F922F9399
:104610003F934F935F936F937F938F939F93AF934A
:10462000BF93EF93FF938CE199E00E94E921FF9102
:10463000EF91BF91AF919F918F917F916F915F911A
:104640004F913F912F910F900BBE0F900FBE0F9087
:104650001F9018958CE199E00E94912121E0892B0F
:1046600009F420E0822F0895ECE1F9E01382128230
:1046700088EE93E0A0E0B0E084839583A683B783BF
:1046800083EF91E09183808385EC90E09587848728
:1046900084EC90E09787868780EC90E0918B808B0C
:1046A00081EC90E0938B828B82EC90E0958B848BF5
:1046B00086EC90E0978B868B118E128E138E148E63
:1046C00008951F920F920FB60F9211240BB60F92FE
:1046D0002F938F939F93EF93FF93E091C909F091EC
:1046E000CA098081E091CF09F091D00982FD1DC0F7
:1046F00090818091D2098F5F8F732091D3098217A7
:1047000041F0E091D209F0E0E754F64F958F8093A5
:10471000D209FF91EF919F918F912F910F900BBE36
:104720000F900FBE0F901F9018958081F2CF1F92AF
:104730000F920FB60F9211240BB60F922F933F9347
:104740004F935F936F937F938F939F93AF93BF9399
:10475000EF93FF9389EB99E00E94E921FF91EF919C
:10476000BF91AF919F918F917F916F915F914F9189
:104770003F912F910F900BBE0F900FBE0F901F9087
:10478000189589EB99E00E94912121E0892B09F489
:1047900020E0822F0895E9EBF9E01382128288EE7F
:1047A00093E0A0E0B0E084839583A683B78383EF92
:1047B00091E0918380838DEC90E0958784878CECE9
:1047C00090E09787868788EC90E0918B808B89ECCE
:1047D00090E0938B828B8AEC90E0958B848B8EECAF
:1047E00090E0978B868B118E128E138E148E089507
:1047F000AF92BF92CF92DF92EF92FF920F931F93EF
:10480000CF93DF936C017B018B01040F151FEB012C
:104810005E01AE18BF08C017D10759F06991D601E3
:10482000ED91FC910190F081E02DC6010995892B55
:1048300079F7C501DF91CF911F910F91FF90EF9014
:10484000DF90CF90BF90AF900895FB0101900020C2
:10485000E9F73197AF01461B570BDC01ED91FC9155
:104860000280F381E02D0994DB0114964D915C9157
:1048700015976D917C91DC01ED91FC910280F381A3
:10488000E02D09946115710511F00C94252490E038
:1048900080E00895DC01ED91FC910190F081E02D24
:1048A000099461E072E00C9425240F931F93CF9339
:1048B000DF93EC010E9434248C01CE010E9451242C
:1048C000800F911FDF91CF911F910F9108950F934A
:1048D0001F93CF93DF938C01D0E0C0E06115710589
:1048E00019F00E942524EC01C8010E9451248C0F6C
:1048F0009D1FDF91CF911F910F9108958F929F92ED
:10490000AF92BF92EF92FF920F931F93CF93DF93DB
:10491000CDB7DEB7A1970FB6F894DEBF0FBECDBFFF
:104920007C01FA01CB0119A2223008F42AE08E01A1
:104930000F5D1F4F822E912CB12CA12CBF01A50120
:1049400094010E94412AF901CA016A300CF5605DA8
:10495000D8016E938D01232B242B252B79F790E022
:1049600080E0109721F0BD01C7010E942524A19687
:104970000FB6F894DEBF0FBECDBFDF91CF911F9170
:104980000F91FF90EF90BF90AF909F908F90089500
:10499000695CDECF2115310541F4DC01ED91FC911C
:1049A0000190F081E02D642F09940C947E240F93E4
:1049B0001F93CF93DF93EC010E94CA248C01CE0198
:1049C0000E945124800F911FDF91CF911F910F9171
:1049D0000895FC0180819181009711F00C94402B87
:1049E0000895CF93DF93EC0188819981009711F0AE
:1049F0000E94402B198218821D821C821B821A82FF
:104A0000DF91CF9108950F931F93CF93DF93EC0124
:104A10008B016F5F7F4F888199810E94C92B00971E
:104A200051F0998388831B830A8381E0DF91CF91C2
:104A30001F910F91089580E0F9CFCF93DF93EC01A0
:104A400088819981892B49F08A819B8186179707F4
:104A500020F081E0DF91CF910895CE010E940325DF
:104A60008823C1F38C819D81892B99F7E881F98195
:104A70001082EFCFEF92FF920F931F93CF93DF93AC
:104A8000EC017B018A01BA010E941D2581110BC036
:104A9000CE010E94F124CE01DF91CF911F910F91A1
:104AA000FF90EF9008951D830C83B7018881998151
:104AB0000E94CB2CF0CFFC01118210821382128253
:104AC000158214826115710551F0FB0101900020DF
:104AD000E9F73197AF01461B570B0C943A2508951F
:104AE000FB0101900020E9F73197AF01461B570BFE
:104AF0000C943A250F931F93CF93DF93CDB7DEB776
:104B000029970FB6F894DEBF0FBECDBF8C01862F5C
:104B1000F80111821082138212821582148250E0F1
:104B2000BE016F5F7F4F90E00E94242DBE016F5F3A
:104B30007F4FC8010E94702529960FB6F894DEBFFA
:104B40000FBECDBFDF91CF911F910F9108950F93AD
:104B50001F93CF93DF93CDB7DEB762970FB6F8946C
:104B6000DEBF0FBECDBF8C01CB01F80111821082D8
:104B7000138212821582148250E0BE016F5F7F4F54
:104B80000E94E12CBE016F5F7F4FC8010E9470251B
:104B900062960FB6F894DEBF0FBECDBFDF91CF9106
:104BA0001F910F9108950F931F93CF93DF93CDB76C
:104BB000DEB761970FB6F894DEBF0FBECDBF8C0194
:104BC000CB01F801118210821382128215821482A5
:104BD00050E0BE016F5F7F4F0E94242DBE016F5FCA
:104BE0007F4FC8010E94702561960FB6F894DEBF12
:104BF0000FBECDBFDF91CF911F910F9108950F93FD
:104C00001F93CF93DF93CDB7DEB7A1970FB6F8947C
:104C1000DEBF0FBECDBF8C01CB01BA01F8011182FE
:104C20001082138212821582148230E0AE014F5F2F
:104C30005F4F0E94F72CBE016F5F7F4FC8010E943B
:104C40007025A1960FB6F894DEBF0FBECDBFDF91E1
:104C5000CF911F910F910895CF93DF93EC01FB014A
:104C60008617970749F0608171816115710541F0E0
:104C7000448155810E943A25CE01DF91CF9108955C
:104C80000E94F124F9CFFC0111821082138212825A
:104C9000158214820C942C26CF93DF93EC016115BE
:104CA000710531F00E947025CE01DF91CF910895FA
:104CB0000E94F124F9CFEF92FF920F931F93CF93AD
:104CC000DF93CDB7DEB7A1970FB6F894DEBF0FBE66
:104CD000CDBF7C01CB01BA01F70111821082138292
:104CE00012821582148242E0420F8E010F5F1F4F25
:104CF0000E94862ABC01C7010E944C26A1960FB6CD
:104D0000F894DEBF0FBECDBFDF91CF911F910F9101
:104D1000FF90EF900895EF92FF920F931F93CF9320
:104D2000DF936115710541F480E0DF91CF911F9110
:104D30000F91FF90EF90089541155105B1F07B015F
:104D4000EC010C811D81040F151FB8010E941D2567
:104D5000882351F3288139818C819D81B701820F8D
:104D6000931F0E94CB2C1D830C8381E0DECFFB01BF
:104D700044815581608171810C948B266115710588
:104D800051F0FB0101900020E9F73197AF01461B7C
:104D9000570B0C948B2680E00895CF93DF93EC01A2
:104DA000FB0144815581608171810E948B268111B4
:104DB00003C0CE010E94F124CE01DF91CF9108956E
:104DC000CF93DF93EC016115710539F4CE010E9498
:104DD000F124CE01DF91CF910895FB0101900020D5
:104DE000E9F73197AF01461B570B0E948B268823AA
:104DF00069F3EFCFFC01248135816217730720F43A
:104E000080819181009729F41092560A86E59AE0F4
:104E10000895860F971F089508950E94DB270E942A
:104E20000C270E947F05CEECD1E20E947F0A2097DA
:104E3000E1F30E94CE21F9CF1F920F920FB60F928D
:104E400011242F933F938F939F93AF93BF938091A0
:104E50005C0A90915D0AA0915E0AB0915F0A309160
:104E60005B0A26E0230F2D3768F129E8230F03960C
:104E7000A11DB11D20935B0A80935C0A90935D0A8B
:104E8000A0935E0AB0935F0A8091570A9091580AE6
:104E9000A091590AB0915A0A0196A11DB11D8093A3
:104EA000570A9093580AA093590AB0935A0ABF918F
:104EB000AF919F918F913F912F910F900FBE0F90C7
:104EC0001F9018950296A11DB11DD4CF2FB7F8944D
:104ED00060915C0A70915D0A80915E0A90915F0A10
:104EE0002FBF08953FB7F8948091570A9091580AC0
:104EF000A091590AB0915A0A26B5A89B05C02F3F28
:104F000019F00196A11DB11D3FBFBA2FA92F982FEF
:104F10008827BC01CD01620F711D811D911D43E0E9
:104F2000660F771F881F991F4A95D1F708958F92B2
:104F30009F92AF92BF92CF92DF92EF92FF926B015E
:104F40007C010E9472274B015C01C114D104E10471
:104F5000F104E9F00E94D8280E94722768197909A3
:104F60008A099B09683E73408105910570F321E031
:104F7000C21AD108E108F10888EE880E83E0981E75
:104F8000A11CB11CC114D104E104F10429F7FF9064
:104F9000EF90DF90CF90BF90AF909F908F9008954B
:104FA000000000008330910528F0880F991F0597B5
:104FB0000197F1F70895789484B5836084BD85B531
:104FC000836085BDEEE6F0E0808181608083E1E86A
:104FD000F0E082E08083808181608083E0E8F0E01F
:104FE000808181608083E1EBF0E080818460808358
:104FF000E0EBF0E0808181608083E1E9F0E0808196
:1050000083608083E0E9F0E080818160808386E8CE
:1050100080937A001092C100089582508A3088F5FA
:10502000E82FF0E0EA5EF74D0C94632A3E28422810
:1050300020282628412841282A28302834283A28A0
:10504000809180008F778093800008958091800008
:105050008F7DF9CF8091B0008F778093B000089555
:105060008091B0008F7DF9CF809190008F778093F1
:1050700090000895809190008F7DF9CF84B58F774F
:1050800084BD089584B58F7DFBCFCF93DF9390E0EF
:10509000FC01EA54FE4F24918A529E4FFC018491F8
:1050A0008823C9F090E0880F991FFC01E65FFD4F4F
:1050B000A591B491FC01E050FE4FC591D4916111CE
:1050C0000DC09FB7F8948C91209582238C93888192
:1050D000282328839FBFDF91CF910895623051F438
:1050E0009FB7F8943C91822F809583238C93E8811D
:1050F0002E2BEFCF8FB7F894EC912E2B2C938FBFE4
:10510000EACF1F93CF93DF93282F30E0F901EA56BF
:10511000FE4F8491F901EA54FE4FD491F901EA520D
:10512000FE4FC491CC23A9F0162F81110E940D28A7
:10513000EC2FF0E0EE0FFF1FE050FE4FA591B49171
:105140008FB7F894EC91111108C0D095DE23DC9351
:105150008FBFDF91CF911F910895DE2BF8CFCF93B2
:10516000DF93282F30E0F901EA56FE4F8491F901D0
:10517000EA54FE4FD491F901EA52FE4FC491CC2378
:10518000A1F081110E940D28EC2FF0E0EE0FFF1F1F
:10519000EA50FE4FA591B491EC91ED2381E090E0AF
:1051A00009F480E0DF91CF91089580E090E0FACF9C
:1051B00008955058BB27AA270E94F1280C949A29D9
:1051C0000E948C2938F00E94932920F039F49F3FE7
:1051D00019F426F40C9489290EF4E095E7FB0C945D
:1051E0008329E92F0E94AB2958F3BA176207730786
:1051F0008407950720F079F4A6F50C94CD290EF4D8
:10520000E0950B2EBA2FA02D0B01B90190010C01D6
:10521000CA01A0011124FF27591B99F0593F50F4EE
:10522000503E68F11A16F040A22F232F342F442746
:10523000585FF3CF469537952795A795F04053953E
:10524000C9F77EF41F16BA0B620B730B840BBAF00E
:105250009150A1F0FF0FBB1F661F771F881FC2F779
:105260000EC0BA0F621F731F841F48F4879577958D
:105270006795B795F7959E3F08F0B0CF9395880F47
:1052800008F09927EE0F979587950895E89409C03F
:1052900097FB3EF490958095709561957F4F8F4F69
:1052A0009F4F9923A9F0F92F96E9BB279395F6957F
:1052B000879577956795B795F111F8CFFAF4BB0FFD
:1052C00011F460FF1BC06F5F7F4F8F4F9F4F16C061
:1052D000882311F096E911C0772321F09EE8872FEB
:1052E000762F05C0662371F096E8862F70E060E0A7
:1052F0002AF09A95660F771F881FDAF7880F969520
:10530000879597F9089597F99F6780E870E060E0C6
:1053100008959FEF80EC089500240A94161617064E
:1053200018060906089500240A9412161306140696
:1053300005060895092E0394000C11F4882352F0F9
:10534000BB0F40F4BF2B11F460FF04C06F5F7F4FB1
:105350008F4F9F4F089557FD9058440F551F59F098
:105360005F3F71F04795880F97FB991F61F09F3F52
:1053700079F087950895121613061406551FF2CF7B
:105380004695F1DF08C0161617061806991FF1CFCB
:1053900086957105610508940895E894BB276627F2
:1053A0007727CB0197F908950E94E7290C949A2951
:1053B0000E948C2938F00E94932920F0952311F047
:1053C0000C9483290C94892911240C94CE290E94D1
:1053D000AB2970F3959FC1F3950F50E0551F629F65
:1053E000F001729FBB27F00DB11D639FAA27F00D3E
:1053F000B11DAA1F649F6627B00DA11D661F829F65
:105400002227B00DA11D621F739FB00DA11D621F49
:10541000839FA00D611D221F749F3327A00D611D66
:10542000231F849F600D211D822F762F6A2F112448
:105430009F5750409AF0F1F088234AF0EE0FFF1F7B
:10544000BB1F661F771F881F91505040A9F79E3FD2
:10545000510580F00C9483290C94CE295F3FE4F32E
:10546000983ED4F3869577956795B795F795E79528
:105470009F5FC1F7FE2B880F911D9695879597F931
:105480000895A1E21A2EAA1BBB1BFD010DC0AA1F85
:10549000BB1FEE1FFF1FA217B307E407F50720F09D
:1054A000A21BB30BE40BF50B661F771F881F991F18
:1054B0001A9469F760957095809590959B01AC0161
:1054C000BD01CF010895EE0FFF1F0024001C0BBE8D
:1054D0000790F691E02D09940E94772AA59F900DE0
:1054E000B49F900DA49F800D911D11240895A29F3B
:1054F000B001B39FC001A39F700D811D1124911DA8
:10550000B29F700D811D1124911D0895EF920F938C
:105510001F93CF93DF93E80134E047FD34E1042E7D
:10552000000C550B57FF03C0519541955109E32ECF
:10553000022F242FAE010E94492DCE01DF91CF9181
:105540001F910F91EF9008950F931F93CF93DF93C7
:105550008230910510F482E090E0E091620AF091CF
:10556000630A30E020E0B0E0A0E0309799F4211524
:10557000310509F44AC0281B390B24303105D8F510
:105580008A819B816115710589F1FB019383828377
:10559000FE0111C0408151810281138148175907D2
:1055A000E0F04817590799F4109761F012960C93A0
:1055B000129713961C933296CF01DF91CF911F91D2
:1055C0000F9108950093620A1093630AF4CF211596
:1055D000310551F04217530738F0A901DB019A0158
:1055E000BD01DF01F801C1CFEF01F9CF9093630A4C
:1055F0008093620ACDCFFE01E20FF31F8193919356
:105600002250310939832883D7CF2091600A309105
:10561000610A232B41F42091020130910301309360
:10562000610A2093600A2091000130910101211547
:10563000310541F42DB73EB7409104015091050169
:10564000241B350BE091600AF091610AE217F30721
:10565000A0F42E1B3F0B2817390778F0AC014E5FE2
:105660005F4F2417350748F04E0F5F1F5093610AB4
:105670004093600A819391939FCFF0E0E0E09CCF4C
:10568000CF93DF930097E9F0FC01329713821282E7
:10569000A091620AB091630AED0130E020E010971A
:1056A000A1F420813181820F931F2091600A3091F3
:1056B000610A2817390709F061C0F093610AE09385
:1056C000600ADF91CF910895EA01CE17DF07E8F570
:1056D0004A815B819E0141155105B1F7E901FB83C8
:1056E000EA8349915991C40FD51FEC17FD0761F466
:1056F000808191810296840F951FE90199838883A7
:10570000828193819B838A83F0E0E0E012968D9101
:105710009C9113970097B9F52D913C911197CD016C
:105720000296820F931F2091600A3091610A281718
:10573000390739F6309751F51092630A1092620AD0
:10574000B093610AA093600ABCCFD383C283408127
:105750005181840F951FC817D90761F44E5F5F4FC1
:1057600088819981480F591F518340838A819B8189
:10577000938382832115310509F0B0CFF093630A3A
:10578000E093620A9ECFFD01DC01C0CF138212823A
:10579000D7CF4F925F926F927F928F929F92AF92EC
:1057A000BF92CF92DF92EF92FF920F931F93CF930E
:1057B000DF938C01009799F4CB01DF91CF911F917A
:1057C0000F91FF90EF90DF90CF90BF90AF909F90A0
:1057D0008F907F906F905F904F900C94A42AFC0163
:1057E000E60FF71F9C0122503109E217F30708F476
:1057F000AEC0D901CD91DC911197C617D70720F122
:10580000C530D10578F0CE0104978617970750F080
:10581000C61BD70B2297C193D1936D937C93CF0175
:105820000E94402BC801DF91CF911F910F91FF90F3
:10583000EF90DF90CF90BF90AF909F908F907F9030
:105840006F905F904F9008955B01AC1ABD0A4C01B8
:105850008C0E9D1EA091620AB091630A512C412CBE
:10586000F12CE12C109731F58091600A9091610A3A
:105870008815990509F05CC04616570608F058C00F
:105880008091000190910101009741F48DB79EB77E
:105890004091040150910501841B950BE817F9070D
:1058A00008F055C0F093610AE093600AF901718332
:1058B0006083B8CF8D919C91119712966C9012973E
:1058C00013967C901397A815B90559F56C0142E021
:1058D000C40ED11CCA14DB0420F1AC014A195B09C7
:1058E000DA011296159780F06282738251834083A9
:1058F000D9016D937C93E114F10471F0D7011396F3
:10590000FC93EE9312978ECF22968C0F9D1FF90178
:1059100091838083F301EFCFF093630AE093620AEF
:1059200081CF4816590608F42C017D01D3019ACF86
:10593000CB010E94A42A7C01009749F0AE01B80176
:105940000E94B72CC8010E94402B87016BCF10E04A
:1059500000E068CFFB01DC0104C08D91019080194B
:1059600021F441505040C8F7881B990B0895FB0162
:10597000DC0102C001900D9241505040D8F70895CB
:10598000FC018191861721F08823D9F79927089582
:105990003197CF010895FB01DC0101900D920020A9
:1059A000E1F70895FB01DC014150504048F00190BF
:1059B0000D920020C9F701C01D9241505040E0F700
:1059C00008954532510520F4423010F00C94EC2C2F
:1059D000FB011082CB010895BB274A3031F4992393
:1059E00022F4BDE2909581959F4F0C94302D253285
:1059F000310520F4223010F00C94022DFA011082AF
:105A0000CA010895BB27FA01A62F62177105810507
:105A10009105330B30FB66F0AA27660F771F881FAE
:105A2000991FAA1FA21710F0A21B63953850A9F75F
:105A3000A05DAA3308F0A95DA19336F7B111B19327
:105A40001082CA010C949D2F4532510520F442303A
:105A500010F00C942F2DFB011082CB010895BB2771
:105A6000FB015527AA27880F991FAA1FA41710F01A
:105A7000A41B83955051B9F7A05DAA3308F0A95D26
:105A8000A193009779F7B111B1931192CB010C94C6
:105A90009D2F8F929F92AF92BF92CF92DF92EF9203
:105AA000FF920F931F93CF93DF93CDB7DEB7299764
:105AB0000FB6F894DEBF0FBECDBF6A01F22EB02E36
:105AC000102FFBE3AF2EA01608F41BE31F5F012F7E
:105AD00027E0AE014F5F5F4F0E94C52EBC01898158
