:020000040000FA
:100000000C9411010C943B010C943B010C943B01AA
:100010000C943B010C943B010C943B010C943B0170
:100020000C943B010C943B010C943B010C943B0160
:100030000C943B010C946A010C943B010C943B0121
:100040000C943B010C943B010C946D320C943B01DD
:100050000C94EA2D0C94202E0C943B010C943B0143
:100060000C943B010C943B010C94BC120C943B018E
:100070000C94812E0C94B72E0C943B010C943B01F4
:100080000C943B010C943B010C943B0100407A1012
:10009000F35A00A0724E18090010A5D4E80000E839
:1000A0007648170000E40B54020000CA9A3B000097
:1000B00000E1F505000080969800000040420F0026
:1000C0000000A08601000000102700000000E803E7
:1000D000000000006400000000000A0000000000B2
:1000E0000100000000002C76D888DC674F0823DF71
:1000F000C1DFAE59E1B1B796E5E3E453C63AE65144
:10010000997696E8E6C28426EB898C9B62ED407C6A
:100110006FFCEFBC9C9F40F2BAA56FA5F490055A06
:100120002AF75C936B6CF9676DC11BFCE0E40D472B
:10013000FEF520E6B500D0ED902E0300943577054E
:100140000080841E080000204E0A000000C80C3306
:100150003333330F986E12831141EF8D2114893B95
:10016000E65516CFFEE6DB18D1844B381BF77C1D15
:10017000901DA4BBE424203284725E228100C9F168
:1001800024ECA1E53D277C3C3E5E2B3D3F2F5B5D93
:100190003B2C2A225C000000000203000A0B000036
:1001A0000000050409080000000000000000000035
:1001B000000000000000010204081020408001023D
:1001C0000408102040800102040810204080010231
:1001D000040810204080020202020202020204040B
:1001E00004040404040403030303030303030101DD
:1001F0000101010101010000200023002600290067
:1002000000002200250028002B000000210024000F
:1002100027002A008302D111D517EF1A542EEB2E96
:10022000950211241FBECFEFD0E4DEBFCDBF12E098
:10023000A0E0B1E0E2EFF6E700E00BBF02C00790FC
:100240000D92AA34B107D9F72DE0AAE4B2E001C0BB
:100250001D92A23FB207E1F711E0C0E1D1E004C076
:100260002197FE010E942236CA30D107C9F70E94A9
:100270005E320C946C3B0C940000DC01ED91FC911F
:100280000190F081E02D09940CB405FC0DC09EBDD9
:1002900000000DB407FEFDCF9EB58EBD00000DB46D
:1002A00007FEFDCF8EB508958EBD00000DB407FE8C
:1002B000FDCF8EB59EBD00000DB407FEFDCF9EB5EF
:1002C0000895982F92959F708F702AE0929F800DCD
:1002D000112408951F920F920FB60F9211248F933D
:1002E00080914D028F5F80934D0210928500109295
:1002F00084008F910F900FBE0F901F901895CF9292
:10030000DF92EF92FF920F931F93CF93DF93CDB7BE
:10031000DEB7A1970FB6F894DEBF0FBECDBF61E088
:1003200083E10E94D23360E082E10E94D23365E132
:1003300071E0CE014C960E947B30609197097091DC
:1003400098094AE0CE0101960E94F330BE016F5F2A
:100350007F4FCE014C960E940732CE0101960E943B
:10036000093080919709909198098130914030F03F
:1003700080E091E0909398098093970987E9C82ECF
:1003800085E0D82E97E9E92E92E0F92E07E914E0EE
:100390002091970930919809C80187599440821794
:1003A000930708F050C06FEB71E0CE014C960E94AD
:1003B0000E32F60141915191619171916F012AE0E4
:1003C000CE0101960E941F31BE016F5F7F4FCE01AB
:1003D0004C960E940732CE0101960E94093062EAD3
:1003E00071E0CE014C960E940E32F80161918F01AE
:1003F0004AE0CE0101960E949A30BE016F5F7F4FA6
:10040000CE014C960E940732CE0101960E9409301F
:100410006FEB71E0CE014C960E940E32F7016191B4
:1004200071917F014AE0CE0101960E94F330BE0136
:100430006F5F7F4FCE014C960E940732CE0101962E
:100440000E940930A5CF80910601882381F164E0E4
:1004500081E59AE00E941F16811109C06CE171E0EC
:1004600087E49DE00E94872F109206011CC04091F6
:100470009D0950919E0923E161E57AE0CE01019644
:100480000E943F17CE0101960E9413158823B1F1F7
:10049000BE01645E7F4FCE0101960E94752FCE0192
:1004A00001960E94011561E084E00E94D23361E070
:1004B00082E10E94D23360E083E10E94D23361E0A6
:1004C00070E080E090E00E94E83210924B021092BF
:1004D000980910929709CE014C960E940930A19676
:1004E0000FB6F894DEBF0FBECDBFDF91CF911F9145
:1004F0000F91FF90EF90DF90CF9008956BE271E045
:100500008AEA9CE0AFCF65E371E089EA99E00E9456
:100510007B3066E671E083EA99E00E947B3068E414
:1005200072E08DE999E00C947B308DE999E00E94AE
:10053000093083EA99E00E94093089EA99E00C9435
:100540000930CF93DF9361E570E08FEA99E00E9474
:10055000501170E060E08FEA99E00E943D018FEA5F
:1005600099E00E94CE1146E050E061E570E08FEA2C
:1005700099E00E94CB118FEA99E00E94C3100E947B
:10058000610180934E028FEA99E00E94C3108F7739
:100590000E946101D82F8FEA99E00E94C3108F77E3
:1005A0000E946101C82F8FEA99E00E94C3100E9447
:1005B000610190E0B0E0A0E080934F029093500280
:1005C000A0935102B09352028FEA99E00E94C310A7
:1005D0000E94610124E6829FC0011124092E000CB3
:1005E000AA0BBB0B40914F025091500260915102F7
:1005F00070915202840F951FA61FB71F80934F0260
:1006000090935002A0935102B09352028FEA99E066
:100610000E94C3100E94610140E157E2849F900153
:10062000859F300D1124032E000C440B550B809137
:100630004F0290915002A0915102B0915202280FA6
:10064000391F4A1F5B1FA0E1BEE00E943A36AB0192
:10065000BC012CE3C29FC0011124092E000CAA0B7F
:10066000BB0B8D0F911DA11DB11D840F951FA61FE2
:10067000B71F80934F0290935002A0935102B09302
:100680005202DF91CF910895CF93DF93CDB7DEB7BC
:10069000C459D1090FB6F894DEBF0FBECDBF88E1B3
:1006A0009FE00FB6F894A895809360000FBE9093DA
:1006B000600061E083E10E94D23360E082E10E9449
:1006C000D23361E082E00E94963361E082E00E94D2
:1006D000D23361E084E10E94963361E084E10E94BC
:1006E000D23368E472E0CE0181579F4F0E947B3085
:1006F0000E94A10267E771E0CE0181579F4F0E94DF
:100700000E326091990970919A094AE0CE010196E2
:100710000E94F330BE016F5F7F4FCE0181579F4F24
:100720000E940732CE0101960E9409306FEB71E002
:10073000CE0181579F4F0E940E3240914F0250913F
:10074000500260915102709152022AE0CE0101964E
:100750000E941F31BE016F5F7F4FCE0181579F4FB7
:100760000E940732CE0101960E94093062EA71E0D0
:10077000CE0181579F4F0E940E324AE060914E0297
:10078000CE0101960E949A30BE016F5F7F4FCE016D
:1007900081579F4F0E940732CE0101960E94093077
:1007A0006FEB71E0CE0181579F4F0E940E324FEAEE
:1007B00059E064E4CE01885A9F4F0E948927CE01F8
:1007C000885A9F4F0E94C02761E0CE01885A9F4FF0
:1007D0000E944328E1966EAD7FADE19790E080E006
:1007E0000E94D1342FEA30E04FE25BE30E94833570
:1007F00020E030E044E352E40E942934AB01BC0124
:1008000021E0CE0101960E947B31BE016F5F7F4FD8
:10081000CE0181579F4F0E940732CE0101960E9460
:1008200009306FEB71E0CE0101960E947B30BE0172
:100830006F5F7F4FCE0181579F4F0E940732CE01DD
:1008400001960E940930AF966EAD7FADAF9790E0F4
:1008500080E00E94D13428EC30E048EC5AE30E945A
:100860008335AB01BC0121E0CE0101960E947B31B2
:10087000BE016F5F7F4FCE0181579F4F0E940732AD
:10088000CE0101960E9409306FEB71E0CE01019616
:100890000E947B30BE016F5F7F4FCE0181579F4F1B
:1008A0000E940732CE0101960E9409304FEA59E0BA
:1008B00065E4CE01CC960E948927CE01CC960E9499
:1008C000C02761E0CE01CC960E94432865966EADAC
:1008D0007FAD659790E080E00E94D1342FEA30E050
:1008E0004FE25BE30E94833520E030E044E352E4D2
:1008F0000E942934AB01BC0121E0CE0101960E9487
:100900007B31BE016F5F7F4FCE0181579F4F0E94A9
:100910000732CE0101960E9409306FEB71E0CE01E3
:1009200001960E947B30BE016F5F7F4FCE018157E1
:100930009F4F0E940732CE0101960E9409306396B4
:100940006EAD7FAD639790E080E00E94D13428ECDB
:1009500030E048EC5AE30E948335AB01BC0121E052
:10096000CE0101960E947B31BE016F5F7F4FCE01A9
:1009700081579F4F0E940732CE0101960E94093095
:100980006FEB71E0CE0101960E947B30BE016F5F7C
:100990007F4FCE0181579F4F0E940732CE010196B3
:1009A0000E9409304FEA59E067E7CE0101960E94A4
:1009B0006F28CE0101960E949B2C6A81CE01019680
:1009C0000E942F2ACE0101960E94A928AB01BC01EA
:1009D00022E0CE018C589F4F0E947B31BE016C58A3
:1009E0007F4FCE0181579F4F0E940732CE018C5816
:1009F0009F4F0E9409306FEB71E0CE018C589F4FE2
:100A00000E947B30BE016C587F4FCE0181579F4FB3
:100A10000E940732CE018C589F4F0E940930CE01B0
:100A200001960E94E028AB01BC0122E0CE018C5867
:100A30009F4F0E947B31BE016C587F4FCE01815782
:100A40009F4F0E940732CE018C589F4F0E94093061
:100A500061E084E10E94963360E084E10E94D23339
:100A600061E082E00E94963360E082E00E94D2332F
:100A70000FB6F894A895809160008861809360001B
:100A8000109260000FBE80910601882371F164E02E
:100A900081E59AE00E941F166CE171E0882309F459
:100AA00043C040919D0950919E0923E161E57AE0A0
:100AB000CE018C589F4F0E943F17CE018C589F4FFC
:100AC0000E941315882371F1BE0161577F4FCE013B
:100AD0008C589F4F0E94752FCE018C589F4F0E94BB
:100AE000011561E084E00E94D23361E082E10E945E
:100AF000D23360E083E10E94D23361E070E080E0B5
:100B000090E00E94E832CE0181579F4F0E94093049
:100B1000CC56DF4F0FB6F894DEBF0FBECDBFDF91CE
:100B2000CF9108956BE271E087E49DE00E94872FEA
:100B300010920601D6CF8F929F92AF92BF92EF9202
:100B4000FF920F931F93CF93DF93CDB7DEB7A79795
:100B50000FB6F894DEBF0FBECDBF61E083E10E9407
:100B6000D23360E082E10E94D2330BE512E087E5E8
:100B7000E82E82E0F82E812C912C5401F80181910D
:100B80008F01880E911CA11CB11CF2E007391F07D0
:100B9000A9F768E472E0CE0182960E947B300E9441
:100BA000A1026DE771E0CE0182960E940E32609143
:100BB000990970919A094AE0CE0101960E94F3309A
:100BC000BE016F5F7F4FCE0182960E940732CE0139
:100BD00001960E9409306FEB71E0CE0182960E946F
:100BE0000E3240914F02509150026091510270912B
:100BF00052022AE0CE0101960E941F31BE016F5FB2
:100C00007F4FCE0182960E940732CE0101960E944C
:100C1000093062EA71E0CE0182960E940E324AE00B
:100C200060914E02CE0101960E949A30BE016F5F24
:100C30007F4FCE0182960E940732CE0101960E941C
:100C400009306FEB71E0CE0182960E940E322AE0ED
:100C5000B501A401CE0101960E941F31BE016F5F54
:100C60007F4FCE0182960E940732CE0101960E94EC
:100C700009306FEB71E0CE0182960E940E32F701CF
:100C800061917F014AE0CE0101960E949A30BE0137
:100C90006F5F7F4FCE0182960E940732CE01019690
:100CA0000E9409300E151F0521F78091060161E0B1
:100CB000882309F470C08EE00E94D23364E081E59D
:100CC0009AE00E941F166CE171E0882309F45CC071
:100CD00040919D0950919E0923E161E57AE0CE01A2
:100CE00001960E943F17CE0101960E94131588239A
:100CF00009F448C0BE016E5D7F4FCE0101960E948F
:100D0000752FCE0101960E94011561E084E00E94DA
:100D1000D23360E08EE00E94D23360E08DE00E942A
:100D2000D2338091990990919A090196893FFAE20C
:100D30009F0708F065C090939A098093990961E034
:100D400082E10E94D23360E083E10E94D23361E00D
:100D500070E080E090E00E94E832CE0182960E942E
:100D60000930A7960FB6F894DEBF0FBECDBFDF9156
:100D7000CF911F910F91FF90EF90BF90AF909F90F8
:100D80008F9008956BE271E087E49DE00E94872FC9
:100D900010920601BACF8DE00E94D233AEA0BFA060
:100DA00010E000E0FF24FA948DE10E940034892BCA
:100DB00019F0FA94F110F8CF82E390E00E94213309
:100DC0007801FFEFEF1AFF0AB801CE0182960E9468
:100DD0004A32FC0160818AEA9CE00E946A2FAE14CC
:100DE000BF0460F48AEA9CE00E94712FBE016E5D30
:100DF0007F4F87E49DE00E94752F8BCF8701D2CF74
:100E000010929A091092990960919B0970919C091E
:100E10006F5F7F4F70939C0960939B094AE0CE01FE
:100E20004C960E94F330BE01645E7F4FCE01019666
:100E30000E94633164E871E0CE0101960E94303275
:100E4000BC018DE999E00E944C31CE0101960E94CF
:100E50000930CE014C960E94093069E871E087E4C0
:100E60009DE00E94622F6DE979E087E49DE00E9499
:100E7000752F65CF0F931F93CF93DF93C82F65E531
:100E800070E08FEA99E00E9450110C2E000CDD0BEF
:100E9000BE018FEA99E00E943D018FEA99E00E942D
:100EA000CE1141E050E065E570E08FEA99E00E94E4
:100EB000CB118FEA99E00E94C3108C0165E570E0C8
:100EC0008FEA99E00E945011BE016F5F7F4F8FEA59
:100ED00099E00E943D018FEA99E00E94CE1141E025
:100EE00050E065E570E08FEA99E00E94CB118FEA4F
:100EF00099E00E94C31020E0382FC901800F911F94
:100F0000DF91CF911F910F910895CF93DF93CDB7CC
:100F1000DEB7A1970FB6F894DEBF0FBECDBF61E07C
:100F200083E10E94D23360E082E10E94D23368E420
:100F300072E0CE014C960E947B300E94A10264E9CF
:100F400071E0CE014C960E940E3260919909709129
:100F50009A094AE0CE0101960E94F330BE016F5F0C
:100F60007F4FCE014C960E940732CE0101960E941F
:100F700009306FEB71E0CE014C960E940E32409129
:100F80004F025091500260915102709152022AE03A
:100F9000CE0101960E941F31BE016F5F7F4FCE01CF
:100FA0004C960E940732CE0101960E94093062EAF7
:100FB00071E0CE014C960E940E324AE060914E02E2
:100FC000CE0101960E949A30BE016F5F7F4FCE0125
:100FD0004C960E940732CE0101960E9409306FEBB9
:100FE00071E0CE014C960E940E3288E00E943A07D2
:100FF0004AE0BC01CE0101960E94C730BE016F5F7E
:101000007F4FCE014C960E940732CE0101960E947E
:1010100009306FEB71E0CE014C960E940E328AE0EF
:101020000E943A074AE0BC01CE0101960E94C730F7
:10103000BE016F5F7F4FCE014C960E940732CE01FA
:1010400001960E9409306FEB71E0CE014C960E9430
:101050000E3284E00E943A074AE0BC01CE010196BC
:101060000E94C730BE016F5F7F4FCE014C960E9439
:101070000732CE0101960E9409306FEB71E0CE017C
:101080004C960E940E3286E00E943A074AE0BC016C
:10109000CE0101960E94C730BE016F5F7F4FCE0127
:1010A0004C960E940732CE0101960E9409306FEBE8
:1010B00071E0CE014C960E940E328CE00E943A07FD
:1010C000BC01990F880B990B0E94D3342DEC3CEC9A
:1010D0004CEC5DE30E94833523E333E948E853E4B5
:1010E0000E942934AB01BC0122E0CE0101960E948E
:1010F000AB31BE016F5F7F4FCE014C960E9407322D
:10110000CE0101960E94093080910601882349F1A1
:1011100064E081E59AE00E941F166CE171E088238B
:10112000E9F140919D0950919E0923E161E57AE042
:10113000CE0101960E943F17CE0101960E94131521
:10114000882351F1BE01645E7F4FCE0101960E945B
:10115000752FCE0101960E94011561E084E00E9486
:10116000D23361E082E10E94D23360E083E10E94E9
:10117000D23361E070E080E090E00E94E832CE017E
:101180004C960E940930A1960FB6F894DEBF0FBEB0
:10119000CDBFDF91CF9108956BE271E087E49DE0D0
:1011A0000E94872F10920601D8CFCF92DF92EF9244
:1011B000FF920F931F93CF93DF93CDB7DEB7C25447
:1011C000D1090FB6F894DEBF0FBECDBF26E040E0D8
:1011D00052EC61E070E08AEA9CE00E94982D26E0E3
:1011E00040E052EC61E070E087E49DE00E94982DC1
:1011F00040EA56E861E070E08FEA99E00E9442110F
:101200006BE971E087E49DE00E94872F60E08BE14D
:101210000E94963360E085E10E94963360E08DE1A4
:101220000E94963360E08EE10E94963361E086E191
:101230000E94963361E087E10E94963360E080E08F
:101240000E94963361E08FE00E94963361E082E174
:101250000E94963361E082E10E94D23361E082E035
:101260000E94963361E082E00E94D23361E08AE11D
:101270000E94963361E08AE10E94D23361E083E10B
:101280000E94963361E083E00E94963361E084E03F
:101290000E94963360E085E00E94963360E086E02D
:1012A0000E94963361E087E00E94963361E083E11B
:1012B0000E94D23361E084E00E94D23360E087E094
:1012C0000E94D23364E670E080E090E00E94E83251
:1012D00060E083E00E94D23361E084E10E949633B3
:1012E00060E084E10E94D2336AE670E08FEA99E020
:1012F0000E94501162E08FEA99E00E94E61060E6D9
:1013000071E08FEA99E00E943D018FEA99E00E9426
:10131000CE116AE670E08FEA99E00E94501164E114
:101320008FEA99E00E94E61066E28FEA99E00E9457
:10133000E61069E18FEA99E00E94E61060EA8FEA20
:1013400099E00E94E61066E58FEA99E00E94E610B7
:1013500060E08FEA99E00E94E61061E08FEA99E090
:101360000E94E6108FEA99E00E94CE116AE670E0D2
:101370008FEA99E00E9450116AE18FEA99E00E9499
:10138000E6106FEB8FEA99E00E94E6108FEA99E091
:101390000E94CE116AE670E08FEA99E00E94501137
:1013A00066E28FEA99E00E94E6106CE88FEA99E025
:1013B0000E94E6108FEA99E00E94CE118BE10E9414
:1013C0000034892B09F4B2C188E19FE00FB6F8948C
:1013D000A895809360000FBE909360006AE670E06D
:1013E0008FEA99E00E9450116DE270E08FEA99E077
:1013F0000E943D018FEA99E00E94CE1141E050E049
:101400006AE670E08FEA99E00E94CB118FEA99E0DA
:101410000E94C310A89568EE73E080E090E00E94FF
:10142000E832A89568EE73E080E090E00E94E83230
:10143000A89568EE73E080E090E00E94E832A895FD
:1014400011E001E06AE670E08FEA99E00E94501135
:101450006DE270E08FEA99E00E943D018FEA99E029
:101460000E94CE1141E050E06AE670E08FEA99E018
:101470000E94CB118FEA99E00E94C310A8958F7744
:10148000813108F07FC08BE10E940034682F8DE02D
:101490000E94D23361E570E08FEA99E00E9450111A
:1014A00068E270E08FEA99E00E943D0165E970E032
:1014B0008FEA99E00E943D018FEA99E00E94CE11E7
:1014C000A89568EE73E080E090E00E94E832A8956D
:1014D00068EE73E080E090E00E94E832A89568EE44
:1014E00073E080E090E00E94E832A89508EC10E0FC
:1014F0008AEF90E00E94213361E08FE00E949633F2
:1015000061E08FE00E94D2338AEF90E00E942133A5
:1015100061E08FE00E94963360E08FE00E94D2335A
:101520000150110929F761E570E08FEA99E00E9406
:10153000501167E28FEA99E00E94E61063E08FEABB
:1015400099E00E94E61065E970E08FEA99E00E9458
:101550003D018FEA99E00E94CE116AE670E08FEAC1
:1015600099E00E94501168E18FEA99E00E94E6102C
:101570006AE08FEA99E00E94E6108FEA99E00E9403
:10158000CE11FFCFA895112309F467C061E00023B5
:1015900009F46EC083E00E94D23361E08CE00E94C7
:1015A000963361E08CE00E94D23338ECE32EF12CCC
:1015B0008AEF90E00E94213361E08FE00E94963331
:1015C00061E08FE00E94D2338AEF90E00E942133E5
:1015D00061E08FE00E94963360E08FE00E94D2339A
:1015E00081E0E81AF10821F728ECE22EF12C84EBD7
:1015F00090E00E94213361E08FE00E94963361E029
:101600008FE00E94D23384EB90E00E94213361E0AE
:101610008FE00E94963360E08FE00E94D23381E039
:10162000E81AF10821F761E770E08FEA99E00E947B
:10163000501160E08FEA99E00E94E61063E18FEAC2
:1016400099E00E94E6108FEA99E00E94CE1168EEC0
:1016500073E080E090E00E94E8328EE10E94003466
:1016600010E0892B09F0EECE81E0082711E0EACEE8
:101670008CE00E94963360E08CE00E94D23398ECBC
:10168000E92EF12C84EB90E00E94213361E08FE0A1
:101690000E94963361E08FE00E94D23384EB90E0A9
:1016A0000E94213361E08FE00E94963360E08FE07A
:1016B0000E94D23381E0E81AF10821F788ECE82E85
:1016C000F12C8AEF90E00E94213361E08FE00E94CC
:1016D000963361E08FE00E94D2338AEF90E00E945F
:1016E000213361E08FE00E94963360E08FE00E943A
:1016F000D23381E0E81AF10821F761E770E08FEA60
:1017000099E00E94501160E08FEA99E00E94E61093
:1017100060E18FEA99E00E94E6108FEA99E00E946A
:10172000CE1160E083E00E94D23391CF61E084E18A
:101730000E94963361E084E10E94D23315E060E5B7
:1017400070E080E090E00E94E83261E08CE00E946E
:10175000963361E08CE00E94D23360E570E080E077
:1017600090E00E94E83260E08CE00E94D233115099
:1017700031F761E08CE00E94D23308EC10E084EB9A
:1017800090E00E94213361E08FE00E94963361E097
:101790008FE00E94D23384EB90E00E94213361E01D
:1017A0008FE00E94963360E08FE00E94D2330150B8
:1017B000110929F764EA71E087E49DE00E94872F10
:1017C00060E087E10E94D23361E086E10E94D2337B
:1017D00061E570E08FEA99E00E94501167E28FEABC
:1017E00099E00E94E61063E08FEA99E00E94E6101B
:1017F00067E98FEA99E00E94E61088E199E20FB666
:10180000F894A895809360000FBE909360006DEAF5
:1018100071E0CE0101960E947B3063EA79E0CE014F
:1018200001960E941D326DEB71E00E94303269EA30
:1018300079E00E941D326FEB71E00E943032BC01F2
:10184000CE01CD960E946331CE0101960E940930EF
:101850006BE570E08FEA99E00E94501168E070E05B
:101860008FEA99E00E943D0170E060E08FEA99E024
:101870000E943D018FEA99E00E94CE1140E16BE5A4
:101880008FEA99E00E94C81110E18FEA99E00E9466
:10189000C310082F803130F461EC71E0CE01CD9699
:1018A0000E940E3240E1602FCE0101960E949A30D4
:1018B000BE016F5F7F4FCE01CD960E940732CE01F1
:1018C00001960E940930115001F763EC71E0CE01DE
:1018D000CD960E940E3268E570E08FEA99E00E9492
:1018E000501168E070E08FEA99E00E943D0170E0DD
:1018F00060E08FEA99E00E943D018FEA99E00E9442
:10190000CE1140E168E58FEA99E00E94C81110E12C
:101910008FEA99E00E94C310082F803130F461EC07
:1019200071E0CE01CD960E940E3261E082E00E940D
:10193000963361E082E00E94D23361E08AE10E9446
:10194000963361E08AE10E94D23340E1602FCE01FC
:1019500001960E949A30BE016F5F7F4FCE01CD96F7
:101960000E940732CE0101960E940930115081F683
:101970006FEB71E0CE01CD960E940E3260E570E013
:101980008FEA99E00E94501170E060E08FEA99E0E0
:101990000E943D0170E060E08FEA99E00E943D0105
:1019A0008FEA99E00E94CE1142E060E58FEA99E06B
:1019B0000E94C8118FEA99E00E94C31080935402DC
:1019C0008FEA99E00E94C3108093530240E1609136
:1019D0005402CE0101960E949A30BE016F5F7F4F84
:1019E000CE01CD960E940732CE0101960E940930A9
:1019F00040E160915302CE0101960E949A30BE01EF
:101A00006F5F7F4FCE01CD960E940732CE010196C7
:101A10000E94093069ED71E0CE01CD960E940E3230
:101A20006BE570E08FEA99E00E94501168E070E089
:101A30008FEA99E00E943D0170E060E08FEA99E052
:101A40000E943D018FEA99E00E94CE1140E16BE5D2
:101A50008FEA99E00E94C81110E18FEA99E00E9494
:101A6000C310082F803130F461EC71E0CE01CD96C7
:101A70000E940E3240E1602FCE0101960E949A3002
:101A8000BE016F5F7F4FCE01CD960E940732CE011F
:101A900001960E940930115001F76FEB71E0CE0101
:101AA000CD960E940E3263E570E08FEA99E00E94C5
:101AB000501170E060E08FEA99E00E943D0170E013
:101AC00060E08FEA99E00E943D018FEA99E00E9470
:101AD000CE1142E063E58FEA99E00E94C8118FEAD7
:101AE00099E00E94C310809356028FEA99E00E9409
:101AF000C3108093550240E160915602CE010196D9
:101B00000E949A30BE016F5F7F4FCE01CD960E943A
:101B10000732CE0101960E94093040E160915502E2
:101B2000CE0101960E949A30BE016F5F7F4FCE01B9
:101B3000CD960E940732CE0101960E94093060E0E6
:101B400082E10E94D23364E081E59AE00E941F1690
:101B5000811108C06CE171E087E49DE00E94872F4D
:101B60001092060181E090E090939C0980939B097C
:101B700060919B0970919C09683C710578F54AE079
:101B8000CE014C960E94F330BE01645E7F4FCE01C1
:101B900001960E94633164E871E0CE0101960E94D3
:101BA0003032BC018DE999E00E944C31CE010196A2
:101BB0000E940930CE014C960E94093060919D0927
:101BC00070919E0981E59AE00E94CA17882331F03E
:101BD00080919B0990919C090196C6CF60919B09C9
:101BE00070919C094AE0CE014C960E94F330BE01F0
:101BF000645E7F4FCE0101960E94633164E871E01C
:101C0000CE0101960E943032BC018DE999E00E941C
:101C10004C31CE0101960E940930CE014C960E94B3
:101C2000093015E060E570E080E090E00E94E83265
:101C300061E08DE00E94963361E08DE00E94D23336
:101C400060E570E080E090E00E94E83260E08DE0C6
:101C50000E94D233115031F761E08DE00E94D233FF
:101C600040919D0950919E0923E161E57AE0CE0102
:101C70004C960E943F17CE014C960E94C3146B01F4
:101C80007C016DEE71E087E49DE00E94622F2AE006
:101C900030E0B701A60187E49DE00E94F72F89E6B6
:101CA000C81680E2D80689E5E806F10408F45BC0AE
:101CB000CE014C960E94011560919B0970919C0980
:101CC0006F5F7F4F70939C0960939B094AE0CE0140
:101CD000C7960E94F330BE01695C7F4FCE0101962A
:101CE0000E94633164E871E0CE0101960E943032B7
:101CF000BC018DE999E00E944C31CE0101960E9411
:101D00000930CE01C7960E94093040919D0950913B
:101D10009E0923E161E57AE0CE0101960E943F171A
:101D20008B819C819F8F8E8F8D819E81AF81B885A5
:101D300088A399A3AAA3BBA389859A85AB85BC85F3
:101D40008CA39DA3AEA3BFA3DE011D96FE01B89692
:101D5000CE01C5962D912193E817F907D9F78A8D01
:101D60009B8D9EAB8DAB69E871E087E49DE00E949E
:101D7000622F6DE979E087E49DE00E94752FCE0126
:101D80004C960E941315882309F47CC0BE01635C45
:101D90007F4FCE014C960E94752FCE014C960E942B
:101DA0000115BE01635C7F4F87E49DE00E94752FA3
:101DB00061E082E10E94D23361E084E10E949633C7
:101DC00060E084E10E94D23315E060E570E080E0DD
:101DD00090E00E94E83261E08EE00E94963361E07C
:101DE0008EE00E94D23360E570E080E090E00E94D7
:101DF000E83260E08EE00E94D233115031F760E0AB
:101E00008CE00E94D23360E08DE00E94D23361E02A
:101E100082E00E94963360E082E00E94D2330FB6E7
:101E2000F894A8958091600088618093600010927A
:101E300060000FBEF894109280008DE080938100C6
:101E400087E998E990938900809388001092850033
:101E50001092840082E080936F007894CE01CD963A
:101E60000E940930CE5BDF4F0FB6F894DEBF0FBE85
:101E7000CDBFDF91CF911F910F91FF90EF90DF9039
:101E8000CF9008956BE271E087E49DE00E94872F78
:101E90001092060186CF87E992E007E512E0F8018B
:101EA00011928F018E179F07D1F761E087E10E94A1
:101EB000D23360E086E10E94D23390E080E00E945D
:101EC000440161E086E10E94D23310924D021092EB
:101ED0004C0210924A0258E1F52E69E2E62E18995A
:101EE000FFC080914D028230D0F310924D0280915C
:101EF0004C028F5F80934C0280914A028F5F8093E7
:101F00004A0280914B028F5F80934B028BE10E94CB
:101F10000034682F8DE00E94D2338BE10E940034A0
:101F2000892B09F48DC061E570E08FEA99E00E9489
:101F3000501167E28FEA99E00E94E61060E08FEAB4
:101F400099E00E94E61065E970E08FEA99E00E944E
:101F50003D018FEA99E00E94CE1168EB7BE080E0C2
:101F600090E00E94E832C8ECD0E08AEF90E00E9456
:101F7000213361E08FE00E94963361E08FE00E94A0
:101F8000D2338AEF90E00E94213361E08FE00E941B
:101F9000963360E08FE00E94D233219731F761E5FC
:101FA00070E08FEA99E00E94501167E28FEA99E0B1
:101FB0000E94E61063E08FEA99E00E94E61065E96E
:101FC00070E08FEA99E00E943D018FEA99E00E945B
:101FD000CE116AE670E08FEA99E00E94501168E144
:101FE0008FEA99E00E94E6106AE08FEA99E00E9489
:101FF000E6108FEA99E00E94CE1168E873E180E074
:1020000090E00E94E832C8ECD0E08AEF90E00E94B5
:10201000213361E08FE00E94963361E08FE00E94FF
:10202000D2338AEF90E00E94213361E08FE00E947A
:10203000963360E08FE00E94D233219731F7DDCFF5
:1020400061E086E10E94D23360E087E10E94D233F2
:102050000FB6F894A895F09260000FBEE092600071
:102060000E949B05E7E5F2E01192E017F107E1F726
:1020700080914A02882321F010924A020E94440370
:1020800080914C02843B20F010924C020E94850704
:1020900080914B028C3320F010924B020E947F0102
:1020A00061E087E10E94D23360E086E10E94D23392
:1020B00090E080E00E94440161E086E10E94D2331A
:1020C0000FB6F894A89580916000886180936000B5
:1020D000109260000FBE1092850010928400FFCE17
:1020E00060E086E10E94D23390E080E00E944401EB
:1020F000EC0146E0D695C7954A95E1F7C034D10585
:1021000060F4C95ADD4F88818F3F11F08F5F88835B
:1021100061E086E10E94D233E2CE0E94A10280916A
:10212000970990919809FC01EE0FFF1FEE0FFF1F1A
:10213000E956FA4F40914F0250915002609151027E
:10214000709152024083518362837383FC01E9568C
:10215000FB4F20914E022083FC01EE0FFF1FE9563A
:10216000FD4FD183C0838F3F910590F20E947F0184
:10217000CFCF90E080E008958091DF099091E00951
:10218000891B990B08959091E0098091DF092FEF49
:102190003FEF981748F4E92FF0E0EF51F64F208118
:1021A00030E09F5F9093E009C9010895E091E00954
:1021B0008091DF09E81730F4F0E0EF51F64F8081AD
:1021C00090E008958FEF9FEF08950895CF93DF93E8
:1021D0001F92CDB7DEB769832091BB092223F9F0A6
:1021E0002091BC09203258F021E030E0FC0133831B
:1021F000228390E080E00F90DF91CF91089580914D
:10220000BD09E82FF0E0E254F64F998190838F5F8B
:102210008093BD098093BC0981E090E0ECCF61E040
:10222000CE0101960E948512F7CFCF92DF92EF92F6
:10223000FF920F931F93CF93DF937C01CB018A0111
:102240002091BB09222389F0EB016B01C40ED51E3E
:10225000CC15DD0569F06991D701ED91FC910190F4
:10226000F081E02DC7010995F3CF642F0E948512FC
:10227000C801DF91CF911F910F91FF90EF90DF90F8
:10228000CF900895CB01BA010C94E21181E08093C4
:10229000BB096093DE091092BD091092BC09089534
:1022A0000C9446110F93062F21E04091BC096EEB70
:1022B00079E08091DE090E9435121092BD091092DA
:1022C000BC091092BB090F9108954F925F926F92D3
:1022D0007F92AF92BF92CF92EF92FF920F931F9394
:1022E000CF93DF935C01F62ED42F28013901EE2025
:1022F00019F10E944611CE2DC43008F0C3E0C15040
:10230000B8F028E0C29FC0011124A301920104C0CB
:1023100056954795379527958A95D2F7B901D501F6
:10232000ED91FC910190F081E02DC5010995E7CF79
:1023300060E0C5010E9452114D2FD13208F040E2F9
:102340002C2D61EE79E08F2D0E94F5111092E0099D
:102350008093DF09DF91CF911F910F91FF90EF9054
:10236000CF90BF90AF907F906F905F904F90089507
:10237000CF92EF920F931F93C22EE12C00E010E05A
:1023800098010E9465111F910F91EF90CF900895D1
:1023900021E00C94B81121E00C94B81161E00C9488
:1023A0005211EFEAF9E01382128288EE93E0A0E086
:1023B000B0E084839583A683B7838CEF91E091830B
:1023C000808308959B01AC0160E072E18AE790E0B0
:1023D0000E9400362051310941095109569547950F
:1023E000379527952093B80008954132E0F59091F4
:1023F000500A9111FCCF91E09093500A20934E0A1D
:102400002FEF2093010A7093480A6093470A1092B5
:10241000460A240F2093450A90934F0A90914F0A41
:10242000880F892B80934F0A80914D0A8130C9F41F
:1024300010924D0A80914F0A8093BB008091BC009E
:1024400083FDF8CF85EC8093BC008091500A8130E9
:10245000E1F38091460A841710F44091460A842FD4
:10246000089585EEF0CF40E0FACF0F93413208F0A7
:1024700044C09091500A9111FCCF92E09093500A81
:1024800000934E0A9FEF9093010A7093480A60935D
:10249000470A1092460A4093450A10924F0A9091BB
:1024A0004F0A880F892B80934F0A80914D0A813003
:1024B00011F510924D0A80914F0A8093BB008091D4
:1024C000BC0083FDF8CF85EC8093BC00222321F073
:1024D0008091500A8230D1F38091010A8F3F79F0C8
:1024E0008091010A803269F08091010A803359F0AD
:1024F00084E00F91089585EEE7CF81E0FACF80E088
:10250000F8CF82E0F6CF83E0F4CF2091230A260FA4
:102510003327331F21323105ECF42091500AFC019E
:1025200090E080E0243069F082E00895A091230AD1
:102530002191AC014B5D554FA40FB52FB11D2C93CC
:102540000196861798F38091230A680F6093230AF7
:1025500080E0089581E0089585ED8093BC0080912E
:10256000BC0084FDFCCF1092500A089585EC809346
:10257000BC001092500A08951F920F920FB60F924E
:1025800011240BB60F922F933F934F935F936F934A
:102590007F938F939F93AF93BF93EF93FF9380911C
:1025A000B900887F803609F44EC008F041C08832F7
:1025B00009F4AAC028F5803109F49EC0C8F4882324
:1025C00009F407C1883009F497C0FF91EF91BF91DA
:1025D000AF919F918F917F916F915F914F913F91BB
:1025E0002F910F900BBE0F900FBE0F901F9018955C
:1025F000883109F489C0803241F78093010A15C0FF
:10260000803409F4A6C048F48033B9F38833E9F67E
:102610008093010A0E94B612D8CF803509F489C090
:10262000883509F49EC0883481F60E94AC12CDCF63
:10263000883909F494C038F5883729F050F4883681
:1026400011F0803711F683E08093500A1092020A4D
:1026500057C0883809F483C0803919F0803809F0F0
:10266000B4CF8091020A803208F079C0E091020A6A
:1026700081E08E0F8093020A8091BB00F0E0ED5F55
:10268000F54F80833DC0803B39F0E0F4803A09F497
:1026900085C0883A09F099CF84E08093500A10925F
:1026A000240A1092230AE0914B0AF0914C0A0995F2
:1026B0008091230A81110FC081E08093230A109238
:1026C000250A09C0803C09F482C0883C09F47FC017
:1026D000883B09F07ACFE091240A81E08E0F809345
:1026E000240AF0E0EB5DF54F80818093BB00909170
:1026F000240A8091230A31C080914F0A8093BB0045
:1027000085EC8093BC0061CF9091460A8091450A88
:102710009817B8F58091470A9091480AE091460AC7
:1027200021E02E0F2093460AE80FF92FF11D80813A
:10273000E5CF2091470A3091480AE091460A81E0AE
:102740008E0F8093460A8091BB00E20FF32FF11D9C
:1027500080839091460A8091450A981788F285E80F
:10276000D0CF2091470A3091480AE091460A81E093
:102770008E0F8093460A8091BB00E20FF32FF11D6C
:10278000808380914E0A811150CF81E080934D0A61
:1027900084EA8093BC001092500A17CF0E94B612B0
:1027A0008091020A803230F4E091020AF0E0ED5F9D
:1027B000F54F10826091020A70E0E091490AF091B1
:1027C0004A0A83E09AE009951092020AFECE85EC4F
:1027D000E0CF1092010A29CFCF93DF931F92CDB79C
:1027E000DEB76983DC01ED91FC910280F381E02D7D
:1027F00041E050E0BE016F5F7F4F09950F90DF9180
:10280000CF910895CF93DF93EC01E98DFA8D309746
:1028100049F481E090E09B838A8390E080E0DF913F
:10282000CF91089513821282898D9A8D0E9477200C
:10283000E98DFA8D22813381232B59F7F0CFFC01EA
:10284000818D928D009711F00C94061E0895CF9300
:10285000DF931F92CDB7DEB741E050E0BE016F5F5E
:102860007F4F0E942A1C019731F4898190E00F90DC
:10287000DF91CF9108958FEF9FEFF9CFFC01818D0C
:10288000928D009711F00C9427148FEF9FEF08950D
:102890000F931F93CF93DF93EC01898D9A8D10E0F6
:1028A00000E0009799F00E9427148C010F3F100759
:1028B00069F0898D9A8DFC01428553856485758503
:1028C00041505109610971090E94721DC801DF91CF
:1028D000CF911F910F910895EF92FF920F931F9345
:1028E000CF93DF93EC017B018A011B821A8288EE71
:1028F00093E0A0E0B0E08C839D83AE83BF838EE045
:1029000092E0998388838DE190E00E9463369A8FEC
:10291000898F009779F02DE1F701DC0101900D928C
:102920002A95E1F74CE050E0B801CE010C960E94E8
:102930009138188EDF91CF911F910F91FF90EF90FA
:102940000895FC011382128288EE93E0A0E0B0E0CB
:1029500084839583A683B7838EE092E091838083FE
:10296000128E118E14860895DC015996ED91FC911A
:10297000309729F0628573858485958508956FEF7A
:102980007FEFCB010895DC015996ED91FC913097D2
:1029900029F06389748985899689089560E070E0DB
:1029A000CB010895CF92DF92EF92FF92CF93DF9306
:1029B000FC01218D328D232B09F1EC010E94C314FF
:1029C0006B017C01CE010E94B414A7019601261B65
:1029D000370B480B590BDA01C901811530E8930711
:1029E000A105B10520F08FEF9FE7A0E0B0E0DF91F7
:1029F000CF91FF90EF90DF90CF90089590E080E02E
:102A0000F6CFCF93DF93EC01898D9A8D009741F03B
:102A10000E944F1E898D9A8D0E94FF361A8E198E44
:102A2000DF91CF910895DC015996ED91FC9130979B
:102A300021F081E09581911101C080E008951F93FC
:102A4000CF93DF93CDB7DEB76D970FB6F894DEBFA7
:102A50000FBECDBFAB011C821B8222E232E03A8363
:102A600029831E8221E0BC01CE0101960E948A1FAB
:102A700011E081110CC010E0812F6D960FB6F89413
:102A8000DEBF0FBECDBFDF91CF911F910895CE0164
:102A900001960E944F1EF0CFEF92FF920F931F936B
:102AA000CF93DF937B01DB012D913C91FC01E20F81
:102AB000F31F60816F3211F42F5F3F4F8C01020FC3
:102AC000131FEA01F0E0E0E0D8017D918D017F3233
:102AD00049F0772339F02F5F3F4F31967993EC30EF
:102AE000F10591F7E40FF51F1082FC01E20FF31FCF
:102AF00040814F3211F42F5F3F4FF7013183208324
:102B0000280F391F81E0D9019C91911101C080E00B
:102B1000DF91CF911F910F91FF90EF9008954F9209
:102B20005F926F927F928F929F92AF92BF92CF925D
:102B3000DF92EF92FF920F931F93CF93DF93CDB766
:102B4000DEB7C954D1090FB6F894DEBF0FBECDBFB2
:102B50005C016B013A01490119A218A282E292E0DC
:102B60009F8F8E8F1BA21C821B829A8389831E8259
:102B70002A961FAE1EAE2A978B017E018EE1E80ECB
:102B8000F11C44244394AE01455C5F4FBE01685B79
:102B90007F4FC5010E944C15582E482F44259401A3
:102BA000BE01655C7F4FC801F3010995811120C00A
:102BB0000C151D05C9F480E0C75BDF4F0FB6F89414
:102BC000DEBF0FBECDBFDF91CF911F910F91FF9060
:102BD000EF90DF90CF90BF90AF909F908F907F90BD
:102BE0006F905F904F900895C8010E944F1EE3CFF1
:102BF000552091F021E0AE01455C5F4FB801C7015F
:102C00000E948A1F582E0C151D0571F0C8010E94E4
:102C10004F1E51100EC0CFCF0C151D0519F0C80165
:102C20000E944F1E81E0C8CF882329F28E010F5FDA
:102C30001F4F902F812F8701E92EF82EA4CF0F93DD
:102C40001F93CF93DF93EC01162F8FA5882321F0DC
:102C5000CE018A960E944F1E412F61E0CE010E9454
:102C6000EC18811102C090E012C08E01045F1F4F6A
:102C700041E0BE01C8010E94B125882371F0B8016E
:102C8000CE018A960E94DA1B91E0882361F3892F96
:102C9000DF91CF911F910F91089540E0BE01C801CF
:102CA0000E94B1258823F9F2EACFFC01DB011296DC
:102CB0008D919C9113979383828382E292E091831A
:102CC000808314968C911497848315968C91159714
:102CD000858316964D915D916D917C9119974683F0
:102CE0005783608771871A964D915D916D917C91A4
:102CF0001D9742875387648775871E964D915D9116
:102D00006D917C91519746875787608B718B529656
:102D10008C915297828B53964D915D916D917C91E0
:102D20005697438B548B658B768B57964D915D915F
:102D30006D917C915A97478B508F618F728F5B9604
:102D40008D919C91948F838F08954F925F926F9293
:102D50007F928F929F92AF92BF92CF92DF92EF922B
:102D6000FF920F931F93CF93DF93CDB7DEB7C75476
:102D7000D1090FB6F894DEBF0FBECDBF5C014A018A
:102D80003901665D7F4F7E018EE1E80EF11CC701BF
:102D90000E9455161C821B8282E292E09A838983EC
:102DA0001E828401FE0131966F015E2C4F2C6FE272
:102DB00070E0C8010E947F38009709F455C0F801FF
:102DC00020812F3219F40F5F1F4FF1CF801B8D3000
:102DD00008F08CE0E82EF12CA701B801CE01CB96CB
:102DE0000E949138EBE3F0E0EC0FFD1FEE0DFF1DAC
:102DF0001082C6010E944F1E21E0AE01455C5F4F6C
:102E0000652D742DC6010E948A1F811121C0F50114
:102E10001382128282E292E0918380831582C5013F
:102E2000C95BDF4F0FB6F894DEBF0FBECDBFDF9199
:102E3000CF911F910F91FF90EF90DF90CF90BF90B7
:102E4000AF909F908F907F906F905F904F9008957C
:102E50000E0D1F1D852D942D0E944F1EC2015C2C4E
:102E60004D2CC92ED82EA3CF08191909F3011183AF
:102E70000083652D742DC5010E945516D0CFAF92E9
:102E8000BF92CF92DF92FF920F931F93CF93DF9366
:102E9000CDB7DEB7C955D1090FB6F894DEBF0FBE66
:102EA000CDBF6C015B018A01F22E9E01285A3F4F73
:102EB000CE01CB960E94A5166A968EAD9FAD6A97FD
:102EC000080F191FF8018081811110C0BE01655CD7
:102ED0007F4FCE0101960E9455164CE152E0BE0193
:102EE0006F5F7F4FC6010E946C140FC019A218A219
:102EF00082E292E09F8F8E8F1BA221968FAD219749
:102F0000811115C0C6010E94A114C601C75ADF4F26
:102F10000FB6F894DEBF0FBECDBFDF91CF911F91EA
:102F20000F91FF90DF90CF90BF90AF9008958250A7
:102F30008230F8F4B501665D7F4F2F2DA801CE01D8
:102F40004E960E948A1F8823E9F28F2D867041F0E9
:102F500049A95AA96BA97CA9CE014E960E94721D5F
:102F6000BE01625E7F4FCE0101960E945516A801F8
:102F7000B6CF2F2DA801BE01655C7F4FCE014E96C6
:102F80000E948A1F882309F4BDCFCE01CB960E94F0
:102F90004F1EDBCFFB01BC01665D7F4F30E020E0C0
:102FA0004FE155E1CF010C948F15E1E5FAE0158270
:102FB00016821186138682E090E0A0E0B0E084875C
:102FC0009587A687B78713A215A614A682E292E07A
:102FD00093A782A717A608959FB7F8942091A80CED
:102FE0008091A60C213019F48DBB9FBF08958FBF2F
:102FF00008952091A80C222381F03FB7F8942091E6
:10300000A80C213069F42DB32093A60C4DB3209168
:10301000A70C209524232DBB3FBF8CBD9DBD0895DB
:103020003093A60CFACF8EBD00000DB407FEFDCF85
:103030008EB508958FEF0C94131861E0FC01848124
:103040000E94D23380919A0A882339F010929A0A0A
:103050008091A80C81110C94EC170895CF93DF9305
:10306000EC0180919A0A811109C081E080939A0A4B
:1030700080919B0A90919C0A0E94F91760E08C81D4
:10308000DF91CF910C94D233CF93DF93EC018E81FB
:10309000882389F08F8198859C012F5F3F4F388767
:1030A0002F838230924018F40E941A18F3CFCE0179
:1030B0000E941D181E82DF91CF910895673028F07D
:1030C00026E1FC01258380E00895623079F038F034
:1030D0006430A9F090F06530A1F082E508C080E589
:1030E00080939B0A81E080939C0A089580E58093F9
:1030F0009B0A10929C0A81E0089581E5F1CF81E559
:10310000F6CF82E5EDCF0F931F93CF93DF93EB01C3
:103110000E94B7328B010E941A188F3F69F00E94FB
:10312000B732601B710B6C177D07A8F380E0DF914D
:10313000CF911F910F91089581E0F9CF8F929F92C7
:10314000AF92BF92FF920F931F93CF93DF93EC0147
:10315000F62E49015A010E944418CE010E942E18F1
:103160006CE271E0CE010E9483188F2D80640E9472
:10317000131808E110E0D501C401002E04C0B69573
:10318000A795979587950A94D2F70E94131808502F
:103190001109083F8FEF180771F785E9FF2021F02B
:1031A00088E0F8120DC087E80E94131810E00E9412
:1031B0001A188A8787FF06C01F3F21F01F5FF7CFCD
:1031C0008FEFF2CFDF91CF911F910F91FF90BF90C2
:1031D000AF909F908F9008958F929F92AF92BF92E1
:1031E000EF92FF920F931F93CF93DF93EC01E62EA4
:1031F0001B8619861E821D824C830E94B7328B016A
:1032000061E08C810E94963361E08C810E94D23310
:103210000E94D12682E580939B0A81E080939C0ADC
:1032200080919B0A90919C0A0E94F9172AE0F22E45
:103230008FEF0E941318FA94F110FACF8091A80C26
:1032400081110E94EC17CE010E942E1820E030E080
:10325000A90160E0CE010E949E18F82E8A8781E0C5
:10326000F816C1F00E94B732601B710B613D7740C8
:1032700068F381E08D83CE010E941D1880E0DF910C
:10328000CF911F910F91FF90EF90BF90AF909F90C3
:103290008F9008952AEA31E040E050E068E0CE01E6
:1032A0000E949E1882FF25C0FB868B85812C912C65
:1032B0005401823029F4812C912CA12C80E4B82E69
:1032C00020E030E0A90167E3CE010E949E18A5012D
:1032D000940169E2CE010E949E188A878823C1F07A
:1032E0000E94B732601B710B613D774048F388E064
:1032F000C1CF94E0F92E0E941A188A87FA94F1102F
:10330000FACF8A3A11F082E0B5CF82E08B87CDCF39
:103310008B858230C1F420E030E0A9016AE3CE0160
:103320000E949E18882311F086E0A4CF0E941A18EC
:10333000807C803C11F483E08B870E941A180E94E5
:103340001A180E941A18CE010E941D186E2DCE0167
:10335000DF91CF911F910F91FF90EF90BF90AF90B1
:103360009F908F900C945E180F931F93CF93DF93D1
:10337000EC010E94B7328B010E941A188A878F3F96
:1033800091F40E94B732601B710B6D327140A0F353
:103390008FE08D83CE010E941D1880E0DF91CF91D8
:1033A0001F910F9108958E3F11F08DE0F2CF81E0D3
:1033B000F5CFCF92DF92EF92FF920F931F93CF93AF
:1033C000DF93EC016901C801820F931F81309240A5
:1033D00048F58E81882371F088819981AA81BB810B
:1033E00084179507A607B70729F48F819885C81613
:1033F000D90670F5488359836A837B838B85833034
:1034000039F089E0440F551F661F771F8A95D1F761
:103410009A01AB0161E1CE010E949E18882379F0E8
:1034200083E08D83CE010E941D1880E0DF91CF9153
:103430001F910F91FF90EF90DF90CF900895CE01F4
:103440000E94B419882371F318861F8281E08E834D
:103450008F8198858C159D0560F06701E00EF11E47
:10346000EC14FD0471F00E941A18F60181936F01AB
:10347000F7CF0E941A188F819885019698878F83BD
:10348000E7CF8F819885080F191F18870F838985CB
:10349000882319F00115124018F0CE010E9444183B
:1034A00081E0C4CFEF92FF920F931F930115110596
:1034B00039F00E94D9191F910F91FF90EF90089554
:1034C00081E0F9CFEF92FF920F931F93790100E013
:1034D00012E030E020E00E94D9191F910F91FF9077
:1034E000EF900895EF92FF920F931F93CF93DF9386
:1034F0008C01862F7A010E941318E7018EEFF81ACB
:1035000089910E941318CE15DF05D1F78FEF0E9425
:1035100013188FEF0E9413180E941A18F80182875F
:103520008F71853069F081E18583C8010E941D1883
:1035300080E0DF91CF911F910F91FF90EF90089560
:1035400081E0F7CF0F931F93CF93DF93EC018901B5
:1035500082E1411551056105710599F08B85833034
:1035600039F089E0440F551F661F771F8A95D1F700
:103570009A01AB0168E1CE010E949E18882339F0C0
:1035800084E08D83CE010E941D1880E023C0A80135
:103590006EEFCE010E94721A8823A1F368E572E0F3
:1035A000CE010E948318811102C085E1EACF20E09C
:1035B00030E0A9016DE0CE010E949E18882311F031
:1035C00084E1DFCF0E941A188111FACFCE010E9448
:1035D0001D1881E0DF91CF911F910F910895EBE9C4
:1035E000FAE080E5808381E0818308950895CF9398
:1035F000DF93EC019C012A5F3F4F41E050E060E027
:1036000070E08B8D9C8D0E9450248823A1F08F89BF
:10361000988DA98DBA8D892B8A2B8B2B59F48E818D
:103620009F81A885B9858F8B988FA98FBA8F8C8140
:1036300080688C8381E0DF91CF9108958F929F9273
:10364000AF92BF92CF92DF92EF92FF92CF93DF9330
:10365000EC010E94F71A81110CC080E0DF91CF913C
:10366000FF90EF90DF90CF90BF90AF909F908F90A2
:103670000895EB8DFC8DCE80DF80E884F98482E0B4
:10368000C81AD108E108F108858504C0CC0CDD1CFE
:10369000EE1CFF1C8A95D2F786859785A089B18993
:1036A000C80ED91EEA1EFB1E848146015701880EF2
:1036B000911CA11CB11C8C149D04AE04BF0461F0CC
:1036C00081E0881A9108A108B108C501B4010E94DF
:1036D0009E228111F0CFC1CFEB8DFC8D258580E03E
:1036E00092E0A0E0B0E004C0880F991FAA1FBB1FA2
:1036F0002A95D2F74B895C896D897E89840F951F45
:10370000A61FB71F8B8B9C8BAD8BBE8B81E0A6CF8A
:10371000CF93DF93EC01462F6E857F858889998949
:103720000E946322882351F08A8920E2829FC0018F
:1037300011248A55954FDF91CF91089590E080E054
:10374000FACFFB019B01255F3F4F40E241932E17CB
:103750003F07E1F7DC0120E037E09D91492F9923F5
:1037600019F19E3229F43A3059F028E03AE0F5CFC9
:10377000E6E8F1E08491882329F031969813FACF96
:1037800080E017C03217A8F05FED590F5E3588F45E
:103790008FE9890F8A3110F440EE490FFB01E20FE7
:1037A000F11D40832F5FD9CF81E0FB0190819032E2
:1037B00039F308950F931F93CF93DF93FC01258175
:1037C000222331F080E0DF91CF911F910F91089576
:1037D0008B01EC01FB018789803139F582E08D8313
:1037E0001F8A188E198E1A8E808D918DB0E0A0E000
:1037F00025E0880F991FAA1FBB1F2A95D1F78B8B35
:103800009C8BAD8BBE8B1C8F0B8F81E08C831E82BB
:103810001F82188619861A861B861C861D861E86A0
:103820001F86188A198A1A8ACECF803259F683E009
:103830008D83428D538D648D758D4F8B588F698F1D
:103840007A8F9E012D5E3F4FC8010E944323811154
:10385000DACFB8CF2F923F924F925F926F927F92C2
:103860008F929F92AF92BF92CF92DF92EF92FF9290
:103870000F931F93CF93DF93EC015B012A018D819E
:10388000811115C08FEF9FEFDF91CF911F910F91A5
:10389000FF90EF90DF90CF90BF90AF909F908F9070
:1038A0007F906F905F904F903F902F9008958C8104
:1038B00080FFE8CF0B891C892D893E894A855B856D
:1038C0006C857D85C201B0E0A0E068017901C41A71
:1038D000D50AE60AF70AC816D906EA06FB0618F45E
:1038E0002801441A550A42011E0126E0220E311C0D
:1038F0008114910409F4B3C04A855B856C857D858C
:103900006A0181E0D8228B8D9C8D8A019B01E9E0C0
:103910003695279517950795EA95D1F7ED81E23011
:10392000E1F5FC01628D738D848D958D600F711FA3
:10393000821F931F612C22E0722E6C187D08861462
:10394000970408F434012C8126FD04C06114F2E0D0
:103950007F0671F40091070110910801209109017F
:1039600030910A01061717072807390709F053C0D5
:1039700040E00E946322882309F484CFC6018A555F
:10398000954FD5019C01260D371DFC012E173F07D1
:1039900009F460C041914D93F9CFFC0174807A9491
:1039A0007022C114D10471F471100CC0452B462B48
:1039B000472B39F58F89988DA98DBA8D8E839F837A
:1039C000A887B987EB8DFC8D6E817F81888599856D
:1039D0006250710981099109258504C0660F771F1E
:1039E000881F991F2A95D2F7068517852089318966
:1039F000600F711F821F931F670D711D811D911D27
:103A000099CF4E815F816885798591010E94C2229C
:103A10008111D8CF37CF750183019601AB01BC016D
:103A20008091A40A9091A50A0E94521A882309F451
:103A300029CFA60CB71C8A859B85AC85BD85860DD4
:103A4000971DA11DB11D8A879B87AC87BD878618EE
:103A500097084ECF281B390BA20EB31EECCFC20124
:103A600013CFFF920F931F93CF93DF931F92CDB786
:103A7000DEB7FC0125812230C8F08C0142855385D8
:103A80006485758585E076956795579547958A9500
:103A9000D1F7F42FFF70FF2E41E050E0BE016F5FC1
:103AA0007F4FC8010E942A1C019719F090E080E026
:103AB00012C0F80182859385A485B5854F96A11D16
:103AC000B11D82879387A487B587F0E2FF9EC0016E
:103AD00011248A55954F0F90DF91CF911F910F912F
:103AE000FF9008958F929F92AF92BF92CF92DF92F4
:103AF000EF92FF920F931F93CF93DF93EC018D8191
:103B000081110EC080E0DF91CF911F910F91FF9046
:103B1000EF90DF90CF90BF90AF909F908F900895DF
:103B20000B891C892D893E8904171507260737073D
:103B300048F34A015B01823031F48A869B86AC8669
:103B4000BD8681E0E0CF81149104A104B10449F461
:103B50001E821F82188619861A861B861C861D8661
:103B6000F0CF0A851B852C853D85EB8DFC8D8585E9
:103B700090E00996B901A801415051096109710904
:103B8000082E04C076956795579547950A94D2F705
:103B900075016401E1E0CE1AD108E108F10804C022
:103BA000F694E794D794C7948A95D2F7C416D506AD
:103BB000E606F70620F0012B022B032B11F58F8967
:103BC000988DA98DBA8D8E839F83A887B9878E0122
:103BD0000A5F1F4FC114D104E104F10409F4ADCF11
:103BE0004E815F816885798598018B8D9C8D0E94BF
:103BF000C22291E0C91AD108E108F1088111EACF87
:103C000081CFC41AD50AE60AF70AE1CF0F931F93B2
:103C1000CF93DF93EC018D818823D9F18C8187FFCD
:103C200032C061E0CE010E94881B8C01892B89F192
:103C30008D81823048F48B899C89AD89BE89F801D9
:103C4000848F958FA68FB78F8F89988DF801938F6A
:103C5000828F8F89988DA98DBA8DB58BA48BE091B9
:103C60009D0AF0919E0A309759F0B8016A5E7F4F25
:103C7000C80148960995F801808D918D938B828BB0
:103C80008C818F778C83DF91CF911F910F910C9452
:103C9000282280E0DF91CF911F910F910895CF935B
:103CA000DF93EC010E94061E882311F01D8281E043
:103CB000DF91CF9108954F925F926F927F928F9292
:103CC0009F92AF92BF92EF92FF920F931F93CF9369
:103CD000DF9300D000D0CDB7DEB7FC018581813005
:103CE000A1F080E00F900F900F900F90DF91CF9197
:103CF0001F910F91FF90EF90BF90AF909F908F908A
:103D00007F906F905F904F900895848181FFE9CFFD
:103D100083899489A589B68984179507A607B7076B
:103D200000F3892B8A2B8B2B09F477C04A015B01A6
:103D30007F014284538464847584CF010E94721D84
:103D4000882379F2F701838D948D81149104A10465
:103D5000B10449F54789508D618D728D0E945B25B4
:103D6000882309F4BECFF701178A108E118E128EA8
:103D7000F701838A948AA58AB68A848180688483BD
:103D8000C7010E94061E882309F4ABCFB501A40128
:103D9000441655066606770610F4B301A201C70162
:103DA0000E94721D9FCF46815781608571859E015B
:103DB0002F5F3F4F0E94C222882309F492CFF70160
:103DC000838D948D49815A816B817C81FC01278987
:103DD0002031F1F408EF1FEF20E030E040175107E9
:103DE0006207730728F60E945B25882309F479CFC0
:103DF000F70146815781608571850FEF1FEF2FEF27
:103E00003FE0838D948D0E94AE238111B1CF69CFA5
:103E100008EF1FEF2FEF3FE0E1CF81E063CFCF92BC
:103E2000DF92EF92FF921F93CF93DF93EC0180E23A
:103E3000689FF0011124EA55F54F9385917161F067
:103E4000842F827449F080E0DF91CF911F91FF9021
:103E5000EF90DF90CF900895142F6A8B8091070127
:103E600090910801A0910901B0910A018E879F8766
:103E7000A88BB98BC488D588F12CE12C7601DD2480
:103E8000CC24CF8AD88EE98EFA8E828D938DB0E0C5
:103E9000A0E0AC01BD014C295D296E297F294F8B23
:103EA000588F698F7A8F8385887129F5848D958DD8
:103EB000A68DB78D8B8B9C8BAD8BBE8B81E08D835C
:103EC000812F8F708C831E821F82188619861A8616
:103ED0001B861C861D8681E016FFB6CF40E050E0B1
:103EE000BA01CE01DF91CF911F91FF90EF90DF904B
:103EF000CF900C945B1E803109F0A5CF9E012D5E02
:103F00003F4F8B8D9C8D0E944323882309F49BCFC8
:103F100084E0D5CFBF92CF92DF92EF92FF920F93C2
:103F20001F93CF93DF93CDB7DEB72B970FB6F894DF
:103F3000DEBF0FBECDBFFC01358131110BC0C22EDB
:103F40008B017C01BE016F5F7F4FCA010E94A11BE4
:103F5000811102C080E0A1C0F801838D948DF7012A
:103F6000948F838FF801168217821086118612862D
:103F7000138614861586B12CF80182859385A48555
:103F8000B585438954896589768984179507A6077D
:103F9000B70788F525E0B695A795979587952A9553
:103FA000D1F7F82FFF70DF2EC8010E94311D009756
:103FB00089F2FC012081222341F0253E09F059C0FD
:103FC000BB2029F0BB24B394D7CFB1100EC0F701AA
:103FD000D28A4091070150910801609109017091C6
:103FE0000A0146875787608B718BFC0180818111A4
:103FF000E9CFBB24B3948C2D8271823109F0AACF12
:10400000BB2009F45AC061E0C7010E94881B8C01E3
:10401000892B09F49FCF80E2F80111928A95E9F784
:104020008BE0FE013196D80101900D928A95E1F75F
:10403000E0919D0AF0919E0A309709F44EC0B801B4
:10404000625F7F4FC80140960995F8018089918988
:10405000938B828B918F808F86859785978B868BAC
:104060000E942822882309F475CF4C2DF70162891C
:1040700011C04BE050E0BC01CE0101960E946938AE
:10408000892B09F079CF8C2D80734C2D6D2D8033C9
:1040900009F460CFC7010E940F1F2B960FB6F8944A
:1040A000DEBF0FBECDBFDF91CF911F910F91FF906B
:1040B000EF90DF90CF90BF900895F8018581823016
:1040C00009F448CFC8010E941E1B882309F442CF7F
:1040D000F701128A06EA1AE09ECF81E298E2F8011F
:1040E000918B808B80E098E097878687AECF2F9268
:1040F0003F924F925F926F927F928F929F92AF9278
:10410000BF92CF92DF92EF92FF920F931F93CF93C4
:10411000DF9300D000D0CDB7DEB78C016B011A0160
:10412000DC0115968C911597813009F0C8C0149662
:104130008C9181FFC4C082FDAEC04101D8011A96A6
:104140004D915D916D917C911D978114910409F4BD
:1041500029C15B968D919C915C97FC0174802FEF37
:10416000270D2A013B0139E07694679457944794D0
:104170003A95D1F7722E74207A01F1E0FF22711086
:1041800020C0E114F104E9F416964D915D916D9112
:104190007C911997411551056105710509F098C089
:1041A00057968D919D910D90BC91A02D0097A105E2
:1041B000B10509F0AFC0C8010E94F71A882309F4BD
:1041C0007EC080E092E08E199F0954018815990500
:1041D00008F45C01D8015B964D915C915C97169652
:1041E0008D919D910D90BC91A02D0297A109B109CF
:1041F000FA01258504C0880F991FAA1FBB1F2A95A5
:10420000D2F74685578560897189840F951FA61F4F
:10421000B71F9C01AD01270D311D411D511D290105
:104220003A01A11432E0B30609F07AC08091070187
:1042300090910801A0910901B0910A01841595059A
:10424000A605B70559F48FEF9FEFDC0180930701B6
:1042500090930801A0930901B0930A019601B3015C
:10426000A2018091A40A9091A50A0E94A21A882313
:1042700031F19EEFD91A8A189B08F801828593853F
:10428000A485B5858A0D9B1DA11DB11D82879387CD
:10429000A487B58753CFF801438954896589768906
:1042A00082859385A485B585481759076A077B07DA
:1042B00009F443CFC8010E94721D81113ECF81E0F5
:1042C00090E0D80113969C938E93129780E007C0DC
:1042D0009E012F5F3F4F0E94C222811102C090E0D9
:1042E0007BC089819A81AB81BC81F801238D348D9B
:1042F000F901278948EF5FEF60E070E0203121F09D
:1043000048EF5FEF6FEF7FE084179507A607B707C9
:1043100008F051CFF80186839783A087B18751CFEA
:10432000E114F10491F5D8011A964D915D916D91CA
:104330007C911D9753968D919D910D90BC91A02DD0
:10434000481759076A077B0700F10E942822882333
:1043500009F4B5CF4092070150920801609209011B
:1043600070920A018091A30A81608093A30A970149
:104370002A55354FD601C9018A0D9B1DF9018E17AB
:104380009F0759F04D914193FACF41E0C301B2012B
:104390000E9463228111EBCF92CF821B930BC80E38
:1043A000D91E69CF14968C9114975396CD90DD90B9
:1043B000ED90FC905697C416D506E606F70618F55C
:1043C000F801438B548B658B768B80688483F8016E
:1043D000848183FD25C0C1010F900F900F900F9035
:1043E000DF91CF911F910F91FF90EF90DF90CF90D1
:1043F000BF90AF909F908F907F906F905F904F9005
:104400003F902F90089520919D0A30919E0A232B72
:10441000F1F221143104D9F2806814968C93D7CF2D
:10442000C8010E94061E882309F449CFD4CFCF9338
:10443000DF931F92CDB7DEB7698341E050E0BE0144
:104440006F5F7F4F0E9477200F90DF91CF9108958B
:104450008091A30A8823A9F1409107015091080196
:104460006091090170910A0126EA3AE08091A40A5C
:104470009091A50A0E94A21A811102C080E00895BD
:1044800040919F0A5091A00A6091A10A7091A20ADE
:10449000411551056105710591F026EA3AE08091D8
:1044A000A40A9091A50A0E94A21A882339F31092B7
:1044B0009F0A1092A00A1092A10A1092A20A1092CA
:1044C000A30A81E00895CF92DF92EF92FF92CF93FB
:1044D0006B017C01C42F8091070190910801A0918C
:1044E0000901B0910A018C159D05AE05BF05F9F0D3
:1044F0000E942822811107C080E0CF91FF90EF90A9
:10450000DF90CF90089526EA3AE0B701A6018091A6
:10451000A40A9091A50A0E94621A882369F3C092A6
:104520000701D0920801E0920901F0920A0140913E
:10453000A30A4C2B4093A30A81E0DFCFCF92DF92F6
:10454000EF92FF926B017C010E9428228823A9F040
:10455000E6EAFAE011928CE0E63AF807D9F7C09261
:104560000701D0920801E0920901F0920A018091BE
:10457000A30A81608093A30A81E0FF90EF90DF900F
:10458000CF9008958F929F92AF92BF92CF92DF9279
:10459000EF92FF920F931F93CF93DF93FC018185DE
:1045A0009285A385B4850196A11DB11D8417950739
:1045B000A607B70770F480E0DF91CF911F910F91AC
:1045C000FF90EF90DF90CF90BF90AF909F908F9033
:1045D000089583889488A588B6888789803189F56D
:1045E000BB27A72F962F852FE9016A017B018F0139
:1045F000BC01CD01680D791D8A1D9B1D80900701AE
:1046000090900801A0900901B0900A0186169706C3
:10461000A806B90601F5F8018789803111F5DD2476
:10462000EE24FF24F601EE0FFF1FEA55F54F8081BF
:104630009181B0E0A0E088839983AA83BB8381E065
:10464000BBCFDB01CA01C7E0B695A79597958795C3
:10465000CA95D1F7C9CF40E00E9463228111DBCF18
:10466000AACFE894C7F8DD24EE24FF24F601EE0F6C
:10467000FF1FEE0FFF1FEA55F54F80819181A28148
:10468000B381BF70D8CF4F925F926F927F92AF92FB
:10469000BF92CF92DF92EF92FF920F931F93CF932F
:1046A000DF9300D000D0CDB7DEB78C0149835A83A9
:1046B0006B837C835901C12CD12C7601412C82E083
:1046C000582E612C712C49815A816B817C819E010D
:1046D0002F5F3F4FC8010E94C222882339F1F801A1
:1046E0008585A301920104C0220F331F441F551F6B
:1046F0008A95D2F7DA01C901C80ED91EEA1EFB1E3F
:1047000049815A816B817C818789803111F188EFE1
:104710009FEFAFEFBFE0481759076A077B0798F292
:10472000F501C082D182E282F38281E00F900F9086
:104730000F900F90DF91CF911F910F91FF90EF900D
:10474000DF90CF90BF90AF907F906F905F904F9031
:10475000089588EF9FEFA0E0B0E0DDCF4F925F9229
:104760006F927F928F929F92AF92BF92CF92DF9281
:10477000EF92FF920F931F93CF93DF93EC014230A0
:1047800051056105710590F480E0DF91CF911F9193
:104790000F91FF90EF90DF90CF90BF90AF909F90E0
:1047A0008F907F906F905F904F90089589859A8544
:1047B000AB85BC850196A11DB11D84179507A60781
:1047C000B70710F3CB88DC88ED88FE888F898031AD
:1047D00009F042C0BB27A72F962F852F480159010A
:1047E0002A013B01C80ED91EEA1EFB1E809107015B
:1047F00090910801A0910901B0910A01C816D9064B
:10480000EA06FB0699F58F898031C1F5B301A20153
:10481000552766277727440F551F4A55554FFA01EC
:10482000918280828091A30A81608093A30A8A8901
:10483000823080F08D819E81AF81B8858C0D9D1D69
:10484000AE1DBF1D80939F0A9093A00AA093A10A5A
:10485000B093A20A81E099CFDB01CA01E7E0B695E7
:10486000A79597958795EA95D1F7B8CF40E0C7010E
:10487000B6010E9463228111C6CF86CFB301A20187
:104880004F77552766277727440F551F440F551F2D
:104890004A55554FFA0180829182A282B382C2CFDB
:1048A0002F923F924F925F926F927F928F929F9240
:1048B000AF92BF92CF92DF92EF92FF920F931F932E
:1048C000CF93DF93CDB7DEB72F970FB6F894DEBF47
:1048D0000FBECDBF3C01488759876A877B873F83DE
:1048E0002E83D901CD90DD90ED90FC90C114D104C0
:1048F000E104F10439F0BFEFCB1ADB0AEB0AFB0A43
:104900001D8210C0FC01C080D180E280F380F1E004
:10491000FD83088519852A853B8501301105210510
:10492000310571F7F30181859285A385B4858C01EA
:104930009D010F5F1F4F2F4F3F4F0C871D872E8705
:104940003F8746015701212C312C2101F30181853C
:104950009285A385B485281639064A065B0608F0B9
:1049600044C00C851D852E853F85081519052A052F
:104970003B0550F482E0882E912CA12CB12C92E0C2
:10498000C92ED12CE12CF12C9E012F5F3F4FB50198
:10499000A401C3010E94C222882339F1D501C401B8
:1049A0000196A11DB11D49815A816B817C81452BE6
:1049B000462B472BA9F5AC01BD014C195D096E09C9
:1049C0007F09088519852A853B85401751076207AD
:1049D000730741F50FEF1FEF2FEF3FE0B501A40183
:1049E000C3010E94AE23811125C01D828D812F96A7
:1049F0000FB6F894DEBF0FBECDBFDF91CF911F91F0
:104A00000F91FF90EF90DF90CF90BF90AF909F906D
:104A10008F907F906F905F904F903F902F90089570
:104A20006C017D011FEF211A310A410A510A4C0124
:104A30005D018CCFC814D904EA04FB0488F4140186
:104A4000250121E0221A310841085108950184010D
:104A5000B201A101C3010E94AE2352014101C3CFA3
:104A6000AE81BF814D915D916D917C914115510554
:104A70006105710561F4EE81FF81C082D182E2821D
:104A8000F382FD81F1110BC001E00D83AFCF9701DF
:104A90008601C3010E94AE238111EDCFA6CF1FEF87
:104AA000C11AD10AE10AF10AD301CD92DD92ED9249
:104AB000FC9213979BCFAF92BF92CF92DF92EF926F
:104AC000FF920F931F93CF93DF9300D000D0CDB709
:104AD000DEB75C016A017B0182E090E0A0E0B0E01B
:104AE000F50180839183A283B3839E012F5F3F4FA3
:104AF000B701A601C5010E94C222882381F100E00E
:104B000010E09801B701A601C5010E94AE238823D9
:104B100031F1C980DA80EB80FC80F5018789803132
:104B2000C9F088EF9FEFAFEFBFE0C816D906EA06DD
:104B3000FB06D8F281E00F900F900F900F90DF915D
:104B4000CF911F910F91FF90EF90DF90CF90BF908A
:104B5000AF90089588EF9FEFA0E0B0E0E6CF80E04F
:104B6000EACF8F929F92AF92BF92CF92DF92EF9255
:104B7000FF920F931F93CF93DF93EC01142F709349
:104B8000A50A6093A40A442309F478C0453070F064
:104B900080E0DF91CF911F910F91FF90EF90DF9018
:104BA000CF90BF90AF909F908F90089540E060E0CD
:104BB00070E0CB010E946322882351F3812F815042
:104BC000990BAC0164E0440F551F6A95E1F74A5513
:104BD000554FFA01E254FE4F80818F77C9F63C961B
:104BE00080819181A281B38184369105A105B105AF
:104BF00078F24A535E4FFA01C080D180E280F380A0
:104C0000C114D104E104F10419F240E0C701B60176
:104C10000E946322882309F4BBCF8091B10A90914E
:104C2000B20A8115924009F0B3CF9091B60A992348
:104C300009F4AECF2091B40A3091B50A232B09F4C0
:104C4000A7CF8091B30A882309F4A2CF9A8B8C83D3
:104C50001D8690E041E050E02D85E22FBA01022E42
:104C600002C0660F771F0A94E2F78617970751F084
:104C700031E0320F3D87283078F38ACFC12CD12C18
:104C80007601C3CF2091BC0A3091BD0A50E040E0CC
:104C90002115310541F42091CA0A3091CB0A409187
:104CA000CC0A5091CD0A2D833E834F835887809143
:104CB000B40A9091B50A46015701880E991EA11CAD
:104CC000B11C8B8A9C8AAD8ABE8A0091B70A10916A
:104CD000B80A198F088FA091B60AB0E00E943A3640
:104CE000DC01CB01880D991DAA1DBB1D8A8F9B8FEE
:104CF000AC8FBD8F25E0000F111F2A95E1F7015001
:104D00001E4F012F11270695800F911FA11DB11D68
:104D10008E879F87A88BB98B0091B90A1091BA0A28
:104D200030E020E00115110541F40091C60A109110
:104D3000C70A2091C80A3091C90AC81AD90AEA0AD2
:104D4000FB0AC00ED11EE21EF31E04C0F694E794C7
:104D5000D794C794EA95D2F7C986DA86EB86FC86A3
:104D60008CE025EFC2162FE0D206E104F10440F0FA
:104D700085EFC8168FEFD806E104F10420F480E136
:104D80008F8B81E006CF8091D20A9091D30AA091B7
:104D9000D40AB091D50A8A8F9B8FAC8FBD8F80E2E9
:104DA000EFCFCF93CFB7F8948091A90C811127C092
:104DB000EAEDF1E08491EAEBF1E09491E82FF0E084
:104DC000EE0FFF1FE65FFD4FA591B491EC91E92333
:104DD00021F461E084E00E94D23361E084E00E942B
:104DE00096338CB580618CBD8CB580648CBD61E0E0
:104DF00087E00E94963361E085E00E9496338091BF
:104E0000A90C8F5F8093A90CCFBFCF910895CF934A
:104E1000DF93EC016A818A8D9B8D0E9446118A8DF9
:104E20009B8D0E94CE11282F30E02115310511F005
:104E300084E8898F81E0232B09F080E0DF91CF9116
:104E40000895CF92DF92EF92FF920F931F93CF932B
:104E5000DF938C01F62EE42EC52E462FDC01129630
:104E60006C9112975A968D919C910E94C8118F1146
:104E700013C0DE2CCE2DDC2D8C2F8D198F15C8F490
:104E8000F801828D938DDC01ED91FC910284F38514
:104E9000E02D09958993F0CF82E8F801818F80E0B9
:104EA000DF91CF911F910F91FF90EF90DF90CF9006
:104EB000089581E0F5CFDC01ED91FC910190F08146
:104EC000E02D09940F931F93CF93DF93EC018B0197
:104ED0006A818A8D9B8D0E944611612F70E08A8DB8
:104EE0009B8D0E945B27B80177278A8D9B8D0E943E
:104EF0005B278A8D9B8D0E94CE11882341F081E82B
:104F0000898F80E0DF91CF911F910F91089581E00B
:104F1000F9CFFC018EE292E091838083538F428F20
:104F200062831482158216821782108E178A168A5F
:104F3000158A13821486158616861786108A118A9A
:104F4000128A138A148A118E0895CF93DC01ED9191
:104F5000FC910280F381E02D61110FC062EA70E3E1
:104F60000995C82F882331F061E070E080E090E07F
:104F70000E94E8328C2FCF91089566E070E0F0CF68
:104F8000FC0192819454923020F460E0CF010C94A3
:104F9000A52780E00895FB018FEF21E3442369F00A
:104FA0009191892798E087FF06C0880F822791504A
:104FB000D1F74150F3CF880FFACF0895EF92FF92C7
:104FC0000F931F93CF93DF9300D000D000D0CDB7C5
:104FD000DEB78C01E62EDC01ED91FC910480F581B9
:104FE000E02DAE014F5F5F4F66E00995F82E8823F4
:104FF00081F0E1102BC0EB8042E0BE016F5F7F4F7C
:10500000C8010E94CB27E81691F085E8F801818F4E
:10501000F12C8F2D26960FB6F894DEBF0FBECDBFB4
:10502000DF91CF911F910F91FF90EF900895EE8047
:1050300042E0BE016C5F7F4FC8010E94CB27E8169B
:1050400029F086E8D80159968C93E2CF898190E0C7
:10505000982F88272A81820F911DF801908F878BC6
:105060008C8190E0982F88272D81820F911D968B3F
:10507000858B0E94B732D80114966D937D938D93E2
:105080009C931797C6CF1F93CF93DF93EC01162FF6
:10509000E881F9810280F381E02D60E074E2112360
:1050A00011F066E174E2CE010995882399F06FE072
:1050B00070E080E090E0112321F064E070E080E097
:1050C00090E00E94E832612FCE01DF91CF911F91D5
:1050D0000C94DE2780E0DF91CF911F910895FC01B1
:1050E000608352AF41AF88E0818389E19CEFAFEFED
:1050F000BFEF82839383A483B58386839783A0873E
:10510000B187938B828B10AA11AA12AA13AA14AA90
:1051100015AA16AA17AA128613861486158616864D
:105120001786108A118A81E080AF0895CF93DF93AC
:10513000EC01688189AD9AAD0E94461189AD9AADA6
:105140000E94CE1191E0811190E0892FDF91CF91E3
:1051500008958F929F92AF92BF92CF92DF92EF927B
:10516000FF92FC0186849784A088B1886281738154
:10517000848195810E94D3342AE037ED43E25CE3D9
:105180000E9483356B017C0120E030E0A901C5015C
:10519000B4010E949634882341F0A5019401C7010F
:1051A000B6010E942A346B017C01C701B601FF9051
:1051B000EF90DF90CF90BF90AF909F908F90089529
:1051C0008F929F92AF92BF92CF92DF92EF92FF9217
:1051D000FC0182849384A484B58466817781808570
:1051E00091850E94D3342AE037ED43E25CE30E94CC
:1051F00083356B017C0120E030E0A901C501B401D9
:105200000E949634882341F0A5019401C701B6019C
:105210000E942A346B017C01C701B601FF90EF9018
:10522000DF90CF90BF90AF909F908F9008951F9385
:10523000CF93DF93EC01162F0E945C32688189AD19
:105240009AAD0E94461189AD9AADDC01ED91FC91B9
:105250000190F081E02D612F099589AD9AAD0E94F2
:10526000CE1190E09B8B8A8BDF91CF911F91089597
:105270008F929F92AF92BF92CF92DF92EF92FF9266
:105280001F93CF93DF93CDB7DEB72A970FB6F8946D
:10529000DEBF0FBECDBF9C019AE0EBE0F1E0DE0186
:1052A000119601900D929A95E1F74D3070F14CE016
:1052B00018EF140F912F990F690FC9010E94172938
:1052C000412F50E0440F551F81E090E08C0F9D1F4F
:1052D000480F591FFA01C080D1800E94C3324B0190
:1052E0005C01F12CE12C0E94C332681979098A090A
:1052F0009B096C157D058E059F0558F40E945C3254
:105300008AE090E00E942133EECF483088F648E0F2
:10531000CFCF2A960FB6F894DEBF0FBECDBFDF9178
:10532000CF911F91FF90EF90DF90CF90BF90AF9003
:105330009F908F9008950F931F93CF93DF936830C2
:1053400038F090E080E0DF91CF911F910F910895A8
:10535000EC01660F60560E9417298A899B89892B68
:1053600081F742E0688189AD9AAD0E94C811823010
:1053700040F389AD9AADDC01ED91FC910284F38597
:10538000E02D099500E0182F89AD9AADDC01ED9173
:10539000FC910284F385E02D0995800F911FD3CFF6
:1053A0008F929F92AF92BF92CF92DF92EF92FF9235
:1053B000CF93DF93EC0160E00E9417298A899B89D3
:1053C000892B71F060E070E0CB01DF91CF91FF900D
:1053D000EF90DF90CF90BF90AF909F908F90089507
:1053E00043E0688189AD9AAD0E94C811833050F3C3
:1053F00089AD9AADDC01ED91FC910284F385E02D3D
:105400000995092E000CAA0BBB0B5C01992488247A
:1054100089AD9AADDC01ED91FC910284F385E02D1C
:1054200009956C01990FEE08FF08FE2CED2CDC2C81
:10543000CC24C80CD91CEA1CFB1C89AD9AADDC013C
:10544000ED91FC910284F385E02D0995BC01990F43
:10545000880B990B6C0D7D1D8E1D9F1DB6CF4F9235
:105460005F926F927F928F929F92AF92BF92CF92F4
:10547000DF92EF92FF920F931F93CF93DF93CDB7FD
:10548000DEB766970FB6F894DEBF0FBECDBF9E8B1A
:105490008D8BF62E462F60E40E943829ED89FE8917
:1054A000028913890115110509F043C1CF010E943A
:1054B000D0296D877E878F87988BED89FE89028939
:1054C00013890115110509F034C14F2D60E5CF0195
:1054D0000E943829ED89FE89028913890115110579
:1054E00009F027C1CF010E94D029ED89FE890289E8
:1054F00013890115110509F01CC10E94D134ED89F1
:10550000FE8920A531A542A553A50E9429346B012F
:105510007C01ED89FE8924A535A546A557A50E94E5
:10552000833520E030E04AEF54E40E942A340E94A0
:105530009B344B015C01ED89FE8982829382A482B7
:10554000B58224A135A146A157A1C701B6010E9489
:105550008335ED89FE89248D358D468D578D0E94CA
:105560002A342B013C01ED89FE8920A131A142A101
:1055700053A1C701B6010E948335ED89FE89208DB4
:10558000318D428D538D0E942A3469837A838B83B7
:105590009C83ED89FE8980AD882309F49EC0F0EDDF
:1055A0008F16F7E09F06A104B1040CF096C0A70186
:1055B0009601C701B6010E94833520E030E040E04B
:1055C00050E30E948335698B7A8B8B8B9C8BC50152
:1055D000B401605D7740810991099B01AC010E9493
:1055E000F0350E94D3346B017C0120E030E040E2D2
:1055F00050E40E9483356D837E838F83988720E0FB
:1056000030E040EA5FE3C701B6010E9483356B01D9
:105610007C0184E288168AEF98068FEFA806B80608
:10562000A4F5C501B40164527A4F8F4F9F4F9B017F
:10563000AC010E94F0350E94D33469877A878B874A
:105640009C8720E030E040EE50E40E9483359B01CF
:10565000AC016D817E818F8198850E942A346D8393
:105660007E838F83988720E030E040EB50E46985AB
:105670007A858B859C850E9483359B01AC01C7018F
:10568000B6010E942A346B017C01C501B4010E945D
:10569000D33429893A894B895C890E9429340E9434
:1056A0009B34ED89FE8962837383848395832D8186
:1056B0003E814F815885C301B2010E9429342B01DC
:1056C0003C01A701960169817A818B819C810E94AE
:1056D000293469837A838B839C836D857E858F854E
:1056E00098890E94D13429813A814B815C810E9442
:1056F000833520E030E040E055E30E948335A3018C
:1057000092010E94293420E030E040E058E30E94FA
:1057100083350E949B34ED89FE8966837783808779
:1057200091870E94B732ED89FE8960AB71AB82AB85
:1057300093ABC80166960FB6F894DEBF0FBECDBF1F
:10574000DF91CF911F910F91FF90EF90DF90CF905D
:10575000BF90AF909F908F907F906F905F904F9091
:105760000895CF92DF92EF92FF92FC01262F80E006
:1057700090E0A0E8BFE3848B958BA68BB78B80E08D
:1057800090E0A0E0B7E4808F918FA28FB38F40E0CC
:1057900050E060E877E4448F558F668F778F80E024
:1057A00090E0A0E8BBE380A391A3A2A3B3A380E011
:1057B00090E0A0E0BCE384A395A3A6A3B7A3C12C6B
:1057C000D12C30E8E32E33E4F32EC0A6D1A6E2A616
:1057D000F3A6C12CD12CE12C34E3F32EC4A6D5A61C
:1057E000E6A6F7A62130C1F4408F518F628F738FE8
:1057F00040E050E060E078E4448F558F668F778F0B
:1058000080A391A3A2A3B3A380E090E0A0E8BCE3AF
:1058100084A395A3A6A3B7A3FF90EF90DF90CF90AA
:1058200008952F923F924F925F926F927F928F9244
:105830009F92AF92BF92CF92DF92EF92FF920F931F
:105840001F93CF93DF93EC01162F6EE10E9417296F
:105850000E94C3326B017C010E94C3326C197D0926
:105860008E099F09603F7A408105910538F40E94B6
:105870005C328AE090E00E942133EECF612FCE01AE
:105880000E94B12B8E010C5E1F4F312C22242394D9
:10589000632DCE010E949B297C01F801819091909B
:1058A000A190B1908F016F01F4E0CF1AD1082C01C3
:1058B000712C612CC301B7010E94D134A501940160
:1058C0000E948335F60160837183828393838CA960
:1058D0009DA9AEA9BFA924E0880F991FAA1FBB1FCD
:1058E0002A95D1F78E259525A625B7258CAB9DAB9E
:1058F000AEABBFAB332039F0222029F02224239411
:10590000EF2809F4212C3394F7E03F12C1CF822D08
:10591000DF91CF911F910F91FF90EF90DF90CF908B
:10592000BF90AF909F908F907F906F905F904F90BF
:105930003F902F900895CF93DF93FC01208126574D
:10594000223058F4EC010E949628882331F060E060
:10595000CE01DF91CF910C94112C80E0DF91CF919B
:105960000895FC01918D228D892F90E0805C9F4FDE
:10597000821B91098F7399270895FC01918D828D67
:10598000981731F0828DE80FF11D858D90E0089514
:105990008FEF9FEF0895FC01918D828D981761F034
:1059A000A28DAE0FBF2FB11D5D968C91928D9F5F22
:1059B0009F73928F90E008958FEF9FEF0895FC0101
:1059C000538D448D252F30E0842F90E0821B930B64
:1059D000541710F0CF960895019708958AE49EE237
:1059E000892B49F080E090E0892B29F00E944A2E13
:1059F00081110E94000081EE9EE2892B49F080E037
:105A000090E0892B29F00E94E12E81110C94000076
:105A10000895FC01A48DA80FB92FB11DA35ABF4F43
:105A20002C91848D90E001968F739927848FA6899D
:105A3000B7892C93A089B1898C91837080648C93F1
:105A4000938D848D981306C00288F389E02D8081A0
:105A50008F7D80830895CF93DF93EC01888D882319
:105A6000B9F0AA89BB89E889F9898C9185FD03C0C1
:105A7000808186FD0DC00FB607FCF7CF8C9185FFA6
:105A8000F2CF808185FFEDCFCE010E94092DE9CFB5
:105A9000DF91CF910895EF92FF920F931F93CF93D1
:105AA000DF93EC0181E0888F9B8D8C8D98131AC059
:105AB000E889F989808185FF15C09FB7F894EE8940
:105AC000FF896083E889F98980818370806480839D
:105AD0009FBF81E090E0DF91CF911F910F91FF90E8
