:100000000C9411010C943B010C943B010C943B01AA
:100010000C943B010C943B010C943B010C943B0170
:100020000C943B010C943B010C943B010C943B0160
:100030000C943B010C946A010C943B010C943B0121
:100040000C943B010C943B010C9495280C943B01BF
:100050000C9443240C9479240C943B010C943B01A4
:100060000C943B010C943B010C94BF0E0C943B018F
:100070000C94DA240C9410250C943B010C943B0155
:100080000C943B010C943B010C943B0100407A1012
:10009000F35A00A0724E18090010A5D4E80000E839
:1000A0007648170000E40B54020000CA9A3B000097
:1000B00000E1F505000080969800000040420F0026
:1000C0000000A08601000000102700000000E803E7
:1000D000000000006400000000000A0000000000B2
:1000E0000100000000002C76D888DC674F0823DF71
:1000F000C1DFAE59E1B1B796E5E3E453C63AE65144
:10010000997696E8E6C28426EB898C9B62ED407C6A
:100110006FFCEFBC9C9F40F2BAA56FA5F490055A06
:100120002AF75C936B6CF9676DC11BFCE0E40D472B
:10013000FEF520E6B500D0ED902E0300943577054E
:100140000080841E080000204E0A000000C80C3306
:100150003333330F986E12831141EF8D2114893B95
:10016000E65516CFFEE6DB18D1844B381BF77C1D15
:10017000901DA4BBE424203284725E228100C9F168
:1001800024ECA1E53D277C3C3E5E2B3D3F2F5B5D93
:100190003B2C2A225C000000000203000A0B000036
:1001A0000000050409080000000000000000000035
:1001B000000000000000010204081020408001023D
:1001C0000408102040800102040810204080010231
:1001D000040810204080020202020202020204040B
:1001E00004040404040403030303030303030101DD
:1001F0000101010101010000200023002600290067
:1002000000002200250028002B000000210024000F
:1002100027002A008401D40DD813F216AD244425FA
:10022000960111241FBECFEFD0E4DEBFCDBF12E098
:10023000A0E0B1E0E6E6F2E600E00BBF02C0079006
:100240000D92A832B107D9F72AE0A8E2B2E001C0C6
:100250001D92AE38B207E1F711E0C0E1D1E004C071
:100260002197FE010E94DC2BCA30D107C9F70E94FA
:1002700086280C9426310C940000DC01ED91FC9151
:100280000190F081E02D09940CB405FC0DC09EBDD9
:1002900000000DB407FEFDCF9EB58EBD00000DB46D
:1002A00007FEFDCF8EB508958EBD00000DB407FE8C
:1002B000FDCF8EB59EBD00000DB407FEFDCF9EB5EF
:1002C0000895982F92959F708F702AE0929F800DCD
:1002D000112408951F920F920FB60F9211248F933D
:1002E000809129028F5F80932902809128028F5F7D
:1002F0008093280210928500109284008F910F90B5
:100300000FBE0F901F9018956BE071E085E496E0AA
:100310000E94D4266CE371E08FE396E00E94D4261D
:1003200067E272E089E396E00C94D42689E396E0D4
:100330000E9462268FE396E00E94622685E496E0A2
:100340000C946226CF93DF9361E570E08BE496E036
:100350000E94530D70E060E08BE496E00E943D0146
:100360008BE496E00E94D10D46E050E061E570E03C
:100370008BE496E00E94CE0D8BE496E00E94C60CC2
:100380000E94610180932A028BE496E00E94C60CD1
:100390008F770E946101D82F8BE496E00E94C60CF3
:1003A0008F770E946101C82F8BE496E00E94C60CF3
:1003B0000E94610190E0B0E0A0E080932B02909356
:1003C0002C02A0932D02B0932E028BE496E00E94A3
:1003D000C60C0E94610124E6829FC0011124092EEF
:1003E000000CAA0BBB0B40912B0250912C02609188
:1003F0002D0270912E02840F951FA61FB71F8093A8
:100400002B0290932C02A0932D02B0932E028BE42A
:1004100096E00E94C60C0E94610140E157E2849F71
:100420009001859F300D1124032E000C440B550BB9
:1004300080912B0290912C02A0912D02B0912E025E
:10044000280F391F4A1F5B1FA0E1BEE00E94E52B69
:10045000AB01BC012CE3C29FC0011124092E000C8A
:10046000AA0BBB0B8D0F911DA11DB11D840F951FF4
:10047000A61FB71F80932B0290932C02A0932D02EE
:10048000B0932E02DF91CF9108958F929F92AF92F9
:10049000BF92EF92FF920F931F93CF93DF93CDB74D
:1004A000DEB7A7970FB6F894DEBF0FBECDBF61E0F1
:1004B00083E10E94FA2960E082E10E94FA2909E3BF
:1004C00012E085E3E82E82E0F82E812C912C540175
:1004D000F80181918F01880E911CA11CB11CF6E0DE
:1004E00005331F07A9F767E272E0CE0182960E94EA
:1004F000D4260E94A2016DE471E0CE0182960E9492
:10050000372860913506709136064AE0CE01019693
:100510000E944C27BE016F5F7F4FCE0182960E94E2
:100520003028CE0101960E94622668EA71E0CE0171
:1005300082960E94372840912B0250912C026091A4
:100540002D0270912E022AE0CE0101960E9478279A
:10055000BE016F5F7F4FCE0182960E943028CE0190
:1005600001960E9462266BE871E0CE0182960E949D
:1005700037284AE060912A02CE0101960E94F326B4
:10058000BE016F5F7F4FCE0182960E943028CE0160
:1005900001960E94622668EA71E0CE0182960E946E
:1005A00037282AE0B501A401CE0101960E947827E0
:1005B000BE016F5F7F4FCE0182960E943028CE0130
:1005C00001960E94622668EA71E0CE0182960E943E
:1005D0003728F70161917F014AE0CE0101960E9420
:1005E000F326BE016F5F7F4FCE0182960E943028B6
:1005F000CE0101960E9462260E151F0521F78091FB
:10060000060161E0882309F470C08EE00E94FA2997
:1006100064E08DEE96E00E94221264E571E088238A
:1006200009F45CC04091390650913A0623E16DEE21
:1006300076E0CE0101960E944213CE0101960E94FF
:100640001611882309F448C0BE016E5D7F4FCE01AC
:1006500001960E94CE25CE0101960E94041161E010
:1006600084E00E94FA2960E08EE00E94FA2960E0AE
:100670008DE00E94FA298091350690913606019608
:10068000893FFAE29F0708F065C090933606809391
:10069000350661E082E10E94FA2960E083E10E9470
:1006A000FA2961E070E080E090E00E941029CE011C
:1006B00082960E946226A7960FB6F894DEBF0FBE00
:1006C000CDBFDF91CF911F910F91FF90EF90BF9021
:1006D000AF909F908F90089563E671E083EE99E06C
:1006E0000E94E02510920601BACF8DE00E94FA29FF
:1006F000AEA0BFA010E000E0FF24FA948DE10E94BC
:10070000282A892B19F0FA94F110F8CF82E390E0AF
:100710000E9449297801FFEFEF1AFF0AB801CE01C4
:1007200082960E947328FC01608186E499E00E9411
:10073000C325AE14BF0460F486E499E00E94CA2584
:10074000BE016E5D7F4F83EE99E00E94CE258BCF78
:100750008701D2CF10923606109235066091370687
:10076000709138066F5F7F4F70933806609337063D
:100770004AE0CE014C960E944C27BE01645E7F4F3A
:10078000CE0101960E94BC276DE671E0CE01019674
:100790000E945928BC0189E396E00E94A527CE015A
:1007A00001960E946226CE014C960E94622662E764
:1007B00071E083EE99E00E94BB2569E376E083EE69
:1007C00099E00E94CE2565CF0F931F93CF93DF93BF
:1007D000C82F65E570E08BE496E00E94530D0C2E67
:1007E000000CDD0BBE018BE496E00E943D018BE422
:1007F00096E00E94D10D41E050E065E570E08BE4A9
:1008000096E00E94CE0D8BE496E00E94C60C8C010F
:1008100065E570E08BE496E00E94530DBE016F5FCA
:100820007F4F8BE496E00E943D018BE496E00E94AE
:10083000D10D41E050E065E570E08BE496E00E9468
:10084000CE0D8BE496E00E94C60C20E0382FC90143
:10085000800F911FDF91CF911F910F910895CF933A
:10086000DF93CDB7DEB7A1970FB6F894DEBF0FBE0A
:10087000CDBF61E083E10E94FA2960E082E10E943D
:10088000FA2967E272E0CE014C960E94D4260E94BB
:10089000A2016DE771E0CE014C960E94372860916D
:1008A0003506709136064AE0CE0101960E944C272B
:1008B000BE016F5F7F4FCE014C960E943028CE0163
:1008C00001960E94622668EA71E0CE014C960E9471
:1008D000372840912B0250912C0260912D0270918B
:1008E0002E022AE0CE0101960E947827BE016F5F9A
:1008F0007F4FCE014C960E943028CE0101960E9477
:1009000062266BE871E0CE014C960E9437284AE0DF
:1009100060912A02CE0101960E94F326BE016F5F0C
:100920007F4FCE014C960E943028CE0101960E9446
:10093000622668EA71E0CE014C960E94372888E072
:100940000E94E4034AE0BC01CE0101960E942027E8
:10095000BE016F5F7F4FCE014C960E943028CE01C2
:1009600001960E94622668EA71E0CE014C960E94D0
:1009700037288AE00E94E4034AE0BC01CE010196D8
:100980000E942027BE016F5F7F4FCE014C960E94D0
:100990003028CE0101960E94622668EA71E0CE01FD
:1009A0004C960E94372884E00E94E4034AE0BC0190
:1009B000CE0101960E942027BE016F5F7F4FCE01BE
:1009C0004C960E943028CE0101960E94622668EA69
:1009D00071E0CE014C960E94372886E00E94E40325
:1009E0004AE0BC01CE0101960E942027BE016F5F44
:1009F0007F4FCE014C960E943028CE0101960E9476
:100A0000622668EA71E0CE014C960E9437288CE09D
:100A10000E94E403BC01990F880B990B0E94C12A24
:100A20002DEC3CEC4CEC5DE30E944D2B23E333E9D1
:100A300048E853E40E94522AAB01BC0122E0CE01F7
:100A400001960E94D427BE016F5F7F4FCE014C9666
:100A50000E943028CE0101960E94622680910601F4
:100A6000882349F164E08DEE96E00E94221264E54D
:100A700071E08823E9F14091390650913A0623E16B
:100A80006DEE76E0CE0101960E944213CE010196F2
:100A90000E941611882351F1BE01645E7F4FCE0182
:100AA00001960E94CE25CE0101960E94041161E0BC
:100AB00084E00E94FA2961E082E10E94FA2960E064
:100AC00083E10E94FA2961E070E080E090E00E94FA
:100AD0001029CE014C960E946226A1960FB6F8947A
:100AE000DEBF0FBECDBFDF91CF91089563E671E009
:100AF00083EE99E00E94E02510920601D8CFCF92B4
:100B0000DF92EF92FF920F931F93CF93DF93CDB7B6
:100B1000DEB7C254D1090FB6F894DEBF0FBECDBF09
:100B200026E040E052EC61E070E086E499E00E944B
:100B3000F12326E040E052EC61E070E083EE99E0C2
:100B40000E94F12340EA56E861E070E08BE496E011
:100B50000E94450D64E871E083EE99E00E94E02573
:100B600060E08BE10E94BE2960E085E10E94BE2921
:100B700060E08DE10E94BE2960E08EE10E94BE2906
:100B800061E086E10E94BE2961E087E10E94BE2902
:100B900060E080E00E94BE2961E082E10E94BE29FF
:100BA00061E082E10E94FA2961E083E10E94BE29AE
:100BB00061E083E00E94BE2961E084E00E94BE29DA
:100BC00060E085E00E94BE2960E086E00E94BE29C8
:100BD00061E087E00E94BE2961E083E10E94FA297A
:100BE00061E084E00E94FA2960E087E00E94FA292F
:100BF00060E083E00E94FA296AE670E08BE496E008
:100C00000E94530D62E08BE496E00E94E90C60E6DE
:100C100071E08BE496E00E943D018BE496E00E9437
:100C2000D10D6AE670E08BE496E00E94530D64E11A
:100C30008BE496E00E94E90C66E28BE496E00E9469
:100C4000E90C69E18BE496E00E94E90C60EA8BE430
:100C500096E00E94E90C66E58BE496E00E94E90CC0
:100C600060E08BE496E00E94E90C61E08BE496E0A2
:100C70000E94E90C8BE496E00E94D10D6AE670E0D8
:100C80008BE496E00E94530D6AE18BE496E00E94AB
:100C9000E90C6FEB8BE496E00E94E90C8BE496E0A4
:100CA0000E94D10D6AE670E08BE496E00E94530D3D
:100CB00066E28BE496E00E94E90C6CE88BE496E037
:100CC0000E94E90C8BE496E00E94D10D8BE10E941A
:100CD000282A892B09F466C16AE670E08BE496E065
:100CE0000E94530D6DE270E08BE496E00E943D019E
:100CF0008BE496E00E94D10D41E050E06AE670E09E
:100D00008BE496E00E94CE0D8BE496E00E94C60C28
:100D100068EB7BE080E090E00E94102911E001E0A8
:100D20006AE670E08BE496E00E94530D6DE270E09D
:100D30008BE496E00E943D018BE496E00E94D10D89
:100D400041E050E06AE670E08BE496E00E94CE0D50
:100D50008BE496E00E94C60C8F77813108F04FC07B
:100D600061E570E08BE496E00E94530D68E270E06C
:100D70008BE496E00E943D0165E070E08BE496E034
:100D80000E943D018BE496E00E94D10D48ECE42ED8
:100D9000F12C8AEF90E00E94492961E08FE00E94E7
:100DA000BE2961E08FE00E94FA298AEF90E00E945C
:100DB000492961E08FE00E94BE2960E08FE00E9437
:100DC000FA2981E0E81AF10821F76AE670E08BE47D
:100DD00096E00E94530D68E18BE496E00E94E90CD6
:100DE0006AE08BE496E00E94E90C8BE496E00E94B6
:100DF000D10D68EE73E080E090E00E94102911238D
:100E000009F467C061E0002309F46EC083E00E942A
:100E1000FA2961E08CE00E94BE2961E08CE00E942A
:100E2000FA2938ECE32EF12C8AEF90E00E94492950
:100E300061E08FE00E94BE2961E08FE00E94FA2904
:100E40008AEF90E00E94492961E08FE00E94BE296C
:100E500060E08FE00E94FA2981E0E81AF10821F7AA
:100E600028ECE22EF12C84EB90E00E94492961E00D
:100E70008FE00E94BE2961E08FE00E94FA2984EB96
:100E800090E00E94492961E08FE00E94BE2960E065
:100E90008FE00E94FA2981E0E81AF10821F761E762
:100EA00070E08BE496E00E94530D60E08BE496E0E6
:100EB0000E94E90C63E18BE496E00E94E90C8BE46C
:100EC00096E00E94D10D68EE73E080E090E00E9411
:100ED00010298EE10E94282A892B21F481E008271D
:100EE00011E01ECF10E01CCF8CE00E94BE2960E014
:100EF0008CE00E94FA2998ECE92EF12C84EB90E02A
:100F00000E94492961E08FE00E94BE2961E08FE0E4
:100F10000E94FA2984EB90E00E94492961E08FE069
:100F20000E94BE2960E08FE00E94FA2981E0E81A61
:100F3000F10821F788ECE82EF12C8AEF90E00E946E
:100F4000492961E08FE00E94BE2961E08FE00E94A4
:100F5000FA298AEF90E00E94492961E08FE00E941F
:100F6000BE2960E08FE00E94FA2981E0E81AF108CA
:100F700021F761E770E08BE496E00E94530D60E09A
:100F80008BE496E00E94E90C60E18BE496E00E941D
:100F9000E90C8BE496E00E94D10D60E083E00E94B2
:100FA000FA2991CF61E084E10E94BE2961E084E1E9
:100FB0000E94FA2915E060E570E080E090E00E9470
:100FC000102961E08CE00E94BE2961E08CE00E9463
:100FD000FA2960E570E080E090E00E94102960E06E
:100FE0008CE00E94FA29115031F761E08CE00E94F8
:100FF000FA2908EC10E084EB90E00E94492961E0B6
:101000008FE00E94BE2961E08FE00E94FA2984EB04
:1010100090E00E94492961E08FE00E94BE2960E0D3
:101020008FE00E94FA290150110929F76DE871E05B
:1010300083EE99E00E94E02561E082E00E94BE29F3
:1010400061E082E00E94FA2961E08AE10E94BE2903
:1010500061E08AE10E94FA2960E087E10E94FA29B2
:1010600061E086E10E94FA2961E570E08BE496E098
:101070000E94530D63E28BE496E00E94E90C60E06D
:101080008BE496E00E94E90C60E08BE496E00E941D
:10109000E90C65E08BE496E00E94E90C60E08BE4EB
:1010A00096E00E94E90C60E08BE496E00E94E90C77
:1010B00067E98BE496E00E94E90C60E08BE496E03F
:1010C0000E94E90C60E08BE496E00E94E90C8BE45E
:1010D00096E00E94D10D61E570E08BE496E00E94FD
:1010E000530D6FE270E08BE496E00E943D016CE2EC
:1010F00070E08BE496E00E943D018BE496E00E9454
:10110000D10D61E570E08BE496E00E94530D68E23A
:1011100070E08BE496E00E943D0167E970E08BE4AB
:1011200096E00E943D018BE496E00E94D10D61E5BE
:1011300070E08BE496E00E94530D60E08BE496E053
:101140000E94E90C60E08BE496E00E94E90C60E00C
:101150008BE496E00E94E90C60E08BE496E00E944C
:10116000E90C60E08BE496E00E94E90C60E08BE41F
:1011700096E00E94E90C60E08BE496E00E94E90CA6
:101180008BE496E00E94D10D66E971E0CE010196F4
:101190000E94D4266FE376E0CE0101960E94462895
:1011A00066EA71E00E94592865E476E00E944628CC
:1011B00068EA71E00E945928BC01CE01CD960E94D8
:1011C000BC27CE0101960E9462266BE570E08BE49D
:1011D00096E00E94530D68E070E08BE496E00E9478
:1011E0003D0170E060E08BE496E00E943D018BE4FD
:1011F00096E00E94D10D40E16BE58BE496E00E9401
:10120000CB0D10E18BE496E00E94C60C082F8031D4
:1012100030F46AEA71E0CE01CD960E94372840E1B1
:10122000602FCE0101960E94F326BE016F5F7F4FB3
:10123000CE01CD960E943028CE0101960E946226F2
:10124000115001F76CEA71E0CE01CD960E9437286B
:1012500068E570E08BE496E00E94530D68E070E072
:101260008BE496E00E943D0170E060E08BE496E044
:101270000E943D018BE496E00E94D10D40E168E5BB
:101280008BE496E00E94CB0D10E18BE496E00E9487
:10129000C60C082F803130F46AEA71E0CE01CD9699
:1012A0000E94372840E1602FCE0101960E94F3266C
:1012B000BE016F5F7F4FCE01CD960E943028CE01D8
:1012C00001960E946226115001F768EA71E0CE0192
:1012D000CD960E94372860E570E08BE496E00E948E
:1012E000530D70E060E08BE496E00E943D0170E0F9
:1012F00060E08BE496E00E943D018BE496E00E9462
:10130000D10D42E060E58BE496E00E94CB0D8BE4CA
:1013100096E00E94C60C809332028BE496E00E9415
:10132000C60C8093310240E160913202CE010196F9
:101330000E94F326BE016F5F7F4FCE01CD960E94C3
:101340003028CE0101960E94622640E16091310270
:10135000CE0101960E94F326BE016F5F7F4FCE0142
:10136000CD960E943028CE0101960E94622662EC42
:1013700071E0CE01CD960E9437286BE570E08BE4DA
:1013800096E00E94530D68E070E08BE496E00E94C6
:101390003D0170E060E08BE496E00E943D018BE44B
:1013A00096E00E94D10D40E16BE58BE496E00E944F
:1013B000CB0D10E18BE496E00E94C60C082F803123
:1013C00030F46AEA71E0CE01CD960E94372840E100
:1013D000602FCE0101960E94F326BE016F5F7F4F02
:1013E000CE01CD960E943028CE0101960E94622641
:1013F000115001F768EA71E0CE01CD960E943728BE
:1014000063E570E08BE496E00E94530D70E060E0CD
:101410008BE496E00E943D0170E060E08BE496E092
:101420000E943D018BE496E00E94D10D42E063E50D
:101430008BE496E00E94CB0D8BE496E00E94C60CF4
:10144000809334028BE496E00E94C60C80933302B2
:1014500040E160913402CE0101960E94F326BE0164
:101460006F5F7F4FCE01CD960E943028CE0101964E
:101470000E94622640E160913302CE0101960E94F3
:10148000F326BE016F5F7F4FCE01CD960E943028BC
:10149000CE0101960E94622660E082E10E94FA2954
:1014A00064E08DEE96E00E942212811108C064E58E
:1014B00071E083EE99E00E94E0251092060181E040
:1014C00090E09093380680933706609137067091CC
:1014D0003806683C710578F54AE0CE014C960E94CA
:1014E0004C27BE01645E7F4FCE0101960E94BC274F
:1014F0006DE671E0CE0101960E945928BC0189E396
:1015000096E00E94A527CE0101960E946226CE0198
:101510004C960E9462266091390670913A068DEED3
:1015200096E00E94CD13882331F080913706909188
:1015300038060196C6CF6091370670913806615023
:10154000710970933806609337064AE0CE014C96D5
:101550000E944C27BE01645E7F4FCE0101960E941F
:10156000BC276DE671E0CE0101960E945928BC01AE
:1015700089E396E00E94A527CE0101960E9462268B
:10158000CE014C960E94622615E060E570E080E096
:1015900090E00E94102961E08DE00E94BE2961E088
:1015A0008DE00E94FA2960E570E080E090E00E9402
:1015B000102960E08DE00E94FA29115031F761E0B6
:1015C0008DE00E94FA294091390650913A0623E1B4
:1015D0006DEE76E0CE014C960E944213CE014C9601
:1015E0000E94C6106B017C0166ED71E083EE99E00C
:1015F0000E94BB252AE030E0B701A60183EE99E006
:101600000E94502689E6C81680E2D80689E5E806D9
:10161000F10408F45BC0CE014C960E940411609165
:101620003706709138066F5F7F4F7093380660936E
:1016300037064AE0CE01C7960E944C27BE01695C7E
:101640007F4FCE0101960E94BC276DE671E0CE016E
:1016500001960E945928BC0189E396E00E94A527C3
:10166000CE0101960E946226CE01C7960E94622694
:101670004091390650913A0623E16DEE76E0CE01B5
:1016800001960E9442138B819C819F8F8E8F8D814A
:101690009E81AF81B88588A399A3AAA3BBA389859E
:1016A0009A85AB85BC858CA39DA3AEA3BFA3DE01A9
:1016B0001D96FE01B896CE01C5962D912193E8178F
:1016C000F907D9F78A8D9B8D9EAB8DAB62E771E0F0
:1016D00083EE99E00E94BB2569E376E083EE99E012
:1016E0000E94CE25CE014C960E941611882309F443
:1016F00071C0BE01635C7F4FCE014C960E94CE2527
:10170000CE014C960E940411BE01635C7F4F83EEB4
:1017100099E00E94CE2561E082E10E94FA2961E011
:1017200084E10E94BE2960E084E10E94FA2915E06C
:1017300060E570E080E090E00E94102961E08EE0BA
:101740000E94BE2961E08EE00E94FA2960E570E007
:1017500080E090E00E94102960E08EE00E94FA296B
:10176000115031F760E08CE00E94FA2960E08DE0D2
:101770000E94FA2961E082E00E94BE2960E082E0D6
:101780000E94FA29F894109280008DE080938100E5
:1017900087E998E9909389008093880010928500EA
:1017A0001092840082E080936F007894CE01CD96F1
:1017B0000E946226CE5BDF4F0FB6F894DEBF0FBEED
:1017C000CDBFDF91CF911F910F91FF90EF90DF90F0
:1017D000CF90089563E671E083EE99E00E94E025E2
:1017E0001092060191CFC5E3D2E0199286E0C5338D
:1017F000D807D9F761E087E10E94FA2960E086E125
:101800000E94FA2990E080E00E94440161E086E1B4
:101810000E94FA291092290210922802189992C067
:10182000809129028230D0F3109229028BE10E942C
:10183000282A682F8DE00E94FA298BE10E94282A2D
:10184000892B09F452C061E570E08BE496E00E94B8
:10185000530D68E270E08BE496E00E943D0165E084
:1018600070E08BE496E00E943D018BE496E00E94DC
:10187000D10D68EB7BE080E090E00E94102908EC3D
:1018800010E08AEF90E00E94492961E08FE00E9419
:10189000BE2961E08FE00E94FA298AEF90E00E9461
:1018A000492961E08FE00E94BE2960E08FE00E943C
:1018B000FA290150110929F76AE670E08BE496E0F5
:1018C0000E94530D68E18BE496E00E94E90C6AE007
:1018D0008BE496E00E94E90C8BE496E00E94D10D27
:1018E000E0912F02F0913002099561E086E10E94BB
:1018F000FA2960E087E10E94FA290E944502E5E3A7
:10190000F2E01192CE17DF07E1F7809128028C30C8
:1019100020F0109228020E942F0461E087E10E94CB
:10192000FA2960E086E10E94FA2990E080E00E94B6
:10193000440161E086E10E94FA291092850010922C
:1019400084006CCF60E086E10E94FA2990E080E09C
:101950000E94440126E0969587952A95E1F7FC01BF
:10196000EB5CFD4F80818F3F11F08F5F808361E0E2
:1019700086E10E94FA2952CF90E080E0089580919C
:101980007B0690917C06891B990B089590917C06AB
:1019900080917B062FEF3FEF981748F4E92FF0E096
:1019A000E358F94F208130E09F5F90937C06C90196
:1019B0000895E0917C0680917B06E81730F4F0E012
:1019C000E358F94F808190E008958FEF9FEF0895DD
:1019D0000895CF93DF931F92CDB7DEB7698320912F
:1019E00057062223F9F020915806203258F021E0C2
:1019F00030E0FC013383228390E080E00F90DF91A0
:101A0000CF91089580915906E82FF0E0E65AF94FFA
:101A1000998190838F5F809359068093580681E067
:101A200090E0ECCF61E0CE0101960E94880EF7CFE6
:101A3000CF92DF92EF92FF920F931F93CF93DF939A
:101A40007C01CB018A0120915706222389F0EB010A
:101A50006B01C40ED51ECC15DD0569F06991D70167
:101A6000ED91FC910190F081E02DC7010995F3CF34
:101A7000642F0E94880EC801DF91CF911F910F91B2
:101A8000FF90EF90DF90CF900895CB01BA010C94B6
:101A9000E50D81E08093570660937A06109259060F
:101AA0001092580608950C94490D0F93062F21E0CB
:101AB000409158066AE576E080917A060E94380ED9
:101AC0001092590610925806109257060F910895D9
:101AD0004F925F926F927F92AF92BF92CF92EF92AE
:101AE000FF920F931F93CF93DF935C01F62ED42FB9
:101AF00028013901EE2019F10E94490DCE2DC43084
:101B000008F0C3E0C150B8F028E0C29FC001112422
:101B1000A301920104C056954795379527958A955C
:101B2000D2F7B901D501ED91FC910190F081E02D42
:101B3000C5010995E7CF60E0C5010E94550D4D2F05
:101B4000D13208F040E22C2D6DE776E08F2D0E9417
:101B5000F80D10927C0680937B06DF91CF911F9148
:101B60000F91FF90EF90CF90BF90AF907F906F90CC
:101B70005F904F900895CF92EF920F931F93C22ED4
:101B8000E12C00E010E098010E94680D1F910F9178
:101B9000EF90CF90089521E00C94BB0D21E00C94C0
:101BA000BB0D61E00C94550DEBE4F6E0138212825C
:101BB00088EE93E0A0E0B0E084839583A683B783AA
:101BC00085EE91E09183808308959B01AC0160E0F4
:101BD00072E18AE790E00E94BA2B20513109410955
:101BE000510956954795379527952093B800089544
:101BF0004132E0F59091EC069111FCCF91E0909389
:101C0000EC062093EA062FEF20939D067093E406DE
:101C10006093E3061092E206240F2093E10690936E
:101C2000EB069091EB06880F892B8093EB06809151
:101C3000E9068130C9F41092E9068091EB068093A1
:101C4000BB008091BC0083FDF8CF85EC8093BC0085
:101C50008091EC068130E1F38091E206841710F464
:101C60004091E206842F089585EEF0CF40E0FACF50
:101C70000F93413208F044C09091EC069111FCCFD3
:101C800092E09093EC060093EA069FEF90939D06F6
:101C90007093E4066093E3061092E2064093E10637
:101CA0001092EB069091EB06880F892B8093EB0640
:101CB0008091E906813011F51092E9068091EB06DA
:101CC0008093BB008091BC0083FDF8CF85EC8093AE
:101CD000BC00222321F08091EC068230D1F3809168
:101CE0009D068F3F79F080919D06803269F080914A
:101CF0009D06803359F084E00F91089585EEE7CF7B
:101D000081E0FACF80E0F8CF82E0F6CF83E0F4CF35
:101D10002091BF06260F3327331F21323105ECF403
:101D20002091EC06FC0190E080E0243069F082E034
:101D30000895A091BF062191AC014F53594FA40FB4
:101D4000B52FB11D2C930196861798F38091BF068D
:101D5000680F6093BF0680E0089581E0089585EDE7
:101D60008093BC008091BC0084FDFCCF1092EC06F7
:101D7000089585EC8093BC001092EC0608951F92A4
:101D80000F920FB60F9211240BB60F922F933F9321
:101D90004F935F936F937F938F939F93AF93BF9373
:101DA000EF93FF938091B900887F803609F44EC08D
:101DB00008F041C0883209F4AAC028F5803109F43E
:101DC0009EC0C8F4882309F407C1883009F497C07D
:101DD000FF91EF91BF91AF919F918F917F916F9103
:101DE0005F914F913F912F910F900BBE0F900FBEBF
:101DF0000F901F901895883109F489C0803241F7FF
:101E000080939D0615C0803409F4A6C048F4803341
:101E1000B9F38833E9F680939D060E94B90ED8CFB6
:101E2000803509F489C0883509F49EC0883481F66C
:101E30000E94AF0ECDCF883909F494C038F58837A9
:101E400029F050F4883611F0803711F683E0809342
:101E5000EC0610929E0657C0883809F483C080397A
:101E600019F0803809F0B4CF80919E06803208F0D6
:101E700079C0E0919E0681E08E0F80939E0680914E
:101E8000BB00F0E0E156F94F80833DC0803B39F064
:101E9000E0F4803A09F485C0883A09F099CF84E0EB
:101EA0008093EC061092C0061092BF06E091E70600
:101EB000F091E80609958091BF0681110FC081E07D
:101EC0008093BF061092C10609C0803C09F482C00D
:101ED000883C09F47FC0883B09F07ACFE091C006C6
:101EE00081E08E0F8093C006F0E0EF53F94F8081C0
:101EF0008093BB009091C0068091BF0631C0809155
:101F0000EB068093BB0085EC8093BC0061CF909181
:101F1000E2068091E1069817B8F58091E30690916A
:101F2000E406E091E20621E02E0F2093E206E80F9E
:101F3000F92FF11D8081E5CF2091E3063091E40671
:101F4000E091E20681E08E0F8093E2068091BB0073
:101F5000E20FF32FF11D80839091E2068091E1065C
:101F6000981788F285E8D0CF2091E3063091E406F7
:101F7000E091E20681E08E0F8093E2068091BB0043
:101F8000E20FF32FF11D80838091EA06811150CF7B
:101F900081E08093E90684EA8093BC001092EC060D
:101FA00017CF0E94B90E80919E06803230F4E091E6
:101FB0009E06F0E0E156F94F108260919E0670E0B7
:101FC000E091E506F091E6068FE996E0099510921A
:101FD0009E06FECE85ECE0CF10929D0629CFCF93D2
:101FE000DF931F92CDB7DEB76983DC01ED91FC91E1
:101FF0000280F381E02D41E050E0BE016F5F7F4F32
:1020000009950F90DF91CF910895CF93DF93EC0165
:10201000E98DFA8D309749F481E090E09B838A83C3
:1020200090E080E0DF91CF91089513821282898D34
:102030009A8D0E947A1CE98DFA8D22813381232B9F
:1020400059F7F0CFFC01818D928D009711F00C941F
:10205000091A0895CF93DF931F92CDB7DEB741E001
:1020600050E0BE016F5F7F4F0E942D18019731F441
:10207000898190E00F90DF91CF9108958FEF9FEFCE
:10208000F9CFFC01818D928D009711F00C942A10EC
:102090008FEF9FEF08950F931F93CF93DF93EC0182
:1020A000898D9A8D10E000E0009799F00E942A1027
:1020B0008C010F3F100769F0898D9A8DFC014285D4
:1020C00053856485758541505109610971090E94E4
:1020D0007519C801DF91CF911F910F910895EF926B
:1020E000FF920F931F93CF93DF93EC017B018A0143
:1020F0001B821A8288EE93E0A0E0B0E08C839D837F
:10210000AE83BF8387EF91E0998388838DE190E070
:102110000E941D2C9A8F898F009779F02DE1F7018D
:10212000DC0101900D922A95E1F74CE050E0B801F6
:10213000CE010C960E944B2E188EDF91CF911F91ED
:102140000F91FF90EF900895FC011382128288EEA8
:1021500093E0A0E0B0E084839583A683B78387EF04
:1021600091E091838083128E118E14860895DC0194
:102170005996ED91FC91309729F06285738584859D
:10218000958508956FEF7FEFCB010895DC01599697
:10219000ED91FC91309729F063897489858996893E
:1021A000089560E070E0CB010895CF92DF92EF9246
:1021B000FF92CF93DF93FC01218D328D232B09F108
:1021C000EC010E94C6106B017C01CE010E94B71089
:1021D000A7019601261B370B480B590BDA01C901E1
:1021E000811530E89307A105B10520F08FEF9FE737
:1021F000A0E0B0E0DF91CF91FF90EF90DF90CF9023
:10220000089590E080E0F6CFCF93DF93EC01898DC5
:102210009A8D009741F00E94521A898D9A8D0E94E2
:10222000B92C1A8E198EDF91CF910895DC01599641
:10223000ED91FC91309721F081E09581911101C0E1
:1022400080E008951F93CF93DF93CDB7DEB76D97EE
:102250000FB6F894DEBF0FBECDBFAB011C821B8250
:102260002BE032E03A8329831E8221E0BC01CE01BB
:1022700001960E948D1B11E081110CC010E0812F8E
:102280006D960FB6F894DEBF0FBECDBFDF91CF9134
:102290001F910895CE0101960E94521AF0CFEF923D
:1022A000FF920F931F93CF93DF937B01DB012D915F
:1022B0003C91FC01E20FF31F60816F3211F42F5F3C
:1022C0003F4F8C01020F131FEA01F0E0E0E0D8015C
:1022D0007D918D017F3249F0772339F02F5F3F4F99
:1022E00031967993EC30F10591F7E40FF51F1082E8
:1022F000FC01E20FF31F40814F3211F42F5F3F4F7B
:10230000F70131832083280F391F81E0D9019C9187
:10231000911101C080E0DF91CF911F910F91FF904B
:10232000EF9008954F925F926F927F928F929F925B
:10233000AF92BF92CF92DF92EF92FF920F931F93D3
:10234000CF93DF93CDB7DEB7C954D1090FB6F89458
:10235000DEBF0FBECDBF5C016B013A01490119A27E
:1023600018A28BE092E09F8F8E8F1BA21C821B8293
:102370009A8389831E822A961FAE1EAE2A978B01EE
:102380007E018EE1E80EF11C44244394AE01455CCD
:102390005F4FBE01685B7F4FC5010E944F11582EF1
:1023A000482F44259401BE01655C7F4FC801F301AD
:1023B0000995811120C00C151D05C9F480E0C75B8B
:1023C000DF4F0FB6F894DEBF0FBECDBFDF91CF91C8
:1023D0001F910F91FF90EF90DF90CF90BF90AF9043
:1023E0009F908F907F906F905F904F900895C8015D
:1023F0000E94521AE3CF552091F021E0AE01455CD6
:102400005F4FB801C7010E948D1B582E0C151D058A
:1024100071F0C8010E94521A51100EC0CFCF0C1596
:102420001D0519F0C8010E94521A81E0C8CF882307
:1024300029F28E010F5F1F4F902F812F8701E92E08
:10244000F82EA4CF0F931F93CF93DF93EC01162F99
:102450008FA5882321F0CE018A960E94521A412F1F
:1024600061E0CE010E94EF14811102C090E012C021
:102470008E01045F1F4F41E0BE01C8010E94B421DC
:10248000882371F0B801CE018A960E94DD1791E091
:10249000882361F3892FDF91CF911F910F910895C8
:1024A00040E0BE01C8010E94B4218823F9F2EACFBE
:1024B000FC01DB0112968D919C911397938382838B
:1024C0008BE092E09183808314968C91149784839F
:1024D00015968C911597858316964D915D916D910A
:1024E0007C91199746835783608771871A964D911F
:1024F0005D916D917C911D974287538764877587A5
:102500001E964D915D916D917C91519746875787AD
:10251000608B718B52968C915297828B53964D9112
:102520005D916D917C915697438B548B658B768B27
:1025300057964D915D916D917C915A97478B508F35
:10254000618F728F5B968D919C91948F838F08958C
:102550004F925F926F927F928F929F92AF92BF92B3
:10256000CF92DF92EF92FF920F931F93CF93DF935F
:10257000CDB7DEB7C754D1090FB6F894DEBF0FBE92
:10258000CDBF5C014A013901665D7F4F7E018EE15E
:10259000E80EF11CC7010E9458121C821B828BE0BE
:1025A00092E09A8389831E828401FE0131966F0135
:1025B0005E2C4F2C6FE270E0C8010E94392E00970C
:1025C00009F455C0F80120812F3219F40F5F1F4F15
:1025D000F1CF801B8D3008F08CE0E82EF12CA701A4
:1025E000B801CE01CB960E944B2EEBE3F0E0EC0F4E
:1025F000FD1FEE0DFF1D1082C6010E94521A21E040
:10260000AE01455C5F4F652D742DC6010E948D1B88
:10261000811121C0F501138212828BE092E0918337
:1026200080831582C501C95BDF4F0FB6F894DEBF0A
:102630000FBECDBFDF91CF911F910F91FF90EF9013
:10264000DF90CF90BF90AF909F908F907F906F90D2
:102650005F904F9008950E0D1F1D852D942D0E94A3
:10266000521AC2015C2C4D2CC92ED82EA3CF0819AA
:102670001909F30111830083652D742DC5010E9492
:102680005812D0CFAF92BF92CF92DF92FF920F93AA
:102690001F93CF93DF93CDB7DEB7C955D1090FB6DE
:1026A000F894DEBF0FBECDBF6C015B018A01F22E34
:1026B0009E01285A3F4FCE01CB960E94A8126A96DF
:1026C0008EAD9FAD6A97080F191FF80180818111A7
:1026D00010C0BE01655C7F4FCE0101960E9458126A
:1026E00045E052E0BE016F5F7F4FC6010E946F1050
:1026F0000FC019A218A28BE092E09F8F8E8F1BA2B1
:1027000021968FAD2197811115C0C6010E94A4109A
:10271000C601C75ADF4F0FB6F894DEBF0FBECDBF5C
:10272000DF91CF911F910F91FF90DF90CF90BF90DD
:10273000AF90089582508230F8F4B501665D7F4F06
:102740002F2DA801CE014E960E948D1B8823E9F201
:102750008F2D867041F049A95AA96BA97CA9CE0199
:102760004E960E947519BE01625E7F4FCE010196A2
:102770000E945812A801B6CF2F2DA801BE01655C9A
:102780007F4FCE014E960E948D1B882309F4BDCF4A
:10279000CE01CB960E94521ADBCFFB01BC01665DD5
:1027A0007F4F30E020E042E251E1CF010C949211E2
:1027B000EDEEF6E0158216821186138682E090E037
:1027C000A0E0B0E084879587A687B78713A215A6F7
:1027D00014A68BE092E093A782A717A608959FB74F
:1027E000F8942091440980914209213019F48DBB5D
:1027F0009FBF08958FBF089520914409222381F03F
:102800003FB7F89420914409213069F42DB3209307
:1028100042094DB320914309209524232DBB3FBF8E
:102820008CBD9DBD089530934209FACF8EBD000046
:102830000DB407FEFDCF8EB508958FEF0C941614DE
:1028400061E0FC0184810E94FA2980913607882387
:1028500039F0109236078091440981110C94EF13DE
:102860000895CF93DF93EC0180913607811109C061
:1028700081E08093360780913707909138070E9456
:10288000FC1360E08C81DF91CF910C94FA29CF93F7
:10289000DF93EC018E81882389F08F8198859C01DC
:1028A0002F5F3F4F38872F838230924018F40E9469
:1028B0001D14F3CFCE010E9420141E82DF91CF9110
:1028C0000895673028F026E1FC01258380E0089513
:1028D000623079F038F06430A9F090F06530A1F002
:1028E00082E508C080E58093370781E08093380750
:1028F000089580E5809337071092380781E00895A6
:1029000081E5F1CF81E5F6CF82E5EDCF0F931F93FF
:10291000CF93DF93EB010E94DF288B010E941D14EF
:102920008F3F69F00E94DF28601B710B6C177D07D9
:10293000A8F380E0DF91CF911F910F91089581E07E
:10294000F9CF8F929F92AF92BF92FF920F931F93F6
:10295000CF93DF93EC01F62E49015A010E944714F0
:10296000CE010E9431146CE271E0CE010E94861407
:102970008F2D80640E94161408E110E0D501C40177
:10298000002E04C0B695A795979587950A94D2F71F
:102990000E94161408501109083F8FEF180771F7AD
:1029A00085E9FF2021F088E0F8120DC087E80E9439
:1029B000161410E00E941D148A8787FF06C01F3F6F
:1029C00021F01F5FF7CF8FEFF2CFDF91CF911F91F3
:1029D0000F91FF90BF90AF909F908F9008958F922E
:1029E0009F92AF92BF92EF92FF920F931F93CF935C
:1029F000DF93EC01E62E1B8619861E821D824C8316
:102A00000E94DF288B0161E08C810E94BE2961E079
:102A10008C810E94FA290E94D42282E58093370794
:102A200081E08093380780913707909138070E94A2
:102A3000FC132AE0F22E8FEF0E941614FA94F11084
:102A4000FACF8091440981110E94EF13CE010E94B8
:102A5000311420E030E0A90160E0CE010E94A11411
:102A6000F82E8A8781E0F816C1F00E94DF28601BEB
:102A7000710B613D774068F381E08D83CE010E9448
:102A8000201480E0DF91CF911F910F91FF90EF9084
:102A9000BF90AF909F908F9008952AEA31E040E078
:102AA00050E068E0CE010E94A11482FF25C0FB86A1
:102AB0008B85812C912C5401823029F4812C912C0E
:102AC000A12C80E4B82E20E030E0A90167E3CE011C
:102AD0000E94A114A501940169E2CE010E94A114F3
:102AE0008A878823C1F00E94DF28601B710B613D3B
:102AF000774048F388E0C1CF94E0F92E0E941D147E
:102B00008A87FA94F110FACF8A3A11F082E0B5CFB1
:102B100082E08B87CDCF8B858230C1F420E030E01E
:102B2000A9016AE3CE010E94A114882311F086E076
:102B3000A4CF0E941D14807C803C11F483E08B871D
:102B40000E941D140E941D140E941D14CE010E949B
:102B500020146E2DCE01DF91CF911F910F91FF9028
:102B6000EF90BF90AF909F908F900C9461140F9353
:102B70001F93CF93DF93EC010E94DF288B010E940B
:102B80001D148A878F3F91F40E94DF28601B710B10
:102B90006D327140A0F38FE08D83CE010E9420142E
:102BA00080E0DF91CF911F910F9108958E3F11F03A
:102BB0008DE0F2CF81E0F5CFCF92DF92EF92FF92DE
:102BC0000F931F93CF93DF93EC016901C801820F2C
:102BD000931F8130924048F58E81882371F088815F
:102BE0009981AA81BB8184179507A607B70729F4A5
:102BF0008F819885C816D90670F5488359836A83F2
:102C00007B838B85833039F089E0440F551F661F25
:102C1000771F8A95D1F79A01AB0161E1CE010E943D
:102C2000A114882379F083E08D83CE010E942014C3
:102C300080E0DF91CF911F910F91FF90EF90DF9097
:102C4000CF900895CE010E94B715882371F318869E
:102C50001F8281E08E838F8198858C159D0560F0A1
:102C60006701E00EF11EEC14FD0471F00E941D14CA
:102C7000F60181936F01F7CF0E941D148F81988513
:102C8000019698878F83E7CF8F819885080F191F4A
:102C900018870F838985882319F00115124018F0D1
:102CA000CE010E94471481E0C4CFEF92FF920F93B0
:102CB0001F930115110539F00E94DC151F910F912A
:102CC000FF90EF90089581E0F9CFEF92FF920F937C
:102CD0001F93790100E012E030E020E00E94DC1553
:102CE0001F910F91FF90EF900895EF92FF920F9335
:102CF0001F93CF93DF938C01862F7A010E941614C5
:102D0000E7018EEFF81A89910E941614CE15DF059F
:102D1000D1F78FEF0E9416148FEF0E9416140E94B5
:102D20001D14F80182878F71853069F081E18583F8
:102D3000C8010E94201480E0DF91CF911F910F9174
:102D4000FF90EF90089581E0F7CF0F931F93CF93FB
:102D5000DF93EC01890182E141155105610571059F
:102D600099F08B85833039F089E0440F551F661F39
:102D7000771F8A95D1F79A01AB0168E1CE010E94D5
:102D8000A114882339F084E08D83CE010E942014A1
:102D900080E023C0A8016EEFCE010E947516882343
:102DA000A1F368E572E0CE010E948614811102C091
:102DB00085E1EACF20E030E0A9016DE0CE010E947C
:102DC000A114882311F084E1DFCF0E941D1481112A
:102DD000FACFCE010E94201481E0DF91CF911F91A4
:102DE0000F910895E7E3F7E080E5808381E0818338
:102DF00008950895CF93DF93EC019C012A5F3F4F24
:102E000041E050E060E070E08B8D9C8D0E9453208B
:102E10008823A1F08F89988DA98DBA8D892B8A2B53
:102E20008B2B59F48E819F81A885B9858F8B988FC4
:102E3000A98FBA8F8C8180688C8381E0DF91CF91DC
:102E400008958F929F92AF92BF92CF92DF92EF92AE
:102E5000FF92CF93DF93EC010E94FA1681110CC010
:102E600080E0DF91CF91FF90EF90DF90CF90BF9007
:102E7000AF909F908F900895EB8DFC8DCE80DF807A
:102E8000E884F98482E0C81AD108E108F108858550
:102E900004C0CC0CDD1CEE1CFF1C8A95D2F7868585
:102EA0009785A089B189C80ED91EEA1EFB1E8481B0
:102EB00046015701880E911CA11CB11C8C149D0465
:102EC000AE04BF0461F081E0881A9108A108B1083E
:102ED000C501B4010E94A11E8111F0CFC1CFEB8DBD
:102EE000FC8D258580E092E0A0E0B0E004C0880F72
:102EF000991FAA1FBB1F2A95D2F74B895C896D8940
:102F00007E89840F951FA61FB71F8B8B9C8BAD8B63
:102F1000BE8B81E0A6CFCF93DF93EC01462F6E8569
:102F20007F85888999890E94661E882351F08A8945
:102F300020E2829FC00111248E5B984FDF91CF91D8
:102F4000089590E080E0FACFFB019B01255F3F4FA1
:102F500040E241932E173F07E1F7DC0120E037E024
:102F60009D91492F992319F19E3229F43A3059F055
:102F700028E03AE0F5CFE6E8F1E08491882329F0F3
:102F800031969813FACF80E017C03217A8F05FEDA2
:102F9000590F5E3588F48FE9890F8A3110F440EEBD
:102FA000490FFB01E20FF11D40832F5FD9CF81E074
:102FB000FB019081903239F308950F931F93CF93C3
:102FC000DF93FC012581222331F080E0DF91CF9156
:102FD0001F910F9108958B01EC01FB0187898031CE
:102FE00039F582E08D831F8A188E198E1A8E808D96
:102FF000918DB0E0A0E025E0880F991FAA1FBB1FAC
:103000002A95D1F78B8B9C8BAD8BBE8B1C8F0B8F36
:1030100081E08C831E821F82188619861A861B8681
:103020001C861D861E861F86188A198A1A8ACECF8C
:10303000803259F683E08D83428D538D648D758D7A
:103040004F8B588F698F7A8F9E012D5E3F4FC8013D
:103050000E94461F8111DACFB8CF2F923F924F9234
:103060005F926F927F928F929F92AF92BF92CF9218
:10307000DF92EF92FF920F931F93CF93DF93EC01B8
:103080005B012A018D81811115C08FEF9FEFDF91C8
:10309000CF911F910F91FF90EF90DF90CF90BF9055
:1030A000AF909F908F907F906F905F904F903F90E8
:1030B0002F9008958C8180FFE8CF0B891C892D8982
:1030C0003E894A855B856C857D85C201B0E0A0E0C4
:1030D00068017901C41AD50AE60AF70AC816D906A2
:1030E000EA06FB0618F42801441A550A42011E019B
:1030F00026E0220E311C8114910409F4B3C04A85E4
:103100005B856C857D856A0181E0D8228B8D9C8DE5
:103110008A019B01E9E03695279517950795EA9571
:10312000D1F7ED81E230E1F5FC01628D738D848D84
:10313000958D600F711F821F931F612C22E0722EEC
:103140006C187D088614970408F434012C8126FD40
:1031500004C06114F2E07F0671F400910701109140
:1031600008012091090130910A0106171707280765
:10317000390709F053C040E00E94661E882309F415
:1031800084CFC6018E5B984FD5019C01260D371D5B
:10319000FC012E173F0709F460C041914D93F9CF10
:1031A000FC0174807A947022C114D10471F47110FE
:1031B0000CC0452B462B472B39F58F89988DA98D4F
:1031C000BA8D8E839F83A887B987EB8DFC8D6E8126
:1031D0007F818885998562507109810991092585CA
:1031E00004C0660F771F881F991F2A95D2F706859E
:1031F000178520893189600F711F821F931F670D0A
:10320000711D811D911D99CF4E815F8168857985E2
:1032100091010E94C51E8111D8CF37CF750183015E
:103220009601AB01BC0180914007909141070E943B
:103230005516882309F429CFA60CB71C8A859B85CF
:10324000AC85BD85860D971DA11DB11D8A879B8705
:10325000AC87BD87861897084ECF281B390BA20E66
:10326000B31EECCFC20113CFFF920F931F93CF93E6
:10327000DF931F92CDB7DEB7FC0125812230C8F065
:103280008C01428553856485758585E076956795C3
:10329000579547958A95D1F7F42FFF70FF2E41E09F
:1032A00050E0BE016F5F7F4FC8010E942D1801974B
:1032B00019F090E080E012C0F80182859385A48522
:1032C000B5854F96A11DB11D82879387A487B587C9
:1032D000F0E2FF9EC00111248E5B984F0F90DF91AA
:1032E000CF911F910F91FF9008958F929F92AF926F
:1032F000BF92CF92DF92EF92FF920F931F93CF93E3
:10330000DF93EC018D8181110EC080E0DF91CF91C0
:103310001F910F91FF90EF90DF90CF90BF90AF90F3
:103320009F908F9008950B891C892D893E890417E1
:1033300015072607370748F34A015B01823031F44D
:103340008A869B86AC86BD8681E0E0CF811491049D
:10335000A104B10449F41E821F82188619861A86B8
:103360001B861C861D86F0CF0A851B852C853D8516
:10337000EB8DFC8D858590E00996B901A80141503F
:10338000510961097109082E04C076956795579512
:1033900047950A94D2F775016401E1E0CE1AD1088D
:1033A000E108F10804C0F694E794D794C7948A958D
:1033B000D2F7C416D506E606F70620F0012B022B3D
:1033C000032B11F58F89988DA98DBA8D8E839F83DC
:1033D000A887B9878E010A5F1F4FC114D104E10489
:1033E000F10409F4ADCF4E815F816885798598013C
:1033F0008B8D9C8D0E94C51E91E0C91AD108E108F1
:10340000F1088111EACF81CFC41AD50AE60AF70A7A
:10341000E1CF0F931F93CF93DF93EC018D8188232E
:10342000D9F18C8187FF32C061E0CE010E948B17F9
:103430008C01892B89F18D81823048F48B899C899C
:10344000AD89BE89F801848F958FA68FB78F8F893C
:10345000988DF801938F828F8F89988DA98DBA8D61
:10346000B58BA48BE0913907F0913A07309759F06A
:10347000B8016A5E7F4FC80148960995F801808DB2
:10348000918D938B828B8C818F778C83DF91CF9101
:103490001F910F910C942B1E80E0DF91CF911F9113
:1034A0000F910895CF93DF93EC010E94091A8823AE
:1034B00011F01D8281E0DF91CF9108954F925F92CC
:1034C0006F927F928F929F92AF92BF92EF92FF92F4
:1034D0000F931F93CF93DF9300D000D0CDB7DEB70B
:1034E000FC0185818130A1F080E00F900F900F905A
:1034F0000F90DF91CF911F910F91FF90EF90BF90B0
:10350000AF909F908F907F906F905F904F900895B5
:10351000848181FFE9CF83899489A589B68984173D
:103520009507A607B70700F3892B8A2B8B2B09F485
:1035300077C04A015B017F014284538464847584AF
:10354000CF010E947519882379F2F701838D948D3C
:1035500081149104A104B10449F54789508D618D0E
:10356000728D0E945E21882309F4BECFF701178A6D
:10357000108E118E128EF701838A948AA58AB68ADC
:10358000848180688483C7010E94091A882309F412
:10359000ABCFB501A401441655066606770610F4B4
:1035A000B301A201C7010E9475199FCF46815781BF
:1035B000608571859E012F5F3F4F0E94C51E882345
:1035C00009F492CFF701838D948D49815A816B81E3
:1035D0007C81FC0127892031F1F408EF1FEF20E006
:1035E00030E0401751076207730728F60E945E21FA
:1035F000882309F479CFF701468157816085718569
:103600000FEF1FEF2FEF3FE0838D948D0E94B11FCE
:103610008111B1CF69CF08EF1FEF2FEF3FE0E1CF6E
:1036200081E063CFCF92DF92EF92FF921F93CF930F
:10363000DF93EC0180E2689FF0011124EE5BF84F0C
:103640009385917161F0842F827449F080E0DF915D
:10365000CF911F91FF90EF90DF90CF900895142F9E
:103660006A8B8091070190910801A0910901B091A6
:103670000A018E879F87A88BB98BC488D588F12CC7
:10368000E12C7601DD24CC24CF8AD88EE98EFA8E07
:10369000828D938DB0E0A0E0AC01BD014C295D2985
:1036A0006E297F294F8B588F698F7A8F8385887118
:1036B00029F5848D958DA68DB78D8B8B9C8BAD8BCD
:1036C000BE8B81E08D83812F8F708C831E821F8241
:1036D000188619861A861B861C861D8681E016FFB1
:1036E000B6CF40E050E0BA01CE01DF91CF911F91FB
:1036F000FF90EF90DF90CF900C945E1A803109F02C
:10370000A5CF9E012D5E3F4F8B8D9C8D0E94461F45
:10371000882309F49BCF84E0D5CFBF92CF92DF926C
:10372000EF92FF920F931F93CF93DF93CDB7DEB746
:103730002B970FB6F894DEBF0FBECDBFFC013581CD
:1037400031110BC0C22E8B017C01BE016F5F7F4F18
:10375000CA010E94A417811102C080E0A1C0F80133
:10376000838D948DF701948F838FF80116821782D1
:10377000108611861286138614861586B12CF801E0
:1037800082859385A485B585438954896589768921
:1037900084179507A607B70788F525E0B695A7957E
:1037A000979587952A95D1F7F82FFF70DF2EC801DE
:1037B0000E943419009789F2FC012081222341F0F4
:1037C000253E09F059C0BB2029F0BB24B394D7CFC4
:1037D000B1100EC0F701D28A409107015091080143
:1037E0006091090170910A0146875787608B718B40
:1037F000FC0180818111E9CFBB24B3948C2D8271AF
:10380000823109F0AACFBB2009F45AC061E0C70198
:103810000E948B178C01892B09F49FCF80E2F8015D
:1038200011928A95E9F78BE0FE013196D80101905B
:103830000D928A95E1F7E0913907F0913A073097B8
:1038400009F44EC0B801625F7F4FC80140960995E8
:10385000F80180899189938B828B918F808F8685E7
:103860009785978B868B0E942B1E882309F475CF32
:103870004C2DF701628911C04BE050E0BC01CE0134
:1038800001960E94232E892B09F079CF8C2D80730D
:103890004C2D6D2D803309F460CFC7010E94121B9F
:1038A0002B960FB6F894DEBF0FBECDBFDF91CF9140
:1038B0001F910F91FF90EF90DF90CF90BF900895F0
:1038C000F8018581823009F448CFC8010E94211790
:1038D000882309F442CFF701128A02E417E09ECF51
:1038E00081E298E2F801918B808B80E098E09787E5
:1038F0008687AECF2F923F924F925F926F927F92C8
:103900008F929F92AF92BF92CF92DF92EF92FF92EF
:103910000F931F93CF93DF9300D000D0CDB7DEB7C6
:103920008C016B011A01DC0115968C911597813081
:1039300009F0C8C014968C9181FFC4C082FDAEC04E
:103940004101D8011A964D915D916D917C911D9721
:103950008114910409F429C15B968D919C915C9727
:10396000FC0174802FEF270D2A013B0139E076948A
:103970006794579447943A95D1F7722E74207A0140
:10398000F1E0FF22711020C0E114F104E9F4169671
:103990004D915D916D917C9119974115510561058E
:1039A000710509F098C057968D919D910D90BC912D
:1039B000A02D0097A105B10509F0AFC0C8010E9474
:1039C000FA16882309F47EC080E092E08E199F09E0
:1039D00054018815990508F45C01D8015B964D9156
:1039E0005C915C9716968D919D910D90BC91A02D48
:1039F0000297A109B109FA01258504C0880F991F12
:103A0000AA1FBB1F2A95D2F7468557856089718901
:103A1000840F951FA61FB71F9C01AD01270D311DF7
:103A2000411D511D29013A01A11432E0B30609F0EC
:103A30007AC08091070190910801A0910901B0918D
:103A40000A0184159505A605B70559F48FEF9FEF78
:103A5000DC018093070190930801A0930901B093C2
:103A60000A019601B301A20180914007909141079C
:103A70000E94A516882331F19EEFD91A8A189B0857
:103A8000F80182859385A485B5858A0D9B1DA11DAE
:103A9000B11D82879387A487B58753CFF8014389E7
:103AA00054896589768982859385A485B58548176B
:103AB00059076A077B0709F443CFC8010E947519AB
:103AC00081113ECF81E090E0D80113969C938E93B4
:103AD000129780E007C09E012F5F3F4F0E94C51ED6
:103AE000811102C090E07BC089819A81AB81BC8149
:103AF000F801238D348DF901278948EF5FEF60E0ED
:103B000070E0203121F048EF5FEF6FEF7FE0841726
:103B10009507A607B70708F051CFF801868397836A
:103B2000A087B18751CFE114F10491F5D8011A961D
:103B30004D915D916D917C911D9753968D919D91C5
:103B40000D90BC91A02D481759076A077B0700F11B
:103B50000E942B1E882309F4B5CF40920701509292
:103B600008016092090170920A0180913F0781600B
:103B700080933F0797012E5B384FD601C9018A0D0C
:103B80009B1DF9018E179F0759F04D914193FACF74
:103B900041E0C301B2010E94661E8111EBCF92CFBA
:103BA000821B930BC80ED91E69CF14968C91149763
:103BB0005396CD90DD90ED90FC905697C416D506A7
:103BC000E606F70618F5F801438B548B658B768B68
:103BD00080688483F801848183FD25C0C1010F9032
:103BE0000F900F900F90DF91CF911F910F91FF9049
:103BF000EF90DF90CF90BF90AF909F908F907F908D
:103C00006F905F904F903F902F90089520913907CB
:103C100030913A07232BF1F221143104D9F2806854
:103C200014968C93D7CFC8010E94091A882309F4EF
:103C300049CFD4CFCF93DF931F92CDB7DEB769833F
:103C400041E050E0BE016F5F7F4F0E947A1C0F90F1
:103C5000DF91CF91089580913F078823A9F140918A
:103C60000701509108016091090170910A0122E455
:103C700037E080914007909141070E94A51681117D
:103C800002C080E0089540913B0750913C0760914D
:103C90003D0770913E07411551056105710591F091
:103CA00022E437E080914007909141070E94A516D9
:103CB000882339F310923B0710923C0710923D077E
:103CC00010923E0710923F0781E00895CF92DF9255
:103CD000EF92FF92CF936B017C01C42F809107017B
:103CE00090910801A0910901B0910A018C159D05E0
:103CF000AE05BF05F9F00E942B1E811107C080E0C0
:103D0000CF91FF90EF90DF90CF90089522E437E0BD
:103D1000B701A60180914007909141070E94651666
:103D2000882369F3C0920701D0920801E09209014B
:103D3000F0920A0140913F074C2B40933F0781E0EE
:103D4000DFCFCF92DF92EF92FF926B017C010E9456
:103D50002B1E8823A9F0E2E4F7E0119289E0E23417
:103D6000F807D9F7C0920701D0920801E092090143
:103D7000F0920A0180913F07816080933F0781E0C4
:103D8000FF90EF90DF90CF9008958F929F92AF9227
:103D9000BF92CF92DF92EF92FF920F931F93CF9338
:103DA000DF93FC0181859285A385B4850196A11DD1
:103DB000B11D84179507A607B70770F480E0DF915F
:103DC000CF911F910F91FF90EF90DF90CF90BF9018
:103DD000AF909F908F90089583889488A588B68827
:103DE0008789803189F5BB27A72F962F852FE90179
:103DF0006A017B018F01BC01CD01680D791D8A1D0F
:103E00009B1D8090070190900801A0900901B0903F
:103E10000A0186169706A806B90601F5F8018789F2
:103E2000803111F5DD24EE24FF24F601EE0FFF1F93
:103E3000EE5BF84F80819181B0E0A0E088839983A8
:103E4000AA83BB8381E0BBCFDB01CA01C7E0B69583
:103E5000A79597958795CA95D1F7C9CF40E00E945D
:103E6000661E8111DBCFAACFE894C7F8DD24EE24CB
:103E7000FF24F601EE0FFF1FEE0FFF1FEE5BF84F62
:103E800080819181A281B381BF70D8CF4F925F9220
:103E90006F927F92AF92BF92CF92DF92EF92FF929A
:103EA0000F931F93CF93DF9300D000D0CDB7DEB731
:103EB0008C0149835A836B837C835901C12CD12C9B
:103EC0007601412C82E0582E612C712C49815A8157
:103ED0006B817C819E012F5F3F4FC8010E94C51EF0
:103EE000882339F1F8018585A301920104C0220FCE
:103EF000331F441F551F8A95D2F7DA01C901C80E36
:103F0000D91EEA1EFB1E49815A816B817C818789FB
:103F1000803111F188EF9FEFAFEFBFE048175907ED
:103F20006A077B0798F2F501C082D182E282F382B0
:103F300081E00F900F900F900F90DF91CF911F9124
:103F40000F91FF90EF90DF90CF90BF90AF907F9058
:103F50006F905F904F90089588EF9FEFA0E0B0E0E2
:103F6000DDCF4F925F926F927F928F929F92AF922E
:103F7000BF92CF92DF92EF92FF920F931F93CF9356
:103F8000DF93EC01423051056105710590F480E04A
:103F9000DF91CF911F910F91FF90EF90DF90CF9025
:103FA000BF90AF909F908F907F906F905F904F9059
:103FB000089589859A85AB85BC850196A11DB11DA3
:103FC00084179507A607B70710F3CB88DC88ED8820
:103FD000FE888F89803109F042C0BB27A72F962F1A
:103FE000852F480159012A013B01C80ED91EEA1E3E
:103FF000FB1E8091070190910801A0910901B091E9
:104000000A01C816D906EA06FB0699F58F898031A0
:10401000C1F5B301A201552766277727440F551F25
:104020004E5B584FFA019182808280913F078160F8
:1040300080933F078A89823080F08D819E81AF8195
:10404000B8858C0D9D1DAE1DBF1D80933B079093C1
:104050003C07A0933D07B0933E0781E099CFDB0179
:10406000CA01E7E0B695A79597958795EA95D1F7A8
:10407000B8CF40E0C701B6010E94661E8111C6CFCD
:1040800086CFB301A2014F77552766277727440FC4
:10409000551F440F551F4E5B584FFA018082918285
:1040A000A282B382C2CF2F923F924F925F926F92C1
:1040B0007F928F929F92AF92BF92CF92DF92EF92B8
:1040C000FF920F931F93CF93DF93CDB7DEB72F9758
:1040D0000FB6F894DEBF0FBECDBF3C0148875987AD
:1040E0006A877B873F832E83D901CD90DD90ED9049
:1040F000FC90C114D104E104F10439F0BFEFCB1AF4
:10410000DB0AEB0AFB0A1D8210C0FC01C080D180D3
:10411000E280F380F1E0FD83088519852A853B85DF
:10412000013011052105310571F7F3018185928573
:10413000A385B4858C019D010F5F1F4F2F4F3F4F0B
:104140000C871D872E873F8746015701212C312C74
:104150002101F30181859285A385B485281639064E
:104160004A065B0608F044C00C851D852E853F85F8
:10417000081519052A053B0550F482E0882E912C7C
:10418000A12CB12C92E0C92ED12CE12CF12C9E0156
:104190002F5F3F4FB501A401C3010E94C51E8823B4
:1041A00039F1D501C4010196A11DB11D49815A8182
:1041B0006B817C81452B462B472BA9F5AC01BD01BA
:1041C0004C195D096E097F09088519852A853B858B
:1041D000401751076207730741F50FEF1FEF2FEFED
:1041E0003FE0B501A401C3010E94B11F811125C0A8
:1041F0001D828D812F960FB6F894DEBF0FBECDBF06
:10420000DF91CF911F910F91FF90EF90DF90CF90B2
:10421000BF90AF909F908F907F906F905F904F90E6
:104220003F902F9008956C017D011FEF211A310AF4
:10423000410A510A4C015D018CCFC814D904EA042B
:10424000FB0488F41401250121E0221A31084108F9
:10425000510895018401B201A101C3010E94B11F5F
:1042600052014101C3CFAE81BF814D915D916D91EE
:104270007C91411551056105710561F4EE81FF8165
:10428000C082D182E282F382FD81F1110BC001E094
:104290000D83AFCF97018601C3010E94B11F811129
:1042A000EDCFA6CF1FEFC11AD10AE10AF10AD3015F
:1042B000CD92DD92ED92FC9213979BCFAF92BF927D
:1042C000CF92DF92EF92FF920F931F93CF93DF93E2
:1042D00000D000D0CDB7DEB75C016A017B0182E07F
:1042E00090E0A0E0B0E0F50180839183A283B383E6
:1042F0009E012F5F3F4FB701A601C5010E94C51E59
:10430000882381F100E010E09801B701A601C50102
:104310000E94B11F882331F1C980DA80EB80FC80D4
:10432000F50187898031C9F088EF9FEFAFEFBFE0DB
:10433000C816D906EA06FB06D8F281E00F900F9066
:104340000F900F90DF91CF911F910F91FF90EF9001
:10435000DF90CF90BF90AF90089588EF9FEFA0E0DF
:10436000B0E0E6CF80E0EACF8F929F92AF92BF920B
:10437000CF92DF92EF92FF920F931F93CF93DF9331
:10438000EC01142F7093410760934007442309F414
:1043900078C0453070F080E0DF91CF911F910F9190
:1043A000FF90EF90DF90CF90BF90AF909F908F9055
:1043B000089540E060E070E0CB010E94661E882313
:1043C00051F3812F8150990BAC0164E0440F551FCC
:1043D0006A95E1F74E5B584FFA01E254FE4F808137
:1043E0008F77C9F63C9680819181A281B381843612
:1043F0009105A105B10578F24A535E4FFA01C080DC
:10440000D180E280F380C114D104E104F10419F2F7
:1044100040E0C701B6010E94661E882309F4BBCFA5
:1044200080914D0790914E078115924009F0B3CFCE
:1044300090915207992309F4AECF20915007309103
:104440005107232B09F4A7CF80914F07882309F444
:10445000A2CF9A8B8C831D8690E041E050E02D85A1
:10446000E22FBA01022E02C0660F771F0A94E2F70C
:104470008617970751F031E0320F3D87283078F3E7
:104480008ACFC12CD12C7601C3CF2091580730910F
:10449000590750E040E02115310541F420916607AD
:1044A0003091670740916807509169072D833E83DB
:1044B0004F835887809150079091510746015701CB
:1044C000880E991EA11CB11C8B8A9C8AAD8ABE8A5B
:1044D0000091530710915407198F088FA09152072C
:1044E000B0E00E94E52BDC01CB01880D991DAA1DCF
:1044F000BB1D8A8F9B8FAC8FBD8F25E0000F111FD6
:104500002A95E1F701501E4F012F11270695800FC4
:10451000911FA11DB11D8E879F87A88BB98B00911C
:1045200055071091560730E020E00115110541F4C0
:10453000009162071091630720916407309165072D
:10454000C81AD90AEA0AFB0AC00ED11EE21EF31EDF
:1045500004C0F694E794D794C794EA95D2F7C98635
:10456000DA86EB86FC868CE025EFC2162FE0D206B9
:10457000E104F10440F085EFC8168FEFD806E1049E
:10458000F10420F480E18F8B81E006CF80916E07EB
:1045900090916F07A0917007B09171078A8F9B8FE0
:1045A000AC8FBD8F80E2EFCFCF93CFB7F8948091DF
:1045B0004509811127C0EAEDF1E08491EAEBF1E0D1
:1045C0009491E82FF0E0EE0FFF1FE65FFD4FA591FD
:1045D000B491EC91E92321F461E084E00E94FA298E
:1045E00061E084E00E94BE298CB580618CBD8CB5F1
:1045F00080648CBD61E087E00E94BE2961E085E0B7
:104600000E94BE29809145098F5F80934509CFBFE5
:10461000CF910895FC01918D228D892F90E0805CCF
:104620009F4F821B91098F7399270895FC01918DEB
:10463000828D981731F0828DE80FF11D858D90E005
:1046400008958FEF9FEF0895FC01918D828D98174B
:1046500061F0A28DAE0FBF2FB11D5D968C91928D32
:104660009F5F9F73928F90E008958FEF9FEF089563
:10467000FC01538D448D252F30E0842F90E0821B68
:10468000930B541710F0CF9608950197089583EA7D
:1046900094E2892B49F080E090E0892B29F00E9478
:1046A000A32481110E9400008AE395E2892B49F03E
:1046B00080E090E0892B29F00E943A2581110C942A
:1046C00000000895FC01A48DA80FB92FB11DA35AB5
:1046D000BF4F2C91848D90E001968F739927848F22
:1046E000A689B7892C93A089B1898C918370806445
:1046F0008C93938D848D981306C00288F389E02DE6
:1047000080818F7D80830895CF93DF93EC01888D26
:104710008823B9F0AA89BB89E889F9898C9185FD3C
:1047200003C0808186FD0DC00FB607FCF7CF8C91CA
:1047300085FFF2CF808185FFEDCFCE010E946223FD
:10474000E9CFDF91CF910895EF92FF920F931F93DE
:10475000CF93DF93EC0181E0888F9B8D8C8D981334
:104760001AC0E889F989808185FF15C09FB7F89440
:10477000EE89FF896083E889F9898081837080648C
:1047800080839FBF81E090E0DF91CF911F910F91D7
:10479000FF90EF900895F62E0B8D10E00F5F1F4FE6
:1047A0000F731127E02E8C8D8E110CC00FB607FCF5
:1047B000FACFE889F989808185FFF5CFCE010E9483
:1047C0006223F1CFEB8DEC0FFD2FF11DE35AFF4F6C
:1047D000F0829FB7F8940B8FEA89FB898081806211
:1047E000CFCFCF92DF92EF92FF921F93CF93DF93C1
:1047F000EC016A017B01122F60E874E88EE190E021
:10480000A70196010E94BA2B215031094109510993
:104810005695479537952795E889F98982E08083F1
:10482000211580E1380798F0E889F989108260E461
:1048300072E48FE090E0A70196010E94BA2B21500C
:104840003109410951095695479537952795EC85CA
:10485000FD853083EE85FF852083188EEC89FD89E8
:104860001083EA89FB89808188698083EA89FB89D2
:1048700080818F7D8083DF91CF911F91FF90EF909A
:10488000DF90CF9008951F920F920FB60F921124D0
:104890000BB60F922F938F939F93EF93FF93E0911B
:1048A0005609F09157098081E0915C09F0915D090A
:1048B00082FD1DC0908180915F098F5F8F73209171
:1048C0006009821741F0E0915F09F0E0EA5BF64F82
:1048D000958F80935F09FF91EF919F918F912F9119
:1048E0000F900BBE0F900FBE0F901F9018958081F8
:1048F000F2CF1F920F920FB60F9211240BB60F92A8
:104900002F933F934F935F936F937F938F939F93D7
:10491000AF93BF93EF93FF9386E499E00E946223E5
:10492000FF91EF91BF91AF919F918F917F916F9187
:104930005F914F913F912F910F900BBE0F900FBE43
:104940000F901F90189586E499E00E940A2321E0B9
:10495000892B09F420E0822F0895E6E4F9E0138220
:10496000128288EE93E0A0E0B0E084839583A68372
:10497000B78387E192E09183808385EC90E095870F
:10498000848784EC90E09787868780EC90E0918B19
:10499000808B81EC90E0938B828B82EC90E0958B06
:1049A000848B86EC90E0978B868B118E128E138E03
:1049B000148E08951F920F920FB60F9211240BB60A
:1049C0000F922F938F939F93EF93FF93E091F309AF
:1049D000F091F4098081E091F909F091FA0982FDE2
:1049E0001DC090818091FC098F5F8F732091FD091C
:1049F000821741F0E091FC09F0E0ED51F64F958F00
:104A00008093FC09FF91EF919F918F912F910F90CF
:104A10000BBE0F900FBE0F901F9018958081F2CFA4
:104A20001F920F920FB60F9211240BB60F922F9375
:104A30003F934F935F936F937F938F939F93AF9326
:104A4000BF93EF93FF9383EE99E00E946223FF915F
:104A5000EF91BF91AF919F918F917F916F915F91F6
:104A60004F913F912F910F900BBE0F900FBE0F9063
:104A70001F90189583EE99E00E940A2321E0892B6C
:104A800009F420E0822F0895E3EEF9E01382128208
:104A900088EE93E0A0E0B0E084839583A683B7839B
:104AA00087E192E0918380838DEC90E09587848705
:104AB0008CEC90E09787868788EC90E0918B808BD8
:104AC00089EC90E0938B828B8AEC90E0958B848BC1
:104AD0008EEC90E0978B868B118E128E138E148E37
:104AE0000895AF92BF92CF92DF92EF92FF920F9311
:104AF0001F93CF93DF936C017B018B01040F151F74
:104B0000EB015E01AE18BF08C017D10759F06991DB
:104B1000D601ED91FC910190F081E02DC60109953F
:104B2000892B79F7C501DF91CF911F910F91FF90EC
:104B3000EF90DF90CF90BF90AF900895FB01019070
:104B40000020E9F73197AF01461B570BDC01ED91CF
:104B5000FC910280F381E02D0994DB0114964D91C4
:104B60005C9115976D917C91DC01ED91FC91028037
:104B7000F381E02D09946115710511F00C949E25C7
:104B800090E080E00895DC01ED91FC910190F081CE
:104B9000E02D099465E272E00C949E250F931F931B
:104BA000CF93DF93EC010E94AD258C01CE010E94D2
:104BB000CA25800F911FDF91CF911F910F9108950A
:104BC0000F931F93CF93DF938C01D0E0C0E061156A
:104BD000710519F00E949E25EC01C8010E94CA25AA
:104BE0008C0F9D1FDF91CF911F910F9108958F9290
:104BF0009F92AF92BF92EF92FF920F931F93CF932A
:104C0000DF93CDB7DEB7A1970FB6F894DEBF0FBE26
:104C1000CDBF7C01FA01CB0119A2223008F42AE0B1
:104C20008E010F5D1F4F822E912CB12CA12CBF0144
:104C3000A50194010E94BA2BF901CA016A300CF552
:104C4000605DD8016E938D01232B242B252B79F7E2
:104C500090E080E0109721F0BD01C7010E949E25E1
:104C6000A1960FB6F894DEBF0FBECDBFDF91CF91F6
:104C70001F910F91FF90EF90BF90AF909F908F90FA
:104C80000895695CDECF2115310541F4DC01ED9119
:104C9000FC910190F081E02D642F09940C94F7258C
:104CA0000F931F93CF93DF93EC010E9443268C0157
:104CB000CE010E94CA25800F911FDF91CF911F91D5
:104CC0000F910895FC0180819181009711F00C945F
:104CD000B92C0895CF93DF93EC01888199810097D7
:104CE00011F00E94B92C198218821D821C821B822D
:104CF0001A82DF91CF9108950F931F93CF93DF9383
:104D0000EC018B016F5F7F4F888199810E94422D5A
:104D1000009751F0998388831B830A8381E0DF9198
:104D2000CF911F910F91089580E0F9CFCF93DF933A
:104D3000EC0188819981892B49F08A819B818617B2
:104D4000970720F081E0DF91CF910895CE010E9476
:104D50007C268823C1F38C819D81892B99F7E8817A
:104D6000F9811082EFCFEF92FF920F931F93CF93B1
:104D7000DF93EC017B018A01BA010E949626811122
:104D80000BC0CE010E946A26CE01DF91CF911F9108
:104D90000F91FF90EF9008951D830C83B7018881D8
:104DA00099810E94442EF0CFFC011182108213825F
:104DB0001282158214826115710551F0FB01019078
:104DC0000020E9F73197AF01461B570B0C94B3262F
:104DD0000895FB0101900020E9F73197AF01461BD0
:104DE000570B0C94B3260F931F93CF93DF93CDB73C
:104DF000DEB729970FB6F894DEBF0FBECDBF8C018A
:104E0000862FF80111821082138212821582148279
:104E100050E0BE016F5F7F4F90E00E949D2EBE016B
:104E20006F5F7F4FC8010E94E92629960FB6F8945C
:104E3000DEBF0FBECDBFDF91CF911F910F910895BF
:104E40000F931F93CF93DF93CDB7DEB762970FB663
:104E5000F894DEBF0FBECDBF8C01CB01F8011182EB
:104E60001082138212821582148250E0BE016F5F9D
:104E70007F4F0E945A2EBE016F5F7F4FC8010E9474
:104E8000E92662960FB6F894DEBF0FBECDBFDF9164
:104E9000CF911F910F9108950F931F93CF93DF939D
:104EA000CDB7DEB761970FB6F894DEBF0FBECDBFAA
:104EB0008C01CB01F80111821082138212821582BB
:104EC000148250E0BE016F5F7F4F0E949D2EBE0195
:104ED0006F5F7F4FC8010E94E92661960FB6F89474
:104EE000DEBF0FBECDBFDF91CF911F910F9108950F
:104EF0000F931F93CF93DF93CDB7DEB7A1970FB674
:104F0000F894DEBF0FBECDBF8C01CB01BA01F80112
:104F100011821082138212821582148230E0AE0157
:104F20004F5F5F4F0E94702EBE016F5F7F4FC801C1
:104F30000E94E926A1960FB6F894DEBF0FBECDBF42
:104F4000DF91CF911F910F910895CF93DF93EC01E3
:104F5000FB018617970749F0608171816115710522
:104F600041F0448155810E94B326CE01DF91CF915B
:104F700008950E946A26F9CFFC01118210821382E3
:104F80001282158214820C94A527CF93DF93EC0133
:104F90006115710531F00E94E926CE01DF91CF91B4
:104FA00008950E946A26F9CFEF92FF920F931F9304
:104FB000CF93DF93CDB7DEB7A1970FB6F894DEBFDE
:104FC0000FBECDBF7C01CB01BA01F7011182108267
:104FD000138212821582148242E0420F8E010F5F0B
:104FE0001F4F0E94FF2BBC01C7010E94C527A1963D
:104FF0000FB6F894DEBF0FBECDBFDF91CF911F91EA
:105000000F91FF90EF900895EF92FF920F931F93EF
:10501000CF93DF936115710541F480E0DF91CF916B
:105020001F910F91FF90EF90089541155105B1F038
:105030007B01EC010C811D81040F151FB8010E943A
:105040009626882351F3288139818C819D81B7016F
:10505000820F931F0E94442E1D830C8381E0DECFBC
:10506000FB0144815581608171810C940428611594
:10507000710551F0FB0101900020E9F73197AF0174
:10508000461B570B0C94042880E00895CF93DF93C0
:10509000EC01FB0144815581608171810E940428EB
:1050A000811103C0CE010E946A26CE01DF91CF910B
:1050B0000895CF93DF93EC016115710539F4CE01AA
:1050C0000E946A26CE01DF91CF910895FB010190E5
:1050D0000020E9F73197AF01461B570B0E940428C7
:1050E000882369F3EFCFFC012481358162177307B0
:1050F00020F480819181009729F41092800A80E841
:105100009AE00895860F971F089508950E945429E4
:105110000E9485280E947F05C7E4D3E20E94F30B1A
:105120002097E1F30E944723F9CF1F920F920FB609
:105130000F9211242F933F938F939F93AF93BF931D
:105140008091860A9091870AA091880AB091890A75
:105150003091850A26E0230F2D3768F129E8230FC7
:105160000396A11DB11D2093850A8093860A909312
:10517000870AA093880AB093890A8091810A909146
:10518000820AA091830AB091840A0196A11DB11DE3
:105190008093810A9093820AA093830AB093840A31
:1051A000BF91AF919F918F913F912F910F900FBE23
:1051B0000F901F9018950296A11DB11DD4CF2FB747
:1051C000F8946091860A7091870A8091880A90917C
:1051D000890A2FBF08953FB7F8948091810A909172
:1051E000820AA091830AB091840A26B5A89B05C0C3
:1051F0002F3F19F00196A11DB11D3FBFBA2FA92F56
:10520000982F8827BC01CD01620F711D811D911D52
:1052100043E0660F771F881F991F4A95D1F70895BD
:105220008F929F92AF92BF92CF92DF92EF92FF92B6
:105230006B017C010E94EB284B015C01C114D1047D
:10524000E104F104E9F00E94512A0E94EB28681958
:1052500079098A099B09683E73408105910570F3BD
:1052600021E0C21AD108E108F10888EE880E83E037
:10527000981EA11CB11CC114D104E104F10429F74A
:10528000FF90EF90DF90CF90BF90AF909F908F9066
:105290000895000000008330910528F0880F991FC1
:1052A00005970197F1F70895789484B5836084BDDC
:1052B00085B5836085BDEEE6F0E080818160808306
:1052C000E1E8F0E082E08083808181608083E0E833
:1052D000F0E0808181608083E1EBF0E08081846098
:1052E0008083E0EBF0E0808181608083E1E9F0E0A1
:1052F000808183608083E0E9F0E080818160808349
:1053000086E880937A001092C100089582508A3016
:1053100088F5E82FF0E0E157F64D0C94DC2BB72927
:10532000BB2999299F29BA29BA29A329A929AD29D5
:10533000B329809180008F778093800008958091B9
:1053400080008F7DF9CF8091B0008F778093B0007F
:1053500008958091B0008F7DF9CF809190008F7774
:10536000809390000895809190008F7DF9CF84B54F
:105370008F7784BD089584B58F7DFBCFCF93DF9366
:1053800090E0FC01EA54FE4F24918A529E4FFC01AA
:1053900084918823C9F090E0880F991FFC01E65F93
:1053A000FD4FA591B491FC01E050FE4FC591D49101
:1053B00061110DC09FB7F8948C91209582238C9336
:1053C0008881282328839FBFDF91CF910895623081
:1053D00051F49FB7F8943C91822F809583238C934E
:1053E000E8812E2BEFCF8FB7F894EC912E2B2C93D6
:1053F0008FBFEACF1F93CF93DF93282F30E0F901BF
:10540000EA56FE4F8491F901EA54FE4FD491F90116
:10541000EA52FE4FC491CC23A9F0162F81110E94AD
:105420008629EC2FF0E0EE0FFF1FE050FE4FA59114
:10543000B4918FB7F894EC91111108C0D095DE2388
:10544000DC938FBFDF91CF911F910895DE2BF8CFB2
:10545000CF93DF93282F30E0F901EA56FE4F849175
:10546000F901EA54FE4FD491F901EA52FE4FC4917A
:10547000CC23A1F081110E948629EC2FF0E0EE0FE1
:10548000FF1FEA50FE4FA591B491EC91ED2381E00E
:1054900090E009F480E0DF91CF91089580E090E002
:1054A000FACF08955058BB27AA270E946A2A0C9465
:1054B000132B0E94052B38F00E940C2B20F039F49E
:1054C0009F3F19F426F40C94022B0EF4E095E7FBB1
:1054D0000C94FC2AE92F0E94242B58F3BA17620778
:1054E00073078407950720F079F4A6F50C94462BF2
:1054F0000EF4E0950B2EBA2FA02D0B01B9019001EF
:105500000C01CA01A0011124FF27591B99F0593F32
:1055100050F4503E68F11A16F040A22F232F342F7A
:105520004427585FF3CF469537952795A795F040C8
:105530005395C9F77EF41F16BA0B620B730B840BDD
:10554000BAF09150A1F0FF0FBB1F661F771F881F95
:10555000C2F70EC0BA0F621F731F841F48F48795ED
:1055600077956795B795F7959E3F08F0B0CF9395DF
:10557000880F08F09927EE0F979587950895E8947E
:1055800009C097FB3EF490958095709561957F4F8B
:105590008F4F9F4F9923A9F0F92F96E9BB27939539
:1055A000F695879577956795B795F111F8CFFAF449
:1055B000BB0F11F460FF1BC06F5F7F4F8F4F9F4F7A
:1055C00016C0882311F096E911C0772321F09EE8D8
:1055D000872F762F05C0662371F096E8862F70E03E
:1055E00060E02AF09A95660F771F881FDAF7880F18
:1055F0009695879597F9089597F99F6780E870E0E9
:1056000060E008959FEF80EC089500240A94161638
:10561000170618060906089500240A9412161306A0
:10562000140605060895092E0394000C11F488232E
:1056300052F0BB0F40F4BF2B11F460FF04C06F5F4A
:105640007F4F8F4F9F4F089557FD9058440F551F20
:1056500059F05F3F71F04795880F97FB991F61F0F4
:105660009F3F79F087950895121613061406551F6B
:10567000F2CF4695F1DF08C0161617061806991FD7
:10568000F1CF86957105610508940895E894BB27CC
:1056900066277727CB0197F908950E94602B0C9419
:1056A000132B0E94052B38F00E940C2B20F0952321
:1056B00011F00C94FC2A0C94022B11240C94472B0F
:1056C0000E94242B70F3959FC1F3950F50E0551F56
:1056D000629FF001729FBB27F00DB11D639FAA2747
:1056E000F00DB11DAA1F649F6627B00DA11D661F96
:1056F000829F2227B00DA11D621F739FB00DA11DB7
:10570000621F839FA00D611D221F749F3327A00D70
:10571000611D231F849F600D211D822F762F6A2F0C
:1057200011249F5750409AF0F1F088234AF0EE0F71
:10573000FF1FBB1F661F771F881F91505040A9F79E
:105740009E3F510580F00C94FC2A0C94472B5F3F40
:10575000E4F3983ED4F3869577956795B795F795DA
:10576000E7959F5FC1F7FE2B880F911D9695879552
:1057700097F90895A1E21A2EAA1BBB1BFD010DC0CB
:10578000AA1FBB1FEE1FFF1FA217B307E407F507F1
:1057900020F0A21BB30BE40BF50B661F771F881FCD
:1057A000991F1A9469F760957095809590959B0163
:1057B000AC01BD01CF010895EE0FFF1F0024001CB6
:1057C0000BBE0790F691E02D09940E94F02BA59F47
:1057D000900DB49F900DA49F800D911D11240895EC
:1057E000A29FB001B39FC001A39F700D811D112422
:1057F000911DB29F700D811D1124911D0895EF928E
:105800000F931F93CF93DF93E80134E047FD34E11A
:10581000042E000C550B57FF03C0519541955109BB
:10582000E32E022F242FAE010E94C22ECE01DF9163
:10583000CF911F910F91EF9008950F931F93CF93E6
:10584000DF938230910510F482E090E0E0918C0AC1
:10585000F0918D0A30E020E0B0E0A0E0309799F4BC
:105860002115310509F44AC0281B390B24303105B4
:10587000D8F58A819B816115710589F1FB019383BC
:105880008283FE0111C0408151810281138148173A
:105890005907E0F04817590799F4109761F01296EC
:1058A0000C93129713961C933296CF01DF91CF91F0
:1058B0001F910F91089500938C0A10938D0AF4CFD5
:1058C0002115310551F04217530738F0A901DB01CA
:1058D0009A01BD01DF01F801C1CFEF01F9CF90932B
:1058E0008D0A80938C0ACDCFFE01E20FF31F8193C6
:1058F00091932250310939832883D7CF20918A0A86
:1059000030918B0A232B41F4209102013091030145
:1059100030938B0A20938A0A209100013091010173
:105920002115310541F42DB73EB740910401509146
:105930000501241B350BE0918A0AF0918B0AE217CE
:10594000F307A0F42E1B3F0B2817390778F0AC01A2
:105950004E5F5F4F2417350748F04E0F5F1F50937F
:105960008B0A40938A0A819391939FCFF0E0E0E005
:105970009CCFCF93DF930097E9F0FC01329713821D
:105980001282A0918C0AB0918D0AED0130E020E0E6
:105990001097A1F420813181820F931F20918A0AF0
:1059A00030918B0A2817390709F061C0F0938B0AF0
:1059B000E0938A0ADF91CF910895EA01CE17DF07BD
:1059C000E8F54A815B819E0141155105B1F7E90176
:1059D000FB83EA8349915991C40FD51FEC17FD074A
:1059E00061F4808191810296840F951FE90199836A
:1059F0008883828193819B838A83F0E0E0E0129622
:105A00008D919C9113970097B9F52D913C91119729
:105A1000CD010296820F931F20918A0A30918B0A42
:105A20002817390739F6309751F510928D0A1092E0
:105A30008C0AB0938B0AA0938A0ABCCFD383C2830B
:105A400040815181840F951FC817D90761F44E5FBB
:105A50005F4F88819981480F591F518340838A8104
:105A60009B81938382832115310509F0B0CFF09398
:105A70008D0AE0938C0A9ECFFD01DC01C0CF13821A
:105A80001282D7CF4F925F926F927F928F929F92A6
:105A9000AF92BF92CF92DF92EF92FF920F931F933C
:105AA000CF93DF938C01009799F4CB01DF91CF91D5
:105AB0001F910F91FF90EF90DF90CF90BF90AF902C
:105AC0009F908F907F906F905F904F900C941D2CC3
:105AD000FC01E60FF71F9C0122503109E217F30782
