:020000040000FA
:100000000C9411010C943B010C943B010C943B01AA
:100010000C943B010C943B010C943B010C943B0170
:100020000C943B010C943B010C943B010C943B0160
:100030000C943B010C946A010C943B010C943B0121
:100040000C943B010C943B010C9454300C943B01F8
:100050000C94D12B0C94072C0C943B010C943B0179
:100060000C943B010C943B010C94A3100C943B01A9
:100070000C94682C0C949E2C0C943B010C943B012A
:100080000C943B010C943B010C943B0100407A1012
:10009000F35A00A0724E18090010A5D4E80000E839
:1000A0007648170000E40B54020000CA9A3B000097
:1000B00000E1F505000080969800000040420F0026
:1000C0000000A08601000000102700000000E803E7
:1000D000000000006400000000000A0000000000B2
:1000E0000100000000002C76D888DC674F0823DF71
:1000F000C1DFAE59E1B1B796E5E3E453C63AE65144
:10010000997696E8E6C28426EB898C9B62ED407C6A
:100110006FFCEFBC9C9F40F2BAA56FA5F490055A06
:100120002AF75C936B6CF9676DC11BFCE0E40D472B
:10013000FEF520E6B500D0ED902E0300943577054E
:100140000080841E080000204E0A000000C80C3306
:100150003333330F986E12831141EF8D2114893B95
:10016000E65516CFFEE6DB18D1844B381BF77C1D15
:10017000901DA4BBE424203284725E228100C9F168
:1001800024ECA1E53D277C3C3E5E2B3D3F2F5B5D93
:100190003B2C2A225C000000000203000A0B000036
:1001A0000000050409080000000000000000000035
:1001B000000000000000010204081020408001023D
:1001C0000408102040800102040810204080010231
:1001D000040810204080020202020202020204040B
:1001E00004040404040403030303030303030101DD
:1001F0000101010101010000200023002600290067
:1002000000002200250028002B000000210024000F
:1002100027002A007F01B80FBC15D6183B2CD22C22
:10022000910111241FBECFEFD0E4DEBFCDBF12E09D
:10023000A0E0B1E0E0ECF2E700E00BBF02C0079005
:100240000D92A234B107D9F72AE0A2E4B2E001C0CE
:100250001D92A93AB207E1F711E0C0E1D1E004C074
:100260002197FE010E940934CA30D107C9F70E94C4
:1002700045300C9453390C940000DC01ED91FC9155
:100280000190F081E02D09940CB405FC0DC09EBDD9
:1002900000000DB407FEFDCF9EB58EBD00000DB46D
:1002A00007FEFDCF8EB508958EBD00000DB407FE8C
:1002B000FDCF8EB59EBD00000DB407FEFDCF9EB5EF
:1002C0000895982F92959F708F702AE0929F800DCD
:1002D000112408951F920F920FB60F9211248F933D
:1002E000809144028F5F80934402109285001092A7
:1002F00084008F910F900FBE0F901F90189565E1AD
:1003000071E080E696E00E94622E66E471E08AE584
:1003100096E00E94622E61E472E084E596E00C941F
:10032000622E84E596E00E94F02D8AE596E00E9418
:10033000F02D80E696E00C94F02DCF93DF9361E5ED
:1003400070E086E696E00E94370F70E060E086E697
:1003500096E00E943D0186E696E00E94B50F46E0D9
:1003600050E061E570E086E696E00E94B20F86E616
:1003700096E00E94AA0E0E9461018093450286E6E3
:1003800096E00E94AA0E8F770E946101D82F86E620
:1003900096E00E94AA0E8F770E946101C82F86E620
:1003A00096E00E94AA0E0E94610190E0B0E0A0E0F9
:1003B0008093460290934702A0934802B09349026B
:1003C00086E696E00E94AA0E0E94610124E6829FC2
:1003D000C0011124092E000CAA0BBB0B4091460250
:1003E000509147026091480270914902840F951F15
:1003F000A61FB71F8093460290934702A09348021E
:10040000B093490286E696E00E94AA0E0E9461011E
:1004100040E157E2849F9001859F300D1124032E07
:10042000000C440B550B8091460290914702A0911D
:100430004802B0914902280F391F4A1F5B1FA0E1F3
:10044000BEE00E942134AB01BC012CE3C29FC0017D
:100450001124092E000CAA0BBB0B8D0F911DA11DA1
:10046000B11D840F951FA61FB71F8093460290935E
:100470004702A0934802B0934902DF91CF910895BB
:10048000CF93DF93CDB7DEB7C459D1090FB6F89437
:10049000DEBF0FBECDBF61E083E10E94B93160E0F5
:1004A00082E10E94B93161E082E00E947D3161E029
:1004B00082E00E94B93161E084E10E947D3161E017
:1004C00084E10E94B93161E472E0CE0181579F4F0F
:1004D0000E94622E0E949D0167E571E0CE01815766
:1004E0009F4F0E94F52F60915006709151064AE08F
:1004F000CE0101960E94DA2EBE016F5F7F4FCE01C2
:1005000081579F4F0E94EE2FCE0101960E94F02D41
:1005100068EB71E0CE0181579F4F0E94F52F40910B
:1005200046025091470260914802709149022AE0C8
:10053000CE0101960E94062FBE016F5F7F4FCE0154
:1005400081579F4F0E94EE2FCE0101960E94F02D01
:100550006BE971E0CE0181579F4F0E94F52F4AE071
:1005600060914502CE0101960E94812EBE016F5F0F
:100570007F4FCE0181579F4F0E94EE2FCE010196F3
:100580000E94F02D68EB71E0CE0181579F4F0E94D1
:10059000F52F46E656E064E4CE01885A9F4F0E944C
:1005A0007025CE01885A9F4F0E94A72561E0CE0199
:1005B000885A9F4F0E942A26E1966EAD7FADE19743
:1005C00090E080E00E94B8322FEA30E04FE25BE337
:1005D0000E946A3320E030E044E352E40E9410328B
:1005E000AB01BC0121E0CE0101960E94622FBE0149
:1005F0006F5F7F4FCE0181579F4F0E94EE2FCE013C
:1006000001960E94F02D68EB71E0CE0101960E94E8
:10061000622EBE016F5F7F4FCE0181579F4F0E94B8
:10062000EE2FCE0101960E94F02DAF966EAD7FADFC
:10063000AF9790E080E00E94B83228EC30E048ECC0
:100640005AE30E946A33AB01BC0121E0CE0101965E
:100650000E94622FBE016F5F7F4FCE0181579F4F77
:100660000E94EE2FCE0101960E94F02D68EB71E002
:10067000CE0101960E94622EBE016F5F7F4FCE01B8
:1006800081579F4F0E94EE2FCE0101960E94F02DC0
:1006900046E656E065E4CE01CC960E947025CE0178
:1006A000CC960E94A72561E0CE01CC960E942A2616
:1006B00065966EAD7FAD659790E080E00E94B832A0
:1006C0002FEA30E04FE25BE30E946A3320E030E043
:1006D00044E352E40E941032AB01BC0121E0CE01A0
:1006E00001960E94622FBE016F5F7F4FCE0181573E
:1006F0009F4F0E94EE2FCE0101960E94F02D68EBD5
:1007000071E0CE0101960E94622EBE016F5F7F4FA5
:10071000CE0181579F4F0E94EE2FCE0101960E947D
:10072000F02D63966EAD7FAD639790E080E00E9400
:10073000B83228EC30E048EC5AE30E946A33AB014F
:10074000BC0121E0CE0101960E94622FBE016F5FC5
:100750007F4FCE0181579F4F0E94EE2FCE01019611
:100760000E94F02D68EB71E0CE0101960E94622E8E
:10077000BE016F5F7F4FCE0181579F4F0E94EE2FCA
:10078000CE0101960E94F02D46E656E067E7CE01C5
:1007900001960E945626CE0101960E94822A6A8105
:1007A000CE0101960E941628CE0101960E94902645
:1007B000AB01BC0122E0CE018C589F4F0E94622FFA
:1007C000BE016C587F4FCE0181579F4F0E94EE2F84
:1007D000CE018C589F4F0E94F02D68EB71E0CE0146
:1007E0008C589F4F0E94622EBE016C587F4FCE01E5
:1007F00081579F4F0E94EE2FCE018C589F4F0E9431
:10080000F02DCE0101960E94C726AB01BC0122E06B
:10081000CE018C589F4F0E94622FBE016C587F4FB3
:10082000CE0181579F4F0E94EE2FCE018C589F4FD3
:100830000E94F02D61E084E10E947D3160E084E15E
:100840000E94B93161E082E00E947D3160E082E087
:100850000E94B93180910601882371F164E088E03B
:1008600097E00E9406146DE571E0882309F443C007
:10087000409154065091550623E168E077E0CE019F
:100880008C589F4F0E942615CE018C589F4F0E9476
:10089000FA12882371F1BE0161577F4FCE018C5847
:1008A0009F4F0E945C2DCE018C589F4F0E94E812F2
:1008B00061E084E00E94B93161E082E10E94B931D7
:1008C00060E083E10E94B93161E070E080E090E097
:1008D0000E94CF30CE0181579F4F0E94F02DCC5601
:1008E000DF4F0FB6F894DEBF0FBECDBFDF91CF91C3
:1008F00008956CE671E08EEF99E00E946E2D1092E3
:100900000601D6CF8F929F92AF92BF92EF92FF9245
:100910000F931F93CF93DF93CDB7DEB7A7970FB693
:10092000F894DEBF0FBECDBF61E083E10E94B93114
:1009300060E082E10E94B93104E512E080E5E82E32
:1009400082E0F82E812C912C5401F80181918F01C5
:10095000880E911CA11CB11CF6E000351F07A9F7F9
:1009600061E472E0CE0182960E94622E0E949D0197
:1009700066E771E0CE0182960E94F52F60915006E5
:10098000709151064AE0CE0101960E94DA2EBE0116
:100990006F5F7F4FCE0182960E94EE2FCE010196AF
:1009A0000E94F02D68EB71E0CE0182960E94F52F37
:1009B000409146025091470260914802709149026D
:1009C0002AE0CE0101960E94062FBE016F5F7F4F85
:1009D000CE0182960E94EE2FCE0101960E94F02D4C
:1009E0006BE971E0CE0182960E94F52F4AE060919A
:1009F0004502CE0101960E94812EBE016F5F7F4F9E
:100A0000CE0182960E94EE2FCE0101960E94F02D1B
:100A100068EB71E0CE0182960E94F52F2AE0B501C5
:100A2000A401CE0101960E94062FBE016F5F7F4F89
:100A3000CE0182960E94EE2FCE0101960E94F02DEB
:100A400068EB71E0CE0182960E94F52FF70161916B
:100A50007F014AE0CE0101960E94812EBE016F5FA8
:100A60007F4FCE0182960E94EE2FCE0101960E940A
:100A7000F02D0E151F0521F78091060161E08823F6
:100A800009F470C08EE00E94B93164E088E097E01C
:100A90000E9406146DE571E0882309F45CC0409162
:100AA00054065091550623E168E077E0CE010196A7
:100AB0000E942615CE0101960E94FA12882309F49D
:100AC00048C0BE016E5D7F4FCE0101960E945C2D35
:100AD000CE0101960E94E81261E084E00E94B931E3
:100AE00060E08EE00E94B93160E08DE00E94B93193
:100AF00080915006909151060196893FFAE29F0736
:100B000008F065C0909351068093500661E082E141
:100B10000E94B93160E083E10E94B93161E070E088
:100B200080E090E00E94CF30CE0182960E94F02DAE
:100B3000A7960FB6F894DEBF0FBECDBFDF91CF9161
:100B40001F910F91FF90EF90BF90AF909F908F906B
:100B500008956CE671E08EEF99E00E946E2D109280
:100B60000601BACF8DE00E94B931AEA0BFA010E05F
:100B700000E0FF24FA948DE10E94E731892B19F0FF
:100B8000FA94F110F8CF82E390E00E9408317801E6
:100B9000FFEFEF1AFF0AB801CE0182960E943130B2
:100BA000FC01608181E699E00E94512DAE14BF04E2
:100BB00060F481E699E00E94582DBE016E5D7F4F82
:100BC0008EEF99E00E945C2D8BCF8701D2CF1092DF
:100BD00051061092500660915206709153066F5F55
:100BE0007F4F70935306609352064AE0CE014C96B5
:100BF0000E94DA2EBE01645E7F4FCE0101960E94F4
:100C00004A2F6DE771E0CE0101960E941730BC01BA
:100C100084E596E00E94332FCE0101960E94F02DCC
:100C2000CE014C960E94F02D62E871E08EEF99E0C3
:100C30000E94492D64E576E08EEF99E00E945C2DDC
:100C400065CF0F931F93CF93DF93C82F65E570E0B7
:100C500086E696E00E94370F0C2E000CDD0BBE01DD
:100C600086E696E00E943D0186E696E00E94B50F7A
:100C700041E050E065E570E086E696E00E94B20F44
:100C800086E696E00E94AA0E8C0165E570E086E695
:100C900096E00E94370FBE016F5F7F4F86E696E0B9
:100CA0000E943D0186E696E00E94B50F41E050E0CB
:100CB00065E570E086E696E00E94B20F86E696E073
:100CC0000E94AA0E20E0382FC901800F911FDF91EA
:100CD000CF911F910F910895CF93DF93CDB7DEB7DA
:100CE000A1970FB6F894DEBF0FBECDBF61E083E1E0
:100CF0000E94B93160E082E10E94B93161E472E0A2
:100D0000CE014C960E94622E0E949D016DE871E01A
:100D1000CE014C960E94F52F6091500670915106BD
:100D20004AE0CE0101960E94DA2EBE016F5F7F4F2E
:100D3000CE014C960E94EE2FCE0101960E94F02D1E
:100D400068EB71E0CE014C960E94F52F409146026F
:100D50005091470260914802709149022AE0CE0109
:100D600001960E94062FBE016F5F7F4FCE014C9609
:100D70000E94EE2FCE0101960E94F02D6BE971E0EA
:100D8000CE014C960E94F52F4AE060914502CE01BB
:100D900001960E94812EBE016F5F7F4FCE014C965F
:100DA0000E94EE2FCE0101960E94F02D68EB71E0BB
:100DB000CE014C960E94F52F88E00E9421064AE061
:100DC000BC01CE0101960E94AE2EBE016F5F7F4F27
:100DD000CE014C960E94EE2FCE0101960E94F02D7E
:100DE00068EB71E0CE014C960E94F52F8AE00E94DC
:100DF00021064AE0BC01CE0101960E94AE2EBE0142
:100E00006F5F7F4FCE014C960E94EE2FCE01019670
:100E10000E94F02D68EB71E0CE014C960E94F52FF8
:100E200084E00E9421064AE0BC01CE0101960E94A6
:100E3000AE2EBE016F5F7F4FCE014C960E94EE2F0B
:100E4000CE0101960E94F02D68EB71E0CE014C9628
:100E50000E94F52F86E00E9421064AE0BC01CE01E7
:100E600001960E94AE2EBE016F5F7F4FCE014C9661
:100E70000E94EE2FCE0101960E94F02D68EB71E0EA
:100E8000CE014C960E94F52F8CE00E942106BC01F9
:100E9000990F880B990B0E94BA322DEC3CEC4CEC6C
:100EA0005DE30E946A3323E333E948E853E40E9498
:100EB0001032AB01BC0122E0CE0101960E94922FBC
:100EC000BE016F5F7F4FCE014C960E94EE2FCE0188
:100ED00001960E94F02D80910601882349F164E07B
:100EE00088E097E00E9406146DE571E08823E9F13F
:100EF000409154065091550623E168E077E0CE0119
:100F000001960E942615CE0101960E94FA128823AE
:100F100051F1BE01645E7F4FCE0101960E945C2DAF
:100F2000CE0101960E94E81261E084E00E94B9318E
:100F300061E082E10E94B93160E083E10E94B93151
:100F400061E070E080E090E00E94CF30CE014C96EE
:100F50000E94F02DA1960FB6F894DEBF0FBECDBF54
:100F6000DF91CF9108956CE671E08EEF99E00E94D9
:100F70006E2D10920601D8CFCF92DF92EF92FF92A2
:100F80000F931F93CF93DF93CDB7DEB7C254D10930
:100F90000FB6F894DEBF0FBECDBF26E040E052ECA6
:100FA00061E070E081E699E00E947F2B26E040E05E
:100FB00052EC61E070E08EEF99E00E947F2B40EAF6
:100FC00056E861E070E086E696E00E94290F64E949
:100FD00071E08EEF99E00E946E2D60E08BE10E943F
:100FE0007D3160E085E10E947D3160E08DE10E940D
:100FF0007D3160E08EE10E947D3161E086E10E94FA
:101000007D3161E087E10E947D3160E080E00E94F7
:101010007D3161E08FE00E947D3161E082E10E94DC
:101020007D3161E082E10E94B93161E082E00E949D
:101030007D3161E082E00E94B93161E08AE10E9485
:101040007D3161E08AE10E94B93161E083E10E9473
:101050007D3161E083E00E947D3161E084E00E94A7
:101060007D3160E085E00E947D3160E086E00E9495
:101070007D3161E087E00E947D3161E083E10E9483
:10108000B93161E084E00E94B93160E087E00E94FC
:10109000B93160E083E00E94B9316AE670E086E62B
:1010A00096E00E94370F62E086E696E00E94CD0E41
:1010B00060E671E086E696E00E943D0186E696E0F5
:1010C0000E94B50F6AE670E086E696E00E94370F50
:1010D00064E186E696E00E94CD0E66E286E696E042
:1010E0000E94CD0E69E186E696E00E94CD0E60EA90
:1010F00086E696E00E94CD0E66E586E696E00E94C2
:10110000CD0E60E086E696E00E94CD0E61E086E6B8
:1011100096E00E94CD0E86E696E00E94B50F6AE644
:1011200070E086E696E00E94370F6AE186E696E078
:101130000E94CD0E6FEB86E696E00E94CD0E86E60D
:1011400096E00E94B50F6AE670E086E696E00E949F
:10115000370F66E286E696E00E94CD0E6CE886E6E2
:1011600096E00E94CD0E86E696E00E94B50F8BE1D8
:101170000E94E731892B09F466C16AE670E086E6D1
:1011800096E00E94370F6DE270E086E696E00E94DE
:101190003D0186E696E00E94B50F41E050E06AE628
:1011A00070E086E696E00E94B20F86E696E00E9426
:1011B000AA0E68EB7BE080E090E00E94CF3011E067
:1011C00001E06AE670E086E696E00E94370F6DE285
:1011D00070E086E696E00E943D0186E696E00E9479
:1011E000B50F41E050E06AE670E086E696E00E94C6
:1011F000B20F86E696E00E94AA0E8F77813108F042
:101200004FC061E570E086E696E00E94370F68E225
:1012100070E086E696E00E943D0165E970E086E6B2
:1012200096E00E943D0186E696E00E94B50F48ECEC
:10123000E42EF12C8AEF90E00E94083161E08FE00B
:101240000E947D3161E08FE00E94B9318AEF90E029
:101250000E94083161E08FE00E947D3160E08FE004
:101260000E94B93181E0E81AF10821F76AE670E0DE
:1012700086E696E00E94370F68E186E696E00E94D7
:10128000CD0E6AE086E696E00E94CD0E86E696E0F8
:101290000E94B50F68EE73E080E090E00E94CF30CE
:1012A000112309F467C061E0002309F46EC083E0F4
:1012B0000E94B93161E08CE00E947D3161E08CE0F8
:1012C0000E94B93138ECE32EF12C8AEF90E00E94B5
:1012D000083161E08FE00E947D3161E08FE00E9483
:1012E000B9318AEF90E00E94083161E08FE00E94FE
:1012F0007D3160E08FE00E94B93181E0E81AF108A9
:1013000021F728ECE22EF12C84EB90E00E940831CA
:1013100061E08FE00E947D3161E08FE00E94B93191
:1013200084EB90E00E94083161E08FE00E947D3103
:1013300060E08FE00E94B93181E0E81AF10821F7FE
:1013400061E770E086E696E00E94370F60E086E68F
:1013500096E00E94CD0E63E186E696E00E94CD0EF7
:1013600086E696E00E94B50F68EE73E080E090E0BC
:101370000E94CF308EE10E94E731892B21F481E079
:10138000082711E01ECF10E01CCF8CE00E947D31B9
:1013900060E08CE00E94B93198ECE92EF12C84EBEE
:1013A00090E00E94083161E08FE00E947D3161E0B1
:1013B0008FE00E94B93184EB90E00E94083161E037
:1013C0008FE00E947D3160E08FE00E94B93181E0C2
:1013D000E81AF10821F788ECE82EF12C8AEF90E06A
:1013E0000E94083161E08FE00E947D3161E08FE072
:1013F0000E94B9318AEF90E00E94083161E08FE0ED
:101400000E947D3160E08FE00E94B93181E0E81AEE
:10141000F10821F761E770E086E696E00E94370F59
:1014200060E086E696E00E94CD0E60E186E696E0FA
:101430000E94CD0E86E696E00E94B50F60E083E044
:101440000E94B93191CF61E084E10E947D3161E079
:1014500084E10E94B93115E060E570E080E090E041
:101460000E94CF3061E08CE00E947D3161E08CE031
:101470000E94B93160E570E080E090E00E94CF30DA
:1014800060E08CE00E94B931115031F761E08CE0EE
:101490000E94B93108EC10E084EB90E00E94083122
:1014A00061E08FE00E947D3161E08FE00E94B93100
:1014B00084EB90E00E94083161E08FE00E947D3172
:1014C00060E08FE00E94B9310150110929F76DE900
:1014D00071E08EEF99E00E946E2D60E087E10E943E
:1014E000B93161E086E10E94B93161E570E086E6DC
:1014F00096E00E94370F67E286E696E00E94CD0EE6
:1015000060E086E696E00E94CD0E67E986E696E00A
:101510000E94CD0E66EA71E0CE0101960E94622E15
:101520006AE576E0CE0101960E94043066EB71E038
:101530000E94173060E676E00E94043068EB71E0AC
:101540000E941730BC01CE01CD960E944A2FCE01D9
:1015500001960E94F02D6BE570E086E696E00E9411
:10156000370F68E070E086E696E00E943D0170E08B
:1015700060E086E696E00E943D0186E696E00E94E5
:10158000B50F40E16BE586E696E00E94AF0F10E1F3
:1015900086E696E00E94AA0E082F803130F46AEBAE
:1015A00071E0CE01CD960E94F52F40E1602FCE0173
:1015B00001960E94812EBE016F5F7F4FCE01CD96B6
:1015C0000E94EE2FCE0101960E94F02D115001F7DE
:1015D0006CEB71E0CE01CD960E94F52F68E570E0CE
:1015E00086E696E00E94370F68E070E086E696E0B7
:1015F0000E943D0170E060E086E696E00E943D01B9
:1016000086E696E00E94B50F40E168E586E696E042
:101610000E94AF0F10E186E696E00E94AA0E082F06
:10162000803130F46AEB71E0CE01CD960E94F52F47
:1016300061E082E00E947D3161E082E00E94B93188
:1016400061E08AE10E947D3161E08AE10E94B93166
:1016500040E1602FCE0101960E94812EBE016F5F96
:101660007F4FCE01CD960E94EE2FCE0101960E94B3
:10167000F02D115081F668EB71E0CE01CD960E94FD
:10168000F52F60E570E086E696E00E94370F70E087
:1016900060E086E696E00E943D0170E060E086E64C
:1016A00096E00E943D0186E696E00E94B50F42E07A
:1016B00060E586E696E00E94AF0F86E696E00E941F
:1016C000AA0E80934D0286E696E00E94AA0E8093B1
:1016D0004C0240E160914D02CE0101960E94812EA4
:1016E000BE016F5F7F4FCE01CD960E94EE2FCE01DF
:1016F00001960E94F02D40E160914C02CE010196CE
:101700000E94812EBE016F5F7F4FCE01CD960E9459
:10171000EE2FCE0101960E94F02D62ED71E0CE0118
:10172000CD960E94F52F6BE570E086E696E00E946C
:10173000370F68E070E086E696E00E943D0170E0B9
:1017400060E086E696E00E943D0186E696E00E9413
:10175000B50F40E16BE586E696E00E94AF0F10E121
:1017600086E696E00E94AA0E082F803130F46AEBDC
:1017700071E0CE01CD960E94F52F40E1602FCE01A1
:1017800001960E94812EBE016F5F7F4FCE01CD96E4
:101790000E94EE2FCE0101960E94F02D115001F70C
:1017A00068EB71E0CE01CD960E94F52F63E570E005
:1017B00086E696E00E94370F70E060E086E696E0ED
:1017C0000E943D0170E060E086E696E00E943D01E7
:1017D00086E696E00E94B50F42E063E586E696E075
:1017E0000E94AF0F86E696E00E94AA0E80934F02F9
:1017F00086E696E00E94AA0E80934E0240E1609138
:101800004F02CE0101960E94812EBE016F5F7F4F75
:10181000CE01CD960E94EE2FCE0101960E94F02DB2
:1018200040E160914E02CE0101960E94812EBE01E0
:101830006F5F7F4FCE01CD960E94EE2FCE010196B5
:101840000E94F02D60E082E10E94B93164E088E0FE
:1018500097E00E940614811108C06DE571E08EEFDB
:1018600099E00E946E2D1092060181E090E0909325
:101870005306809352066091520670915306683C5D
:10188000710578F54AE0CE014C960E94DA2EBE0131
:10189000645E7F4FCE0101960E944A2F6DE771E092
:1018A000CE0101960E941730BC0184E596E00E94AB
:1018B000332FCE0101960E94F02DCE014C960E944E
:1018C000F02D609154067091550688E097E00E94D3
:1018D000B115882331F080915206909153060196FC
:1018E000C6CF60915206709153064AE0CE014C96E5
:1018F0000E94DA2EBE01645E7F4FCE0101960E94E7
:101900004A2F6DE771E0CE0101960E941730BC01AD
:1019100084E596E00E94332FCE0101960E94F02DBF
:10192000CE014C960E94F02D15E060E570E080E05D
:1019300090E00E94CF3061E08DE00E947D3161E057
:101940008DE00E94B93160E570E080E090E00E9497
:10195000CF3060E08DE00E94B931115031F761E085
:101960008DE00E94B931409154065091550623E113
:1019700068E077E0CE014C960E942615CE014C9689
:101980000E94AA126B017C0166EE71E08EEF99E075
:101990000E94492D2AE030E0B701A6018EEF99E0C0
:1019A0000E94DE2D89E6C81680E2D80689E5E806A1
:1019B000F10408F45BC0CE014C960E94E8126091DD
:1019C0005206709153066F5F7F4F7093530660937A
:1019D00052064AE0CE01C7960E94DA2EBE01695C2B
:1019E0007F4FCE0101960E944A2F6DE771E0CE0134
:1019F00001960E941730BC0184E596E00E94332FC7
:101A0000CE0101960E94F02DCE01C7960E94F02DC6
:101A1000409154065091550623E168E077E0CE01ED
:101A200001960E9426158B819C819F8F8E8F8D81C0
:101A30009E81AF81B88588A399A3AAA3BBA38985FA
:101A40009A85AB85BC858CA39DA3AEA3BFA3DE0105
:101A50001D96FE01B896CE01C5962D912193E817EB
:101A6000F907D9F78A8D9B8D9EAB8DAB62E871E04B
:101A70008EEF99E00E94492D64E576E08EEF99E0C3
:101A80000E945C2DCE014C960E94FA12882309F424
:101A900071C0BE01635C7F4FCE014C960E945C2DED
:101AA000CE014C960E94E812BE01635C7F4F8EEF20
:101AB00099E00E945C2D61E082E10E94B93161E011
:101AC00084E10E947D3160E084E10E94B93115E03B
:101AD00060E570E080E090E00E94CF3061E08EE051
:101AE0000E947D3161E08EE00E94B93160E570E0D6
:101AF00080E090E00E94CF3060E08EE00E94B9313B
:101B0000115031F760E08CE00E94B93160E08DE067
:101B10000E94B93161E082E00E947D3160E082E0A4
:101B20000E94B931F894109280008DE0809381007A
:101B300087E998E990938900809388001092850046
:101B40001092840082E080936F007894CE01CD964D
:101B50000E94F02DCE5BDF4F0FB6F894DEBF0FBEB4
:101B6000CDBFDF91CF911F910F91FF90EF90DF904C
:101B7000CF9008956CE671E08EEF99E00E946E2D93
:101B80001092060191CFC0E5D2E0199286E0C035EF
:101B9000D807D9F761E087E10E94B93160E086E1BA
:101BA0000E94B93190E080E00E94440161E086E14A
:101BB0000E94B931109244021092430210924202E4
:101BC0001899A4C0809144028230D0F3109244024C
:101BD000809143028F5F80934302809142028F5F26
:101BE000809342028BE10E94E731682F8DE00E94D2
:101BF000B9318BE10E94E731892B09F452C061E5CC
:101C000070E086E696E00E94370F68E270E086E6B4
:101C100096E00E943D0165E970E086E696E00E944C
:101C20003D0186E696E00E94B50F68EB7BE080E020
:101C300090E00E94CF3008EC10E08AEF90E00E9424
:101C4000083161E08FE00E947D3161E08FE00E9409
:101C5000B9318AEF90E00E94083161E08FE00E9484
:101C60007D3160E08FE00E94B9310150110929F700
:101C70006AE670E086E696E00E94370F68E186E645
:101C800096E00E94CD0E6AE086E696E00E94CD0EB8
:101C900086E696E00E94B50FE0914A02F0914B0271
:101CA000099561E086E10E94B93160E087E10E9418
:101CB000B9310E948204E0E5F2E01192CE17DF070D
:101CC000E1F7809142028E3120F0109242020E9490
:101CD000400280914302843B20F0109243020E9414
:101CE0006C0661E087E10E94B93160E086E10E9404
:101CF000B93190E080E00E94440161E086E10E94F9
:101D0000B93110928500109284005ACF60E086E1CC
:101D10000E94B93190E080E00E94440126E096954F
:101D200087952A95E1F7FC01E05BFD4F80818F3FAD
:101D300011F08F5F808361E086E10E94B93140CF6E
:101D400090E080E008958091960690919706891B17
:101D5000990B089590919706809196062FEF3FEF8B
:101D6000981748F4E92FF0E0E856F94F208130E069
:101D70009F5F90939706C9010895E091970680911F
:101D80009606E81730F4F0E0E856F94F808190E0CD
:101D900008958FEF9FEF08950895CF93DF931F92DB
:101DA000CDB7DEB76983209172062223F9F0209126
:101DB0007306203258F021E030E0FC0133832283A7
:101DC00090E080E00F90DF91CF91089580917406AC
:101DD000E82FF0E0EB58F94F998190838F5F809363
:101DE00074068093730681E090E0ECCF61E0CE0151
:101DF00001960E946C10F7CFCF92DF92EF92FF9284
:101E00000F931F93CF93DF937C01CB018A01209125
:101E10007206222389F0EB016B01C40ED51ECC158E
:101E2000DD0569F06991D701ED91FC910190F08198
:101E3000E02DC7010995F3CF642F0E946C10C801F3
:101E4000DF91CF911F910F91FF90EF90DF90CF9096
:101E50000895CB01BA010C94C90F81E080937206FA
:101E600060939506109274061092730608950C9470
:101E70002D0F0F93062F21E04091730665E776E062
:101E8000809195060E941C101092740610927306A1
:101E9000109272060F9108954F925F926F927F9207
:101EA000AF92BF92CF92EF92FF920F931F93CF9377
:101EB000DF935C01F62ED42F28013901EE2019F1B1
:101EC0000E942D0FCE2DC43008F0C3E0C150B8F0F1
:101ED00028E0C29FC0011124A301920104C05695BD
:101EE0004795379527958A95D2F7B901D501ED9198
:101EF000FC910190F081E02DC5010995E7CF60E0EC
:101F0000C5010E94390F4D2FD13208F040E22C2D2F
:101F100068E976E08F2D0E94DC0F1092970680937F
:101F20009606DF91CF911F910F91FF90EF90CF9088
:101F3000BF90AF907F906F905F904F900895CF9239
:101F4000EF920F931F93C22EE12C00E010E0980156
:101F50000E944C0F1F910F91EF90CF90089521E0B8
:101F60000C949F0F21E00C949F0F61E00C94390FAB
:101F7000E6E6F6E01382128288EE93E0A0E0B0E09D
:101F800084839583A683B78385EF91E091838083D3
:101F900008959B01AC0160E072E18AE790E00E9445
:101FA000E733205131094109510956954795379535
:101FB00027952093B80008954132E0F590910707E6
:101FC0009111FCCF91E090930707209305072FEF25
:101FD0002093B8067093FF066093FE061092FD06EC
:101FE000240F2093FC069093060790910607880F14
:101FF000892B80930607809104078130C9F41092E1
:102000000407809106078093BB008091BC0083FD8C
:10201000F8CF85EC8093BC00809107078130E1F315
:102020008091FD06841710F44091FD06842F0895D9
:1020300085EEF0CF40E0FACF0F93413208F044C074
:10204000909107079111FCCF92E0909307070093BE
:1020500005079FEF9093B8067093FF066093FE0606
:102060001092FD064093FC06109206079091060719
:10207000880F892B8093060780910407813011F522
:1020800010920407809106078093BB008091BC00EA
:1020900083FDF8CF85EC8093BC00222321F0809152
:1020A00007078230D1F38091B8068F3F79F0809195
:1020B000B806803269F08091B806803359F084E028
:1020C0000F91089585EEE7CF81E0FACF80E0F8CF59
:1020D00082E0F6CF83E0F4CF2091DA06260F332793
:1020E000331F21323105ECF420910707FC0190E009
:1020F00080E0243069F082E00895A091DA06219111
:10210000AC014452594FA40FB52FB11D2C93019629
:10211000861798F38091DA06680F6093DA0680E0FC
:10212000089581E0089585ED8093BC008091BC0006
:1021300084FDFCCF10920707089585EC8093BC00C6
:102140001092070708951F920F920FB60F92112455
:102150000BB60F922F933F934F935F936F937F93A1
:102160008F939F93AF93BF93EF93FF938091B900A9
:10217000887F803609F44EC008F041C0883209F4E7
:10218000AAC028F5803109F49EC0C8F4882309F458
:1021900007C1883009F497C0FF91EF91BF91AF91CB
:1021A0009F918F917F916F915F914F913F912F916F
:1021B0000F900BBE0F900FBE0F901F901895883197
:1021C00009F489C0803241F78093B80615C0803485
:1021D00009F4A6C048F48033B9F38833E9F6809354
:1021E000B8060E949D10D8CF803509F489C0883583
:1021F00009F49EC0883481F60E949310CDCF8839AF
:1022000009F494C038F5883729F050F4883611F075
:10221000803711F683E0809307071092B90657C004
:10222000883809F483C0803919F0803809F0B4CFB8
:102230008091B906803208F079C0E091B90681E05A
:102240008E0F8093B9068091BB00F0E0E654F94F01
:1022500080833DC0803B39F0E0F4803A09F485C0CA
:10226000883A09F099CF84E0809307071092DB0643
:102270001092DA06E0910207F09103070995809128
:10228000DA0681110FC081E08093DA061092DC0635
:1022900009C0803C09F482C0883C09F47FC0883BB7
:1022A00009F07ACFE091DB0681E08E0F8093DB06A8
:1022B000F0E0E452F94F80818093BB009091DB06FF
:1022C0008091DA0631C0809106078093BB0085ECCF
:1022D0008093BC0061CF9091FD068091FC06981719
:1022E000B8F58091FE069091FF06E091FD0621E091
:1022F0002E0F2093FD06E80FF92FF11D8081E5CF09
:102300002091FE063091FF06E091FD0681E08E0FE0
:102310008093FD068091BB00E20FF32FF11D8083B7
:102320009091FD068091FC06981788F285E8D0CF41
:102330002091FE063091FF06E091FD0681E08E0FB0
:102340008093FD068091BB00E20FF32FF11D808387
:1023500080910507811150CF81E08093040784EAC2
:102360008093BC001092070717CF0E949D108091A8
:10237000B906803230F4E091B906F0E0E654F94F46
:1023800010826091B90670E0E0910007F0910107BA
:102390008AEB96E009951092B906FECE85ECE0CF67
:1023A0001092B80629CFCF93DF931F92CDB7DEB737
:1023B0006983DC01ED91FC910280F381E02D41E025
:1023C00050E0BE016F5F7F4F09950F90DF91CF9175
:1023D0000895CF93DF93EC01E98DFA8D309749F49E
:1023E00081E090E09B838A8390E080E0DF91CF9151
:1023F000089513821282898D9A8D0E945E1EE98D46
:10240000FA8D22813381232B59F7F0CFFC01818D86
:10241000928D009711F00C94ED1B0895CF93DF93EC
:102420001F92CDB7DEB741E050E0BE016F5F7F4F36
:102430000E94111A019731F4898190E00F90DF9189
:10244000CF9108958FEF9FEFF9CFFC01818D928D91
:10245000009711F00C940E128FEF9FEF08950F93D9
:102460001F93CF93DF93EC01898D9A8D10E000E0EC
:10247000009799F00E940E128C010F3F100769F02F
:10248000898D9A8DFC0142855385648575854150FF
:102490005109610971090E94591BC801DF91CF914F
:1024A0001F910F910895EF92FF920F931F93CF9377
:1024B000DF93EC017B018A011B821A8288EE93E094
:1024C000A0E0B0E08C839D83AE83BF8387E092E081
:1024D000998388838DE190E00E944A349A8F898F96
:1024E000009779F02DE1F701DC0101900D922A951A
:1024F000E1F74CE050E0B801CE010C960E9478362E
:10250000188EDF91CF911F910F91FF90EF9008955A
:10251000FC011382128288EE93E0A0E0B0E0848395
:102520009583A683B78387E092E091838083128EA0
:10253000118E14860895DC015996ED91FC91309727
:1025400029F0628573858485958508956FEF7FEF07
:10255000CB010895DC015996ED91FC91309729F05B
:102560006389748985899689089560E070E0CB015C
:102570000895CF92DF92EF92FF92CF93DF93FC0109
:10258000218D328D232B09F1EC010E94AA126B01DF
:102590007C01CE010E949B12A7019601261B370BDE
:1025A000480B590BDA01C901811530E89307A105E1
:1025B000B10520F08FEF9FE7A0E0B0E0DF91CF9171
:1025C000FF90EF90DF90CF90089590E080E0F6CFFD
:1025D000CF93DF93EC01898D9A8D009741F00E9493
:1025E000361C898D9A8D0E94E6341A8E198EDF91E1
:1025F000CF910895DC015996ED91FC91309721F02F
:1026000081E09581911101C080E008951F93CF93DF
:10261000DF93CDB7DEB76D970FB6F894DEBF0FBE70
:10262000CDBFAB011C821B822BE132E03A832983B0
:102630001E8221E0BC01CE0101960E94711D11E0B5
:1026400081110CC010E0812F6D960FB6F894DEBF9B
:102650000FBECDBFDF91CF911F910895CE0101969E
:102660000E94361CF0CFEF92FF920F931F93CF93EF
:10267000DF937B01DB012D913C91FC01E20FF31F05
:1026800060816F3211F42F5F3F4F8C01020F131FD7
:10269000EA01F0E0E0E0D8017D918D017F3249F060
:1026A000772339F02F5F3F4F31967993EC30F10566
:1026B00091F7E40FF51F1082FC01E20FF31F408138
:1026C0004F3211F42F5F3F4FF70131832083280FE2
:1026D000391F81E0D9019C91911101C080E0DF9107
:1026E000CF911F910F91FF90EF9008954F925F92BD
:1026F0006F927F928F929F92AF92BF92CF92DF9212
:10270000EF92FF920F931F93CF93DF93CDB7DEB776
:10271000C954D1090FB6F894DEBF0FBECDBF5C011E
:102720006B013A01490119A218A28BE192E09F8F37
:102730008E8F1BA21C821B829A8389831E822A96FB
:102740001FAE1EAE2A978B017E018EE1E80EF11CB2
:1027500044244394AE01455C5F4FBE01685B7F4FEC
:10276000C5010E943313582E482F44259401BE0101
:10277000655C7F4FC801F3010995811120C00C15DC
:102780001D05C9F480E0C75BDF4F0FB6F894DEBFCC
:102790000FBECDBFDF91CF911F910F91FF90EF90B2
:1027A000DF90CF90BF90AF909F908F907F906F9071
:1027B0005F904F900895C8010E94361CE3CF5520CA
:1027C00091F021E0AE01455C5F4FB801C7010E9466
:1027D000711D582E0C151D0571F0C8010E94361C84
:1027E00051100EC0CFCF0C151D0519F0C8010E9465
:1027F000361C81E0C8CF882329F28E010F5F1F4F5E
:10280000902F812F8701E92EF82EA4CF0F931F93CD
:10281000CF93DF93EC01162F8FA5882321F0CE01F3
:102820008A960E94361C412F61E0CE010E94D31689
:10283000811102C090E012C08E01045F1F4F41E081
:10284000BE01C8010E949823882371F0B801CE010F
:102850008A960E94C11991E0882361F3892FDF9144
:10286000CF911F910F91089540E0BE01C8010E94D1
:1028700098238823F9F2EACFFC01DB0112968D91AF
:102880009C911397938382838BE192E09183808361
:1028900014968C911497848315968C911597858343
:1028A00016964D915D916D917C9119974683578352
:1028B000608771871A964D915D916D917C911D97FE
:1028C00042875387648775871E964D915D916D9100
:1028D0007C91519746875787608B718B52968C916C
:1028E0005297828B53964D915D916D917C91569745
:1028F000438B548B658B768B57964D915D916D9183
:102900007C915A97478B508F618F728F5B968D9118
:102910009C91948F838F08954F925F926F927F92D4
:102920008F929F92AF92BF92CF92DF92EF92FF92DF
:102930000F931F93CF93DF93CDB7DEB7C754D10961
:102940000FB6F894DEBF0FBECDBF5C014A0139015E
:10295000665D7F4F7E018EE1E80EF11CC7010E948B
:102960003C141C821B828BE192E09A8389831E8235
:102970008401FE0131966F015E2C4F2C6FE270E0F6
:10298000C8010E946636009709F455C0F8012081FD
:102990002F3219F40F5F1F4FF1CF801B8D3008F0DD
:1029A0008CE0E82EF12CA701B801CE01CB960E9455
:1029B0007836EBE3F0E0EC0FFD1FEE0DFF1D10820B
:1029C000C6010E94361C21E0AE01455C5F4F652DBB
:1029D000742DC6010E94711D811121C0F501138261
:1029E00012828BE192E0918380831582C501C95BDD
:1029F000DF4F0FB6F894DEBF0FBECDBFDF91CF9192
:102A00001F910F91FF90EF90DF90CF90BF90AF900C
:102A10009F908F907F906F905F904F9008950E0DD4
:102A20001F1D852D942D0E94361CC2015C2C4D2C3F
:102A3000C92ED82EA3CF08191909F30111830083D9
:102A4000652D742DC5010E943C14D0CFAF92BF926A
:102A5000CF92DF92FF920F931F93CF93DF93CDB767
:102A6000DEB7C955D1090FB6F894DEBF0FBECDBF92
:102A70006C015B018A01F22E9E01285A3F4FCE0164
:102A8000CB960E948C146A968EAD9FAD6A97080F04
:102A9000191FF8018081811110C0BE01655C7F4F54
:102AA000CE0101960E943C1445E152E0BE016F5FE9
:102AB0007F4FC6010E9453120FC019A218A28BE1CA
:102AC00092E09F8F8E8F1BA221968FAD219781114F
:102AD00015C0C6010E948812C601C75ADF4F0FB643
:102AE000F894DEBF0FBECDBFDF91CF911F910F9144
:102AF000FF90DF90CF90BF90AF90089582508230CA
:102B0000F8F4B501665D7F4F2F2DA801CE014E96DA
:102B10000E94711D8823E9F28F2D867041F049A92A
:102B20005AA96BA97CA9CE014E960E94591BBE01E1
:102B3000625E7F4FCE0101960E943C14A801B6CF81
:102B40002F2DA801BE01655C7F4FCE014E960E94DD
:102B5000711D882309F4BDCFCE01CB960E94361C8F
:102B6000DBCFFB01BC01665D7F4F30E020E046E03B
:102B700053E1CF010C947613E8E0F7E0158216825A
:102B80001186138682E090E0A0E0B0E0848795870C
:102B9000A687B78713A215A614A68BE192E093A788
:102BA00082A717A608959FB7F89420915F09809196
:102BB0005D09213019F48DBB9FBF08958FBF089523
:102BC00020915F09222381F03FB7F89420915F099B
:102BD000213069F42DB320935D094DB320915E0936
:102BE000209524232DBB3FBF8CBD9DBD0895309300
:102BF0005D09FACF8EBD00000DB407FEFDCF8EB586
:102C000008958FEF0C94FA1561E0FC0184810E9415
:102C1000B93180915107882339F010925107809182
:102C20005F0981110C94D3150895CF93DF93EC01C4
:102C300080915107811109C081E0809351078091F3
:102C40005207909153070E94E01560E08C81DF915C
:102C5000CF910C94B931CF93DF93EC018E8188230F
:102C600089F08F8198859C012F5F3F4F38872F8394
:102C70008230924018F40E940116F3CFCE010E94D8
:102C800004161E82DF91CF910895673028F026E167
:102C9000FC01258380E00895623079F038F06430DB
:102CA000A9F090F06530A1F082E508C080E580933E
:102CB000520781E080935307089580E5809352077F
:102CC0001092530781E0089581E5F1CF81E5F6CFB9
:102CD00082E5EDCF0F931F93CF93DF93EB010E941B
:102CE0009E308B010E9401168F3F69F00E949E303A
:102CF000601B710B6C177D07A8F380E0DF91CF910B
:102D00001F910F91089581E0F9CF8F929F92AF921A
:102D1000BF92FF920F931F93CF93DF93EC01F62E98
:102D200049015A010E942B16CE010E9415166CE231
:102D300071E0CE010E946A168F2D80640E94FA1500
:102D400008E110E0D501C401002E04C0B695A79596
:102D5000979587950A94D2F70E94FA1508501109A1
:102D6000083F8FEF180771F785E9FF2021F088E011
:102D7000F8120DC087E80E94FA1510E00E940116B3
:102D80008A8787FF06C01F3F21F01F5FF7CF8FEFB5
:102D9000F2CFDF91CF911F910F91FF90BF90AF9035
:102DA0009F908F9008958F929F92AF92BF92EF92D3
:102DB000FF920F931F93CF93DF93EC01E62E1B86B8
:102DC00019861E821D824C830E949E308B0161E019
:102DD0008C810E947D3161E08C810E94B9310E941A
:102DE000B82482E58093520781E080935307809155
:102DF0005207909153070E94E0152AE0F22E8FEFC0
:102E00000E94FA15FA94F110FACF80915F098111AE
:102E10000E94D315CE010E94151620E030E0A901D2
:102E200060E0CE010E948516F82E8A8781E0F816B0
:102E3000C1F00E949E30601B710B613D774068F3CA
:102E400081E08D83CE010E94041680E0DF91CF9156
:102E50001F910F91FF90EF90BF90AF909F908F9038
:102E600008952AEA31E040E050E068E0CE010E9497
:102E7000851682FF25C0FB868B85812C912C540101
:102E8000823029F4812C912CA12C80E4B82E20E0F2
:102E900030E0A90167E3CE010E948516A5019401E7
:102EA00069E2CE010E9485168A878823C1F00E94BC
:102EB0009E30601B710B613D774048F388E0C1CFC5
:102EC00094E0F92E0E9401168A87FA94F110FACF45
:102ED0008A3A11F082E0B5CF82E08B87CDCF8B8527
:102EE0008230C1F420E030E0A9016AE3CE010E9403
:102EF0008516882311F086E0A4CF0E940116807CFD
:102F0000803C11F483E08B870E9401160E94011619
:102F10000E940116CE010E9404166E2DCE01DF9193
:102F2000CF911F910F91FF90EF90BF90AF909F9026
:102F30008F900C9445160F931F93CF93DF93EC0162
:102F40000E949E308B010E9401168A878F3F91F468
:102F50000E949E30601B710B6D327140A0F38FE0B8
:102F60008D83CE010E94041680E0DF91CF911F91E6
:102F70000F9108958E3F11F08DE0F2CF81E0F5CFF3
:102F8000CF92DF92EF92FF920F931F93CF93DF9335
:102F9000EC016901C801820F931F8130924048F50E
:102FA0008E81882371F088819981AA81BB818417E1
:102FB0009507A607B70729F48F819885C816D90603
:102FC00070F5488359836A837B838B85833039F01E
:102FD00089E0440F551F661F771F8A95D1F79A0124
:102FE000AB0161E1CE010E948516882379F083E070
:102FF0008D83CE010E94041680E0DF91CF911F9156
:103000000F91FF90EF90DF90CF900895CE010E9436
:103010009B17882371F318861F8281E08E838F812E
:1030200098858C159D0560F06701E00EF11EEC148B
:10303000FD0471F00E940116F60181936F01F7CF34
:103040000E9401168F819885019698878F83E7CF1C
:103050008F819885080F191F18870F83898588230A
:1030600019F00115124018F0CE010E942B1681E0D4
:10307000C4CFEF92FF920F931F930115110539F002
:103080000E94C0171F910F91FF90EF90089581E06B
:10309000F9CFEF92FF920F931F93790100E012E0B6
:1030A00030E020E00E94C0171F910F91FF90EF9039
:1030B0000895EF92FF920F931F93CF93DF938C01AC
:1030C000862F7A010E94FA15E7018EEFF81A89918E
:1030D0000E94FA15CE15DF05D1F78FEF0E94FA1581
:1030E0008FEF0E94FA150E940116F80182878F71F6
:1030F000853069F081E18583C8010E94041680E073
:10310000DF91CF911F910F91FF90EF90089581E093
:10311000F7CF0F931F93CF93DF93EC01890182E1E7
:10312000411551056105710599F08B85833039F0A2
:1031300089E0440F551F661F771F8A95D1F79A01C2
:10314000AB0168E1CE010E948516882339F084E046
:103150008D83CE010E94041680E023C0A8016EEF8B
:10316000CE010E9459188823A1F368E572E0CE01D0
:103170000E946A16811102C085E1EACF20E030E0AA
:10318000A9016DE0CE010E948516882311F084E12B
:10319000DFCF0E9401168111FACFCE010E940416E2
:1031A00081E0DF91CF911F910F910895E2E5F7E063
:1031B00080E5808381E0818308950895CF93DF9334
:1031C000EC019C012A5F3F4F41E050E060E070E07D
:1031D0008B8D9C8D0E9437228823A1F08F89988D3A
:1031E000A98DBA8D892B8A2B8B2B59F48E819F81C7
:1031F000A885B9858F8B988FA98FBA8F8C818068AD
:103200008C8381E0DF91CF9108958F929F92AF924E
:10321000BF92CF92DF92EF92FF92CF93DF93EC01B8
:103220000E94DE1881110CC080E0DF91CF91FF90E9
:10323000EF90DF90CF90BF90AF909F908F900895C8
:10324000EB8DFC8DCE80DF80E884F98482E0C81AA3
:10325000D108E108F108858504C0CC0CDD1CEE1C0A
:10326000FF1C8A95D2F786859785A089B189C80EFB
:10327000D91EEA1EFB1E848146015701880E911C4F
:10328000A11CB11C8C149D04AE04BF0461F081E04C
:10329000881A9108A108B108C501B4010E948520CF
:1032A0008111F0CFC1CFEB8DFC8D258580E092E0C0
:1032B000A0E0B0E004C0880F991FAA1FBB1F2A9589
:1032C000D2F74B895C896D897E89840F951FA61F73
:1032D000B71F8B8B9C8BAD8BBE8B81E0A6CFCF9322
:1032E000DF93EC01462F6E857F85888999890E943E
:1032F0004A20882351F08A8920E2829FC00111244C
:10330000835A984FDF91CF91089590E080E0FACFF3
:10331000FB019B01255F3F4F40E241932E173F0782
:10332000E1F7DC0120E037E09D91492F992319F165
:103330009E3229F43A3059F028E03AE0F5CFE6E839
:10334000F1E08491882329F031969813FACF80E038
:1033500017C03217A8F05FED590F5E3588F48FE97A
:10336000890F8A3110F440EE490FFB01E20FF11D85
:1033700040832F5FD9CF81E0FB019081903239F3F8
:1033800008950F931F93CF93DF93FC012581222390
:1033900031F080E0DF91CF911F910F9108958B0163
:1033A000EC01FB018789803139F582E08D831F8A2A
:1033B000188E198E1A8E808D918DB0E0A0E025E0D8
:1033C000880F991FAA1FBB1F2A95D1F78B8B9C8B47
:1033D000AD8BBE8B1C8F0B8F81E08C831E821F8276
:1033E000188619861A861B861C861D861E861F86D1
:1033F000188A198A1A8ACECF803259F683E08D83D3
:10340000428D538D648D758D4F8B588F698F7A8F58
:103410009E012D5E3F4FC8010E942A218111DACF03
:10342000B8CF2F923F924F925F926F927F928F927E
:103430009F92AF92BF92CF92DF92EF92FF920F9343
:103440001F93CF93DF93EC015B012A018D818111E2
:1034500015C08FEF9FEFDF91CF911F910F91FF90DC
:10346000EF90DF90CF90BF90AF909F908F907F9024
:103470006F905F904F903F902F9008958C8180FFC8
:10348000E8CF0B891C892D893E894A855B856C852F
:103490007D85C201B0E0A0E068017901C41AD50AB7
:1034A000E60AF70AC816D906EA06FB0618F4280148
:1034B000441A550A42011E0126E0220E311C8114D5
:1034C000910409F4B3C04A855B856C857D856A01EA
:1034D00081E0D8228B8D9C8D8A019B01E9E0369595
:1034E000279517950795EA95D1F7ED81E230E1F53B
:1034F000FC01628D738D848D958D600F711F821F0D
:10350000931F612C22E0722E6C187D08861497049C
:1035100008F434012C8126FD04C06114F2E07F061A
:1035200071F4009107011091080120910901309177
:103530000A01061717072807390709F053C040E0AA
:103540000E944A20882309F484CFC601835A984FE9
:10355000D5019C01260D371DFC012E173F0709F4EC
:1035600060C041914D93F9CFFC0174807A94702230
:10357000C114D10471F471100CC0452B462B472B9C
:1035800039F58F89988DA98DBA8D8E839F83A887F1
:10359000B987EB8DFC8D6E817F818885998562501E
:1035A000710981099109258504C0660F771F881F5D
:1035B000991F2A95D2F70685178520893189600FD2
:1035C000711F821F931F670D711D811D911D99CF62
:1035D0004E815F816885798591010E94A9208111C2
:1035E000D8CF37CF750183019601AB01BC01809123
:1035F0005B0790915C070E943918882309F429CF52
:10360000A60CB71C8A859B85AC85BD85860D971D4C
:10361000A11DB11D8A879B87AC87BD878618970837
:103620004ECF281B390BA20EB31EECCFC20113CF15
:10363000FF920F931F93CF93DF931F92CDB7DEB707
:10364000FC0125812230C8F08C01428553856485B8
:10365000758585E076956795579547958A95D1F755
:10366000F42FFF70FF2E41E050E0BE016F5F7F4FEF
:10367000C8010E94111A019719F090E080E012C071
:10368000F80182859385A485B5854F96A11DB11D4E
:1036900082879387A487B587F0E2FF9EC00111243B
:1036A000835A984F0F90DF91CF911F910F91FF9008
:1036B00008958F929F92AF92BF92CF92DF92EF9236
:1036C000FF920F931F93CF93DF93EC018D818111B4
:1036D0000EC080E0DF91CF911F910F91FF90EF908E
:1036E000DF90CF90BF90AF909F908F9008950B89FF
:1036F0001C892D893E89041715072607370748F3CB
:103700004A015B01823031F48A869B86AC86BD8695
:1037100081E0E0CF81149104A104B10449F41E8238
:103720001F82188619861A861B861C861D86F0CF76
:103730000A851B852C853D85EB8DFC8D858590E06C
:103740000996B901A8014150510961097109082E72
:1037500004C076956795579547950A94D2F77501F9
:103760006401E1E0CE1AD108E108F10804C0F69442
:10377000E794D794C7948A95D2F7C416D506E6067F
:10378000F70620F0012B022B032B11F58F89988D62
:10379000A98DBA8D8E839F83A887B9878E010A5F12
:1037A0001F4FC114D104E104F10409F4ADCF4E81DF
:1037B0005F816885798598018B8D9C8D0E94A920F9
:1037C00091E0C91AD108E108F1088111EACF81CF4F
:1037D000C41AD50AE60AF70AE1CF0F931F93CF93D5
:1037E000DF93EC018D818823D9F18C8187FF32C072
:1037F00061E0CE010E946F198C01892B89F18D81C6
:10380000823048F48B899C89AD89BE89F801848F08
:10381000958FA68FB78F8F89988DF801938F828FA0
:103820008F89988DA98DBA8DB58BA48BE0915407A3
:10383000F0915507309759F0B8016A5E7F4FC80183
:1038400048960995F801808D918D938B828B8C81A0
:103850008F778C83DF91CF911F910F910C940F2064
:1038600080E0DF91CF911F910F910895CF93DF9367
:10387000EC010E94ED1B882311F01D8281E0DF9195
:10388000CF9108954F925F926F927F928F929F9205
:10389000AF92BF92EF92FF920F931F93CF93DF935C
:1038A00000D000D0CDB7DEB7FC0185818130A1F01A
:1038B00080E00F900F900F900F90DF91CF911F91AC
:1038C0000F91FF90EF90BF90AF909F908F907F905F
:1038D0006F905F904F900895848181FFE9CF838935
:1038E0009489A589B68984179507A607B70700F3B9
:1038F000892B8A2B8B2B09F477C04A015B017F014E
:103900004284538464847584CF010E94591B8823A8
:1039100079F2F701838D948D81149104A104B1048F
:1039200049F54789508D618D728D0E94422388230D
:1039300009F4BECFF701178A108E118E128EF7018F
:10394000838A948AA58AB68A848180688483C70121
:103950000E94ED1B882309F4ABCFB501A4014416E6
:1039600055066606770610F4B301A201C7010E944E
:10397000591B9FCF46815781608571859E012F5FBE
:103980003F4F0E94A920882309F492CFF701838D2D
:10399000948D49815A816B817C81FC01278920317A
:1039A000F1F408EF1FEF20E030E040175107620705
:1039B000730728F60E944223882309F479CFF70180
:1039C00046815781608571850FEF1FEF2FEF3FE034
:1039D000838D948D0E9495218111B1CF69CF08EF1D
:1039E0001FEF2FEF3FE0E1CF81E063CFCF92DF9277
:1039F000EF92FF921F93CF93DF93EC0180E2689FD9
:103A0000F0011124E35AF84F9385917161F0842FEE
:103A1000827449F080E0DF91CF911F91FF90EF9089
:103A2000DF90CF900895142F6A8B809107019091B9
:103A30000801A0910901B0910A018E879F87A88B88
:103A4000B98BC488D588F12CE12C7601DD24CC24F7
:103A5000CF8AD88EE98EFA8E828D938DB0E0A0E069
:103A6000AC01BD014C295D296E297F294F8B588FF0
:103A7000698F7A8F8385887129F5848D958DA68DC0
:103A8000B78D8B8B9C8BAD8BBE8B81E08D83812F13
:103A90008F708C831E821F82188619861A861B8659
:103AA0001C861D8681E016FFB6CF40E050E0BA01CB
:103AB000CE01DF91CF911F91FF90EF90DF90CF90DB
:103AC0000C94421C803109F0A5CF9E012D5E3F4F22
:103AD0008B8D9C8D0E942A21882309F49BCF84E042
:103AE000D5CFBF92CF92DF92EF92FF920F931F93A9
:103AF000CF93DF93CDB7DEB72B970FB6F894DEBF29
:103B00000FBECDBFFC01358131110BC0C22E8B0120
:103B10007C01BE016F5F7F4FCA010E94881981112D
:103B200002C080E0A1C0F801838D948DF701948FCD
:103B3000838FF801168217821086118612861386EB
:103B400014861586B12CF80182859385A485B585E8
:103B5000438954896589768984179507A607B7072D
:103B600088F525E0B695A795979587952A95D1F77D
:103B7000F82FFF70DF2EC8010E94181B009789F2F2
:103B8000FC012081222341F0253E09F059C0BB20D1
:103B900029F0BB24B394D7CFB1100EC0F701D28A5D
:103BA00040910701509108016091090170910A014B
:103BB00046875787608B718BFC0180818111E9CF2B
:103BC000BB24B3948C2D8271823109F0AACFBB2023
:103BD00009F45AC061E0C7010E946F198C01892B5A
:103BE00009F49FCF80E2F80111928A95E9F78BE002
:103BF000FE013196D80101900D928A95E1F7E0918E
:103C00005407F0915507309709F44EC0B801625F30
:103C10007F4FC80140960995F80180899189938B5F
:103C2000828B918F808F86859785978B868B0E945C
:103C30000F20882309F475CF4C2DF701628911C03C
:103C40004BE050E0BC01CE0101960E945036892B1A
:103C500009F079CF8C2D80734C2D6D2D803309F4B4
:103C600060CFC7010E94F61C2B960FB6F894DEBFFA
:103C70000FBECDBFDF91CF911F910F91FF90EF90BD
:103C8000DF90CF90BF900895F8018581823009F4CC
:103C900048CFC8010E940519882309F442CFF701D3
:103CA000128A0DE517E09ECF81E298E2F801918B30
:103CB000808B80E098E097878687AECF2F923F92E7
:103CC0004F925F926F927F928F929F92AF92BF922C
:103CD000CF92DF92EF92FF920F931F93CF93DF93D8
:103CE00000D000D0CDB7DEB78C016B011A01DC012A
:103CF00015968C911597813009F0C8C014968C9157
:103D000081FFC4C082FDAEC04101D8011A964D9119
:103D10005D916D917C911D978114910409F429C1E5
:103D20005B968D919C915C97FC0174802FEF270D21
:103D30002A013B0139E076946794579447943A9569
:103D4000D1F7722E74207A01F1E0FF22711020C0A9
:103D5000E114F104E9F416964D915D916D917C9119
:103D60001997411551056105710509F098C05796DD
:103D70008D919D910D90BC91A02D0097A105B1054D
:103D800009F0AFC0C8010E94DE18882309F47EC084
:103D900080E092E08E199F0954018815990508F476
:103DA0005C01D8015B964D915C915C9716968D9164
:103DB0009D910D90BC91A02D0297A109B109FA0126
:103DC000258504C0880F991FAA1FBB1F2A95D2F70B
:103DD0004685578560897189840F951FA61FB71F77
:103DE0009C01AD01270D311D411D511D29013A01D5
:103DF000A11432E0B30609F07AC0809107019091D6
:103E00000801A0910901B0910A0184159505A60544
:103E1000B70559F48FEF9FEFDC0180930701909372
:103E20000801A0930901B0930A019601B301A20110
:103E300080915B0790915C070E948918882331F17B
:103E40009EEFD91A8A189B08F80182859385A4856C
:103E5000B5858A0D9B1DA11DB11D82879387A487FF
:103E6000B58753CFF801438954896589768982855E
:103E70009385A485B585481759076A077B0709F418
:103E800043CFC8010E94591B81113ECF81E090E0D1
:103E9000D80113969C938E93129780E007C09E01E1
:103EA0002F5F3F4F0E94A920811102C090E07BC08C
:103EB00089819A81AB81BC81F801238D348DF90110
:103EC000278948EF5FEF60E070E0203121F048EF94
:103ED0005FEF6FEF7FE084179507A607B70708F03D
:103EE00051CFF80186839783A087B18751CFE11422
:103EF000F10491F5D8011A964D915D916D917C91E7
:103F00001D9753968D919D910D90BC91A02D4817B2
:103F100059076A077B0700F10E940F20882309F4E4
:103F2000B5CF40920701509208016092090170924A
:103F30000A0180915A07816080935A079701235A9A
:103F4000384FD601C9018A0D9B1DF9018E179F07B5
:103F500059F04D914193FACF41E0C301B2010E9463
:103F60004A208111EBCF92CF821B930BC80ED91E32
:103F700069CF14968C9114975396CD90DD90ED9067
:103F8000FC905697C416D506E606F70618F5F80114
:103F9000438B548B658B768B80688483F801848196
:103FA00083FD25C0C1010F900F900F900F90DF91FE
:103FB000CF911F910F91FF90EF90DF90CF90BF9026
:103FC000AF909F908F907F906F905F904F903F90B9
:103FD0002F9008952091540730915507232BF1F22B
:103FE00021143104D9F2806814968C93D7CFC8017C
:103FF0000E94ED1B882309F449CFD4CFCF93DF93E0
:104000001F92CDB7DEB7698341E050E0BE016F5F1C
:104010007F4F0E945E1E0F90DF91CF910895809197
:104020005A078823A9F14091070150910801609136
:10403000090170910A012DE537E080915B079091AD
:104040005C070E948918811102C080E008954091A8
:1040500056075091570760915807709159074115BD
:1040600051056105710591F02DE537E080915B0701
:1040700090915C070E948918882339F310925607A3
:1040800010925707109258071092590710925A072A
:1040900081E00895CF92DF92EF92FF92CF936B0170
:1040A0007C01C42F8091070190910801A091090122
:1040B000B0910A018C159D05AE05BF05F9F00E946F
:1040C0000F20811107C080E0CF91FF90EF90DF902B
:1040D000CF9008952DE537E0B701A60180915B07E9
:1040E00090915C070E944918882369F3C0920701E8
:1040F000D0920801E0920901F0920A0140915A071A
:104100004C2B40935A0781E0DFCFCF92DF92EF92A2
:10411000FF926B017C010E940F208823A9F0EDE53E
:10412000F7E0119289E0ED35F807D9F7C092070161
:10413000D0920801E0920901F0920A0180915A0799
:10414000816080935A0781E0FF90EF90DF90CF90DD
:1041500008958F929F92AF92BF92CF92DF92EF928B
:10416000FF920F931F93CF93DF93FC01818592857C
:10417000A385B4850196A11DB11D84179507A607D7
:10418000B70770F480E0DF91CF911F910F91FF90FE
:10419000EF90DF90CF90BF90AF909F908F90089559
:1041A00083889488A588B6888789803189F5BB275C
:1041B000A72F962F852FE9016A017B018F01BC0192
:1041C000CD01680D791D8A1D9B1D8090070190907F
:1041D0000801A0900901B0900A0186169706A8066A
:1041E000B90601F5F8018789803111F5DD24EE2447
:1041F000FF24F601EE0FFF1FE35AF84F80819181F3
:10420000B0E0A0E088839983AA83BB8381E0BBCF21
:10421000DB01CA01C7E0B695A79597958795CA9522
:10422000D1F7C9CF40E00E944A208111DBCFAACF4D
:10423000E894C7F8DD24EE24FF24F601EE0FFF1FFB
:10424000EE0FFF1FE35AF84F80819181A281B38165
:10425000BF70D8CF4F925F926F927F92AF92BF9212
:10426000CF92DF92EF92FF920F931F93CF93DF9342
:1042700000D000D0CDB7DEB78C0149835A836B8361
:104280007C835901C12CD12C7601412C82E0582E1F
:10429000612C712C49815A816B817C819E012F5F39
:1042A0003F4FC8010E94A920882339F1F801858574
:1042B000A301920104C0220F331F441F551F8A958A
:1042C000D2F7DA01C901C80ED91EEA1EFB1E4981C8
:1042D0005A816B817C818789803111F188EF9FEF52
:1042E000AFEFBFE0481759076A077B0798F2F5015F
:1042F000C082D182E282F38281E00F900F900F9012
:104300000F90DF91CF911F910F91FF90EF90DF9071
:10431000CF90BF90AF907F906F905F904F90089537
:1043200088EF9FEFA0E0B0E0DDCF4F925F926F92F9
:104330007F928F929F92AF92BF92CF92DF92EF9235
:10434000FF920F931F93CF93DF93EC0142305105FF
:104350006105710590F480E0DF91CF911F910F917D
:10436000FF90EF90DF90CF90BF90AF909F908F9095
:104370007F906F905F904F90089589859A85AB8567
:10438000BC850196A11DB11D84179507A607B70727
:1043900010F3CB88DC88ED88FE888F89803109F0A6
:1043A00042C0BB27A72F962F852F480159012A010C
:1043B0003B01C80ED91EEA1EFB1E80910701909199
:1043C0000801A0910901B0910A01C816D906EA06B0
:1043D000FB0699F58F898031C1F5B301A2015527FC
:1043E00066277727440F551F435A584FFA01918289
:1043F000808280915A07816080935A078A8982302F
:1044000080F08D819E81AF81B8858C0D9D1DAE1D84
:10441000BF1D8093560790935707A0935807B093FA
:10442000590781E099CFDB01CA01E7E0B695A7956E
:1044300097958795EA95D1F7B8CF40E0C701B601C7
:104440000E944A208111C6CF86CFB301A2014F77C7
:10445000552766277727440F551F440F551F435A8A
:10446000584FFA0180829182A282B382C2CF2F92EA
:104470003F924F925F926F927F928F929F92AF92F4
:10448000BF92CF92DF92EF92FF920F931F93CF9341
:10449000DF93CDB7DEB72F970FB6F894DEBF0FBE10
:1044A000CDBF3C01488759876A877B873F832E832E
:1044B000D901CD90DD90ED90FC90C114D104E104C0
:1044C000F10439F0BFEFCB1ADB0AEB0AFB0A1D82BD
:1044D00010C0FC01C080D180E280F380F1E0FD8358
:1044E000088519852A853B8501301105210531058F
:1044F00071F7F30181859285A385B4858C019D01B7
:104500000F5F1F4F2F4F3F4F0C871D872E873F8711
:1045100046015701212C312C2101F301818592851F
:10452000A385B485281639064A065B0608F044C000
:104530000C851D852E853F85081519052A053B0527
:1045400050F482E0882E912CA12CB12C92E0C92E3F
:10455000D12CE12CF12C9E012F5F3F4FB501A4011E
:10456000C3010E94A920882339F1D501C401019615
:10457000A11DB11D49815A816B817C81452B462B40
:10458000472BA9F5AC01BD014C195D096E097F09E6
:10459000088519852A853B854017510762077307EF
:1045A00041F50FEF1FEF2FEF3FE0B501A401C3016D
:1045B0000E949521811125C01D828D812F960FB6F5
:1045C000F894DEBF0FBECDBFDF91CF911F910F9149
:1045D000FF90EF90DF90CF90BF90AF909F908F9023
:1045E0007F906F905F904F903F902F9008956C0157
:1045F0007D011FEF211A310A410A510A4C015D0168
:104600008CCFC814D904EA04FB0488F414012501F2
:1046100021E0221A31084108510895018401B201B4
:10462000A101C3010E94952152014101C3CFAE8176
:10463000BF814D915D916D917C9141155105610551
:10464000710561F4EE81FF81C082D182E282F38242
:10465000FD81F1110BC001E00D83AFCF9701860101
:10466000C3010E9495218111EDCFA6CF1FEFC11A82
:10467000D10AE10AF10AD301CD92DD92ED92FC92CA
:1046800013979BCFAF92BF92CF92DF92EF92FF92A0
:104690000F931F93CF93DF9300D000D0CDB7DEB739
:1046A0005C016A017B0182E090E0A0E0B0E0F501EE
:1046B00080839183A283B3839E012F5F3F4FB70115
:1046C000A601C5010E94A920882381F100E010E025
:1046D0009801B701A601C5010E949521882331F1F7
:1046E000C980DA80EB80FC80F50187898031C9F0D0
:1046F00088EF9FEFAFEFBFE0C816D906EA06FB06CA
:10470000D8F281E00F900F900F900F90DF91CF9132
:104710001F910F91FF90EF90DF90CF90BF90AF90DF
:10472000089588EF9FEFA0E0B0E0E6CF80E0EACF09
:104730008F929F92AF92BF92CF92DF92EF92FF92B1
:104740000F931F93CF93DF93EC01142F70935C07AB
:1047500060935B07442309F478C0453070F080E033
:10476000DF91CF911F910F91FF90EF90DF90CF904D
:10477000BF90AF909F908F90089540E060E070E010
:10478000CB010E944A20882351F3812F8150990B3D
:10479000AC0164E0440F551F6A95E1F7435A584F46
:1047A000FA01E254FE4F80818F77C9F63C968081F2
:1047B0009181A281B38184369105A105B10578F27A
:1047C0004A535E4FFA01C080D180E280F380C11469
:1047D000D104E104F10419F240E0C701B6010E94DE
:1047E0004A20882309F4BBCF80916807909169071C
:1047F0008115924009F0B3CF90916D07992309F488
:10480000AECF20916B0730916C07232B09F4A7CF13
:1048100080916A07882309F4A2CF9A8B8C831D8626
:1048200090E041E050E02D85E22FBA01022E02C057
:10483000660F771F0A94E2F78617970751F031E069
:10484000320F3D87283078F38ACFC12CD12C7601E6
:10485000C3CF209173073091740750E040E02115D9
:10486000310541F4209181073091820740918307FF
:10487000509184072D833E834F83588780916B0727
:1048800090916C0746015701880E991EA11CB11C1E
:104890008B8A9C8AAD8ABE8A00916E0710916F0741
:1048A000198F088FA0916D07B0E00E942134DC01C0
:1048B000CB01880D991DAA1DBB1D8A8F9B8FAC8FC4
:1048C000BD8F25E0000F111F2A95E1F701501E4F03
:1048D000012F11270695800F911FA11DB11D8E87F5
:1048E0009F87A88BB98B009170071091710730E0FA
:1048F00020E00115110541F400917D0710917E071C
:1049000020917F0730918007C81AD90AEA0AFB0A6A
:10491000C00ED11EE21EF31E04C0F694E794D79495
:10492000C794EA95D2F7C986DA86EB86FC868CE0D6
:1049300025EFC2162FE0D206E104F10440F085EF26
:10494000C8168FEFD806E104F10420F480E18F8BC4
:1049500081E006CF8091890790918A07A0918B070B
:10496000B0918C078A8F9B8FAC8FBD8F80E2EFCF89
:10497000CF93CFB7F89480916009811127C0EAEDF9
:10498000F1E08491EAEBF1E09491E82FF0E0EE0F92
:10499000FF1FE65FFD4FA591B491EC91E92321F44F
:1049A00061E084E00E94B93161E084E00E947D31E1
:1049B0008CB580618CBD8CB580648CBD61E087E076
:1049C0000E947D3161E085E00E947D318091600927
:1049D0008F5F80936009CFBFCF910895CF93DF930E
:1049E000EC016A818A8D9B8D0E942D0F8A8D9B8D93
:1049F0000E94B50F282F30E02115310511F084E811
:104A0000898F81E0232B09F080E0DF91CF91089519
:104A1000CF92DF92EF92FF920F931F93CF93DF938A
:104A20008C01F62EE42EC52E462FDC0112966C91D9
:104A300012975A968D919C910E94AF0F8F1113C0BF
:104A4000DE2CCE2DDC2D8C2F8D198F15C8F4F8019E
:104A5000828D938DDC01ED91FC910284F385E02D34
:104A600009958993F0CF82E8F801818F80E0DF918A
:104A7000CF911F910F91FF90EF90DF90CF9008950D
:104A800081E0F5CFDC01ED91FC910190F081E02D0A
:104A900009940F931F93CF93DF93EC018B016A81ED
:104AA0008A8D9B8D0E942D0F612F70E08A8D9B8DCA
:104AB0000E944225B80177278A8D9B8D0E9442254E
:104AC0008A8D9B8D0E94B50F882341F081E8898FE4
:104AD00080E0DF91CF911F910F91089581E0F9CF90
:104AE000FC0187E292E091838083538F428F62833F
:104AF0001482158216821782108E178A168A158ADA
:104B000013821486158616861786108A118A128AD1
:104B1000138A148A118E0895CF93DC01ED91FC91D4
:104B20000280F381E02D61110FC062EA70E3099504
:104B3000C82F882331F061E070E080E090E00E94AF
:104B4000CF308C2FCF91089566E070E0F0CFFC015C
:104B500092819454923020F460E0CF010C948C2523
:104B600080E00895FB018FEF21E3442369F09191E8
:104B7000892798E087FF06C0880F82279150D1F7D8
:104B80004150F3CF880FFACF0895EF92FF920F9321
:104B90001F93CF93DF9300D000D000D0CDB7DEB706
:104BA0008C01E62EDC01ED91FC910480F581E02D75
:104BB000AE014F5F5F4F66E00995F82E882381F0C4
:104BC000E1102BC0EB8042E0BE016F5F7F4FC80158
:104BD0000E94B225E81691F085E8F801818FF12C4A
:104BE0008F2D26960FB6F894DEBF0FBECDBFDF9196
:104BF000CF911F910F91FF90EF900895EE8042E0CA
:104C0000BE016C5F7F4FC8010E94B225E81629F0F3
:104C100086E8D80159968C93E2CF898190E0982F4D
:104C200088272A81820F911DF801908F878B8C81B4
:104C300090E0982F88272D81820F911D968B858B70
:104C40000E949E30D80114966D937D938D939C9312
:104C50001797C6CF1F93CF93DF93EC01162FE881F0
:104C6000F9810280F381E02D60E074E2112311F0FC
:104C700066E174E2CE010995882399F06FE070E057
:104C800080E090E0112321F064E070E080E090E0AB
:104C90000E94CF30612FCE01DF91CF911F910C94F4
:104CA000C52580E0DF91CF911F910895FC016083BD
:104CB00052AF41AF88E0818389E19CEFAFEFBFEF56
:104CC00082839383A483B58386839783A087B187E8
:104CD000938B828B10AA11AA12AA13AA14AA15AA3E
:104CE00016AA17AA128613861486158616861786A4
:104CF000108A118A81E080AF0895CF93DF93EC0191
:104D0000688189AD9AAD0E942D0F89AD9AAD0E9440
:104D1000B50F91E0811190E0892FDF91CF91089537
:104D20008F929F92AF92BF92CF92DF92EF92FF92BB
:104D3000FC0186849784A088B18862817381848114
:104D400095810E94BA322AE037ED43E25CE30E948B
:104D50006A336B017C0120E030E0A901C501B40198
:104D60000E947D32882341F0A5019401C701B6015C
:104D70000E9411326B017C01C701B601FF90EF90D8
:104D8000DF90CF90BF90AF909F908F9008958F92BB
:104D90009F92AF92BF92CF92DF92EF92FF92FC016F
:104DA00082849384A484B58466817781808591858B
:104DB0000E94BA322AE037ED43E25CE30E946A3394
:104DC0006B017C0120E030E0A901C501B4010E9423
:104DD0007D32882341F0A5019401C701B6010E94EC
:104DE00011326B017C01C701B601FF90EF90DF909B
:104DF000CF90BF90AF909F908F9008951F93CF93C7
:104E0000DF93EC01162F0E944330688189AD9AAD83
:104E10000E942D0F89AD9AADDC01ED91FC910190BE
:104E2000F081E02D612F099589AD9AAD0E94B50FF3
:104E300090E09B8B8A8BDF91CF911F9108958F9289
:104E40009F92AF92BF92CF92DF92EF92FF921F9309
:104E5000CF93DF93CDB7DEB72A970FB6F894DEBFB6
:104E60000FBECDBF9C019AE0EBE0F1E0DE011196B0
:104E700001900D929A95E1F74D3070F14CE018EFEA
:104E8000140F912F990F690FC9010E94FE26412F1F
:104E900050E0440F551F81E090E08C0F9D1F480F9C
:104EA000591FFA01C080D1800E94AA304B015C01D9
:104EB000F12CE12C0E94AA30681979098A099B0912
:104EC0006C157D058E059F0558F40E9443308AE0DD
:104ED00090E00E940831EECF483088F648E0CFCF0E
:104EE0002A960FB6F894DEBF0FBECDBFDF91CF91EB
:104EF0001F91FF90EF90DF90CF90BF90AF909F9069
:104F00008F9008950F931F93CF93DF93683038F0FD
:104F100090E080E0DF91CF911F910F910895EC0117
:104F2000660F60560E94FE268A899B89892B81F72D
:104F300042E0688189AD9AAD0E94AF0F823040F3A4
:104F400089AD9AADDC01ED91FC910284F385E02DF1
:104F5000099500E0182F89AD9AADDC01ED91FC9127
:104F60000284F385E02D0995800F911FD3CF8F9296
:104F70009F92AF92BF92CF92DF92EF92FF92CF9328
:104F8000DF93EC0160E00E94FE268A899B89892BD1
:104F900071F060E070E0CB01DF91CF91FF90EF9076
:104FA000DF90CF90BF90AF909F908F90089543E097
:104FB000688189AD9AAD0E94AF0F833050F389ADFF
:104FC0009AADDC01ED91FC910284F385E02D099509
:104FD000092E000CAA0BBB0B5C019924882489AD17
:104FE0009AADDC01ED91FC910284F385E02D0995E9
:104FF0006C01990FEE08FF08FE2CED2CDC2CCC2464
:10500000C80CD91CEA1CFB1C89AD9AADDC01ED91E2
:10501000FC910284F385E02D0995BC01990F880B62
:10502000990B6C0D7D1D8E1D9F1DB6CF4F925F920B
:105030006F927F928F929F92AF92BF92CF92DF92A8
:10504000EF92FF920F931F93CF93DF93CDB7DEB70D
:1050500066970FB6F894DEBF0FBECDBF9E8B8D8BCB
:10506000F62E462F60E40E941F27ED89FE890289F3
:1050700013890115110509F043C1CF010E94B7271B
:105080006D877E878F87988BED89FE8902891389CA
:105090000115110509F034C14F2D60E5CF010E94C3
:1050A0001F27ED89FE89028913890115110509F071
:1050B00027C1CF010E94B727ED89FE890289138994
:1050C0000115110509F01CC10E94B832ED89FE8955
:1050D00020A531A542A553A50E9410326B017C0189
:1050E000ED89FE8924A535A546A557A50E946A33FA
:1050F00020E030E04AEF54E40E9411320E948232F4
:105100004B015C01ED89FE8982829382A482B58283
:1051100024A135A146A157A1C701B6010E946A3357
:10512000ED89FE89248D358D468D578D0E94113273
:105130002B013C01ED89FE8920A131A142A153A19F
:10514000C701B6010E946A33ED89FE89208D318D39
:10515000428D538D0E94113269837A838B839C83A5
:10516000ED89FE8980AD882309F49EC0F0ED8F168D
:10517000F7E09F06A104B1040CF096C0A7019601C8
:10518000C701B6010E946A3320E030E040E050E3FE
:105190000E946A33698B7A8B8B8B9C8BC501B4011F
:1051A000605D7740810991099B01AC010E94D73372
:1051B0000E94BA326B017C0120E030E040E250E412
:1051C0000E946A336D837E838F83988720E030E06E
:1051D00040EA5FE3C701B6010E946A336B017C01BC
:1051E00084E288168AEF98068FEFA806B806A4F521
:1051F000C501B40164527A4F8F4F9F4F9B01AC01A0
:105200000E94D7330E94BA3269877A878B879C873E
:1052100020E030E040EE50E40E946A339B01AC0194
:105220006D817E818F8198850E9411326D837E838E
:105230008F83988720E030E040EB50E469857A85E1
:105240008B859C850E946A339B01AC01C701B60126
:105250000E9411326B017C01C501B4010E94BA3277
:1052600029893A894B895C890E9410320E948232D6
:10527000ED89FE8962837383848395832D813E81CA
:105280004F815885C301B2010E9410322B013C01AD
:10529000A701960169817A818B819C810E941032DD
:1052A00069837A838B839C836D857E858F859889BE
:1052B0000E94B83229813A814B815C810E946A3315
:1052C00020E030E040E055E30E946A33A301920100
:1052D0000E94103220E030E040E058E30E946A3340
:1052E0000E948232ED89FE89668377838087918769
:1052F0000E949E30ED89FE8960AB71AB82AB93ABAF
:10530000C80166960FB6F894DEBF0FBECDBFDF9121
:10531000CF911F910F91FF90EF90DF90CF90BF90B2
:10532000AF909F908F907F906F905F904F90089577
:10533000CF92DF92EF92FF92FC01262F80E090E067
:10534000A0E8BFE3848B958BA68BB78B80E090E0C1
:10535000A0E0B7E4808F918FA28FB38F40E050E040
:1053600060E877E4448F558F668F778F80E090E018
:10537000A0E8BBE380A391A3A2A3B3A380E090E045
:10538000A0E0BCE384A395A3A6A3B7A3C12CD12C12
:1053900030E8E32E33E4F32EC0A6D1A6E2A6F3A6AE
:1053A000C12CD12CE12C34E3F32EC4A6D5A6E6A65D
:1053B000F7A62130C1F4408F518F628F738F40E088
:1053C00050E060E078E4448F558F668F778F80A33C
:1053D00091A3A2A3B3A380E090E0A0E8BCE384A3E0
:1053E00095A3A6A3B7A3FF90EF90DF90CF90089569
:1053F0002F923F924F925F926F927F928F929F92E5
:10540000AF92BF92CF92DF92EF92FF920F931F93D2
:10541000CF93DF93EC01162F6EE10E94FE260E94CF
:10542000AA306B017C010E94AA306C197D098E099B
:105430009F09603F7A408105910538F40E9443300E
:105440008AE090E00E940831EECF612FCE010E94E9
:1054500098298E010C5E1F4F312C22242394632D3A
:10546000CE010E9482277C01F80181909190A19049
:10547000B1908F016F01F4E0CF1AD1082C01712C8B
:10548000612CC301B7010E94B832A50194010E94AA
:105490006A33F60160837183828393838CA99DA90B
:1054A000AEA9BFA924E0880F991FAA1FBB1F2A9588
:1054B000D1F78E259525A625B7258CAB9DABAEAB38
:1054C000BFAB332039F0222029F022242394EF2887
:1054D00009F4212C3394F7E03F12C1CF822DDF91E4
:1054E000CF911F910F91FF90EF90DF90CF90BF90E1
:1054F000AF909F908F907F906F905F904F903F9074
:105500002F900895CF93DF93FC01208126572230FE
:1055100058F4EC010E947D26882331F060E0CE0132
:10552000DF91CF910C94F82980E0DF91CF9108951D
:10553000FC01918D228D892F90E0805C9F4F821B12
:1055400091098F7399270895FC01918D828D981789
:1055500031F0828DE80FF11D858D90E008958FEF79
:105560009FEF0895FC01918D828D981761F0A28DB7
:10557000AE0FBF2FB11D5D968C91928D9F5F9F7373
:10558000928F90E008958FEF9FEF0895FC01538D67
:10559000448D252F30E0842F90E0821B930B54170D
:1055A00010F0CF9608950197089581E39CE2892B2E
:1055B00049F080E090E0892B29F00E94312C811184
:1055C0000E94000088EC9CE2892B49F080E090E08A
:1055D000892B29F00E94C82C81110C940000089599
:1055E000FC01A48DA80FB92FB11DA35ABF4F2C9158
:1055F000848D90E001968F739927848FA689B7894F
:105600002C93A089B1898C91837080648C93938D45
:10561000848D981306C00288F389E02D80818F7DE8
:1056200080830895CF93DF93EC01888D8823B9F0B0
:10563000AA89BB89E889F9898C9185FD03C080819D
:1056400086FD0DC00FB607FCF7CF8C9185FFF2CF1A
:10565000808185FFEDCFCE010E94F02AE9CFDF9156
:10566000CF910895EF92FF920F931F93CF93DF9303
:10567000EC0181E0888F9B8D8C8D98131AC0E8898E
:10568000F989808185FF15C09FB7F894EE89FF895D
:105690006083E889F98980818370806480839FBFFB
:1056A00081E090E0DF91CF911F910F91FF90EF90FB
:1056B0000895F62E0B8D10E00F5F1F4F0F7311270B
:1056C000E02E8C8D8E110CC00FB607FCFACFE88946
:1056D000F989808185FFF5CFCE010E94F02AF1CFB4
:1056E000EB8DEC0FFD2FF11DE35AFF4FF0829FB7BA
:1056F000F8940B8FEA89FB8980818062CFCFCF92AB
:10570000DF92EF92FF921F93CF93DF93EC016A0138
:105710007B01122F60E874E88EE190E0A70196010A
:105720000E94E733215031094109510956954795A7
:1057300037952795E889F98982E08083211580E1F2
:10574000380798F0E889F989108260E472E48FE004
:1057500090E0A70196010E94E733215031094109E9
:1057600051095695479537952795EC85FD853083EA
:10577000EE85FF852083188EEC89FD891083EA89E8
:10578000FB89808188698083EA89FB8980818F7D9C
:105790008083DF91CF911F91FF90EF90DF90CF90AA
:1057A00008951F920F920FB60F9211240BB60F920D
:1057B0002F938F939F93EF93FF93E0917109F09153
:1057C00072098081E0917709F091780982FD1DC00E
:1057D000908180917A098F5F8F7320917B09821766
:1057E00041F0E0917A09F0E0EF59F64F958F809300
:1057F0007A09FF91EF919F918F912F910F900BBE9E
:105800000F900FBE0F901F9018958081F2CF1F92BE
:105810000F920FB60F9211240BB60F922F933F9356
:105820004F935F936F937F938F939F93AF93BF93A8
:10583000EF93FF9381E699E00E94F02AFF91EF91A8
:10584000BF91AF919F918F917F916F915F914F9198
:105850003F912F910F900BBE0F900FBE0F901F9096
:10586000189581E699E00E94982A21E0892B09F495
:1058700020E0822F0895E1E6F9E01382128288EE9B
:1058800093E0A0E0B0E084839583A683B78381E3AF
:1058900092E09183808385EC90E09587848784EC07
:1058A00090E09787868780EC90E0918B808B81ECED
:1058B00090E0938B828B82EC90E0958B848B86ECCE
:1058C00090E0978B868B118E128E138E148E089516
:1058D0001F920F920FB60F9211240BB60F922F93B7
:1058E0008F939F93EF93FF93E0910E0AF0910F0A2D
:1058F0008081E091140AF091150A82FD1DC090810B
:105900008091170A8F5F8F732091180A821741F0D8
:10591000E091170AF0E0E250F64F958F8093170A56
:10592000FF91EF919F918F912F910F900BBE0F9050
:105930000FBE0F901F9018958081F2CF1F920F928B
:105940000FB60F9211240BB60F922F933F934F93E4
:105950005F936F937F938F939F93AF93BF93EF93D7
:10596000FF938EEF99E00E94F02AFF91EF91BF9193
:10597000AF919F918F917F916F915F914F913F91E7
:105980002F910F900BBE0F900FBE0F901F90189588
:105990008EEF99E00E94982A21E0892B09F420E0FB
:1059A000822F0895EEEFF9E01382128288EE93E0E1
:1059B000A0E0B0E084839583A683B78381E392E07F
:1059C000918380838DEC90E0958784878CEC90E0C8
:1059D0009787868788EC90E0918B808B89EC90E0AC
:1059E000938B828B8AEC90E0958B848B8EEC90E08D
:1059F000978B868B118E128E138E148E0895AF9214
:105A0000BF92CF92DF92EF92FF920F931F93CF93AB
:105A1000DF936C017B018B01040F151FEB015E010D
:105A2000AE18BF08C017D10759F06991D601ED91A2
:105A3000FC910190F081E02DC6010995892B79F741
:105A4000C501DF91CF911F910F91FF90EF90DF90F3
:105A5000CF90BF90AF900895FB0101900020E9F72F
:105A60003197AF01461B570BDC01ED91FC91028091
:105A7000F381E02D0994DB0114964D915C9115970B
:105A80006D917C91DC01ED91FC910280F381E02D20
:105A900009946115710511F00C942C2D90E080E0B3
:105AA0000895DC01ED91FC910190F081E02D0994C5
:105AB0006FE372E00C942C2D0F931F93CF93DF9321
:105AC000EC010E943B2D8C01CE010E94582D800FCD
:105AD000911FDF91CF911F910F9108950F931F9305
