:020000040000FA
:100000000C9411010C943B010C943B010C943B01AA
:100010000C943B010C943B010C943B010C943B0170
:100020000C943B010C943B010C943B010C943B0160
:100030000C943B010C946A010C943B010C943B0121
:100040000C943B010C943B010C94ED300C943B015F
:100050000C946A2C0C94A02C0C943B010C943B0146
:100060000C943B010C943B010C943C110C943B010F
:100070000C94012D0C94372D0C943B010C943B01F6
:100080000C943B010C943B010C943B0100407A1012
:10009000F35A00A0724E18090010A5D4E80000E839
:1000A0007648170000E40B54020000CA9A3B000097
:1000B00000E1F505000080969800000040420F0026
:1000C0000000A08601000000102700000000E803E7
:1000D000000000006400000000000A0000000000B2
:1000E0000100000000002C76D888DC674F0823DF71
:1000F000C1DFAE59E1B1B796E5E3E453C63AE65144
:10010000997696E8E6C28426EB898C9B62ED407C6A
:100110006FFCEFBC9C9F40F2BAA56FA5F490055A06
:100120002AF75C936B6CF9676DC11BFCE0E40D472B
:10013000FEF520E6B500D0ED902E0300943577054E
:100140000080841E080000204E0A000000C80C3306
:100150003333330F986E12831141EF8D2114893B95
:10016000E65516CFFEE6DB18D1844B381BF77C1D15
:10017000901DA4BBE424203284725E228100C9F168
:1001800024ECA1E53D277C3C3E5E2B3D3F2F5B5D93
:100190003B2C2A225C000000000203000A0B000036
:1001A0000000050409080000000000000000000035
:1001B000000000000000010204081020408001023D
:1001C0000408102040800102040810204080010231
:1001D000040810204080020202020202020204040B
:1001E00004040404040403030303030303030101DD
:1001F0000101010101010000200023002600290067
:1002000000002200250028002B000000210024000F
:1002100027002A007F01511055166F19D42C6B2D21
:10022000910111241FBECFEFD0E4DEBFCDBF12E09D
:10023000A0E0B1E0E2EFF3E700E00BBF02C00790FF
:100240000D92A234B107D9F72AE0A2E4B2E001C0CE
:100250001D92A73AB207E1F711E0C0E1D1E004C076
:100260002197FE010E94A234CA30D107C9F70E942B
:10027000DE300C94EC390C940000DC01ED91FC9123
:100280000190F081E02D09940CB405FC0DC09EBDD9
:1002900000000DB407FEFDCF9EB58EBD00000DB46D
:1002A00007FEFDCF8EB508958EBD00000DB407FE8C
:1002B000FDCF8EB59EBD00000DB407FEFDCF9EB5EF
:1002C0000895982F92959F708F702AE0929F800DCD
:1002D000112408951F920F920FB60F9211248F933D
:1002E000809144028F5F80934402109285001092A7
:1002F00084008F910F900FBE0F901F90189565E1AD
:1003000071E08EE596E00E94FB2E66E471E088E5E0
:1003100096E00E94FB2E61E472E082E596E00C9488
:10032000FB2E82E596E00E94892E88E596E00E94E9
:10033000892E8EE596E00C94892ECF93DF9361E5AC
:1003400070E084E696E00E94D00F70E060E084E602
:1003500096E00E943D0184E696E00E944E1046E041
:1003600050E061E570E084E696E00E944B1084E680
:1003700096E00E94430F0E9461018093450284E64B
:1003800096E00E94430F8F770E946101D82F84E688
:1003900096E00E94430F8F770E946101C82F84E688
:1003A00096E00E94430F0E94610190E0B0E0A0E05F
:1003B0008093460290934702A0934802B09349026B
:1003C00084E696E00E94430F0E94610124E6829F2A
:1003D000C0011124092E000CAA0BBB0B4091460250
:1003E000509147026091480270914902840F951F15
:1003F000A61FB71F8093460290934702A09348021E
:10040000B093490284E696E00E94430F0E94610186
:1004100040E157E2849F9001859F300D1124032E07
:10042000000C440B550B8091460290914702A0911D
:100430004802B0914902280F391F4A1F5B1FA0E1F3
:10044000BEE00E94BA34AB01BC012CE3C29FC001E4
:100450001124092E000CAA0BBB0B8D0F911DA11DA1
:10046000B11D840F951FA61FB71F8093460290935E
:100470004702A0934802B0934902DF91CF910895BB
:10048000CF93DF93CDB7DEB7C459D1090FB6F89437
:10049000DEBF0FBECDBF61E083E10E94523260E05B
:1004A00082E10E94523261E082E00E94163261E0F5
:1004B00082E00E94523261E084E10E94163261E0E3
:1004C00084E10E94523261E472E0CE0181579F4F75
:1004D0000E94FB2E0E949D0167E571E0CE018157CD
:1004E0009F4F0E948E3060914E0670914F064AE0F9
:1004F000CE0101960E94732FBE016F5F7F4FCE0128
:1005000081579F4F0E948730CE0101960E94892E0D
:1005100068EB71E0CE0181579F4F0E948E30409171
:1005200046025091470260914802709149022AE0C8
:10053000CE0101960E949F2FBE016F5F7F4FCE01BB
:1005400081579F4F0E948730CE0101960E94892ECD
:100550006BE971E0CE0181579F4F0E948E304AE0D7
:1005600060914502CE0101960E941A2FBE016F5F75
:100570007F4FCE0181579F4F0E948730CE01019659
:100580000E94892E68EB71E0CE0181579F4F0E9437
:100590008E3044E656E064E4CE01885A9F4F0E94B4
:1005A0000926CE01885A9F4F0E94402661E0CE0165
:1005B000885A9F4F0E94C326E1966EAD7FADE197AA
:1005C00090E080E00E9451332FEA30E04FE25BE39D
:1005D0000E94033420E030E044E352E40E94A93258
:1005E000AB01BC0121E0CE0101960E94FB2FBE01B0
:1005F0006F5F7F4FCE0181579F4F0E948730CE01A2
:1006000001960E94892E68EB71E0CE0101960E944E
:10061000FB2EBE016F5F7F4FCE0181579F4F0E941F
:100620008730CE0101960E94892EAF966EAD7FADC8
:10063000AF9790E080E00E94513328EC30E048EC26
:100640005AE30E940334AB01BC0121E0CE010196C4
:100650000E94FB2FBE016F5F7F4FCE0181579F4FDE
:100660000E948730CE0101960E94892E68EB71E0CE
:10067000CE0101960E94FB2EBE016F5F7F4FCE011F
:1006800081579F4F0E948730CE0101960E94892E8C
:1006900044E656E065E4CE01CC960E940926CE01E0
:1006A000CC960E94402661E0CE01CC960E94C326E3
:1006B00065966EAD7FAD659790E080E00E94513306
:1006C0002FEA30E04FE25BE30E94033420E030E0A9
:1006D00044E352E40E94A932AB01BC0121E0CE0107
:1006E00001960E94FB2FBE016F5F7F4FCE018157A5
:1006F0009F4F0E948730CE0101960E94892E68EBA1
:1007000071E0CE0101960E94FB2EBE016F5F7F4F0C
:10071000CE0181579F4F0E948730CE0101960E94E3
:10072000892E63966EAD7FAD639790E080E00E9466
:10073000513328EC30E048EC5AE30E940334AB011B
:10074000BC0121E0CE0101960E94FB2FBE016F5F2C
:100750007F4FCE0181579F4F0E948730CE01019677
:100760000E94892E68EB71E0CE0101960E94FB2E5B
:10077000BE016F5F7F4FCE0181579F4F0E94873030
:10078000CE0101960E94892E44E656E067E7CE012D
:1007900001960E94EF26CE0101960E941B2B6A81D2
:1007A000CE0101960E94AF28CE0101960E94292712
:1007B000AB01BC0122E0CE018C589F4F0E94FB2F61
:1007C000BE016C587F4FCE0181579F4F0E948730EA
:1007D000CE018C589F4F0E94892E68EB71E0CE01AC
:1007E0008C589F4F0E94FB2EBE016C587F4FCE014C
:1007F00081579F4F0E948730CE018C589F4F0E9497
:10080000892ECE0101960E946027AB01BC0122E037
:10081000CE018C589F4F0E94FB2FBE016C587F4F1A
:10082000CE0181579F4F0E948730CE018C589F4F39
:100830000E94892E61E084E10E94163260E084E12A
:100840000E94523261E082E00E94163260E082E053
:100850000E94523280910601882371F164E086E0A3
:1008600097E00E949F146DE571E0882309F443C06E
:10087000409152065091530623E166E077E0CE01A5
:100880008C589F4F0E94BF15CE018C589F4F0E94DD
:100890009313882371F1BE0161577F4FCE018C58AD
:1008A0009F4F0E94F52DCE018C589F4F0E948113BF
:1008B00061E084E00E94523261E082E10E945232A3
:1008C00060E083E10E94523261E070E080E090E0FD
:1008D0000E946831CE0181579F4F0E94892ECC56CD
:1008E000DF4F0FB6F894DEBF0FBECDBFDF91CF91C3
:1008F00008956CE671E08CEF99E00E94072E10924B
:100900000601D6CF8F929F92AF92BF92EF92FF9245
:100910000F931F93CF93DF93CDB7DEB7A7970FB693
:10092000F894DEBF0FBECDBF61E083E10E9452327A
:1009300060E082E10E94523202E512E08EE4E82E8D
:1009400082E0F82E812C912C5401F80181918F01C5
:10095000880E911CA11CB11CF6E00E341F07A9F7EC
:1009600061E472E0CE0182960E94FB2E0E949D01FE
:1009700066E771E0CE0182960E948E3060914E064D
:1009800070914F064AE0CE0101960E94732FBE017E
:100990006F5F7F4FCE0182960E948730CE01019615
:1009A0000E94892E68EB71E0CE0182960E948E3003
:1009B000409146025091470260914802709149026D
:1009C0002AE0CE0101960E949F2FBE016F5F7F4FEC
:1009D000CE0182960E948730CE0101960E94892E18
:1009E0006BE971E0CE0182960E948E304AE0609100
:1009F0004502CE0101960E941A2FBE016F5F7F4F04
:100A0000CE0182960E948730CE0101960E94892EE7
:100A100068EB71E0CE0182960E948E302AE0B5012B
:100A2000A401CE0101960E949F2FBE016F5F7F4FF0
:100A3000CE0182960E948730CE0101960E94892EB7
:100A400068EB71E0CE0182960E948E30F7016191D1
:100A50007F014AE0CE0101960E941A2FBE016F5F0E
:100A60007F4FCE0182960E948730CE0101960E9470
:100A7000892E0E151F0521F78091060161E088235C
:100A800009F470C08EE00E94523264E086E097E084
:100A90000E949F146DE571E0882309F45CC04091C9
:100AA00052065091530623E166E077E0CE010196AD
:100AB0000E94BF15CE0101960E949313882309F46A
:100AC00048C0BE016E5D7F4FCE0101960E94F52D9C
:100AD000CE0101960E94811361E084E00E945232AF
:100AE00060E08EE00E94523260E08DE00E9452325F
:100AF00080914E0690914F060196893FFAE29F073A
:100B000008F065C090934F0680934E0661E082E145
:100B10000E94523260E083E10E94523261E070E054
:100B200080E090E00E946831CE0182960E94892E7A
:100B3000A7960FB6F894DEBF0FBECDBFDF91CF9161
:100B40001F910F91FF90EF90BF90AF909F908F906B
:100B500008956CE671E08CEF99E00E94072E1092E8
:100B60000601BACF8DE00E945232AEA0BFA010E0C5
:100B700000E0FF24FA948DE10E948032892B19F065
:100B8000FA94F110F8CF82E390E00E94A13178014D
:100B9000FFEFEF1AFF0AB801CE0182960E94CA3019
:100BA000FC0160818FE599E00E94EA2DAE14BF043C
:100BB00060F48FE599E00E94F12DBE016E5D7F4FDC
:100BC0008CEF99E00E94F52D8BCF8701D2CF109248
:100BD0004F0610924E0660915006709151066F5F5D
:100BE0007F4F70935106609350064AE0CE014C96B9
:100BF0000E94732FBE01645E7F4FCE0101960E945A
:100C0000E32F6DE771E0CE0101960E94B030BC0188
:100C100082E596E00E94CC2FCE0101960E94892E9B
:100C2000CE014C960E94892E62E871E08CEF99E02B
:100C30000E94E22D62E576E08CEF99E00E94F52DAE
:100C400065CF0F931F93CF93DF93C82F65E570E0B7
:100C500084E696E00E94D00F0C2E000CDD0BBE0146
:100C600084E696E00E943D0184E696E00E944E10E4
:100C700041E050E065E570E084E696E00E944B10AC
:100C800084E696E00E94430F8C0165E570E084E6FF
:100C900096E00E94D00FBE016F5F7F4F84E696E022
:100CA0000E943D0184E696E00E944E1041E050E033
:100CB00065E570E084E696E00E944B1084E696E0DD
:100CC0000E94430F20E0382FC901800F911FDF9150
:100CD000CF911F910F910895CF93DF93CDB7DEB7DA
:100CE000A1970FB6F894DEBF0FBECDBF61E083E1E0
:100CF0000E94523260E082E10E94523261E472E06E
:100D0000CE014C960E94FB2E0E949D016DE871E081
:100D1000CE014C960E948E3060914E0670914F0627
:100D20004AE0CE0101960E94732FBE016F5F7F4F94
:100D3000CE014C960E948730CE0101960E94892EEA
:100D400068EB71E0CE014C960E948E3040914602D5
:100D50005091470260914802709149022AE0CE0109
:100D600001960E949F2FBE016F5F7F4FCE014C9670
:100D70000E948730CE0101960E94892E6BE971E0B6
:100D8000CE014C960E948E304AE060914502CE0121
:100D900001960E941A2FBE016F5F7F4FCE014C96C5
:100DA0000E948730CE0101960E94892E68EB71E087
:100DB000CE014C960E948E3088E00E9421064AE0C7
:100DC000BC01CE0101960E94472FBE016F5F7F4F8D
:100DD000CE014C960E948730CE0101960E94892E4A
:100DE00068EB71E0CE014C960E948E308AE00E9442
:100DF00021064AE0BC01CE0101960E94472FBE01A8
:100E00006F5F7F4FCE014C960E948730CE010196D6
:100E10000E94892E68EB71E0CE014C960E948E30C4
:100E200084E00E9421064AE0BC01CE0101960E94A6
:100E3000472FBE016F5F7F4FCE014C960E948730D7
:100E4000CE0101960E94892E68EB71E0CE014C968E
:100E50000E948E3086E00E9421064AE0BC01CE014D
:100E600001960E94472FBE016F5F7F4FCE014C96C7
:100E70000E948730CE0101960E94892E68EB71E0B6
:100E8000CE014C960E948E308CE00E942106BC015F
:100E9000990F880B990B0E9453332DEC3CEC4CECD2
:100EA0005DE30E94033423E333E948E853E40E94FE
:100EB000A932AB01BC0122E0CE0101960E942B3089
:100EC000BE016F5F7F4FCE014C960E948730CE01EE
:100ED00001960E94892E80910601882349F164E0E1
:100EE00086E097E00E949F146DE571E08823E9F1A8
:100EF000409152065091530623E166E077E0CE011F
:100F000001960E94BF15CE0101960E94931388237B
:100F100051F1BE01645E7F4FCE0101960E94F52D16
:100F2000CE0101960E94811361E084E00E9452325A
:100F300061E082E10E94523260E083E10E9452321D
:100F400061E070E080E090E00E946831CE014C9654
:100F50000E94892EA1960FB6F894DEBF0FBECDBFBA
:100F6000DF91CF9108956CE671E08CEF99E00E94DB
:100F7000072E10920601D8CFCF92DF92EF92FF9208
:100F80000F931F93CF93DF93CDB7DEB7C254D10930
:100F90000FB6F894DEBF0FBECDBF26E040E052ECA6
:100FA00061E070E08FE599E00E94182C26E040E0B7
:100FB00052EC61E070E08CEF99E00E94182C40EA5E
:100FC00056E861E070E084E696E00E94C20F64E9B2
:100FD00071E08CEF99E00E94072E60E08BE10E94A7
:100FE000163260E085E10E94163260E08DE10E94D9
:100FF000163260E08EE10E94163261E086E10E94C6
:10100000163261E087E10E94163260E080E00E94C3
:10101000163261E08FE00E94163261E082E10E94A8
:10102000163261E082E10E94523261E082E00E9469
:10103000163261E082E00E94523261E08AE10E9451
:10104000163261E08AE10E94523261E083E10E943F
:10105000163261E083E00E94163261E084E00E9473
:10106000163260E085E00E94163260E086E00E9461
:10107000163261E087E00E94163261E083E10E944F
:10108000523261E084E00E94523260E087E00E94C8
:10109000523260E083E00E9452326AE670E084E6F9
:1010A00096E00E94D00F62E084E696E00E94660F10
:1010B00060E671E084E696E00E943D0184E696E0F9
:1010C0000E944E106AE670E084E696E00E94D00F1F
:1010D00064E184E696E00E94660F66E284E696E0AC
:1010E0000E94660F69E184E696E00E94660F60EA5E
:1010F00084E696E00E94660F66E584E696E00E942C
:10110000660F60E084E696E00E94660F61E084E688
:1011100096E00E94660F84E696E00E944E106AE612
:1011200070E084E696E00E94D00F6AE184E696E0E3
:101130000E94660F6FEB84E696E00E94660F84E6DD
:1011400096E00E944E106AE670E084E696E00E9407
:10115000D00F66E284E696E00E94660F6CE884E6B3
:1011600096E00E94660F84E696E00E944E108BE1A6
:101170000E948032892B09F4B2C188E19FE00FB64A
:10118000F894A895809360000FBE909360006AE683
:1011900070E084E696E00E94D00F6DE270E084E695
:1011A00096E00E943D0184E696E00E944E1041E0E8
:1011B00050E06AE670E084E696E00E944B1084E618
:1011C00096E00E94430FA89568EE73E080E090E0FF
:1011D0000E946831A89568EE73E080E090E00E947C
:1011E0006831A89568EE73E080E090E00E94683175
:1011F000A89511E001E06AE670E084E696E00E94BE
:10120000D00F6DE270E084E696E00E943D0184E636
:1012100096E00E944E1041E050E06AE670E084E6FD
:1012200096E00E944B1084E696E00E94430FA8953A
:101230008F77813108F07FC08BE10E948032682F68
:101240008DE00E94523261E570E084E696E00E94F3
:10125000D00F68E270E084E696E00E943D0165E907
:1012600070E084E696E00E943D0184E696E00E94EC
:101270004E10A89568EE73E080E090E00E9468311F
:10128000A89568EE73E080E090E00E946831A89530
:1012900068EE73E080E090E00E946831A89508EC69
:1012A00010E08AEF90E00E94A13161E08FE00E949F
:1012B000163261E08FE00E9452328AEF90E00E9485
:1012C000A13161E08FE00E94163260E08FE00E9461
:1012D00052320150110929F761E570E084E696E089
:1012E0000E94D00F67E284E696E00E94660F63E0FA
:1012F00084E696E00E94660F65E970E084E696E079
:101300000E943D0184E696E00E944E106AE670E07D
:1013100084E696E00E94D00F68E184E696E00E94A1
:10132000660F6AE084E696E00E94660F84E696E027
:101330000E944E10FFCFA895112309F467C061E009
:10134000002309F46EC083E00E94523261E08CE019
:101350000E94163261E08CE00E94523238ECE32E9B
:10136000F12C8AEF90E00E94A13161E08FE00E94B1
:10137000163261E08FE00E9452328AEF90E00E94C4
:10138000A13161E08FE00E94163260E08FE00E94A0
:10139000523281E0E81AF10821F728ECE22EF12C14
:1013A00084EB90E00E94A13161E08FE00E94163250
:1013B00061E08FE00E94523284EB90E00E94A13104
:1013C00061E08FE00E94163260E08FE00E945232AE
:1013D00081E0E81AF10821F761E770E084E696E021
:1013E0000E94D00F60E084E696E00E94660F63E101
:1013F00084E696E00E94660F84E696E00E944E1016
:1014000068EE73E080E090E00E9468318EE10E9417
:10141000803210E0892B09F0EECE81E0082711E040
:10142000EACE8CE00E94163260E08CE00E945232DC
:1014300098ECE92EF12C84EB90E00E94A13161E060
:101440008FE00E94163261E08FE00E94523284EBFE
:1014500090E00E94A13161E08FE00E94163260E0CE
:101460008FE00E94523281E0E81AF10821F788ECFF
:10147000E82EF12C8AEF90E00E94A13161E08FE02C
:101480000E94163261E08FE00E9452328AEF90E0B3
:101490000E94A13161E08FE00E94163260E08FE08F
:1014A0000E94523281E0E81AF10821F761E770E00A
:1014B00084E696E00E94D00F60E084E696E00E9409
:1014C000660F60E184E696E00E94660F84E696E08F
:1014D0000E944E1060E083E00E94523291CF61E0A2
:1014E00084E10E94163261E084E10E94523215E0EC
:1014F00060E570E080E090E00E94683161E08CE09F
:101500000E94163261E08CE00E94523260E570E089
:1015100080E090E00E94683160E08CE00E945232EE
:10152000115031F761E08CE00E94523208EC10E07B
:1015300084EB90E00E94A13161E08FE00E941632BE
:1015400061E08FE00E94523284EB90E00E94A13172
:1015500061E08FE00E94163260E08FE00E9452321C
:101560000150110929F76DE971E08CEF99E00E94B3
:10157000072E60E087E10E94523261E086E10E941E
:10158000523261E570E084E696E00E94D00F67E297
:1015900084E696E00E94660F63E084E696E00E948F
:1015A000660F67E984E696E00E94660F88E199E29B
:1015B0000FB6F894A895809360000FBE90936000DA
:1015C00066EA71E0CE0101960E94FB2E68E576E0A6
:1015D000CE0101960E949D3066EB71E00E94B03012
:1015E0006EE576E00E949D3068EB71E00E94B030BD
:1015F000BC01CE01CD960E94E32FCE0101960E9440
:10160000892E6BE570E084E696E00E94D00F68E0DA
:1016100070E084E696E00E943D0170E060E084E6C0
:1016200096E00E943D0184E696E00E944E1040E163
:101630006BE584E696E00E94481010E184E696E0AF
:101640000E94430F082F803130F46AEB71E0CE0125
:10165000CD960E948E3040E1602FCE0101960E940F
:101660001A2FBE016F5F7F4FCE01CD960E9487304B
:10167000CE0101960E94892E115001F76CEB71E0AA
:10168000CE01CD960E948E3068E570E084E696E04B
:101690000E94D00F68E070E084E696E00E943D0171
:1016A00070E060E084E696E00E943D0184E696E00A
:1016B0000E944E1040E168E584E696E00E944810E2
:1016C00010E184E696E00E94430F082F803130F449
:1016D0006AEB71E0CE01CD960E948E3061E082E02F
:1016E0000E94163261E082E00E94523261E08AE19B
:1016F0000E94163261E08AE10E94523240E1602F7E
:10170000CE0101960E941A2FBE016F5F7F4FCE015E
:10171000CD960E948730CE0101960E94892E1150ED
:1017200081F668EB71E0CE01CD960E948E3060E5C7
:1017300070E084E696E00E94D00F70E060E084E6FE
:1017400096E00E943D0170E060E084E696E00E9431
:101750003D0184E696E00E944E1042E060E584E69A
:1017600096E00E94481084E696E00E94430F809322
:101770004B0284E696E00E94430F80934A0240E1C8
:1017800060914B02CE0101960E941A2FBE016F5F3D
:101790007F4FCE01CD960E948730CE0101960E94E8
:1017A000892E40E160914A02CE0101960E941A2FD3
:1017B000BE016F5F7F4FCE01CD960E948730CE0174
:1017C00001960E94892E62ED71E0CE01CD960E94B5
:1017D0008E306BE570E084E696E00E94D00F68E002
:1017E00070E084E696E00E943D0170E060E084E6EF
:1017F00096E00E943D0184E696E00E944E1040E192
:101800006BE584E696E00E94481010E184E696E0DD
:101810000E94430F082F803130F46AEB71E0CE0153
:10182000CD960E948E3040E1602FCE0101960E943D
:101830001A2FBE016F5F7F4FCE01CD960E94873079
:10184000CE0101960E94892E115001F768EB71E0DC
:10185000CE01CD960E948E3063E570E084E696E07E
:101860000E94D00F70E060E084E696E00E943D01A7
:1018700070E060E084E696E00E943D0184E696E038
:101880000E944E1042E063E584E696E00E94481014
:1018900084E696E00E94430F80934D0284E696E032
:1018A0000E94430F80934C0240E160914D02CE01B3
:1018B00001960E941A2FBE016F5F7F4FCE01CD9619
:1018C0000E948730CE0101960E94892E40E16091EE
:1018D0004C02CE0101960E941A2FBE016F5F7F4F0E
:1018E000CE01CD960E948730CE0101960E94892EAE
:1018F00060E082E10E94523264E086E097E00E945C
:101900009F14811108C06DE571E08CEF99E00E9491
:10191000072E1092060181E090E09093510680938B
:1019200050066091500670915106683C710578F53B
:101930004AE0CE014C960E94732FBE01645E7F4F39
:10194000CE0101960E94E32F6DE771E0CE01019672
:101950000E94B030BC0182E596E00E94CC2FCE01FF
:1019600001960E94892ECE014C960E94892E60918C
:1019700052067091530686E097E00E944A1688232B
:1019800031F080915006909151060196C6CF60913A
:101990005006709151064AE0CE014C960E94732F7A
:1019A000BE01645E7F4FCE0101960E94E32F6DE77A
:1019B00071E0CE0101960E94B030BC0182E596E054
:1019C0000E94CC2FCE0101960E94892ECE014C960A
:1019D0000E94892E15E060E570E080E090E00E94B2
:1019E000683161E08DE00E94163261E08DE00E9476
:1019F000523260E570E080E090E00E94683160E083
:101A00008DE00E945232115031F761E08DE00E946A
:101A10005232409152065091530623E166E077E03E
:101A2000CE014C960E94BF15CE014C960E944313E6
:101A30006B017C0166EE71E08CEF99E00E94E22D73
:101A40002AE030E0B701A6018CEF99E00E94772EE2
:101A500089E6C81680E2D80689E5E806F10408F4AC
:101A60005BC0CE014C960E9481136091500670912C
:101A700051066F5F7F4F70935106609350064AE0A6
:101A8000CE01C7960E94732FBE01695C7F4FCE01C5
:101A900001960E94E32F6DE771E0CE0101960E944E
:101AA000B030BC0182E596E00E94CC2FCE010196B9
:101AB0000E94892ECE01C7960E94892E409152061F
:101AC0005091530623E166E077E0CE0101960E9433
:101AD000BF158B819C819F8F8E8F8D819E81AF8161
:101AE000B88588A399A3AAA3BBA389859A85AB854A
:101AF000BC858CA39DA3AEA3BFA3DE011D96FE01F2
:101B0000B896CE01C5962D912193E817F907D9F71C
:101B10008A8D9B8D9EAB8DAB62E871E08CEF99E076
:101B20000E94E22D62E576E08CEF99E00E94F52DAF
:101B3000CE014C960E949313882309F47CC0BE0109
:101B4000635C7F4FCE014C960E94F52DCE014C96E2
:101B50000E948113BE01635C7F4F8CEF99E00E946D
:101B6000F52D61E082E10E94523261E084E10E9441
:101B7000163260E084E10E94523215E060E570E0C8
:101B800080E090E00E94683161E08EE00E941632B1
:101B900061E08EE00E94523260E570E080E090E00B
:101BA0000E94683160E08EE00E945232115031F79D
:101BB00060E08CE00E94523260E08DE00E94523280
:101BC00061E082E00E94163260E082E00E945232C0
:101BD0000FB6F894A89580916000886180936000AA
:101BE000109260000FBEF894109280008DE08093F8
:101BF000810087E998E9909389008093880010928A
:101C000085001092840082E080936F007894CE016A
:101C1000CD960E94892ECE5BDF4F0FB6F894DEBFC3
:101C20000FBECDBFDF91CF911F910F91FF90EF902D
:101C3000DF90CF9008956CE671E08CEF99E00E9400
:101C4000072E1092060186CFCEE4D2E0199286E0EC
:101C5000CE34D807D9F761E087E10E94523260E0C4
:101C600086E10E94523290E080E00E94440161E0EF
:101C700086E10E9452321092440210924302109266
:101C8000420218E109E21899DAC0809144028230D8
:101C9000D0F310924402809143028F5F80934302FD
:101CA000809142028F5F809342028BE10E948032DA
:101CB000682F8DE00E9452328BE10E948032892B86
:101CC00009F475C061E570E084E696E00E94D00FEB
:101CD00067E284E696E00E94660F60E084E696E0A4
:101CE0000E94660F65E970E084E696E00E943D017F
:101CF00084E696E00E944E1068EB7BE080E090E086
:101D00000E946831C8ECD0E08AEF90E00E94A131D7
:101D100061E08FE00E94163261E08FE00E94523253
:101D20008AEF90E00E94A13161E08FE00E941632BC
:101D300060E08FE00E945232219731F761E570E058
:101D400084E696E00E94D00F67E284E696E00E9467
:101D5000660F63E084E696E00E94660F65E970E036
:101D600084E696E00E943D0184E696E00E944E10D3
:101D70006AE670E084E696E00E94D00F68E184E6AF
:101D800096E00E94660F6AE084E696E00E94660F85
:101D900084E696E00E944E1088E19BE00FB6F8942E
:101DA000A895809360000FBE90936000FFCF61E024
:101DB00086E10E94523260E087E10E9452320FB603
:101DC000F894A895109360000FBE009360000E94E5
:101DD0008204EEE4F2E01192CE17DF07E1F7809182
:101DE00042028E3120F0109242020E944002809105
:101DF0004302843B20F0109243020E946C0661E093
:101E000087E10E94523260E086E10E94523290E007
:101E100080E00E94440161E086E10E9452320FB6E8
:101E2000F894A8958091600088618093600010927A
:101E300060000FBE109285001092840024CF60E0F5
:101E400086E10E94523290E080E00E94440126E048
:101E5000969587952A95E1F7FC01E25BFD4F80811D
:101E60008F3F11F08F5F808361E086E10E945232E4
:101E70000ACF90E080E008958091940690919506B5
:101E8000891B990B089590919506809194062FEFE8
:101E90003FEF981748F4E92FF0E0EA56F94F208118
:101EA00030E09F5F90939506C9010895E0919506F3
:101EB00080919406E81730F4F0E0EA56F94F8081FB
:101EC00090E008958FEF9FEF08950895CF93DF93EB
:101ED0001F92CDB7DEB76983209170062223F9F0F7
:101EE00020917106203258F021E030E0FC0133836C
:101EF000228390E080E00F90DF91CF910895809150
:101F00007206E82FF0E0ED58F94F998190838F5FCA
:101F1000809372068093710681E090E0ECCF61E0DF
:101F2000CE0101960E940511F7CFCF92DF92EF927A
:101F3000FF920F931F93CF93DF937C01CB018A0114
:101F400020917006222389F0EB016B01C40ED51E8F
:101F5000CC15DD0569F06991D701ED91FC910190F7
:101F6000F081E02DC7010995F3CF642F0E94051180
:101F7000C801DF91CF911F910F91FF90EF90DF90FB
:101F8000CF900895CB01BA010C94621081E0809348
:101F9000700660939306109272061092710608956F
:101FA0000C94C60F0F93062F21E04091710663E752
:101FB00076E0809193060E94B510109272061092FE
:101FC0007106109270060F9108954F925F926F9272
:101FD0007F92AF92BF92CF92EF92FF920F931F9397
:101FE000CF93DF935C01F62ED42F28013901EE2028
:101FF00019F10E94C60FCE2DC43008F0C3E0C150C5
:10200000B8F028E0C29FC0011124A301920104C0CE
:1020100056954795379527958A95D2F7B901D501F9
:10202000ED91FC910190F081E02DC5010995E7CF7C
:1020300060E0C5010E94D20F4D2FD13208F040E27E
:102040002C2D66E976E08F2D0E9475101092950672
:1020500080939406DF91CF911F910F91FF90EF90A5
:10206000CF90BF90AF907F906F905F904F9008950A
:10207000CF92EF920F931F93C22EE12C00E010E05D
:1020800098010E94E50F1F910F91EF90CF90089556
:1020900021E00C94381021E00C94381061E00C948D
:1020A000D20FE4E6F6E01382128288EE93E0A0E01D
:1020B000B0E084839583A683B78385EF91E0918315
:1020C000808308959B01AC0160E072E18AE790E0B3
:1020D0000E94803420513109410951095695479594
:1020E000379527952093B80008954132E0F59091F7
:1020F00005079111FCCF91E090930507209303070A
:102100002FEF2093B6067093FD066093FC061092A5
:10211000FB06240F2093FA0690930407909104077E
:10212000880F892B80930407809102078130C9F4BE
:1021300010920207809104078093BB008091BC003D
:1021400083FDF8CF85EC8093BC008091050781303A
:10215000E1F38091FB06841710F44091FB06842F75
:10216000089585EEF0CF40E0FACF0F93413208F0AA
:1021700044C0909105079111FCCF92E09093050720
:10218000009303079FEF9093B6067093FD0660934C
:10219000FC061092FB064093FA06109204079091F9
:1021A0000407880F892B80930407809102078130F0
:1021B00011F510920207809104078093BB00809173
:1021C000BC0083FDF8CF85EC8093BC00222321F076
:1021D000809105078230D1F38091B6068F3F79F068
:1021E0008091B606803269F08091B606803359F04E
:1021F00084E00F91089585EEE7CF81E0FACF80E08B
:10220000F8CF82E0F6CF83E0F4CF2091D806260FF6
:102210003327331F21323105ECF420910507FC01EF
:1022200090E080E0243069F082E00895A091D80623
:102230002191AC014652594FA40FB52FB11D2C93DB
:102240000196861798F38091D806680F6093D80698
:1022500080E0089581E0089585ED8093BC00809131
:10226000BC0084FDFCCF10920507089585EC809397
:10227000BC001092050708951F920F920FB60F929F
:1022800011240BB60F922F933F934F935F936F934D
:102290007F938F939F93AF93BF93EF93FF9380911F
:1022A000B900887F803609F44EC008F041C08832FA
:1022B00009F4AAC028F5803109F49EC0C8F4882327
:1022C00009F407C1883009F497C0FF91EF91BF91DD
:1022D000AF919F918F917F916F915F914F913F91BE
:1022E0002F910F900BBE0F900FBE0F901F9018955F
:1022F000883109F489C0803241F78093B60615C051
:10230000803409F4A6C048F48033B9F38833E9F681
:102310008093B6060E943611D8CF803509F489C063
:10232000883509F49EC0883481F60E942C11CDCFE7
:10233000883909F494C038F5883729F050F4883684
:1023400011F0803711F683E0809305071092B706ED
:1023500057C0883809F483C0803919F0803809F0F3
:10236000B4CF8091B706803208F079C0E091B7060B
:1023700081E08E0F8093B7068091BB00F0E0E854B7
:10238000F94F80833DC0803B39F0E0F4803A09F496
:1023900085C0883A09F099CF84E0809305071092B0
:1023A000D9061092D806E0910007F091010709952F
:1023B0008091D80681110FC081E08093D8061092D9
:1023C000DA0609C0803C09F482C0883C09F47FC069
:1023D000883B09F07ACFE091D90681E08E0F809397
:1023E000D906F0E0E652F94F80818093BB009091CE
:1023F000D9068091D80631C0809104078093BB0034
:1024000085EC8093BC0061CF9091FB068091FA0629
:102410009817B8F58091FC069091FD06E091FB06B7
:1024200021E02E0F2093FB06E80FF92FF11D80818C
:10243000E5CF2091FC063091FD06E091FB0681E09E
:102440008E0F8093FB068091BB00E20FF32FF11DEE
:1024500080839091FB068091FA06981788F285E8B0
:10246000D0CF2091FC063091FD06E091FB0681E083
:102470008E0F8093FB068091BB00E20FF32FF11DBE
:10248000808380910307811150CF81E08093020700
:1024900084EA8093BC001092050717CF0E94361182
:1024A0008091B706803230F4E091B706F0E0E8544E
:1024B000F94F10826091B70670E0E091FE06F0914E
:1024C000FF0688EB96E009951092B706FECE85ECE4
:1024D000E0CF1092B60629CFCF93DF931F92CDB7EE
:1024E000DEB76983DC01ED91FC910280F381E02D80
:1024F00041E050E0BE016F5F7F4F09950F90DF9183
:10250000CF910895CF93DF93EC01E98DFA8D309749
:1025100049F481E090E09B838A8390E080E0DF9142
:10252000CF91089513821282898D9A8D0E94F71E91
:10253000E98DFA8D22813381232B59F7F0CFFC01ED
:10254000818D928D009711F00C94861C0895CF9385
:10255000DF931F92CDB7DEB741E050E0BE016F5F61
:102560007F4F0E94AA1A019731F4898190E00F9061
:10257000DF91CF9108958FEF9FEFF9CFFC01818D0F
:10258000928D009711F00C94A7128FEF9FEF089592
:102590000F931F93CF93DF93EC01898D9A8D10E0F9
:1025A00000E0009799F00E94A7128C010F3F1007DE
:1025B00069F0898D9A8DFC01428553856485758506
:1025C00041505109610971090E94F21BC801DF9154
:1025D000CF911F910F910895EF92FF920F931F9348
:1025E000CF93DF93EC017B018A011B821A8288EE74
:1025F00093E0A0E0B0E08C839D83AE83BF8387E04F
:1026000092E0998388838DE190E00E94E3349A8F71
:10261000898F009779F02DE1F701DC0101900D928F
:102620002A95E1F74CE050E0B801CE010C960E94EB
:102630001137188EDF91CF911F910F91FF90EF907E
:102640000895FC011382128288EE93E0A0E0B0E0CE
:1026500084839583A683B78387E092E09183808308
:10266000128E118E14860895DC015996ED91FC911D
:10267000309729F0628573858485958508956FEF7D
:102680007FEFCB010895DC015996ED91FC913097D5
:1026900029F06389748985899689089560E070E0DE
:1026A000CB010895CF92DF92EF92FF92CF93DF9309
:1026B000FC01218D328D232B09F1EC010E94431383
:1026C0006B017C01CE010E943413A7019601261BE9
:1026D000370B480B590BDA01C901811530E8930714
:1026E000A105B10520F08FEF9FE7A0E0B0E0DF91FA
:1026F000CF91FF90EF90DF90CF90089590E080E031
:10270000F6CFCF93DF93EC01898D9A8D009741F03E
:102710000E94CF1C898D9A8D0E947F351A8E198E4A
:10272000DF91CF910895DC015996ED91FC9130979E
:1027300021F081E09581911101C080E008951F93FF
:10274000CF93DF93CDB7DEB76D970FB6F894DEBFAA
:102750000FBECDBFAB011C821B822BE132E03A835E
:1027600029831E8221E0BC01CE0101960E940A1E2F
:1027700011E081110CC010E0812F6D960FB6F89416
:10278000DEBF0FBECDBFDF91CF911F910895CE0167
:1027900001960E94CF1CF0CFEF92FF920F931F93F0
:1027A000CF93DF937B01DB012D913C91FC01E20F84
:1027B000F31F60816F3211F42F5F3F4F8C01020FC6
:1027C000131FEA01F0E0E0E0D8017D918D017F3236
:1027D00049F0772339F02F5F3F4F31967993EC30F2
:1027E000F10591F7E40FF51F1082FC01E20FF31FD2
:1027F00040814F3211F42F5F3F4FF7013183208327
:10280000280F391F81E0D9019C91911101C080E00E
:10281000DF91CF911F910F91FF90EF9008954F920C
:102820005F926F927F928F929F92AF92BF92CF9260
:10283000DF92EF92FF920F931F93CF93DF93CDB769
:10284000DEB7C954D1090FB6F894DEBF0FBECDBFB5
:102850005C016B013A01490119A218A28BE192E0D7
:102860009F8F8E8F1BA21C821B829A8389831E825C
:102870002A961FAE1EAE2A978B017E018EE1E80ECE
:10288000F11C44244394AE01455C5F4FBE01685B7C
:102890007F4FC5010E94CC13582E482F4425940128
:1028A000BE01655C7F4FC801F3010995811120C00D
:1028B0000C151D05C9F480E0C75BDF4F0FB6F89417
:1028C000DEBF0FBECDBFDF91CF911F910F91FF9063
:1028D000EF90DF90CF90BF90AF909F908F907F90C0
:1028E0006F905F904F900895C8010E94CF1CE3CF76
:1028F000552091F021E0AE01455C5F4FB801C70162
:102900000E940A1E582E0C151D0571F0C8010E9468
:10291000CF1C51100EC0CFCF0C151D0519F0C801EA
:102920000E94CF1C81E0C8CF882329F28E010F5F5F
:102930001F4F902F812F8701E92EF82EA4CF0F93E0
:102940001F93CF93DF93EC01162F8FA5882321F0DF
:10295000CE018A960E94CF1C412F61E0CE010E94D9
:102960006C17811102C090E012C08E01045F1F4FEE
:1029700041E0BE01C8010E943124882371F0B801F2
:10298000CE018A960E945A1A91E0882361F3892F1A
:10299000DF91CF911F910F91089540E0BE01C801D2
:1029A0000E9431248823F9F2EACFFC01DB01129660
:1029B0008D919C911397938382838BE192E0918315
:1029C000808314968C911497848315968C91159717
:1029D000858316964D915D916D917C9119974683F3
:1029E0005783608771871A964D915D916D917C91A7
:1029F0001D9742875387648775871E964D915D9119
:102A00006D917C91519746875787608B718B529659
:102A10008C915297828B53964D915D916D917C91E3
:102A20005697438B548B658B768B57964D915D9162
:102A30006D917C915A97478B508F618F728F5B9607
:102A40008D919C91948F838F08954F925F926F9296
:102A50007F928F929F92AF92BF92CF92DF92EF922E
:102A6000FF920F931F93CF93DF93CDB7DEB7C75479
:102A7000D1090FB6F894DEBF0FBECDBF5C014A018D
:102A80003901665D7F4F7E018EE1E80EF11CC701C2
:102A90000E94D5141C821B828BE192E09A83898369
:102AA0001E828401FE0131966F015E2C4F2C6FE275
:102AB00070E0C8010E94FF36009709F455C0F80184
:102AC00020812F3219F40F5F1F4FF1CF801B8D3003
:102AD00008F08CE0E82EF12CA701B801CE01CB96CE
:102AE0000E941137EBE3F0E0EC0FFD1FEE0DFF1D30
:102AF0001082C6010E94CF1C21E0AE01455C5F4FF1
:102B0000652D742DC6010E940A1E811121C0F50198
:102B1000138212828BE192E0918380831582C5013A
:102B2000C95BDF4F0FB6F894DEBF0FBECDBFDF919C
:102B3000CF911F910F91FF90EF90DF90CF90BF90BA
:102B4000AF909F908F907F906F905F904F9008957F
:102B50000E0D1F1D852D942D0E94CF1CC2015C2CD3
:102B60004D2CC92ED82EA3CF08191909F3011183B2
:102B70000083652D742DC5010E94D514D0CFAF926E
:102B8000BF92CF92DF92FF920F931F93CF93DF9369
:102B9000CDB7DEB7C955D1090FB6F894DEBF0FBE69
:102BA000CDBF6C015B018A01F22E9E01285A3F4F76
:102BB000CE01CB960E9425156A968EAD9FAD6A9781
:102BC000080F191FF8018081811110C0BE01655CDA
:102BD0007F4FCE0101960E94D51445E152E0BE011F
:102BE0006F5F7F4FC6010E94EC120FC019A218A29E
:102BF0008BE192E09F8F8E8F1BA221968FAD219744
:102C0000811115C0C6010E942113C601C75ADF4FAA
:102C10000FB6F894DEBF0FBECDBFDF91CF911F91ED
:102C20000F91FF90DF90CF90BF90AF9008958250AA
:102C30008230F8F4B501665D7F4F2F2DA801CE01DB
:102C40004E960E940A1E8823E9F28F2D867041F06D
:102C500049A95AA96BA97CA9CE014E960E94F21BE4
:102C6000BE01625E7F4FCE0101960E94D514A8017D
:102C7000B6CF2F2DA801BE01655C7F4FCE014E96C9
:102C80000E940A1E882309F4BDCFCE01CB960E9474
:102C9000CF1CDBCFFB01BC01665D7F4F30E020E045
:102CA0004FE953E1CF010C940F14E6E0F7E01582F1
:102CB00016821186138682E090E0A0E0B0E084875F
:102CC0009587A687B78713A215A614A68BE192E075
:102CD00093A782A717A608959FB7F89420915D093E
:102CE00080915B09213019F48DBB9FBF08958FBF80
:102CF000089520915D09222381F03FB7F894209137
:102D00005D09213069F42DB320935B094DB3209107
:102D10005C09209524232DBB3FBF8CBD9DBD08952C
:102D200030935B09FACF8EBD00000DB407FEFDCFD6
:102D30008EB508958FEF0C94931661E0FC018481A9
:102D40000E94523280914F07882339F010924F072A
:102D500080915D0981110C946C160895CF93DF93D7
:102D6000EC0180914F07811109C081E080934F07EA
:102D700080915007909151070E94791660E08C81F4
:102D8000DF91CF910C945232CF93DF93EC018E817F
:102D9000882389F08F8198859C012F5F3F4F38876A
:102DA0002F838230924018F40E949A16F3CFCE01FE
:102DB0000E949D161E82DF91CF910895673028F002
:102DC00026E1FC01258380E00895623079F038F037
:102DD0006430A9F090F06530A1F082E508C080E58C
:102DE0008093500781E080935107089580E5809398
:102DF00050071092510781E0089581E5F1CF81E5F8
:102E0000F6CF82E5EDCF0F931F93CF93DF93EB01C6
:102E10000E9437318B010E949A168F3F69F00E9401
:102E20003731601B710B6C177D07A8F380E0DF91D1
:102E3000CF911F910F91089581E0F9CF8F929F92CA
:102E4000AF92BF92FF920F931F93CF93DF93EC014A
:102E5000F62E49015A010E94C416CE010E94AE16F8
:102E60006CE271E0CE010E9403178F2D80640E94F6
:102E7000931608E110E0D501C401002E04C0B695F8
:102E8000A795979587950A94D2F70E9493160850B4
:102E90001109083F8FEF180771F785E9FF2021F02E
:102EA00088E0F8120DC087E80E94931610E00E9497
:102EB0009A168A8787FF06C01F3F21F01F5FF7CF52
:102EC0008FEFF2CFDF91CF911F910F91FF90BF90C5
:102ED000AF909F908F9008958F929F92AF92BF92E4
:102EE000EF92FF920F931F93CF93DF93EC01E62EA7
:102EF0001B8619861E821D824C830E9437318B01EE
:102F000061E08C810E94163261E08C810E94523215
:102F10000E94512582E58093500781E080935107FC
:102F200080915007909151070E9479162AE0F22E65
:102F30008FEF0E949316FA94F110FACF80915D09F9
:102F400081110E946C16CE010E94AE1620E030E086
:102F5000A90160E0CE010E941E17F82E8A8781E049
:102F6000F816C1F00E943731601B710B613D77404C
:102F700068F381E08D83CE010E949D1680E0DF9191
:102F8000CF911F910F91FF90EF90BF90AF909F90C6
:102F90008F9008952AEA31E040E050E068E0CE01E9
:102FA0000E941E1782FF25C0FB868B85812C912CE9
:102FB0005401823029F4812C912CA12C80E4B82E6C
:102FC00020E030E0A90167E3CE010E941E17A501B1
:102FD000940169E2CE010E941E178A878823C1F0FE
:102FE0000E943731601B710B613D774048F388E0E8
:102FF000C1CF94E0F92E0E949A168A87FA94F110B4
:10300000FACF8A3A11F082E0B5CF82E08B87CDCF3C
:103010008B858230C1F420E030E0A9016AE3CE0163
:103020000E941E17882311F086E0A4CF0E949A16F2
:10303000807C803C11F483E08B870E949A160E946A
:103040009A160E949A16CE010E949D166E2DCE01F0
:10305000DF91CF911F910F91FF90EF90BF90AF90B4
:103060009F908F900C94DE160F931F93CF93DF9356
:10307000EC010E9437318B010E949A168A878F3F9C
:1030800091F40E943731601B710B6D327140A0F3D7
:103090008FE08D83CE010E949D1680E0DF91CF915D
:1030A0001F910F9108958E3F11F08DE0F2CF81E0D6
:1030B000F5CFCF92DF92EF92FF920F931F93CF93B2
:1030C000DF93EC016901C801820F931F81309240A8
:1030D00048F58E81882371F088819981AA81BB810E
:1030E00084179507A607B70729F48F819885C81616
:1030F000D90670F5488359836A837B838B85833037
:1031000039F089E0440F551F661F771F8A95D1F764
:103110009A01AB0161E1CE010E941E17882379F06C
:1031200083E08D83CE010E949D1680E0DF91CF91D8
:103130001F910F91FF90EF90DF90CF900895CE01F7
:103140000E943418882371F318861F8281E08E83D1
:103150008F8198858C159D0560F06701E00EF11E4A
:10316000EC14FD0471F00E949A16F60181936F0130
:10317000F7CF0E949A168F819885019698878F8342
:10318000E7CF8F819885080F191F18870F838985CE
:10319000882319F00115124018F0CE010E94C416C0
:1031A00081E0C4CFEF92FF920F931F930115110599
:1031B00039F00E9459181F910F91FF90EF900895D8
:1031C00081E0F9CFEF92FF920F931F93790100E016
:1031D00012E030E020E00E9459181F910F91FF90FB
:1031E000EF900895EF92FF920F931F93CF93DF9389
:1031F0008C01862F7A010E949316E7018EEFF81A50
:1032000089910E949316CE15DF05D1F78FEF0E94AA
:1032100093168FEF0E9493160E949A16F8018287E8
:103220008F71853069F081E18583C8010E949D1608
:1032300080E0DF91CF911F910F91FF90EF90089563
:1032400081E0F7CF0F931F93CF93DF93EC018901B8
:1032500082E1411551056105710599F08B85833037
:1032600039F089E0440F551F661F771F8A95D1F703
:103270009A01AB0168E1CE010E941E17882339F044
:1032800084E08D83CE010E949D1680E023C0A801BA
:103290006EEFCE010E94F2188823A1F368E572E078
:1032A000CE010E940317811102C085E1EACF20E020
:1032B00030E0A9016DE0CE010E941E17882311F0B5
:1032C00084E1DFCF0E949A168111FACFCE010E94CD
:1032D0009D1681E0DF91CF911F910F910895E0E558
:1032E000F7E080E5808381E0818308950895CF939E
:1032F000DF93EC019C012A5F3F4F41E050E060E02A
:1033000070E08B8D9C8D0E94D0228823A1F08F8944
:10331000988DA98DBA8D892B8A2B8B2B59F48E8190
:103320009F81A885B9858F8B988FA98FBA8F8C8143
:1033300080688C8381E0DF91CF9108958F929F9276
:10334000AF92BF92CF92DF92EF92FF92CF93DF9333
:10335000EC010E94771981110CC080E0DF91CF91C0
:10336000FF90EF90DF90CF90BF90AF909F908F90A5
:103370000895EB8DFC8DCE80DF80E884F98482E0B7
:10338000C81AD108E108F108858504C0CC0CDD1C01
:10339000EE1CFF1C8A95D2F786859785A089B18996
:1033A000C80ED91EEA1EFB1E848146015701880EF5
:1033B000911CA11CB11C8C149D04AE04BF0461F0CF
:1033C00081E0881A9108A108B108C501B4010E94E2
:1033D0001E218111F0CFC1CFEB8DFC8D258580E0C2
:1033E00092E0A0E0B0E004C0880F991FAA1FBB1FA5
:1033F0002A95D2F74B895C896D897E89840F951F48
:10340000A61FB71F8B8B9C8BAD8BBE8B81E0A6CF8D
:10341000CF93DF93EC01462F6E857F85888999894C
:103420000E94E320882351F08A8920E2829FC00114
:103430001124855A984FDF91CF91089590E080E054
:10344000FACFFB019B01255F3F4F40E241932E17CE
:103450003F07E1F7DC0120E037E09D91492F9923F8
:1034600019F19E3229F43A3059F028E03AE0F5CFCC
:10347000E6E8F1E08491882329F031969813FACF99
:1034800080E017C03217A8F05FED590F5E3588F461
:103490008FE9890F8A3110F440EE490FFB01E20FEA
:1034A000F11D40832F5FD9CF81E0FB0190819032E5
:1034B00039F308950F931F93CF93DF93FC01258178
:1034C000222331F080E0DF91CF911F910F91089579
:1034D0008B01EC01FB018789803139F582E08D8316
:1034E0001F8A188E198E1A8E808D918DB0E0A0E003
:1034F00025E0880F991FAA1FBB1F2A95D1F78B8B38
:103500009C8BAD8BBE8B1C8F0B8F81E08C831E82BE
:103510001F82188619861A861B861C861D861E86A3
:103520001F86188A198A1A8ACECF803259F683E00C
:103530008D83428D538D648D758D4F8B588F698F20
:103540007A8F9E012D5E3F4FC8010E94C3218111D9
:10355000DACFB8CF2F923F924F925F926F927F92C5
:103560008F929F92AF92BF92CF92DF92EF92FF9293
:103570000F931F93CF93DF93EC015B012A018D81A1
:10358000811115C08FEF9FEFDF91CF911F910F91A8
:10359000FF90EF90DF90CF90BF90AF909F908F9073
:1035A0007F906F905F904F903F902F9008958C8107
:1035B00080FFE8CF0B891C892D893E894A855B8570
:1035C0006C857D85C201B0E0A0E068017901C41A74
:1035D000D50AE60AF70AC816D906EA06FB0618F461
:1035E0002801441A550A42011E0126E0220E311C10
:1035F0008114910409F4B3C04A855B856C857D858F
:103600006A0181E0D8228B8D9C8D8A019B01E9E0C3
:103610003695279517950795EA95D1F7ED81E23014
:10362000E1F5FC01628D738D848D958D600F711FA6
:10363000821F931F612C22E0722E6C187D08861465
:10364000970408F434012C8126FD04C06114F2E0D3
:103650007F0671F400910701109108012091090182
:1036600030910A01061717072807390709F053C0D8
:1036700040E00E94E320882309F484CFC601855AE4
:10368000984FD5019C01260D371DFC012E173F07D1
:1036900009F460C041914D93F9CFFC0174807A9494
:1036A0007022C114D10471F471100CC0452B462B4B
:1036B000472B39F58F89988DA98DBA8D8E839F837D
:1036C000A887B987EB8DFC8D6E817F818885998570
:1036D0006250710981099109258504C0660F771F21
:1036E000881F991F2A95D2F7068517852089318969
:1036F000600F711F821F931F670D711D811D911D2A
:1037000099CF4E815F816885798591010E94422120
:103710008111D8CF37CF750183019601AB01BC0170
:103720008091590790915A070E94D218882309F472
:1037300029CFA60CB71C8A859B85AC85BD85860DD7
:10374000971DA11DB11D8A879B87AC87BD878618F1
:1037500097084ECF281B390BA20EB31EECCFC20127
:1037600013CFFF920F931F93CF93DF931F92CDB789
:10377000DEB7FC0125812230C8F08C0142855385DB
:103780006485758585E076956795579547958A9503
:10379000D1F7F42FFF70FF2E41E050E0BE016F5FC4
:1037A0007F4FC8010E94AA1A019719F090E080E0AB
:1037B00012C0F80182859385A485B5854F96A11D19
:1037C000B11D82879387A487B587F0E2FF9EC00171
:1037D0001124855A984F0F90DF91CF911F910F912F
:1037E000FF9008958F929F92AF92BF92CF92DF92F7
:1037F000EF92FF920F931F93CF93DF93EC018D8194
:1038000081110EC080E0DF91CF911F910F91FF9049
:10381000EF90DF90CF90BF90AF909F908F900895E2
:103820000B891C892D893E89041715072607370740
:1038300048F34A015B01823031F48A869B86AC866C
:10384000BD8681E0E0CF81149104A104B10449F464
:103850001E821F82188619861A861B861C861D8664
:10386000F0CF0A851B852C853D85EB8DFC8D8585EC
:1038700090E00996B901A801415051096109710907
:10388000082E04C076956795579547950A94D2F708
:1038900075016401E1E0CE1AD108E108F10804C025
:1038A000F694E794D794C7948A95D2F7C416D506B0
:1038B000E606F70620F0012B022B032B11F58F896A
:1038C000988DA98DBA8D8E839F83A887B9878E0125
:1038D0000A5F1F4FC114D104E104F10409F4ADCF14
:1038E0004E815F816885798598018B8D9C8D0E94C2
:1038F000422191E0C91AD108E108F1088111EACF0B
:1039000081CFC41AD50AE60AF70AE1CF0F931F93B5
:10391000CF93DF93EC018D818823D9F18C8187FFD0
:1039200032C061E0CE010E94081A8C01892B89F116
:103930008D81823048F48B899C89AD89BE89F801DC
:10394000848F958FA68FB78F8F89988DF801938F6D
:10395000828F8F89988DA98DBA8DB58BA48BE091BC
:103960005207F0915307309759F0B8016A5E7F4FC4
:10397000C80148960995F801808D918D938B828BB3
:103980008C818F778C83DF91CF911F910F910C9455
:10399000A82080E0DF91CF911F910F910895CF93E0
:1039A000DF93EC010E94861C882311F01D8281E0C8
:1039B000DF91CF9108954F925F926F927F928F9295
:1039C0009F92AF92BF92EF92FF920F931F93CF936C
:1039D000DF9300D000D0CDB7DEB7FC018581813008
:1039E000A1F080E00F900F900F900F90DF91CF919A
:1039F0001F910F91FF90EF90BF90AF909F908F908D
:103A00007F906F905F904F900895848181FFE9CF00
:103A100083899489A589B68984179507A607B7076E
:103A200000F3892B8A2B8B2B09F477C04A015B01A9
:103A30007F014284538464847584CF010E94F21B09
:103A4000882379F2F701838D948D81149104A10468
:103A5000B10449F54789508D618D728D0E94DB2339
:103A6000882309F4BECFF701178A108E118E128EAB
:103A7000F701838A948AA58AB68A848180688483C0
:103A8000C7010E94861C882309F4ABCFB501A401AD
:103A9000441655066606770610F4B301A201C70165
:103AA0000E94F21B9FCF46815781608571859E01E0
:103AB0002F5F3F4F0E944221882309F492CFF701E4
:103AC000838D948D49815A816B817C81FC0127898A
:103AD0002031F1F408EF1FEF20E030E040175107EC
:103AE0006207730728F60E94DB23882309F479CF45
:103AF000F70146815781608571850FEF1FEF2FEF2A
:103B00003FE0838D948D0E942E228111B1CF69CF29
:103B100008EF1FEF2FEF3FE0E1CF81E063CFCF92BF
:103B2000DF92EF92FF921F93CF93DF93EC0180E23D
:103B3000689FF0011124E55AF84F9385917161F067
:103B4000842F827449F080E0DF91CF911F91FF9024
:103B5000EF90DF90CF900895142F6A8B809107012A
:103B600090910801A0910901B0910A018E879F8769
:103B7000A88BB98BC488D588F12CE12C7601DD2483
:103B8000CC24CF8AD88EE98EFA8E828D938DB0E0C8
:103B9000A0E0AC01BD014C295D296E297F294F8B26
:103BA000588F698F7A8F8385887129F5848D958DDB
:103BB000A68DB78D8B8B9C8BAD8BBE8B81E08D835F
:103BC000812F8F708C831E821F82188619861A8619
:103BD0001B861C861D8681E016FFB6CF40E050E0B4
:103BE000BA01CE01DF91CF911F91FF90EF90DF904E
:103BF000CF900C94DB1C803109F0A5CF9E012D5E87
:103C00003F4F8B8D9C8D0E94C321882309F49BCF4D
:103C100084E0D5CFBF92CF92DF92EF92FF920F93C5
:103C20001F93CF93DF93CDB7DEB72B970FB6F894E2
:103C3000DEBF0FBECDBFFC01358131110BC0C22EDE
:103C40008B017C01BE016F5F7F4FCA010E94211A68
:103C5000811102C080E0A1C0F801838D948DF7012D
:103C6000948F838FF8011682178210861186128630
:103C7000138614861586B12CF80182859385A48558
:103C8000B585438954896589768984179507A60780
:103C9000B70788F525E0B695A795979587952A9556
:103CA000D1F7F82FFF70DF2EC8010E94B11B0097DB
:103CB00089F2FC012081222341F0253E09F059C000
:103CC000BB2029F0BB24B394D7CFB1100EC0F701AD
:103CD000D28A4091070150910801609109017091C9
:103CE0000A0146875787608B718BFC0180818111A7
:103CF000E9CFBB24B3948C2D8271823109F0AACF15
:103D0000BB2009F45AC061E0C7010E94081A8C0167
:103D1000892B09F49FCF80E2F80111928A95E9F787
:103D20008BE0FE013196D80101900D928A95E1F762
:103D3000E0915207F0915307309709F44EC0B80153
:103D4000625F7F4FC80140960995F801808991898B
:103D5000938B828B918F808F86859785978B868BAF
:103D60000E94A820882309F475CF4C2DF7016289A1
:103D700011C04BE050E0BC01CE0101960E94E93633
:103D8000892B09F079CF8C2D80734C2D6D2D8033CC
:103D900009F460CFC7010E948F1D2B960FB6F894CF
:103DA000DEBF0FBECDBFDF91CF911F910F91FF906E
:103DB000EF90DF90CF90BF900895F8018581823019
:103DC00009F448CFC8010E949E19882309F442CF04
:103DD000F701128A0BE517E09ECF81E298E2F80125
:103DE000918B808B80E098E097878687AECF2F926B
:103DF0003F924F925F926F927F928F929F92AF927B
:103E0000BF92CF92DF92EF92FF920F931F93CF93C7
:103E1000DF9300D000D0CDB7DEB78C016B011A0163
:103E2000DC0115968C911597813009F0C8C0149665
:103E30008C9181FFC4C082FDAEC04101D8011A96A9
:103E40004D915D916D917C911D978114910409F4C0
:103E500029C15B968D919C915C97FC0174802FEF3A
:103E6000270D2A013B0139E07694679457944794D3
:103E70003A95D1F7722E74207A01F1E0FF22711089
:103E800020C0E114F104E9F416964D915D916D9115
:103E90007C911997411551056105710509F098C08C
:103EA00057968D919D910D90BC91A02D0097A105E5
:103EB000B10509F0AFC0C8010E947719882309F441
:103EC0007EC080E092E08E199F0954018815990503
:103ED00008F45C01D8015B964D915C915C97169655
:103EE0008D919D910D90BC91A02D0297A109B109D2
:103EF000FA01258504C0880F991FAA1FBB1F2A95A8
:103F0000D2F74685578560897189840F951FA61F52
:103F1000B71F9C01AD01270D311D411D511D290108
:103F20003A01A11432E0B30609F07AC0809107018A
:103F300090910801A0910901B0910A01841595059D
:103F4000A605B70559F48FEF9FEFDC0180930701B9
:103F500090930801A0930901B0930A019601B3015F
:103F6000A2018091590790915A070E942219882333
:103F700031F19EEFD91A8A189B08F8018285938542
:103F8000A485B5858A0D9B1DA11DB11D82879387D0
:103F9000A487B58753CFF801438954896589768909
:103FA00082859385A485B585481759076A077B07DD
:103FB00009F443CFC8010E94F21B81113ECF81E07A
:103FC00090E0D80113969C938E93129780E007C0DF
:103FD0009E012F5F3F4F0E944221811102C090E05D
:103FE0007BC089819A81AB81BC81F801238D348D9E
:103FF000F901278948EF5FEF60E070E0203121F0A0
:1040000048EF5FEF6FEF7FE084179507A607B707CC
:1040100008F051CFF80186839783A087B18751CFED
:10402000E114F10491F5D8011A964D915D916D91CD
:104030007C911D9753968D919D910D90BC91A02DD3
:10404000481759076A077B0700F10E94A8208823B8
:1040500009F4B5CF4092070150920801609209011E
:1040600070920A01809158078160809358079701E8
:10407000255A384FD601C9018A0D9B1DF9018E17AB
:104080009F0759F04D914193FACF41E0C301B2012E
:104090000E94E3208111EBCF92CF821B930BC80EBD
:1040A000D91E69CF14968C9114975396CD90DD90BC
:1040B000ED90FC905697C416D506E606F70618F55F
:1040C000F801438B548B658B768B80688483F80171
:1040D000848183FD25C0C1010F900F900F900F9038
:1040E000DF91CF911F910F91FF90EF90DF90CF90D4
:1040F000BF90AF909F908F907F906F905F904F9008
:104100003F902F9008952091520730915307232B11
:10411000F1F221143104D9F2806814968C93D7CF30
:10412000C8010E94861C882309F449CFD4CFCF93BD
:10413000DF931F92CDB7DEB7698341E050E0BE0147
:104140006F5F7F4F0E94F71E0F90DF91CF91089510
:10415000809158078823A9F14091070150910801E7
:104160006091090170910A012BE537E080915907B0
:1041700090915A070E942219811102C080E008958F
:104180004091540750915507609156077091570719
:10419000411551056105710591F02BE537E08091DE
:1041A000590790915A070E942219882339F31092D7
:1041B0005407109255071092560710925707109205
:1041C000580781E00895CF92DF92EF92FF92CF934C
:1041D0006B017C01C42F8091070190910801A0918F
:1041E0000901B0910A018C159D05AE05BF05F9F0D6
:1041F0000E94A820811107C080E0CF91FF90EF902E
:10420000DF90CF9008952BE537E0B701A6018091AC
:10421000590790915A070E94E218882369F3C092C7
:104220000701D0920801E0920901F0920A01409141
:1042300058074C2B4093580781E0DFCFCF92DF9295
:10424000EF92FF926B017C010E94A8208823A9F0C5
:10425000EBE5F7E0119289E0EB35F807D9F7C0926A
:104260000701D0920801E0920901F0920A018091C1
:10427000580781608093580781E0FF90EF90DF90AE
:10428000CF9008958F929F92AF92BF92CF92DF927C
:10429000EF92FF920F931F93CF93DF93FC018185E1
:1042A0009285A385B4850196A11DB11D841795073C
:1042B000A607B70770F480E0DF91CF911F910F91AF
:1042C000FF90EF90DF90CF90BF90AF909F908F9036
:1042D000089583889488A588B6888789803189F570
:1042E000BB27A72F962F852FE9016A017B018F013C
:1042F000BC01CD01680D791D8A1D9B1D80900701B1
:1043000090900801A0900901B0900A0186169706C6
:10431000A806B90601F5F8018789803111F5DD2479
:10432000EE24FF24F601EE0FFF1FE55AF84F8081BF
:104330009181B0E0A0E088839983AA83BB8381E068
:10434000BBCFDB01CA01C7E0B695A79597958795C6
:10435000CA95D1F7C9CF40E00E94E3208111DBCF9D
:10436000AACFE894C7F8DD24EE24FF24F601EE0F6F
:10437000FF1FEE0FFF1FE55AF84F80819181A28148
:10438000B381BF70D8CF4F925F926F927F92AF92FE
:10439000BF92CF92DF92EF92FF920F931F93CF9332
:1043A000DF9300D000D0CDB7DEB78C0149835A83AC
:1043B0006B837C835901C12CD12C7601412C82E086
:1043C000582E612C712C49815A816B817C819E0110
:1043D0002F5F3F4FC8010E944221882339F1F80125
:1043E0008585A301920104C0220F331F441F551F6E
:1043F0008A95D2F7DA01C901C80ED91EEA1EFB1E42
:1044000049815A816B817C818789803111F188EFE4
:104410009FEFAFEFBFE0481759076A077B0798F295
:10442000F501C082D182E282F38281E00F900F9089
:104430000F900F90DF91CF911F910F91FF90EF9010
:10444000DF90CF90BF90AF907F906F905F904F9034
:10445000089588EF9FEFA0E0B0E0DDCF4F925F922C
:104460006F927F928F929F92AF92BF92CF92DF9284
:10447000EF92FF920F931F93CF93DF93EC014230A3
:1044800051056105710590F480E0DF91CF911F9196
:104490000F91FF90EF90DF90CF90BF90AF909F90E3
:1044A0008F907F906F905F904F90089589859A8547
:1044B000AB85BC850196A11DB11D84179507A60784
:1044C000B70710F3CB88DC88ED88FE888F898031B0
:1044D00009F042C0BB27A72F962F852F480159010D
:1044E0002A013B01C80ED91EEA1EFB1E809107015E
:1044F00090910801A0910901B0910A01C816D9064E
:10450000EA06FB0699F58F898031C1F5B301A20156
:10451000552766277727440F551F455A584FFA01EC
:1045200091828082809158078160809358078A89A0
:10453000823080F08D819E81AF81B8858C0D9D1D6C
:10454000AE1DBF1D8093540790935507A093560747
:10455000B093570781E099CFDB01CA01E7E0B69538
:10456000A79597958795EA95D1F7B8CF40E0C70111
:10457000B6010E94E3208111C6CF86CFB301A2010C
:104580004F77552766277727440F551F440F551F30
:10459000455A584FFA0180829182A282B382C2CFDB
:1045A0002F923F924F925F926F927F928F929F9243
:1045B000AF92BF92CF92DF92EF92FF920F931F9331
:1045C000CF93DF93CDB7DEB72F970FB6F894DEBF4A
:1045D0000FBECDBF3C01488759876A877B873F83E1
:1045E0002E83D901CD90DD90ED90FC90C114D104C3
:1045F000E104F10439F0BFEFCB1ADB0AEB0AFB0A46
:104600001D8210C0FC01C080D180E280F380F1E007
:10461000FD83088519852A853B8501301105210513
:10462000310571F7F30181859285A385B4858C01ED
:104630009D010F5F1F4F2F4F3F4F0C871D872E8708
:104640003F8746015701212C312C2101F30181853F
:104650009285A385B485281639064A065B0608F0BC
:1046600044C00C851D852E853F85081519052A0532
:104670003B0550F482E0882E912CA12CB12C92E0C5
:10468000C92ED12CE12CF12C9E012F5F3F4FB5019B
:10469000A401C3010E944221882339F1D501C4013C
:1046A0000196A11DB11D49815A816B817C81452BE9
:1046B000462B472BA9F5AC01BD014C195D096E09CC
:1046C0007F09088519852A853B85401751076207B0
:1046D000730741F50FEF1FEF2FEF3FE0B501A40186
:1046E000C3010E942E22811125C01D828D812F962B
:1046F0000FB6F894DEBF0FBECDBFDF91CF911F91F3
:104700000F91FF90EF90DF90CF90BF90AF909F9070
:104710008F907F906F905F904F903F902F90089573
:104720006C017D011FEF211A310A410A510A4C0127
:104730005D018CCFC814D904EA04FB0488F4140189
:10474000250121E0221A3108410851089501840110
:10475000B201A101C3010E942E2252014101C3CF27
:10476000AE81BF814D915D916D917C914115510557
:104770006105710561F4EE81FF81C082D182E28220
:10478000F382FD81F1110BC001E00D83AFCF9701E2
:104790008601C3010E942E228111EDCFA6CF1FEF0B
:1047A000C11AD10AE10AF10AD301CD92DD92ED924C
:1047B000FC9213979BCFAF92BF92CF92DF92EF9272
:1047C000FF920F931F93CF93DF9300D000D0CDB70C
:1047D000DEB75C016A017B0182E090E0A0E0B0E01E
:1047E000F50180839183A283B3839E012F5F3F4FA6
:1047F000B701A601C5010E944221882381F100E092
:1048000010E09801B701A601C5010E942E2288235D
:1048100031F1C980DA80EB80FC80F5018789803135
:10482000C9F088EF9FEFAFEFBFE0C816D906EA06E0
:10483000FB06D8F281E00F900F900F900F90DF9160
:10484000CF911F910F91FF90EF90DF90CF90BF908D
:10485000AF90089588EF9FEFA0E0B0E0E6CF80E052
:10486000EACF8F929F92AF92BF92CF92DF92EF9258
:10487000FF920F931F93CF93DF93EC01142F70934C
:104880005A0760935907442309F478C0453070F003
:1048900080E0DF91CF911F910F91FF90EF90DF901B
:1048A000CF90BF90AF909F908F90089540E060E0D0
:1048B00070E0CB010E94E320882351F3812F8150C7
:1048C000990BAC0164E0440F551F6A95E1F7455A16
:1048D000584FFA01E254FE4F80818F77C9F63C961B
:1048E00080819181A281B38184369105A105B105B2
:1048F00078F24A535E4FFA01C080D180E280F380A3
:10490000C114D104E104F10419F240E0C701B60179
:104910000E94E320882309F4BBCF80916607909121
:1049200067078115924009F0B3CF90916B079923E7
:1049300009F4AECF2091690730916A07232B09F45F
:10494000A7CF80916807882309F4A2CF9A8B8C8324
:104950001D8690E041E050E02D85E22FBA01022E45
:1049600002C0660F771F0A94E2F78617970751F087
:1049700031E0320F3D87283078F38ACFC12CD12C1B
:104980007601C3CF209171073091720750E040E06B
:104990002115310541F420917F0730918007409126
:1049A0008107509182072D833E834F8358878091E2
:1049B000690790916A0746015701880E991EA11C4C
:1049C000B11C8B8A9C8AAD8ABE8A00916C071091BB
:1049D0006D07198F088FA0916B07B0E00E94BA3461
:1049E000DC01CB01880D991DAA1DBB1D8A8F9B8FF1
:1049F000AC8FBD8F25E0000F111F2A95E1F7015004
:104A00001E4F012F11270695800F911FA11DB11D6B
:104A10008E879F87A88BB98B00916E0710916F07C7
:104A200030E020E00115110541F400917B07109161
:104A30007C0720917D0730917E07C81AD90AEA0ABF
:104A4000FB0AC00ED11EE21EF31E04C0F694E794CA
:104A5000D794C794EA95D2F7C986DA86EB86FC86A6
:104A60008CE025EFC2162FE0D206E104F10440F0FD
:104A700085EFC8168FEFD806E104F10420F480E139
:104A80008F8B81E006CF8091870790918807A09156
:104A90008907B0918A078A8F9B8FAC8FBD8F80E288
:104AA000EFCFCF93CFB7F89480915E09811127C0E3
:104AB000EAEDF1E08491EAEBF1E09491E82FF0E087
:104AC000EE0FFF1FE65FFD4FA591B491EC91E92336
:104AD00021F461E084E00E94523261E084E00E94AF
:104AE00016328CB580618CBD8CB580648CBD61E064
:104AF00087E00E94163261E085E00E9416328091C4
:104B00005E098F5F80935E09CFBFCF910895CF93E9
:104B1000DF93EC016A818A8D9B8D0E94C60F8A8D7E
:104B20009B8D0E944E10282F30E02115310511F089
:104B300084E8898F81E0232B09F080E0DF91CF9119
:104B40000895CF92DF92EF92FF920F931F93CF932E
:104B5000DF938C01F62EE42EC52E462FDC01129633
:104B60006C9112975A968D919C910E9448108F11CA
:104B700013C0DE2CCE2DDC2D8C2F8D198F15C8F493
:104B8000F801828D938DDC01ED91FC910284F38517
:104B9000E02D09958993F0CF82E8F801818F80E0BC
:104BA000DF91CF911F910F91FF90EF90DF90CF9009
:104BB000089581E0F5CFDC01ED91FC910190F08149
:104BC000E02D09940F931F93CF93DF93EC018B019A
:104BD0006A818A8D9B8D0E94C60F612F70E08A8D3D
:104BE0009B8D0E94DB25B80177278A8D9B8D0E94C3
:104BF000DB258A8D9B8D0E944E10882341F081E831
:104C0000898F80E0DF91CF911F910F91089581E00E
:104C1000F9CFFC0187E292E091838083538F428F2A
:104C200062831482158216821782108E178A168A62
:104C3000158A13821486158616861786108A118A9D
:104C4000128A138A148A118E0895CF93DC01ED9194
:104C5000FC910280F381E02D61110FC062EA70E3E4
:104C60000995C82F882331F061E070E080E090E082
:104C70000E9468318C2FCF91089566E070E0F0CFEC
:104C8000FC0192819454923020F460E0CF010C94A6
:104C9000252680E00895FB018FEF21E3442369F08E
:104CA0009191892798E087FF06C0880F822791504D
:104CB000D1F74150F3CF880FFACF0895EF92FF92CA
:104CC0000F931F93CF93DF9300D000D000D0CDB7C8
:104CD000DEB78C01E62EDC01ED91FC910480F581BC
:104CE000E02DAE014F5F5F4F66E00995F82E8823F7
:104CF00081F0E1102BC0EB8042E0BE016F5F7F4F7F
:104D0000C8010E944B26E81691F085E8F801818FD2
:104D1000F12C8F2D26960FB6F894DEBF0FBECDBFB7
:104D2000DF91CF911F910F91FF90EF900895EE804A
:104D300042E0BE016C5F7F4FC8010E944B26E8161F
:104D400029F086E8D80159968C93E2CF898190E0CA
:104D5000982F88272A81820F911DF801908F878BC9
:104D60008C8190E0982F88272D81820F911D968B42
:104D7000858B0E943731D80114966D937D938D9366
:104D80009C931797C6CF1F93CF93DF93EC01162FF9
:104D9000E881F9810280F381E02D60E074E2112363
:104DA00011F066E174E2CE010995882399F06FE075
:104DB00070E080E090E0112321F064E070E080E09A
:104DC00090E00E946831612FCE01DF91CF911F9159
:104DD0000C945E2680E0DF91CF911F910895FC0135
:104DE000608352AF41AF88E0818389E19CEFAFEFF0
:104DF000BFEF82839383A483B58386839783A08741
:104E0000B187938B828B10AA11AA12AA13AA14AA93
:104E100015AA16AA17AA1286138614861586168650
:104E20001786108A118A81E080AF0895CF93DF93AF
:104E3000EC01688189AD9AAD0E94C60F89AD9AAD2B
:104E40000E944E1091E0811190E0892FDF91CF9167
:104E500008958F929F92AF92BF92CF92DF92EF927E
:104E6000FF92FC0186849784A088B1886281738157
:104E7000848195810E9453332AE037ED43E25CE35D
:104E80000E9403346B017C0120E030E0A901C501E0
:104E9000B4010E941633882341F0A5019401C70193
:104EA000B6010E94AA326B017C01C701B601FF90D6
:104EB000EF90DF90CF90BF90AF909F908F9008952C
:104EC0008F929F92AF92BF92CF92DF92EF92FF921A
:104ED000FC0182849384A484B58466817781808573
:104EE00091850E9453332AE037ED43E25CE30E9450
:104EF00003346B017C0120E030E0A901C501B4015D
:104F00000E941633882341F0A5019401C701B60120
:104F10000E94AA326B017C01C701B601FF90EF909D
:104F2000DF90CF90BF90AF909F908F9008951F9388
:104F3000CF93DF93EC01162F0E94DC30688189AD9E
:104F40009AAD0E94C60F89AD9AADDC01ED91FC913E
:104F50000190F081E02D612F099589AD9AAD0E94F5
:104F60004E1090E09B8B8A8BDF91CF911F9108951B
:104F70008F929F92AF92BF92CF92DF92EF92FF9269
:104F80001F93CF93DF93CDB7DEB72A970FB6F89470
:104F9000DEBF0FBECDBF9C019AE0EBE0F1E0DE0189
:104FA000119601900D929A95E1F74D3070F14CE019
:104FB00018EF140F912F990F690FC9010E949727BD
:104FC000412F50E0440F551F81E090E08C0F9D1F52
:104FD000480F591FFA01C080D1800E9443314B0114
:104FE0005C01F12CE12C0E944331681979098A098E
:104FF0009B096C157D058E059F0558F40E94DC30D9
:105000008AE090E00E94A131EECF483088F648E077
:10501000CFCF2A960FB6F894DEBF0FBECDBFDF917B
:10502000CF911F91FF90EF90DF90CF90BF90AF9006
:105030009F908F9008950F931F93CF93DF936830C5
:1050400038F090E080E0DF91CF911F910F910895AB
:10505000EC01660F60560E9497278A899B89892BED
:1050600081F742E0688189AD9AAD0E944810823094
:1050700040F389AD9AADDC01ED91FC910284F3859A
:10508000E02D099500E0182F89AD9AADDC01ED9176
:10509000FC910284F385E02D0995800F911FD3CFF9
:1050A0008F929F92AF92BF92CF92DF92EF92FF9238
:1050B000CF93DF93EC0160E00E9497278A899B8958
:1050C000892B71F060E070E0CB01DF91CF91FF9010
:1050D000EF90DF90CF90BF90AF909F908F9008950A
:1050E00043E0688189AD9AAD0E944810833050F347
:1050F00089AD9AADDC01ED91FC910284F385E02D40
:105100000995092E000CAA0BBB0B5C01992488247D
:1051100089AD9AADDC01ED91FC910284F385E02D1F
:1051200009956C01990FEE08FF08FE2CED2CDC2C84
:10513000CC24C80CD91CEA1CFB1C89AD9AADDC013F
:10514000ED91FC910284F385E02D0995BC01990F46
:10515000880B990B6C0D7D1D8E1D9F1DB6CF4F9238
:105160005F926F927F928F929F92AF92BF92CF92F7
:10517000DF92EF92FF920F931F93CF93DF93CDB700
:10518000DEB766970FB6F894DEBF0FBECDBF9E8B1D
:105190008D8BF62E462F60E40E94B827ED89FE899C
:1051A000028913890115110509F043C1CF010E943D
:1051B00050286D877E878F87988BED89FE890289BD
:1051C00013890115110509F034C14F2D60E5CF0198
:1051D0000E94B827ED89FE890289138901151105FE
:1051E00009F027C1CF010E945028ED89FE8902896C
:1051F00013890115110509F01CC10E945133ED8975
:10520000FE8920A531A542A553A50E94A9326B01B4
:105210007C01ED89FE8924A535A546A557A50E94E8
:10522000033420E030E04AEF54E40E94AA320E94A6
:105230001B334B015C01ED89FE8982829382A4823B
:10524000B58224A135A146A157A1C701B6010E948C
:105250000334ED89FE89248D358D468D578D0E944E
:10526000AA322B013C01ED89FE8920A131A142A186
:1052700053A1C701B6010E940334ED89FE89208D38
:10528000318D428D538D0E94AA3269837A838B833C
:105290009C83ED89FE8980AD882309F49EC0F0EDE2
:1052A0008F16F7E09F06A104B1040CF096C0A70189
:1052B0009601C701B6010E94033420E030E040E0CF
:1052C00050E30E940334698B7A8B8B8B9C8BC501D6
:1052D000B401605D7740810991099B01AC010E9496
:1052E00070340E9453336B017C0120E030E040E2D7
:1052F00050E40E9403346D837E838F83988720E07F
:1053000030E040EA5FE3C701B6010E9403346B015D
:105310007C0184E288168AEF98068FEFA806B8060B
:10532000A4F5C501B40164527A4F8F4F9F4F9B0182
:10533000AC010E9470340E94533369877A878B874F
:105340009C8720E030E040EE50E40E9403349B0153
:10535000AC016D817E818F8198850E94AA326D8318
:105360007E838F83988720E030E040EB50E46985AE
:105370007A858B859C850E9403349B01AC01C70113
:10538000B6010E94AA326B017C01C501B4010E94E2
:10539000533329893A894B895C890E94A9320E943A
:1053A0001B33ED89FE8962837383848395832D810A
:1053B0003E814F815885C301B2010E94A9322B0161
:1053C0003C01A701960169817A818B819C810E94B1
:1053D000A93269837A838B839C836D857E858F85D3
:1053E00098890E94513329813A814B815C810E94C6
:1053F000033420E030E040E055E30E940334A30191
:1054000092010E94A93220E030E040E058E30E947F
:1054100003340E941B33ED89FE896683778380877E
:1054200091870E943731ED89FE8960AB71AB82AB09
:1054300093ABC80166960FB6F894DEBF0FBECDBF22
:10544000DF91CF911F910F91FF90EF90DF90CF9060
:10545000BF90AF909F908F907F906F905F904F9094
:105460000895CF92DF92EF92FF92FC01262F80E009
:1054700090E0A0E8BFE3848B958BA68BB78B80E090
:1054800090E0A0E0B7E4808F918FA28FB38F40E0CF
:1054900050E060E877E4448F558F668F778F80E027
:1054A00090E0A0E8BBE380A391A3A2A3B3A380E014
:1054B00090E0A0E0BCE384A395A3A6A3B7A3C12C6E
:1054C000D12C30E8E32E33E4F32EC0A6D1A6E2A619
:1054D000F3A6C12CD12CE12C34E3F32EC4A6D5A61F
:1054E000E6A6F7A62130C1F4408F518F628F738FEB
:1054F00040E050E060E078E4448F558F668F778F0E
:1055000080A391A3A2A3B3A380E090E0A0E8BCE3B2
:1055100084A395A3A6A3B7A3FF90EF90DF90CF90AD
:1055200008952F923F924F925F926F927F928F9247
:105530009F92AF92BF92CF92DF92EF92FF920F9322
:105540001F93CF93DF93EC01162F6EE10E949727F4
:105550000E9443316B017C010E9443316C197D092B
:105560008E099F09603F7A408105910538F40E94B9
:10557000DC308AE090E00E94A131EECF612FCE01B5
:105580000E94312A8E010C5E1F4F312C222423945D
:10559000632DCE010E941B287C01F801819091901F
:1055A000A190B1908F016F01F4E0CF1AD1082C01C6
:1055B000712C612CC301B7010E945133A5019401E4
:1055C0000E940334F60160837183828393838CA9E4
:1055D0009DA9AEA9BFA924E0880F991FAA1FBB1FD0
:1055E0002A95D1F78E259525A625B7258CAB9DABA1
:1055F000AEABBFAB332039F0222029F02224239414
:10560000EF2809F4212C3394F7E03F12C1CF822D0B
:10561000DF91CF911F910F91FF90EF90DF90CF908E
:10562000BF90AF909F908F907F906F905F904F90C2
:105630003F902F900895CF93DF93FC012081265750
:10564000223058F4EC010E941627882331F060E0E4
:10565000CE01DF91CF910C94912A80E0DF91CF9120
:105660000895FC01918D228D892F90E0805C9F4FE1
:10567000821B91098F7399270895FC01918D828D6A
:10568000981731F0828DE80FF11D858D90E0089517
:105690008FEF9FEF0895FC01918D828D981761F037
:1056A000A28DAE0FBF2FB11D5D968C91928D9F5F25
:1056B0009F73928F90E008958FEF9FEF0895FC0104
:1056C000538D448D252F30E0842F90E0821B930B67
:1056D000541710F0CF960895019708958AEC9CE234
:1056E000892B49F080E090E0892B29F00E94CA2C98
:1056F00081110E94000081E69DE2892B49F080E043
:1057000090E0892B29F00E94612D81110C940000FA
:105710000895FC01A48DA80FB92FB11DA35ABF4F46
:105720002C91848D90E001968F739927848FA689A0
:10573000B7892C93A089B1898C91837080648C93F4
:10574000938D848D981306C00288F389E02D8081A3
:105750008F7D80830895CF93DF93EC01888D88231C
:10576000B9F0AA89BB89E889F9898C9185FD03C0C4
:10577000808186FD0DC00FB607FCF7CF8C9185FFA9
:10578000F2CF808185FFEDCFCE010E94892BE9CF3A
:10579000DF91CF910895EF92FF920F931F93CF93D4
:1057A000DF93EC0181E0888F9B8D8C8D98131AC05C
:1057B000E889F989808185FF15C09FB7F894EE8943
:1057C000FF896083E889F9898081837080648083A0
:1057D0009FBF81E090E0DF91CF911F910F91FF90EB
:1057E000EF900895F62E0B8D10E00F5F1F4F0F7393
:1057F0001127E02E8C8D8E110CC00FB607FCFACF4E
:10580000E889F989808185FFF5CFCE010E94892B37
:10581000F1CFEB8DEC0FFD2FF11DE35AFF4FF0821E
:105820009FB7F8940B8FEA89FB8980818062CFCF84
:10583000CF92DF92EF92FF921F93CF93DF93EC0111
:105840006A017B01122F60E874E88EE190E0A70105
:1058500096010E9480342150310941095109569521
:10586000479537952795E889F98982E08083211546
:1058700080E1380798F0E889F989108260E472E4E1
:105880008FE090E0A70196010E94803421503109F9
:10589000410951095695479537952795EC85FD8522
:1058A0003083EE85FF852083188EEC89FD89108377
:1058B000EA89FB89808188698083EA89FB89808104
:1058C0008F7D8083DF91CF911F91FF90EF90DF90CC
:1058D000CF9008951F920F920FB60F9211240BB61E
:1058E0000F922F938F939F93EF93FF93E0916F0904
:1058F000F09170098081E0917509F091760982FD3F
:105900001DC09081809178098F5F8F7320917909F4
:10591000821741F0E0917809F0E0E15AF64F958F57
:1059200080937809FF91EF919F918F912F910F9024
:105930000BBE0F900FBE0F901F9018958081F2CF75
:105940001F920F920FB60F9211240BB60F922F9346
:105950003F934F935F936F937F938F939F93AF93F7
:10596000BF93EF93FF938FE599E00E94892BFF91FE
:10597000EF91BF91AF919F918F917F916F915F91C7
:105980004F913F912F910F900BBE0F900FBE0F9034
:105990001F9018958FE599E00E94312B21E0892B0B
:1059A00009F420E0822F0895EFE5F9E013821282D6
:1059B00088EE93E0A0E0B0E084839583A683B7836C
:1059C00081E392E09183808385EC90E095878487E2
:1059D00084EC90E09787868780EC90E0918B808BB9
:1059E00081EC90E0938B828B82EC90E0958B848BA2
:1059F00086EC90E0978B868B118E128E138E148E10
:105A000008951F920F920FB60F9211240BB60F92AA
:105A10002F938F939F93EF93FF93E0910C0AF09154
:105A20000D0A8081E091120AF091130A82FD1DC0D7
:105A300090818091150A8F5F8F732091160A8217CB
:105A400041F0E091150AF0E0E450F64F958F809315
:105A5000150AFF91EF919F918F912F910F900BBE9F
:105A60000F900FBE0F901F9018958081F2CF1F925C
:105A70000F920FB60F9211240BB60F922F933F93F4
:105A80004F935F936F937F938F939F93AF93BF9346
:105A9000EF93FF938CEF99E00E94892BFF91EF9198
:105AA000BF91AF919F918F917F916F915F914F9136
:105AB0003F912F910F900BBE0F900FBE0F901F9034
:105AC00018958CEF99E00E94312B21E0892B09F485
:105AD00020E0822F0895ECEFF9E01382128288EE25
