:100000000C9411010C943B010C943B010C943B01AA
:100010000C943B010C943B010C943B010C943B0170
:100020000C943B010C943B010C943B010C943B0160
:100030000C943B010C946A010C943B010C943B0121
:100040000C943B010C943B010C94C1260C943B0195
:100050000C946F220C94A5220C943B010C943B0150
:100060000C943B010C943B010C94EB0C0C943B0165
:100070000C9406230C943C230C943B010C943B0100
:100080000C943B010C943B010C943B0100407A1012
:10009000F35A00A0724E18090010A5D4E80000E839
:1000A0007648170000E40B54020000CA9A3B000097
:1000B00000E1F505000080969800000040420F0026
:1000C0000000A08601000000102700000000E803E7
:1000D000000000006400000000000A0000000000B2
:1000E0000100000000002C76D888DC674F0823DF71
:1000F000C1DFAE59E1B1B796E5E3E453C63AE65144
:10010000997696E8E6C28426EB898C9B62ED407C6A
:100110006FFCEFBC9C9F40F2BAA56FA5F490055A06
:100120002AF75C936B6CF9676DC11BFCE0E40D472B
:10013000FEF520E6B500D0ED902E0300943577054E
:100140000080841E080000204E0A000000C80C3306
:100150003333330F986E12831141EF8D2114893B95
:10016000E65516CFFEE6DB18D1844B381BF77C1D15
:10017000901DA4BBE424203284725E228100C9F168
:1001800024ECA1E53D277C3C3E5E2B3D3F2F5B5D93
:100190003B2C2A225C000000000203000A0B000036
:1001A0000000050409080000000000000000000035
:1001B000000000000000010204081020408001023D
:1001C0000408102040800102040810204080010231
:1001D000040810204080020202020202020204040B
:1001E00004040404040403030303030303030101DD
:1001F0000101010101010000200023002600290067
:1002000000002200250028002B000000210024000F
:1002100027002A008401000C04121E15D922702325
:10022000960111241FBECFEFD0E4DEBFCDBF12E098
:10023000A0E0B1E0EEEBFEE500E00BBF02C00790EE
:100240000D92A631B107D9F72AE0A6E1B2E001C0CC
:100250001D92A637B207E1F711E0C0E1D1E004C07A
:100260002197FE010E94082ACA30D107C9F70E94CF
:10027000B2260C94522F0C940000DC01ED91FC91FD
:100280000190F081E02D09940CB405FC0DC09EBDD9
:1002900000000DB407FEFDCF9EB58EBD00000DB46D
:1002A00007FEFDCF8EB508958EBD00000DB407FE8C
:1002B000FDCF8EB59EBD00000DB407FEFDCF9EB5EF
:1002C0000895982F92959F708F702AE0929F800DCD
:1002D000112408951F920F920FB60F9211248F933D
:1002E000809117028F5F80931702809116028F5FB3
:1002F0008093160210928500109284008F910F90C7
:100300000FBE0F901F9018956BE071E08DE296E0A4
:100310000E9400256CE371E087E296E00E940025D0
:1003200065E172E081E296E00C94002581E296E0BE
:100330000E948E2487E296E00E948E248DE296E051
:100340000C948E24CF93DF9361E570E083E396E015
:100350000E947F0B70E060E083E396E00E943D0125
:1003600083E396E00E94FD0B46E050E061E570E01B
:1003700083E396E00E94FA0B83E396E00E94F20A80
:100380000E9461018093180283E396E00E94F20AC2
:100390008F770E946101D82F83E396E00E94F20AD2
:1003A0008F770E946101C82F83E396E00E94F20AD2
:1003B0000E94610190E0B0E0A0E080931902909368
:1003C0001A02A0931B02B0931C0283E396E00E94E2
:1003D000F20A0E94610124E6829FC0011124092EC5
:1003E000000CAA0BBB0B4091190250911A026091AC
:1003F0001B0270911C02840F951FA61FB71F8093CC
:10040000190290931A02A0931B02B0931C0283E37B
:1004100096E00E94F20A0E94610140E157E2849F47
:100420009001859F300D1124032E000C440B550BB9
:100430008091190290911A02A0911B02B0911C02A6
:10044000280F391F4A1F5B1FA0E1BEE00E94112A3E
:10045000AB01BC012CE3C29FC0011124092E000C8A
:10046000AA0BBB0B8D0F911DA11DB11D840F951FF4
:10047000A61FB71F8093190290931A02A0931B0224
:10048000B0931C02DF91CF9108958F929F92AF920B
:10049000BF92EF92FF920F931F93CF93DF93CDB74D
:1004A000DEB7A7970FB6F894DEBF0FBECDBF61E0F1
:1004B00083E10E94262860E082E10E94262801E272
:1004C00012E08DE1E82E82E0F82E812C912C54016F
:1004D000F80181918F01880E911CA11CB11CF6E0DE
:1004E0000D311F07A9F765E172E0CE0182960E94E7
:1004F00000250E94A2016BE471E0CE0182960E9469
:10050000632660911D0670911E064AE0CE01019699
:100510000E947825BE016F5F7F4FCE0182960E94B8
:100520005C26CE0101960E948E2466EA71E0CE011F
:1005300082960E9463264091190250911A0260919E
:100540001B0270911C022AE0CE0101960E94A42594
:10055000BE016F5F7F4FCE0182960E945C26CE0166
:1005600001960E948E2469E871E0CE0182960E9475
:1005700063264AE060911802CE0101960E941F2571
:10058000BE016F5F7F4FCE0182960E945C26CE0136
:1005900001960E948E2466EA71E0CE0182960E9446
:1005A00063262AE0B501A401CE0101960E94A4258C
:1005B000BE016F5F7F4FCE0182960E945C26CE0106
:1005C00001960E948E2466EA71E0CE0182960E9416
:1005D0006326F70161917F014AE0CE0101960E94F6
:1005E0001F25BE016F5F7F4FCE0182960E945C2661
:1005F000CE0101960E948E240E151F0521F78091D1
:10060000060161E0882309F470C08EE00E9426286C
:1006100064E085ED96E00E944E1062E571E088236B
:1006200009F45CC0409121065091220623E165ED5A
:1006300076E0CE0101960E946E11CE0101960E94D5
:10064000420F882309F448C0BE016E5D7F4FCE0182
:1006500001960E94FA23CE0101960E94300F61E0BC
:1006600084E00E94262860E08EE00E94262860E058
:100670008DE00E94262880911D0690911E0601960D
:10068000893FFAE29F0708F065C090931E068093A9
:100690001D0661E082E10E94262860E083E10E945D
:1006A000262861E070E080E090E00E943C27CE01C7
:1006B00082960E948E24A7960FB6F894DEBF0FBED6
:1006C000CDBFDF91CF911F910F91FF90EF90BF9021
:1006D000AF909F908F90089561E671E08BEC99E068
:1006E0000E940C2410920601BACF8DE00E942628A9
:1006F000AEA0BFA010E000E0FF24FA948DE10E94BC
:100700005428892B19F0FA94F110F8CF82E390E085
:100710000E9475277801FFEFEF1AFF0AB801CE019A
:1007200082960E949F26FC0160818EE299E00E94E1
:10073000EF23AE14BF0460F48EE299E00E94F6232A
:10074000BE016E5D7F4F8BEC99E00E94FA238BCF48
:100750008701D2CF10921E0610921D0660911F06CF
:10076000709120066F5F7F4F7093200660931F0685
:100770004AE0CE014C960E947825BE01645E7F4F10
:10078000CE0101960E94E8256BE671E0CE0101964C
:100790000E948526BC0181E296E00E94D125CE010F
:1007A00001960E948E24CE014C960E948E2460E712
:1007B00071E08BEC99E00E94E72361E276E08BEC3C
:1007C00099E00E94FA2365CF0F931F93CF93DF9395
:1007D000C82F65E570E083E396E00E947F0B0C2E46
:1007E000000CDD0BBE0183E396E00E943D0183E334
:1007F00096E00E94FD0B41E050E065E570E083E388
:1008000096E00E94FA0B83E396E00E94F20A8C01C4
:1008100065E570E083E396E00E947F0BBE016F5FA9
:100820007F4F83E396E00E943D0183E396E00E94C0
:10083000FD0B41E050E065E570E083E396E00E9447
:10084000FA0B83E396E00E94F20A20E0382FC901F8
:10085000800F911FDF91CF911F910F910895CF933A
:10086000DF93CDB7DEB7A1970FB6F894DEBF0FBE0A
:10087000CDBF61E083E10E94262860E082E10E9412
:10088000262865E172E0CE014C960E9400250E9468
:10089000A2016BE771E0CE014C960E946326609145
:1008A0001D0670911E064AE0CE0101960E94782531
:1008B000BE016F5F7F4FCE014C960E945C26CE0139
:1008C00001960E948E2466EA71E0CE014C960E9449
:1008D00063264091190250911A0260911B02709197
:1008E0001C022AE0CE0101960E94A425BE016F5F82
:1008F0007F4FCE014C960E945C26CE0101960E944D
:100900008E2469E871E0CE014C960E9463264AE08D
:1009100060911802CE0101960E941F25BE016F5FF3
:100920007F4FCE014C960E945C26CE0101960E941C
:100930008E2466EA71E0CE014C960E94632688E020
:100940000E94E4034AE0BC01CE0101960E944C25BE
:10095000BE016F5F7F4FCE014C960E945C26CE0198
:1009600001960E948E2466EA71E0CE014C960E94A8
:1009700063268AE00E94E4034AE0BC01CE010196AE
:100980000E944C25BE016F5F7F4FCE014C960E94A6
:100990005C26CE0101960E948E2466EA71E0CE01AB
:1009A0004C960E94632684E00E94E4034AE0BC0166
:1009B000CE0101960E944C25BE016F5F7F4FCE0194
:1009C0004C960E945C26CE0101960E948E2466EA17
:1009D00071E0CE014C960E94632686E00E94E403FB
:1009E0004AE0BC01CE0101960E944C25BE016F5F1A
:1009F0007F4FCE014C960E945C26CE0101960E944C
:100A00008E2466EA71E0CE014C960E9463268CE04B
:100A10000E94E403BC01990F880B990B0E94ED28FA
:100A20002DEC3CEC4CEC5DE30E94792923E333E9A7
:100A300048E853E40E947E28AB01BC0122E0CE01CD
:100A400001960E940026BE016F5F7F4FCE014C963B
:100A50000E945C26CE0101960E948E2480910601A0
:100A6000882349F164E085ED96E00E944E1062E52E
:100A700071E08823E9F1409121065091220623E19B
:100A800065ED76E0CE0101960E946E11CE010196D1
:100A90000E94420F882351F1BE01645E7F4FCE0158
:100AA00001960E94FA23CE0101960E94300F61E068
:100AB00084E00E94262861E082E10E94262860E00E
:100AC00083E10E94262861E070E080E090E00E94CF
:100AD0003C27CE014C960E948E24A1960FB6F89426
:100AE000DEBF0FBECDBFDF91CF91089561E671E00B
:100AF0008BEC99E00E940C2410920601D8CFCF9283
:100B0000DF92EF92FF920F931F93CF93DF93CDB7B6
:100B1000DEB7C254D1090FB6F894DEBF0FBECDBF09
:100B200026E040E052EC61E070E08EE299E00E9445
:100B30001D2226E040E052EC61E070E08BEC99E091
:100B40000E941D2240EA56E861E070E083E396E0EF
:100B50000E94710B62E871E08BEC99E00E940C241A
:100B600060E08BE10E94EA2760E085E10E94EA27CD
:100B700060E08DE10E94EA2760E08EE10E94EA27B2
:100B800061E086E10E94EA2761E087E10E94EA27AE
:100B900060E080E00E94EA2761E082E10E94EA27AB
:100BA00061E082E10E94262861E083E10E94EA2759
:100BB00061E083E00E94EA2761E084E00E94EA2786
:100BC00060E085E00E94EA2760E086E00E94EA2774
:100BD00061E087E00E94EA2761E083E10E94262825
:100BE00061E084E00E94262860E087E00E942628D9
:100BF00060E083E00E9426286AE670E083E396E0E6
:100C00000E947F0B65E183E396E00E94150B69E982
:100C100083E396E00E94150B83E396E00E94FD0BB0
:100C20008BE10E945428892B09F4CEC011E061E0C9
:100C3000112309F46BC083E00E94262861E08CE058
:100C40000E94EA2761E08CE00E94262838ECE32E1F
:100C5000F12C8AEF90E00E94752761E08FE00E94FE
:100C6000EA2761E08FE00E9426288AEF90E00E9448
:100C7000752761E08FE00E94EA2760E08FE00E9424
:100C8000262881E0E81AF10821F728ECE22EF12C61
:100C900084EB90E00E94752761E08FE00E94EA27D4
:100CA00061E08FE00E94262884EB90E00E94752787
:100CB00061E08FE00E94EA2760E08FE00E94262832
:100CC00081E0E81AF10821F761E770E083E396E03C
:100CD0000E947F0B60E083E396E00E94150B63E1C6
:100CE00083E396E00E94150B83E396E00E94FD0BE0
:100CF00068EE73E080E090E00E943C278EE10E9465
:100D00005428892BD9F781E0182791CF8CE00E94D5
:100D1000EA2760E08CE00E94262898ECE92EF12C6E
:100D200084EB90E00E94752761E08FE00E94EA2743
:100D300061E08FE00E94262884EB90E00E947527F6
:100D400061E08FE00E94EA2760E08FE00E942628A1
:100D500081E0E81AF10821F788ECE82EF12C8AEFFF
:100D600090E00E94752761E08FE00E94EA2761E031
:100D70008FE00E9426288AEF90E00E94752761E0AC
:100D80008FE00E94EA2760E08FE00E94262881E041
:100D9000E81AF10821F761E770E083E396E00E942A
:100DA0007F0B60E083E396E00E94150B60E183E334
:100DB00096E00E94150B83E396E00E94FD0B60E035
:100DC00083E00E94262894CF61E084E10E94EA2714
:100DD00061E084E10E94262815E060E570E080E093
:100DE00090E00E943C2761E08CE00E94EA2761E0ED
:100DF0008CE00E94262860E570E080E090E00E9490
:100E00003C2760E08CE00E942628115031F761E019
:100E10008CE00E94262808EC10E084EB90E00E9411
:100E2000752761E08FE00E94EA2761E08FE00E9471
:100E3000262884EB90E00E94752761E08FE00E94F5
:100E4000EA2760E08FE00E9426280150110929F767
:100E50006BE871E08BEC99E00E940C2461E082E089
:100E60000E94EA2761E082E00E94262861E08AE190
:100E70000E94EA2761E08AE10E94262860E087E17B
:100E80000E94262861E086E10E94262861E570E044
:100E900083E396E00E947F0B63E283E396E00E9487
:100EA000150B60E083E396E00E94150B60E083E39E
:100EB00096E00E94150B65E083E396E00E94150B17
:100EC00060E083E396E00E94150B60E083E396E028
:100ED0000E94150B67E983E396E00E94150B60E022
:100EE00083E396E00E94150B60E083E396E00E94A6
:100EF000150B83E396E00E94FD0B61E570E083E350
:100F000096E00E947F0B6FE270E083E396E00E9420
:100F10003D016CE270E083E396E00E943D0183E3D3
:100F200096E00E94FD0B61E570E083E396E00E948D
:100F30007F0B68E270E083E396E00E943D0167E981
:100F400070E083E396E00E943D0183E396E00E9417
:100F5000FD0B61E570E083E396E00E947F0B60E0AB
:100F600083E396E00E94150B60E083E396E00E9425
:100F7000150B60E083E396E00E94150B60E083E3CD
:100F800096E00E94150B60E083E396E00E94150B4B
:100F900060E083E396E00E94150B60E083E396E057
:100FA0000E94150B83E396E00E94FD0B64E971E05B
:100FB000CE0101960E94002567E276E0CE010196FF
:100FC0000E94722664EA71E00E9485266DE276E056
:100FD0000E94722666EA71E00E948526BC01CE015D
:100FE000CD960E94E825CE0101960E948E2469E5E7
:100FF00070E083E396E00E947F0B68E070E083E39B
:1010000096E00E943D0170E060E083E396E00E947C
:101010003D0183E396E00E94FD0B40E169E583E337
:1010200096E00E94F70B10E183E396E00E94F20A3B
:10103000082F803130F468EA71E0CE01CD960E942D
:10104000632640E1602FCE0101960E941F25BE015C
:101050006F5F7F4FCE01CD960E945C26CE01019638
:101060000E948E24115001F76AEA71E0CE01CD96FC
:101070000E94632668E570E083E396E00E947F0BA0
:1010800068E070E083E396E00E943D0170E060E07C
:1010900083E396E00E943D0183E396E00E94FD0B0E
:1010A00040E168E583E396E00E94F70B10E183E3FB
:1010B00096E00E94F20A082F803130F468EA71E06D
:1010C000CE01CD960E94632640E1602FCE010196AD
:1010D0000E941F25BE016F5F7F4FCE01CD960E94FB
:1010E0005C26CE0101960E948E24115001F760E02B
:1010F00082E10E94262864E085ED96E00E944E1071
:10110000811108C062E571E08BEC99E00E940C242B
:101110001092060181E090E09093200680931F06D4
:1011200060911F0670912006683C710578F54AE0D1
:10113000CE014C960E947825BE01645E7F4FCE01A1
:1011400001960E94E8256BE671E0CE0101960E94AF
:101150008526BC0181E296E00E94D125CE01019650
:101160000E948E24CE014C960E948E24609121060E
:101170007091220685ED96E00E94F911882331F0E6
:1011800080911F06909120060196C6CF60911F06A0
:1011900070912006615071097093200660931F06BC
:1011A0004AE0CE014C960E947825BE01645E7F4FD6
:1011B000CE0101960E94E8256BE671E0CE01019612
:1011C0000E948526BC0181E296E00E94D125CE01D5
:1011D00001960E948E24CE014C960E948E2415E02A
:1011E00060E570E080E090E00E943C2761E08DE0E7
:1011F0000E94EA2761E08DE00E94262860E570E009
:1012000080E090E00E943C2760E08DE00E9426286C
:10121000115031F761E08DE00E94262840912106AF
:101220005091220623E165ED76E0CE014C960E94B6
:101230006E11CE014C960E94F20E6B017C0164ECA3
:1012400071E08BEC99E00E94E7232AE030E0B701DF
:10125000A6018BEC99E00E947C2489E6C81680E206
:10126000D80689E5E806F10408F45BC0CE014C9687
:101270000E94300F60911F06709120066F5F7F4FB4
:101280007093200660931F064AE0CE01C7960E9425
:101290007825BE01695C7F4FCE0101960E94E8254A
:1012A0006BE671E0CE0101960E948526BC0181E2C9
:1012B00096E00E94D125CE0101960E948E24CE0197
:1012C000C7960E948E24409121065091220623E168
:1012D00065ED76E0CE0101960E946E118B819C81B6
:1012E0009F8F8E8F8D819E81AF81B88588A399A3B2
:1012F000AAA3BBA389859A85AB85BC858CA39DA336
:10130000AEA3BFA3DE011D96FE01B896CE01C59621
:101310002D912193E817F907D9F78A8D9B8D9EAB04
:101320008DAB60E771E08BEC99E00E94E72361E20E
:1013300076E08BEC99E00E94FA23CE014C960E9455
:10134000420F882309F471C0BE01635C7F4FCE0158
:101350004C960E94FA23CE014C960E94300FBE019B
:10136000635C7F4F8BEC99E00E94FA2361E082E19D
:101370000E94262861E084E10E94EA2760E084E17F
:101380000E94262815E060E570E080E090E00E9471
:101390003C2761E08EE00E94EA2761E08EE00E9437
:1013A000262860E570E080E090E00E943C2760E045
:1013B0008EE00E942628115031F760E08CE00E94F8
:1013C000262860E08DE00E94262861E082E00E94ED
:1013D000EA2760E082E00E942628F89410928000BC
:1013E0008DE08093810087E998E99093890080934C
:1013F0008800109285001092840082E080936F0034
:101400007894CE01CD960E948E24CE5BDF4F0FB62E
:10141000F894DEBF0FBECDBFDF91CF911F910F912A
:10142000FF90EF90DF90CF90089561E671E08BEC34
:1014300099E00E940C241092060191CFCDE1D2E0F8
:10144000199286E0CD31D807D9F761E087E10E9493
:10145000262860E086E10E94262890E080E00E9435
:10146000440161E086E10E94262810921702109242
:101470001602189993C0809117028230D0F310920F
:1014800017028BE10E945428682F8DE00E942628C5
:101490008BE10E945428892B09F453C061E570E068
:1014A00083E396E00E947F0B68E270E083E396E0BE
:1014B0000E943D0165E070E083E396E00E943D01FB
:1014C00083E396E00E94FD0B68EB7BE080E090E018
:1014D0000E943C2708EC10E08AEF90E00E947527FC
:1014E00061E08FE00E94EA2761E08FE00E942628F9
:1014F0008AEF90E00E94752761E08FE00E94EA2762
:1015000060E08FE00E9426280150110929F76AE661
:1015100070E083E396E00E947F0B68E183E396E04E
:101520000E94150B6AE083E396E00E94150B83E3AB
:1015300096E00E94FD0B60E177E280E090E00E947F
:101540003C2761E086E10E94262860E087E10E9456
:1015500026280E944502EDE1F2E01192CE17DF0746
:10156000E1F7809116028C3020F0109216020E9452
:101570002F0461E087E10E94262860E086E10E9456
:10158000262890E080E00E94440161E086E10E940C
:10159000262810928500109284006BCF60E086E1CF
:1015A0000E94262890E080E00E94440126E0969563
:1015B00087952A95E1F7FC01E35EFD4F80818F3F1F
:1015C00011F08F5F808361E086E10E94262851CF71
:1015D00090E080E008958091630690916406891BF5
:1015E000990B089590916406809163062FEF3FEF69
:1015F000981748F4E92FF0E0EB59F94F208130E0DB
:101600009F5F90936406C9010895E09164068091FC
:101610006306E81730F4F0E0EB59F94F808190E071
:1016200008958FEF9FEF08950895CF93DF931F9252
:10163000CDB7DEB7698320913F062223F9F02091D0
:101640004006203258F021E030E0FC013383228351
:1016500090E080E00F90DF91CF9108958091410656
:10166000E82FF0E0EE5BF94F998190838F5F8093D4
:1016700041068093400681E090E0ECCF61E0CE012E
:1016800001960E94B40CF7CFCF92DF92EF92FF92B7
:101690000F931F93CF93DF937C01CB018A0120919D
:1016A0003F06222389F0EB016B01C40ED51ECC1539
:1016B000DD0569F06991D701ED91FC910190F08110
:1016C000E02DC7010995F3CF642F0E94B40CC80127
:1016D000DF91CF911F910F91FF90EF90DF90CF900E
:1016E0000895CB01BA010C94110C81E080933F0660
:1016F00060936206109241061092400608950C9481
:10170000750B0F93062F21E04091400662E476E0CE
:10171000809162060E94640C10924106109240066D
:1017200010923F060F9108954F925F926F927F92B1
:10173000AF92BF92CF92EF92FF920F931F93CF93EE
:10174000DF935C01F62ED42F28013901EE2019F128
:101750000E94750BCE2DC43008F0C3E0C150B8F024
:1017600028E0C29FC0011124A301920104C0569534
:101770004795379527958A95D2F7B901D501ED910F
:10178000FC910190F081E02DC5010995E7CF60E063
:10179000C5010E94810B4D2FD13208F040E22C2D63
:1017A00065E676E08F2D0E94240C109264068093EB
:1017B0006306DF91CF911F910F91FF90EF90CF9033
:1017C000BF90AF907F906F905F904F900895CF92B1
:1017D000EF920F931F93C22EE12C00E010E09801CE
:1017E0000E94940B1F910F91EF90CF90089521E0EC
:1017F0000C94E70B21E00C94E70B61E00C94810B57
:10180000E3E3F6E01382128288EE93E0A0E0B0E01A
:1018100084839583A683B78383ED91E0918380834E
:1018200008959B01AC0160E072E18AE790E00E94BC
:10183000E6292051310941095109569547953795B7
:1018400027952093B80008954132E0F59091D40691
:101850009111FCCF91E09093D4062093D2062FEF04
:10186000209385067093CC066093CB061092CA062F
:10187000240F2093C9069093D3069091D306880F26
:10188000892B8093D3068091D1068130C9F41092C0
:10189000D1068091D3068093BB008091BC0083FD6C
:1018A000F8CF85EC8093BC008091D4068130E1F3C1
:1018B0008091CA06841710F44091CA06842F0895B7
:1018C00085EEF0CF40E0FACF0F93413208F044C0EC
:1018D0009091D4069111FCCF92E09093D40600939E
:1018E000D2069FEF909385067093CC066093CB064B
:1018F0001092CA064093C9061092D3069091D3065F
:10190000880F892B8093D3068091D106813011F501
:101910001092D1068091D3068093BB008091BC00C9
:1019200083FDF8CF85EC8093BC00222321F08091C9
:10193000D4068230D1F3809185068F3F79F0809173
:101940008506803269F080918506803359F084E005
:101950000F91089585EEE7CF81E0FACF80E0F8CFD0
:1019600082E0F6CF83E0F4CF2091A706260F33273D
:10197000331F21323105ECF42091D406FC0190E0B4
:1019800080E0243069F082E00895A091A7062191BB
:10199000AC014755594FA40FB52FB11D2C9301969B
:1019A000861798F38091A706680F6093A70680E0DA
:1019B000089581E0089585ED8093BC008091BC007E
:1019C00084FDFCCF1092D406089585EC8093BC0072
:1019D0001092D40608951F920F920FB60F92112401
:1019E0000BB60F922F933F934F935F936F937F9319
:1019F0008F939F93AF93BF93EF93FF938091B90021
:101A0000887F803609F44EC008F041C0883209F45E
:101A1000AAC028F5803109F49EC0C8F4882309F4CF
:101A200007C1883009F497C0FF91EF91BF91AF9142
:101A30009F918F917F916F915F914F913F912F91E6
:101A40000F900BBE0F900FBE0F901F90189588310E
:101A500009F489C0803241F78093850615C080342F
:101A600009F4A6C048F48033B9F38833E9F68093CB
:101A700085060E94E50CD8CF803509F489C08835E9
:101A800009F49EC0883481F60E94DB0CCDCF8839E2
:101A900009F494C038F5883729F050F4883611F0ED
:101AA000803711F683E08093D4061092860657C0E3
:101AB000883809F483C0803919F0803809F0B4CF30
:101AC00080918606803208F079C0E091860681E038
:101AD0008E0F809386068091BB00F0E0E957F94FA6
:101AE00080833DC0803B39F0E0F4803A09F485C042
:101AF000883A09F099CF84E08093D4061092A80622
:101B00001092A706E091CF06F091D006099580913A
:101B1000A70681110FC081E08093A7061092A90645
:101B200009C0803C09F482C0883C09F47FC0883B2E
:101B300009F07ACFE091A80681E08E0F8093A80685
:101B4000F0E0E755F94F80818093BB009091A806A3
:101B50008091A70631C08091D3068093BB0085ECAD
:101B60008093BC0061CF9091CA068091C9069817F6
:101B7000B8F58091CB069091CC06E091CA0621E0A1
:101B80002E0F2093CA06E80FF92FF11D8081E5CFB3
:101B90002091CB063091CC06E091CA0681E08E0FF1
:101BA0008093CA068091BB00E20FF32FF11D808362
:101BB0009091CA068091C906981788F285E8D0CF1F
:101BC0002091CB063091CC06E091CA0681E08E0FC1
:101BD0008093CA068091BB00E20FF32FF11D808332
:101BE0008091D206811150CF81E08093D10684EAA2
:101BF0008093BC001092D40617CF0E94E50C809110
:101C00008606803230F4E0918606F0E0E957F94F1D
:101C100010826091860670E0E091CD06F091CE06CC
:101C200087E896E0099510928606FECE85ECE0CF17
:101C30001092850629CFCF93DF931F92CDB7DEB7E1
:101C40006983DC01ED91FC910280F381E02D41E09C
:101C500050E0BE016F5F7F4F09950F90DF91CF91EC
:101C60000895CF93DF93EC01E98DFA8D309749F415
:101C700081E090E09B838A8390E080E0DF91CF91C8
:101C8000089513821282898D9A8D0E94A61AE98D79
:101C9000FA8D22813381232B59F7F0CFFC01818DFE
:101CA000928D009711F00C9435180895CF93DF931F
:101CB0001F92CDB7DEB741E050E0BE016F5F7F4FAE
:101CC0000E945916019731F4898190E00F90DF91BD
:101CD000CF9108958FEF9FEFF9CFFC01818D928D09
:101CE000009711F00C94560E8FEF9FEF08950F930D
:101CF0001F93CF93DF93EC01898D9A8D10E000E064
:101D0000009799F00E94560E8C010F3F100769F062
:101D1000898D9A8DFC014285538564857585415076
:101D20005109610971090E94A117C801DF91CF9182
:101D30001F910F910895EF92FF920F931F93CF93EE
:101D4000DF93EC017B018A011B821A8288EE93E00B
:101D5000A0E0B0E08C839D83AE83BF8385EE91E0ED
:101D6000998388838DE190E00E94492A9A8F898F18
:101D7000009779F02DE1F701DC0101900D922A9591
:101D8000E1F74CE050E0B801CE010C960E94772CB0
:101D9000188EDF91CF911F910F91FF90EF900895D2
:101DA000FC011382128288EE93E0A0E0B0E084830D
:101DB0009583A683B78385EE91E091838083128E0D
:101DC000118E14860895DC015996ED91FC9130979F
:101DD00029F0628573858485958508956FEF7FEF7F
:101DE000CB010895DC015996ED91FC91309729F0D3
:101DF0006389748985899689089560E070E0CB01D4
:101E00000895CF92DF92EF92FF92CF93DF93FC0180
:101E1000218D328D232B09F1EC010E94F20E6B0112
:101E20007C01CE010E94E30EA7019601261B370B11
:101E3000480B590BDA01C901811530E89307A10558
:101E4000B10520F08FEF9FE7A0E0B0E0DF91CF91E8
:101E5000FF90EF90DF90CF90089590E080E0F6CF74
:101E6000CF93DF93EC01898D9A8D009741F00E940A
:101E70007E18898D9A8D0E94E52A1A8E198EDF911F
:101E8000CF910895DC015996ED91FC91309721F0A6
:101E900081E09581911101C080E008951F93CF9357
:101EA000DF93CDB7DEB76D970FB6F894DEBF0FBEE8
:101EB000CDBFAB011C821B8229EF31E03A8329831D
:101EC0001E8221E0BC01CE0101960E94B91911E0E9
:101ED00081110CC010E0812F6D960FB6F894DEBF13
:101EE0000FBECDBFDF91CF911F910895CE01019616
:101EF0000E947E18F0CFEF92FF920F931F93CF9323
:101F0000DF937B01DB012D913C91FC01E20FF31F7C
:101F100060816F3211F42F5F3F4F8C01020F131F4E
:101F2000EA01F0E0E0E0D8017D918D017F3249F0D7
:101F3000772339F02F5F3F4F31967993EC30F105DD
:101F400091F7E40FF51F1082FC01E20FF31F4081AF
:101F50004F3211F42F5F3F4FF70131832083280F59
:101F6000391F81E0D9019C91911101C080E0DF917E
:101F7000CF911F910F91FF90EF9008954F925F9234
:101F80006F927F928F929F92AF92BF92CF92DF9289
:101F9000EF92FF920F931F93CF93DF93CDB7DEB7EE
:101FA000C954D1090FB6F894DEBF0FBECDBF5C0196
:101FB0006B013A01490119A218A289EF91E09F8FA4
:101FC0008E8F1BA21C821B829A8389831E822A9673
:101FD0001FAE1EAE2A978B017E018EE1E80EF11C2A
:101FE00044244394AE01455C5F4FBE01685B7F4F64
:101FF000C5010E947B0F582E482F44259401BE0135
:10200000655C7F4FC801F3010995811120C00C1553
:102010001D05C9F480E0C75BDF4F0FB6F894DEBF43
:102020000FBECDBFDF91CF911F910F91FF90EF9029
:10203000DF90CF90BF90AF909F908F907F906F90E8
:102040005F904F900895C8010E947E18E3CF5520FD
:1020500091F021E0AE01455C5F4FB801C7010E94DD
:10206000B919582E0C151D0571F0C8010E947E1873
:1020700051100EC0CFCF0C151D0519F0C8010E94DC
:102080007E1881E0C8CF882329F28E010F5F1F4F91
:10209000902F812F8701E92EF82EA4CF0F931F9345
:1020A000CF93DF93EC01162F8FA5882321F0CE016B
:1020B0008A960E947E18412F61E0CE010E941B1378
:1020C000811102C090E012C08E01045F1F4F41E0F9
:1020D000BE01C8010E94E01F882371F0B801CE0143
:1020E0008A960E94091691E0882361F3892FDF9177
:1020F000CF911F910F91089540E0BE01C8010E9449
:10210000E01F8823F9F2EACFFC01DB0112968D91E2
:102110009C9113979383828389EF91E091838083CD
:1021200014968C911497848315968C9115978583BA
:1021300016964D915D916D917C91199746835783C9
:10214000608771871A964D915D916D917C911D9775
:1021500042875387648775871E964D915D916D9177
:102160007C91519746875787608B718B52968C91E3
:102170005297828B53964D915D916D917C915697BC
:10218000438B548B658B768B57964D915D916D91FA
:102190007C915A97478B508F618F728F5B968D9190
:1021A0009C91948F838F08954F925F926F927F924C
:1021B0008F929F92AF92BF92CF92DF92EF92FF9257
:1021C0000F931F93CF93DF93CDB7DEB7C754D109D9
:1021D0000FB6F894DEBF0FBECDBF5C014A013901D6
:1021E000665D7F4F7E018EE1E80EF11CC7010E9403
:1021F00084101C821B8289EF91E09A8389831E825E
:102200008401FE0131966F015E2C4F2C6FE270E06D
:10221000C8010E94652C009709F455C0F80120817F
:102220002F3219F40F5F1F4FF1CF801B8D3008F054
:102230008CE0E82EF12CA701B801CE01CB960E94CC
:10224000772CEBE3F0E0EC0FFD1FEE0DFF1D10828D
:10225000C6010E947E1821E0AE01455C5F4F652DEE
:10226000742DC6010E94B919811121C0F501138294
:10227000128289EF91E0918380831582C501C95B49
:10228000DF4F0FB6F894DEBF0FBECDBFDF91CF9109
:102290001F910F91FF90EF90DF90CF90BF90AF9084
:1022A0009F908F907F906F905F904F9008950E0D4C
:1022B0001F1D852D942D0E947E18C2015C2C4D2C73
:1022C000C92ED82EA3CF08191909F3011183008351
:1022D000652D742DC5010E948410D0CFAF92BF929E
:1022E000CF92DF92FF920F931F93CF93DF93CDB7DF
:1022F000DEB7C955D1090FB6F894DEBF0FBECDBF0A
:102300006C015B018A01F22E9E01285A3F4FCE01DB
:10231000CB960E94D4106A968EAD9FAD6A97080F37
:10232000191FF8018081811110C0BE01655C7F4FCB
:10233000CE0101960E94841043EF51E0BE016F5F11
:102340007F4FC6010E949B0E0FC019A218A289EFF1
:1023500091E09F8F8E8F1BA221968FAD21978111C7
:1023600015C0C6010E94D00EC601C75ADF4F0FB676
:10237000F894DEBF0FBECDBFDF91CF911F910F91BB
:10238000FF90DF90CF90BF90AF9008958250823041
:10239000F8F4B501665D7F4F2F2DA801CE014E9652
:1023A0000E94B9198823E9F28F2D867041F049A95E
:1023B0005AA96BA97CA9CE014E960E94A117BE0115
:1023C000625E7F4FCE0101960E948410A801B6CFB5
:1023D0002F2DA801BE01655C7F4FCE014E960E9455
:1023E000B919882309F4BDCFCE01CB960E947E187F
:1023F000DBCFFB01BC01665D7F4F30E020E04EE4A7
:102400005FE0CF010C94BE0FE5EDF6E01582168279
:102410001186138682E090E0A0E0B0E08487958783
:10242000A687B78713A215A614A689EF91E093A7F4
:1024300082A717A608959FB7F89420912C09809140
:102440002A09213019F48DBB9FBF08958FBF0895CD
:1024500020912C09222381F03FB7F89420912C0978
:10246000213069F42DB320932A094DB320912B0913
:10247000209524232DBB3FBF8CBD9DBD0895309377
:102480002A09FACF8EBD00000DB407FEFDCF8EB530
:1024900008958FEF0C94421261E0FC0184810E9448
:1024A000262880911E07882339F010921E078091FC
:1024B0002C0981110C941B120895CF93DF93EC012A
:1024C00080911E07811109C081E080931E078091D1
:1024D0001F07909120070E94281260E08C81DF91F5
:1024E000CF910C942628CF93DF93EC018E81882323
:1024F00089F08F8198859C012F5F3F4F38872F830C
:102500008230924018F40E944912F3CFCE010E940B
:102510004C121E82DF91CF910895673028F026E19A
:10252000FC01258380E00895623079F038F0643052
:10253000A9F090F06530A1F082E508C080E58093B5
:102540001F0781E080932007089580E580931F078F
:102550001092200781E0089581E5F1CF81E5F6CF63
:1025600082E5EDCF0F931F93CF93DF93EB010E9492
:102570000B278B010E9449128F3F69F00E940B27A5
:10258000601B710B6C177D07A8F380E0DF91CF9182
:102590001F910F91089581E0F9CF8F929F92AF9292
:1025A000BF92FF920F931F93CF93DF93EC01F62E10
:1025B00049015A010E947312CE010E945D126CE221
:1025C00071E0CE010E94B2128F2D80640E944212EF
:1025D00008E110E0D501C401002E04C0B695A7950E
:1025E000979587950A94D2F70E94421208501109D4
:1025F000083F8FEF180771F785E9FF2021F088E089
:10260000F8120DC087E80E94421210E00E944912A1
:102610008A8787FF06C01F3F21F01F5FF7CF8FEF2C
:10262000F2CFDF91CF911F910F91FF90BF90AF90AC
:102630009F908F9008958F929F92AF92BF92EF924A
:10264000FF920F931F93CF93DF93EC01E62E1B862F
:1026500019861E821D824C830E940B278B0161E02C
:102660008C810E94EA2761E08C810E9426280E94CA
:10267000002182E580931F0781E0809320078091ED
:102680001F07909120070E9428122AE0F22E8FEF58
:102690000E944212FA94F110FACF80912C09811114
:1026A0000E941B12CE010E945D1220E030E0A901C1
:1026B00060E0CE010E94CD12F82E8A8781E0F816E4
:1026C000C1F00E940B27601B710B613D774068F3DE
:1026D00081E08D83CE010E944C1280E0DF91CF918A
:1026E0001F910F91FF90EF90BF90AF909F908F90B0
:1026F00008952AEA31E040E050E068E0CE010E940F
:10270000CD1282FF25C0FB868B85812C912C540134
:10271000823029F4812C912CA12C80E4B82E20E069
:1027200030E0A90167E3CE010E94CD12A50194011A
:1027300069E2CE010E94CD128A878823C1F00E94EF
:102740000B27601B710B613D774048F388E0C1CFD8
:1027500094E0F92E0E9449128A87FA94F110FACF78
:102760008A3A11F082E0B5CF82E08B87CDCF8B859E
:102770008230C1F420E030E0A9016AE3CE010E947A
:10278000CD12882311F086E0A4CF0E944912807CEC
:10279000803C11F483E08B870E9449120E94491209
:1027A0000E944912CE010E944C126E2DCE01DF9183
:1027B000CF911F910F91FF90EF90BF90AF909F909E
:1027C0008F900C948D120F931F93CF93DF93EC0196
:1027D0000E940B278B010E9449128A878F3F91F438
:1027E0000E940B27601B710B6D327140A0F38FE0CC
:1027F0008D83CE010E944C1280E0DF91CF911F911A
:102800000F9108958E3F11F08DE0F2CF81E0F5CF6A
:10281000CF92DF92EF92FF920F931F93CF93DF93AC
:10282000EC016901C801820F931F8130924048F585
:102830008E81882371F088819981AA81BB81841758
:102840009507A607B70729F48F819885C816D9067A
:1028500070F5488359836A837B838B85833039F095
:1028600089E0440F551F661F771F8A95D1F79A019B
:10287000AB0161E1CE010E94CD12882379F083E0A3
:102880008D83CE010E944C1280E0DF91CF911F9189
:102890000F91FF90EF90DF90CF900895CE010E94AE
:1028A000E313882371F318861F8281E08E838F8162
:1028B00098858C159D0560F06701E00EF11EEC1403
:1028C000FD0471F00E944912F60181936F01F7CF68
:1028D0000E9449128F819885019698878F83E7CF50
:1028E0008F819885080F191F18870F838985882382
:1028F00019F00115124018F0CE010E94731281E008
:10290000C4CFEF92FF920F931F930115110539F079
:102910000E9408141F910F91FF90EF90089581E09D
:10292000F9CFEF92FF920F931F93790100E012E02D
:1029300030E020E00E9408141F910F91FF90EF906B
:102940000895EF92FF920F931F93CF93DF938C0123
:10295000862F7A010E944212E7018EEFF81A8991C0
:102960000E944212CE15DF05D1F78FEF0E9442126E
:102970008FEF0E9442120E944912F80182878F71E4
:10298000853069F081E18583C8010E944C1280E0A6
:10299000DF91CF911F910F91FF90EF90089581E00B
:1029A000F7CF0F931F93CF93DF93EC01890182E15F
:1029B000411551056105710599F08B85833039F01A
:1029C00089E0440F551F661F771F8A95D1F79A013A
:1029D000AB0168E1CE010E94CD12882339F084E07A
:1029E0008D83CE010E944C1280E023C0A8016EEFBF
:1029F000CE010E94A1148823A1F368E572E0CE0104
:102A00000E94B212811102C085E1EACF20E030E0DD
:102A1000A9016DE0CE010E94CD12882311F084E15E
:102A2000DFCF0E9449128111FACFCE010E944C12D1
:102A300081E0DF91CF911F910F910895EFE1F7E0D1
:102A400080E5808381E0818308950895CF93DF93AB
:102A5000EC019C012A5F3F4F41E050E060E070E0F4
:102A60008B8D9C8D0E947F1E8823A1F08F89988D6D
:102A7000A98DBA8D892B8A2B8B2B59F48E819F813E
:102A8000A885B9858F8B988FA98FBA8F8C81806824
:102A90008C8381E0DF91CF9108958F929F92AF92C6
:102AA000BF92CF92DF92EF92FF92CF93DF93EC0130
:102AB0000E94261581110CC080E0DF91CF91FF901C
:102AC000EF90DF90CF90BF90AF909F908F90089540
:102AD000EB8DFC8DCE80DF80E884F98482E0C81A1B
:102AE000D108E108F108858504C0CC0CDD1CEE1C82
:102AF000FF1C8A95D2F786859785A089B189C80E73
:102B0000D91EEA1EFB1E848146015701880E911CC6
:102B1000A11CB11C8C149D04AE04BF0461F081E0C3
:102B2000881A9108A108B108C501B4010E94CD1C02
:102B30008111F0CFC1CFEB8DFC8D258580E092E037
:102B4000A0E0B0E004C0880F991FAA1FBB1F2A9500
:102B5000D2F74B895C896D897E89840F951FA61FEA
:102B6000B71F8B8B9C8BAD8BBE8B81E0A6CFCF9399
:102B7000DF93EC01462F6E857F85888999890E94B5
:102B8000921C882351F08A8920E2829FC00111247F
:102B9000865D984FDF91CF91089590E080E0FACF65
:102BA000FB019B01255F3F4F40E241932E173F07FA
:102BB000E1F7DC0120E037E09D91492F992319F1DD
:102BC0009E3229F43A3059F028E03AE0F5CFE6E8B1
:102BD000F1E08491882329F031969813FACF80E0B0
:102BE00017C03217A8F05FED590F5E3588F48FE9F2
:102BF000890F8A3110F440EE490FFB01E20FF11DFD
:102C000040832F5FD9CF81E0FB019081903239F36F
:102C100008950F931F93CF93DF93FC012581222307
:102C200031F080E0DF91CF911F910F9108958B01DA
:102C3000EC01FB018789803139F582E08D831F8AA1
:102C4000188E198E1A8E808D918DB0E0A0E025E04F
:102C5000880F991FAA1FBB1F2A95D1F78B8B9C8BBE
:102C6000AD8BBE8B1C8F0B8F81E08C831E821F82ED
:102C7000188619861A861B861C861D861E861F8648
:102C8000188A198A1A8ACECF803259F683E08D834A
:102C9000428D538D648D758D4F8B588F698F7A8FD0
:102CA0009E012D5E3F4FC8010E94721D8111DACF37
:102CB000B8CF2F923F924F925F926F927F928F92F6
:102CC0009F92AF92BF92CF92DF92EF92FF920F93BB
:102CD0001F93CF93DF93EC015B012A018D8181115A
:102CE00015C08FEF9FEFDF91CF911F910F91FF9054
:102CF000EF90DF90CF90BF90AF909F908F907F909C
:102D00006F905F904F903F902F9008958C8180FF3F
:102D1000E8CF0B891C892D893E894A855B856C85A6
:102D20007D85C201B0E0A0E068017901C41AD50A2E
:102D3000E60AF70AC816D906EA06FB0618F42801BF
:102D4000441A550A42011E0126E0220E311C81144C
:102D5000910409F4B3C04A855B856C857D856A0161
:102D600081E0D8228B8D9C8D8A019B01E9E036950C
:102D7000279517950795EA95D1F7ED81E230E1F5B2
:102D8000FC01628D738D848D958D600F711F821F84
:102D9000931F612C22E0722E6C187D088614970414
:102DA00008F434012C8126FD04C06114F2E07F0692
:102DB00071F40091070110910801209109013091EF
:102DC0000A01061717072807390709F053C040E022
:102DD0000E94921C882309F484CFC601865D984F17
:102DE000D5019C01260D371DFC012E173F0709F464
:102DF00060C041914D93F9CFFC0174807A947022A8
:102E0000C114D10471F471100CC0452B462B472B13
:102E100039F58F89988DA98DBA8D8E839F83A88768
:102E2000B987EB8DFC8D6E817F8188859985625095
:102E3000710981099109258504C0660F771F881FD4
:102E4000991F2A95D2F70685178520893189600F49
:102E5000711F821F931F670D711D811D911D99CFD9
:102E60004E815F816885798591010E94F11C8111F5
:102E7000D8CF37CF750183019601AB01BC0180919A
:102E80002807909129070E948114882309F429CFEB
:102E9000A60CB71C8A859B85AC85BD85860D971DC4
:102EA000A11DB11D8A879B87AC87BD8786189708AF
:102EB0004ECF281B390BA20EB31EECCFC20113CF8D
:102EC000FF920F931F93CF93DF931F92CDB7DEB77F
:102ED000FC0125812230C8F08C0142855385648530
:102EE000758585E076956795579547958A95D1F7CD
:102EF000F42FFF70FF2E41E050E0BE016F5F7F4F67
:102F0000C8010E945916019719F090E080E012C0A4
:102F1000F80182859385A485B5854F96A11DB11DC5
:102F200082879387A487B587F0E2FF9EC0011124B2
:102F3000865D984F0F90DF91CF911F910F91FF9079
:102F400008958F929F92AF92BF92CF92DF92EF92AD
:102F5000FF920F931F93CF93DF93EC018D8181112B
:102F60000EC080E0DF91CF911F910F91FF90EF9005
:102F7000DF90CF90BF90AF909F908F9008950B8976
:102F80001C892D893E89041715072607370748F342
:102F90004A015B01823031F48A869B86AC86BD860D
:102FA00081E0E0CF81149104A104B10449F41E82B0
:102FB0001F82188619861A861B861C861D86F0CFEE
:102FC0000A851B852C853D85EB8DFC8D858590E0E4
:102FD0000996B901A8014150510961097109082EEA
:102FE00004C076956795579547950A94D2F7750171
:102FF0006401E1E0CE1AD108E108F10804C0F694BA
:10300000E794D794C7948A95D2F7C416D506E606F6
:10301000F70620F0012B022B032B11F58F89988DD9
:10302000A98DBA8D8E839F83A887B9878E010A5F89
:103030001F4FC114D104E104F10409F4ADCF4E8156
:103040005F816885798598018B8D9C8D0E94F11C2C
:1030500091E0C91AD108E108F1088111EACF81CFC6
:10306000C41AD50AE60AF70AE1CF0F931F93CF934C
:10307000DF93EC018D818823D9F18C8187FF32C0E9
:1030800061E0CE010E94B7158C01892B89F18D81F9
:10309000823048F48B899C89AD89BE89F801848F80
:1030A000958FA68FB78F8F89988DF801938F828F18
:1030B0008F89988DA98DBA8DB58BA48BE09121074E
:1030C000F0912207309759F0B8016A5E7F4FC8012E
:1030D00048960995F801808D918D938B828B8C8118
:1030E0008F778C83DF91CF911F910F910C94571C98
:1030F00080E0DF91CF911F910F910895CF93DF93DF
:10310000EC010E943518882311F01D8281E0DF91C7
:10311000CF9108954F925F926F927F928F929F927C
:10312000AF92BF92EF92FF920F931F93CF93DF93D3
:1031300000D000D0CDB7DEB7FC0185818130A1F091
:1031400080E00F900F900F900F90DF91CF911F9123
:103150000F91FF90EF90BF90AF909F908F907F90D6
:103160006F905F904F900895848181FFE9CF8389AC
:103170009489A589B68984179507A607B70700F330
:10318000892B8A2B8B2B09F477C04A015B017F01C5
:103190004284538464847584CF010E94A1178823DC
:1031A00079F2F701838D948D81149104A104B10407
:1031B00049F54789508D618D728D0E948A1F882341
:1031C00009F4BECFF701178A108E118E128EF70107
:1031D000838A948AA58AB68A848180688483C70199
:1031E0000E943518882309F4ABCFB501A401441619
:1031F00055066606770610F4B301A201C7010E94C6
:10320000A1179FCF46815781608571859E012F5FF1
:103210003F4F0E94F11C882309F492CFF701838D60
:10322000948D49815A816B817C81FC0127892031F1
:10323000F1F408EF1FEF20E030E04017510762077C
:10324000730728F60E948A1F882309F479CFF701B3
:1032500046815781608571850FEF1FEF2FEF3FE0AB
:10326000838D948D0E94DD1D8111B1CF69CF08EF50
:103270001FEF2FEF3FE0E1CF81E063CFCF92DF92EE
:10328000EF92FF921F93CF93DF93EC0180E2689F50
:10329000F0011124E65DF84F9385917161F0842F60
:1032A000827449F080E0DF91CF911F91FF90EF9001
:1032B000DF90CF900895142F6A8B80910701909131
:1032C0000801A0910901B0910A018E879F87A88B00
:1032D000B98BC488D588F12CE12C7601DD24CC246F
:1032E000CF8AD88EE98EFA8E828D938DB0E0A0E0E1
:1032F000AC01BD014C295D296E297F294F8B588F68
:10330000698F7A8F8385887129F5848D958DA68D37
:10331000B78D8B8B9C8BAD8BBE8B81E08D83812F8A
:103320008F708C831E821F82188619861A861B86D0
:103330001C861D8681E016FFB6CF40E050E0BA0142
:10334000CE01DF91CF911F91FF90EF90DF90CF9052
:103350000C948A18803109F0A5CF9E012D5E3F4F55
:103360008B8D9C8D0E94721D882309F49BCF84E075
:10337000D5CFBF92CF92DF92EF92FF920F931F9320
:10338000CF93DF93CDB7DEB72B970FB6F894DEBFA0
:103390000FBECDBFFC01358131110BC0C22E8B0198
:1033A0007C01BE016F5F7F4FCA010E94D015811161
:1033B00002C080E0A1C0F801838D948DF701948F45
:1033C000838FF80116821782108611861286138663
:1033D00014861586B12CF80182859385A485B58560
:1033E000438954896589768984179507A607B707A5
:1033F00088F525E0B695A795979587952A95D1F7F5
:10340000F82FFF70DF2EC8010E946017009789F225
:10341000FC012081222341F0253E09F059C0BB2048
:1034200029F0BB24B394D7CFB1100EC0F701D28AD4
:1034300040910701509108016091090170910A01C2
:1034400046875787608B718BFC0180818111E9CFA2
:10345000BB24B3948C2D8271823109F0AACFBB209A
:1034600009F45AC061E0C7010E94B7158C01892B8D
:1034700009F49FCF80E2F80111928A95E9F78BE079
:10348000FE013196D80101900D928A95E1F7E09105
:103490002107F0912207309709F44EC0B801625F0E
:1034A0007F4FC80140960995F80180899189938BD7
:1034B000828B918F808F86859785978B868B0E94D4
:1034C000571C882309F475CF4C2DF701628911C070
:1034D0004BE050E0BC01CE0101960E944F2C892B9D
:1034E00009F079CF8C2D80734C2D6D2D803309F42C
:1034F00060CFC7010E943E192B960FB6F894DEBF2D
:103500000FBECDBFDF91CF911F910F91FF90EF9034
:10351000DF90CF90BF900895F8018581823009F443
:1035200048CFC8010E944D15882309F442CFF70106
:10353000128A0AE217E09ECF81E298E2F801918BAD
:10354000808B80E098E097878687AECF2F923F925E
:103550004F925F926F927F928F929F92AF92BF92A3
:10356000CF92DF92EF92FF920F931F93CF93DF934F
:1035700000D000D0CDB7DEB78C016B011A01DC01A1
:1035800015968C911597813009F0C8C014968C91CE
:1035900081FFC4C082FDAEC04101D8011A964D9191
:1035A0005D916D917C911D978114910409F429C15D
:1035B0005B968D919C915C97FC0174802FEF270D99
:1035C0002A013B0139E076946794579447943A95E1
:1035D000D1F7722E74207A01F1E0FF22711020C021
:1035E000E114F104E9F416964D915D916D917C9191
:1035F0001997411551056105710509F098C0579655
:103600008D919D910D90BC91A02D0097A105B105C4
:1036100009F0AFC0C8010E942615882309F47EC0B6
:1036200080E092E08E199F0954018815990508F4ED
:103630005C01D8015B964D915C915C9716968D91DB
:103640009D910D90BC91A02D0297A109B109FA019D
:10365000258504C0880F991FAA1FBB1F2A95D2F782
:103660004685578560897189840F951FA61FB71FEE
:103670009C01AD01270D311D411D511D29013A014C
:10368000A11432E0B30609F07AC08091070190914D
:103690000801A0910901B0910A0184159505A605BC
:1036A000B70559F48FEF9FEFDC01809307019093EA
:1036B0000801A0930901B0930A019601B301A20188
:1036C00080912807909129070E94D114882331F115
:1036D0009EEFD91A8A189B08F80182859385A485E4
:1036E000B5858A0D9B1DA11DB11D82879387A48777
:1036F000B58753CFF80143895489658976898285D6
:103700009385A485B585481759076A077B0709F48F
:1037100043CFC8010E94A11781113ECF81E090E004
:10372000D80113969C938E93129780E007C09E0158
:103730002F5F3F4F0E94F11C811102C090E07BC0BF
:1037400089819A81AB81BC81F801238D348DF90187
:10375000278948EF5FEF60E070E0203121F048EF0B
:103760005FEF6FEF7FE084179507A607B70708F0B4
:1037700051CFF80186839783A087B18751CFE11499
:10378000F10491F5D8011A964D915D916D917C915E
:103790001D9753968D919D910D90BC91A02D48172A
:1037A00059076A077B0700F10E94571C882309F418
:1037B000B5CF4092070150920801609209017092C2
:1037C0000A01809127078160809327079701265D72
:1037D000384FD601C9018A0D9B1DF9018E179F072D
:1037E00059F04D914193FACF41E0C301B2010E94DB
:1037F000921C8111EBCF92CF821B930BC80ED91E66
:1038000069CF14968C9114975396CD90DD90ED90DE
:10381000FC905697C416D506E606F70618F5F8018B
:10382000438B548B658B768B80688483F80184810D
:1038300083FD25C0C1010F900F900F900F90DF9175
:10384000CF911F910F91FF90EF90DF90CF90BF909D
:10385000AF909F908F907F906F905F904F903F9030
:103860002F9008952091210730912207232BF1F208
:1038700021143104D9F2806814968C93D7CFC801F3
:103880000E943518882309F449CFD4CFCF93DF9312
:103890001F92CDB7DEB7698341E050E0BE016F5F94
:1038A0007F4F0E94A61A0F90DF91CF9108958091CB
:1038B00027078823A9F140910701509108016091E1
:1038C000090170910A012AE237E08091280790915E
:1038D00029070E94D114811102C080E0089540910F
:1038E0002307509124076091250770912607411501
:1038F00051056105710591F02AE237E080912807B2
:10390000909129070E94D114882339F3109223073C
:10391000109224071092250710922607109227076D
:1039200081E00895CF92DF92EF92FF92CF936B01E7
:103930007C01C42F8091070190910801A091090199
:10394000B0910A018C159D05AE05BF05F9F00E94E6
:10395000571C811107C080E0CF91FF90EF90DF905E
:10396000CF9008952AE237E0B701A6018091280799
:10397000909129070E949114882369F3C09207014E
:10398000D0920801E0920901F0920A0140912707C4
:103990004C2B4093270781E0DFCFCF92DF92EF924D
:1039A000FF926B017C010E94571C8823A9F0EAE278
:1039B000F7E0119289E0EA32F807D9F7C0920701DF
:1039C000D0920801E0920901F0920A018091270744
:1039D00081608093270781E0FF90EF90DF90CF9088
:1039E00008958F929F92AF92BF92CF92DF92EF9203
:1039F000FF920F931F93CF93DF93FC0181859285F4
:103A0000A385B4850196A11DB11D84179507A6074E
:103A1000B70770F480E0DF91CF911F910F91FF9075
:103A2000EF90DF90CF90BF90AF909F908F900895D0
:103A300083889488A588B6888789803189F5BB27D3
:103A4000A72F962F852FE9016A017B018F01BC0109
:103A5000CD01680D791D8A1D9B1D809007019090F6
:103A60000801A0900901B0900A0186169706A806E1
:103A7000B90601F5F8018789803111F5DD24EE24BE
:103A8000FF24F601EE0FFF1FE65DF84F8081918164
:103A9000B0E0A0E088839983AA83BB8381E0BBCF99
:103AA000DB01CA01C7E0B695A79597958795CA959A
:103AB000D1F7C9CF40E00E94921C8111DBCFAACF81
:103AC000E894C7F8DD24EE24FF24F601EE0FFF1F73
:103AD000EE0FFF1FE65DF84F80819181A281B381D7
:103AE000BF70D8CF4F925F926F927F92AF92BF928A
:103AF000CF92DF92EF92FF920F931F93CF93DF93BA
:103B000000D000D0CDB7DEB78C0149835A836B83D8
:103B10007C835901C12CD12C7601412C82E0582E96
:103B2000612C712C49815A816B817C819E012F5FB0
:103B30003F4FC8010E94F11C882339F1F8018585A7
:103B4000A301920104C0220F331F441F551F8A9501
:103B5000D2F7DA01C901C80ED91EEA1EFB1E49813F
:103B60005A816B817C818789803111F188EF9FEFC9
:103B7000AFEFBFE0481759076A077B0798F2F501D6
:103B8000C082D182E282F38281E00F900F900F9089
:103B90000F90DF91CF911F910F91FF90EF90DF90E9
:103BA000CF90BF90AF907F906F905F904F900895AF
:103BB00088EF9FEFA0E0B0E0DDCF4F925F926F9271
:103BC0007F928F929F92AF92BF92CF92DF92EF92AD
:103BD000FF920F931F93CF93DF93EC014230510577
:103BE0006105710590F480E0DF91CF911F910F91F5
:103BF000FF90EF90DF90CF90BF90AF909F908F900D
:103C00007F906F905F904F90089589859A85AB85DE
:103C1000BC850196A11DB11D84179507A607B7079E
:103C200010F3CB88DC88ED88FE888F89803109F01D
:103C300042C0BB27A72F962F852F480159012A0183
:103C40003B01C80ED91EEA1EFB1E80910701909110
:103C50000801A0910901B0910A01C816D906EA0627
:103C6000FB0699F58F898031C1F5B301A201552773
:103C700066277727440F551F465D584FFA019182FA
:103C80008082809127078160809327078A8982300C
:103C900080F08D819E81AF81B8858C0D9D1DAE1DFC
:103CA000BF1D8093230790932407A0932507B0930B
:103CB000260781E099CFDB01CA01E7E0B695A79519
:103CC00097958795EA95D1F7B8CF40E0C701B6013F
:103CD0000E94921C8111C6CF86CFB301A2014F77FB
:103CE000552766277727440F551F440F551F465DFC
:103CF000584FFA0180829182A282B382C2CF2F9262
:103D00003F924F925F926F927F928F929F92AF926B
:103D1000BF92CF92DF92EF92FF920F931F93CF93B8
:103D2000DF93CDB7DEB72F970FB6F894DEBF0FBE87
:103D3000CDBF3C01488759876A877B873F832E83A5
:103D4000D901CD90DD90ED90FC90C114D104E10437
:103D5000F10439F0BFEFCB1ADB0AEB0AFB0A1D8234
:103D600010C0FC01C080D180E280F380F1E0FD83CF
:103D7000088519852A853B85013011052105310506
:103D800071F7F30181859285A385B4858C019D012E
:103D90000F5F1F4F2F4F3F4F0C871D872E873F8789
:103DA00046015701212C312C2101F3018185928597
:103DB000A385B485281639064A065B0608F044C078
:103DC0000C851D852E853F85081519052A053B059F
:103DD00050F482E0882E912CA12CB12C92E0C92EB7
:103DE000D12CE12CF12C9E012F5F3F4FB501A40196
:103DF000C3010E94F11C882339F1D501C401019649
:103E0000A11DB11D49815A816B817C81452B462BB7
:103E1000472BA9F5AC01BD014C195D096E097F095D
:103E2000088519852A853B85401751076207730766
:103E300041F50FEF1FEF2FEF3FE0B501A401C301E4
:103E40000E94DD1D811125C01D828D812F960FB628
:103E5000F894DEBF0FBECDBFDF91CF911F910F91C0
:103E6000FF90EF90DF90CF90BF90AF909F908F909A
:103E70007F906F905F904F903F902F9008956C01CE
:103E80007D011FEF211A310A410A510A4C015D01DF
:103E90008CCFC814D904EA04FB0488F4140125016A
:103EA00021E0221A31084108510895018401B2012C
:103EB000A101C3010E94DD1D52014101C3CFAE81AA
:103EC000BF814D915D916D917C91411551056105C9
:103ED000710561F4EE81FF81C082D182E282F382BA
:103EE000FD81F1110BC001E00D83AFCF9701860179
:103EF000C3010E94DD1D8111EDCFA6CF1FEFC11AB6
:103F0000D10AE10AF10AD301CD92DD92ED92FC9241
:103F100013979BCFAF92BF92CF92DF92EF92FF9217
:103F20000F931F93CF93DF9300D000D0CDB7DEB7B0
:103F30005C016A017B0182E090E0A0E0B0E0F50165
:103F400080839183A283B3839E012F5F3F4FB7018C
:103F5000A601C5010E94F11C882381F100E010E058
:103F60009801B701A601C5010E94DD1D882331F12A
:103F7000C980DA80EB80FC80F50187898031C9F047
:103F800088EF9FEFAFEFBFE0C816D906EA06FB0641
:103F9000D8F281E00F900F900F900F90DF91CF91AA
:103FA0001F910F91FF90EF90DF90CF90BF90AF9057
:103FB000089588EF9FEFA0E0B0E0E6CF80E0EACF81
:103FC0008F929F92AF92BF92CF92DF92EF92FF9229
:103FD0000F931F93CF93DF93EC01142F7093290756
:103FE00060932807442309F478C0453070F080E0DE
:103FF000DF91CF911F910F91FF90EF90DF90CF90C5
:10400000BF90AF909F908F90089540E060E070E087
:10401000CB010E94921C882351F3812F8150990B70
:10402000AC0164E0440F551F6A95E1F7465D584FB7
:10403000FA01E254FE4F80818F77C9F63C96808169
:104040009181A281B38184369105A105B10578F2F1
:104050004A535E4FFA01C080D180E280F380C114E0
:10406000D104E104F10419F240E0C701B6010E9455
:10407000921C882309F4BBCF8091350790913607B5
:104080008115924009F0B3CF90913A07992309F432
:10409000AECF2091380730913907232B09F4A7CFF1
:1040A00080913707882309F4A2CF9A8B8C831D86D1
:1040B00090E041E050E02D85E22FBA01022E02C0CF
:1040C000660F771F0A94E2F78617970751F031E0E1
:1040D000320F3D87283078F38ACFC12CD12C76015E
:1040E000C3CF209140073091410750E040E02115B7
:1040F000310541F420914E0730914F074091500710
:10410000509151072D833E834F8358878091380704
:104110009091390746015701880E991EA11CB11CC8
:104120008B8A9C8AAD8ABE8A00913B0710913C071E
:10413000198F088FA0913A07B0E00E94112ADC0184
:10414000CB01880D991DAA1DBB1D8A8F9B8FAC8F3B
:10415000BD8F25E0000F111F2A95E1F701501E4F7A
:10416000012F11270695800F911FA11DB11D8E876C
:104170009F87A88BB98B00913D0710913E0730E0D7
:1041800020E00115110541F400914A0710914B07F9
:1041900020914C0730914D07C81AD90AEA0AFB0A48
:1041A000C00ED11EE21EF31E04C0F694E794D7940D
:1041B000C794EA95D2F7C986DA86EB86FC868CE04E
:1041C00025EFC2162FE0D206E104F10440F085EF9E
:1041D000C8168FEFD806E104F10420F480E18F8B3C
:1041E00081E006CF8091560790915707A09158071C
:1041F000B09159078A8F9B8FAC8FBD8F80E2EFCF34
:10420000CF93CFB7F89480912D09811127C0EAEDA3
:10421000F1E08491EAEBF1E09491E82FF0E0EE0F09
:10422000FF1FE65FFD4FA591B491EC91E92321F4C6
:1042300061E084E00E94262861E084E00E94EA2791
:104240008CB580618CBD8CB580648CBD61E087E0ED
:104250000E94EA2761E085E00E94EA2780912D090B
:104260008F5F80932D09CFBFCF910895FC01918D71
:10427000228D892F90E0805C9F4F821B91098F7364
:1042800099270895FC01918D828D981731F0828DC8
:10429000E80FF11D858D90E008958FEF9FEF089551
:1042A000FC01918D828D981761F0A28DAE0FBF2F0A
:1042B000B11D5D968C91928D9F5F9F73928F90E060
:1042C00008958FEF9FEF0895FC01538D448D252FA6
:1042D00030E0842F90E0821B930B541710F0CF96A0
:1042E0000895019708958FEC92E2892B49F080E0C0
:1042F00090E0892B29F00E94CF2281110E940000BA
:1043000086E693E2892B49F080E090E0892B29F042
:104310000E94662381110C9400000895FC01A48D75
:10432000A80FB92FB11DA35ABF4F2C91848D90E0D7
:1043300001968F739927848FA689B7892C93A089BA
:10434000B1898C91837080648C93938D848D981344
:1043500006C00288F389E02D80818F7D80830895D7
:10436000CF93DF93EC01888D8823B9F0AA89BB89AC
:10437000E889F9898C9185FD03C0808186FD0DC097
:104380000FB607FCF7CF8C9185FFF2CF808185FFB8
:10439000EDCFCE010E948E21E9CFDF91CF9108951C
:1043A000EF92FF920F931F93CF93DF93EC0181E085
:1043B000888F9B8D8C8D98131AC0E889F98980812C
:1043C00085FF15C09FB7F894EE89FF896083E8895F
:1043D000F98980818370806480839FBF81E090E051
:1043E000DF91CF911F910F91FF90EF900895F62EDE
:1043F0000B8D10E00F5F1F4F0F731127E02E8C8D78
:104400008E110CC00FB607FCFACFE889F9898081BC
:1044100085FFF5CFCE010E948E21F1CFEB8DEC0F01
:10442000FD2FF11DE35AFF4FF0829FB7F8940B8FD9
:10443000EA89FB8980818062CFCFCF92DF92EF92B1
:10444000FF921F93CF93DF93EC016A017B01122F40
:1044500060E874E88EE190E0A70196010E94E629E9
:1044600021503109410951095695479537952795AE
:10447000E889F98982E08083211580E1380798F086
:10448000E889F989108260E472E48FE090E0A70186
:1044900096010E94E629215031094109510956959A
:1044A000479537952795EC85FD853083EE85FF850B
:1044B0002083188EEC89FD891083EA89FB8980812D
:1044C00088698083EA89FB8980818F7D8083DF9181
:1044D000CF911F91FF90EF90DF90CF9008951F92A2
:1044E0000F920FB60F9211240BB60F922F938F934A
:1044F0009F93EF93FF93E0913E09F0913F098081F4
:10450000E0914409F091450982FD1DC090818091A0
:1045100047098F5F8F7320914809821741F0E0911E
:104520004709F0E0E25DF64F958F80934709FF91D0
:10453000EF919F918F912F910F900BBE0F900FBE17
:104540000F901F9018958081F2CF1F920F920FB697
:104550000F9211240BB60F922F933F934F935F93BB
:104560006F937F938F939F93AF93BF93EF93FF933B
:104570008EE299E00E948E21FF91EF91BF91AF9161
:104580009F918F917F916F915F914F913F912F916B
:104590000F900BBE0F900FBE0F901F9018958EE2DC
:1045A00099E00E94362121E0892B09F420E0822F36
:1045B0000895EEE2F9E01382128288EE93E0A0E023
:1045C000B0E084839583A683B78385E092E09183EE
:1045D000808385EC90E09587848784EC90E09787D2
:1045E000868780EC90E0918B808B81EC90E0938BC0
:1045F000828B82EC90E0958B848B86EC90E0978B9D
:10460000868B118E128E138E148E08951F920F9228
:104610000FB60F9211240BB60F922F938F939F9387
:10462000EF93FF93E091DB09F091DC098081E09149
:10463000E109F091E20982FD1DC090818091E409B9
:104640008F5F8F732091E509821741F0E091E409B3
:10465000F0E0E553F64F958F8093E409FF91EF91D9
:104660009F918F912F910F900BBE0F900FBE0F90C7
:104670001F9018958081F2CF1F920F920FB60F9264
:1046800011240BB60F922F933F934F935F936F9329
:104690007F938F939F93AF93BF93EF93FF938BEC95
:1046A00099E00E948E21FF91EF91BF91AF919F9170
:1046B0008F917F916F915F914F913F912F910F90CB
:1046C0000BBE0F900FBE0F901F9018958BEC99E0CA
:1046D0000E94362121E0892B09F420E0822F0895E1
:1046E000EBECF9E01382128288EE93E0A0E0B0E0F8
:1046F00084839583A683B78385E092E0918380834A
:104700008DEC90E0958784878CEC90E09787868786
:1047100088EC90E0918B808B89EC90E0938B828B7E
:104720008AEC90E0958B848B8EEC90E0978B868B57
:10473000118E128E138E148E0895AF92BF92CF9267
:10474000DF92EF92FF920F931F93CF93DF936C0151
:104750007B018B01040F151FEB015E01AE18BF0832
:10476000C017D10759F06991D601ED91FC910190E4
:10477000F081E02DC6010995892B79F7C501DF91FC
:10478000CF911F910F91FF90EF90DF90CF90BF904E
:10479000AF900895FB0101900020E9F73197AF0138
:1047A000461B570BDC01ED91FC910280F381E02D5B
:1047B0000994DB0114964D915C9115976D917C9154
:1047C000DC01ED91FC910280F381E02D09946115EB
:1047D000710511F00C94CA2390E080E00895DC018B
:1047E000ED91FC910190F081E02D099463E172E07C
:1047F0000C94CA230F931F93CF93DF93EC010E9475
:10480000D9238C01CE010E94F623800F911FDF91E6
:10481000CF911F910F9108950F931F93CF93DF9323
:104820008C01D0E0C0E06115710519F00E94CA2327
:10483000EC01C8010E94F6238C0F9D1FDF91CF91E0
:104840001F910F9108958F929F92AF92BF92EF9216
:10485000FF920F931F93CF93DF93CDB7DEB7A1974E
:104860000FB6F894DEBF0FBECDBF7C01FA01CB01BD
:1048700019A2223008F42AE08E010F5D1F4F822E0C
:10488000912CB12CA12CBF01A50194010E94E62915
:10489000F901CA016A300CF5605DD8016E938D0193
:1048A000232B242B252B79F790E080E0109721F023
:1048B000BD01C7010E94CA23A1960FB6F894DEBFBE
:1048C0000FBECDBFDF91CF911F910F91FF90EF9061
:1048D000BF90AF909F908F900895695CDECF2115B7
:1048E000310541F4DC01ED91FC910190F081E02D66
:1048F000642F09940C9423240F931F93CF93DF9379
:10490000EC010E946F248C01CE010E94F623800FDF
:10491000911FDF91CF911F910F910895FC0180812C
:104920009181009711F00C94E52A0895CF93DF93BD
:10493000EC0188819981009711F00E94E52A198283
:1049400018821D821C821B821A82DF91CF910895EA
:104950000F931F93CF93DF93EC018B016F5F7F4F1A
:10496000888199810E946E2B009751F099838883EA
:104970001B830A8381E0DF91CF911F910F910895EE
:1049800080E0F9CFCF93DF93EC0188819981892B67
:1049900049F08A819B818617970720F081E0DF919B
:1049A000CF910895CE010E94A8248823C1F38C8161
:1049B0009D81892B99F7E881F9811082EFCFEF92E1
:1049C000FF920F931F93CF93DF93EC017B018A013A
:1049D000BA010E94C22481110BC0CE010E9496240C
:1049E000CE01DF91CF911F910F91FF90EF9008952D
:1049F0001D830C83B701888199810E94702CF0CFB0
:104A0000FC011182108213821282158214826115B8
:104A1000710551F0FB0101900020E9F73197AF01DA
:104A2000461B570B0C94DF240895FB0101900020D6
:104A3000E9F73197AF01461B570B0C94DF240F9316
:104A40001F93CF93DF93CDB7DEB729970FB6F894B6
:104A5000DEBF0FBECDBF8C01862FF8011182108200
:104A6000138212821582148250E0BE016F5F7F4F65
:104A700090E00E94C92CBE016F5F7F4FC8010E9469
:104A8000152529960FB6F894DEBF0FBECDBFDF9176
:104A9000CF911F910F9108950F931F93CF93DF93A1
:104AA000CDB7DEB762970FB6F894DEBF0FBECDBFAD
:104AB0008C01CB01F80111821082138212821582BF
:104AC000148250E0BE016F5F7F4F0E94862CBE01B2
:104AD0006F5F7F4FC8010E94152562960FB6F8944C
:104AE000DEBF0FBECDBFDF91CF911F910F91089513
:104AF0000F931F93CF93DF93CDB7DEB761970FB6B8
:104B0000F894DEBF0FBECDBF8C01CB01F80111823E
:104B10001082138212821582148250E0BE016F5FF0
:104B20007F4F0E94C92CBE016F5F7F4FC8010E945A
:104B3000152561960FB6F894DEBF0FBECDBFDF918D
:104B4000CF911F910F9108950F931F93CF93DF93F0
:104B5000CDB7DEB7A1970FB6F894DEBF0FBECDBFBD
:104B60008C01CB01BA01F8011182108213821282EA
:104B70001582148230E0AE014F5F5F4F0E949C2C83
:104B8000BE016F5F7F4FC8010E941525A1960FB629
:104B9000F894DEBF0FBECDBFDF91CF911F910F9173
:104BA0000895CF93DF93EC01FB018617970749F037
:104BB000608171816115710541F0448155810E94C8
:104BC000DF24CE01DF91CF9108950E949624F9CF82
:104BD000FC011182108213821282158214820C94BD
:104BE000D125CF93DF93EC016115710531F00E945F
:104BF0001525CE01DF91CF9108950E949624F9CF1B
:104C0000EF92FF920F931F93CF93DF93CDB7DEB751
:104C1000A1970FB6F894DEBF0FBECDBF7C01CB01CC
:104C2000BA01F70111821082138212821582148256
:104C300042E0420F8E010F5F1F4F0E942B2ABC01E2
:104C4000C7010E94F125A1960FB6F894DEBF0FBEF2
:104C5000CDBFDF91CF911F910F91FF90EF900895FD
:104C6000EF92FF920F931F93CF93DF93611571051E
:104C700041F480E0DF91CF911F910F91FF90EF9071
:104C8000089541155105B1F07B01EC010C811D81A6
:104C9000040F151FB8010E94C224882351F32881F4
:104CA00039818C819D81B701820F931F0E94702CE6
:104CB0001D830C8381E0DECFFB014481558160813F
:104CC00071810C9430266115710551F0FB01019042
:104CD0000020E9F73197AF01461B570B0C943026A3
:104CE00080E00895CF93DF93EC01FB01448155816F
:104CF000608171810E943026811103C0CE010E9423
:104D00009624CE01DF91CF910895CF93DF93EC01EC
:104D10006115710539F4CE010E949624CE01DF9110
:104D2000CF910895FB0101900020E9F73197AF0181
:104D3000461B570B0E943026882369F3EFCFFC01F6
:104D4000248135816217730720F480819181009757
:104D500029F41092680A88E69AE00895860F971F52
:104D6000089508950E9480270E94B1260E947F0521
:104D7000C3E7D1E20E941E0A2097E1F30E9473214B
:104D8000F9CF1F920F920FB60F9211242F933F93DA
:104D90008F939F93AF93BF9380916E0A90916F0A08
:104DA000A091700AB091710A30916D0A26E0230F2C
:104DB0002D3768F129E8230F0396A11DB11D20931B
:104DC0006D0A80936E0A90936F0AA093700AB09355
:104DD000710A8091690A90916A0AA0916B0AB09158
:104DE0006C0A0196A11DB11D8093690A90936A0A0D
:104DF000A0936B0AB0936C0ABF91AF919F918F9172
:104E00003F912F910F900FBE0F901F901895029613
:104E1000A11DB11DD4CF2FB7F89460916E0A709187
:104E20006F0A8091700A9091710A2FBF08953FB761
:104E3000F8948091690A90916A0AA0916B0AB091E6
:104E40006C0A26B5A89B05C02F3F19F00196A11D3D
:104E5000B11D3FBFBA2FA92F982F8827BC01CD01C4
:104E6000620F711D811D911D43E0660F771F881F22
:104E7000991F4A95D1F708958F929F92AF92BF9252
:104E8000CF92DF92EF92FF926B017C010E94172775
:104E90004B015C01C114D104E104F104E9F00E946A
:104EA0007D280E941727681979098A099B09683E9D
:104EB00073408105910570F321E0C21AD108E10821
:104EC000F10888EE880E83E0981EA11CB11CC11465
:104ED000D104E104F10429F7FF90EF90DF90CF9027
:104EE000BF90AF909F908F90089500000000833096
:104EF000910528F0880F991F05970197F1F70895FC
:104F0000789484B5836084BD85B5836085BDEEE605
:104F1000F0E0808181608083E1E8F0E082E08083DE
:104F2000808181608083E0E8F0E08081816080831F
:104F3000E1EBF0E0808184608083E0EBF0E0808151
:104F400081608083E1E9F0E0808183608083E0E933
:104F5000F0E080818160808386E880937A001092FF
:104F6000C100089582508A3088F5E82FF0E0E554BA
:104F7000F84D0C94082AE327E727C527CB27E62717
:104F8000E627CF27D527D927DF27809180008F7785
:104F9000809380000895809180008F7DF9CF80916B
:104FA000B0008F778093B00008958091B0008F7D1E
:104FB000F9CF809190008F77809390000895809131
:104FC00090008F7DF9CF84B58F7784BD089584B527
:104FD0008F7DFBCFCF93DF9390E0FC01EA54FE4F2F
:104FE00024918A529E4FFC0184918823C9F090E05D
:104FF000880F991FFC01E65FFD4FA591B491FC015C
:10500000E050FE4FC591D49161110DC09FB7F89447
:105010008C91209582238C938881282328839FBF9D
:10502000DF91CF910895623051F49FB7F8943C918D
:10503000822F809583238C93E8812E2BEFCF8FB71F
:10504000F894EC912E2B2C938FBFEACF1F93CF9324
:10505000DF93282F30E0F901EA56FE4F8491F901E1
:10506000EA54FE4FD491F901EA52FE4FC491CC2389
:10507000A9F0162F81110E94B227EC2FF0E0EE0F5D
:10508000FF1FE050FE4FA591B4918FB7F894EC91BB
:10509000111108C0D095DE23DC938FBFDF91CF9133
:1050A0001F910895DE2BF8CFCF93DF93282F30E0A8
:1050B000F901EA56FE4F8491F901EA54FE4FD4916A
:1050C000F901EA52FE4FC491CC23A1F081110E9454
:1050D000B227EC2FF0E0EE0FFF1FEA50FE4FA59134
:1050E000B491EC91ED2381E090E009F480E0DF9150
:1050F000CF91089580E090E0FACF08955058BB27F3
:10510000AA270E9496280C943F290E94312938F042
:105110000E94382920F039F49F3F19F426F40C94AA
:105120002E290EF4E095E7FB0C942829E92F0E9424
:10513000502958F3BA17620773078407950720F0C0
:1051400079F4A6F50C9472290EF4E0950B2EBA2F83
:10515000A02D0B01B90190010C01CA01A00111247D
:10516000FF27591B99F0593F50F4503E68F11A1629
:10517000F040A22F232F342F4427585FF3CF4695BA
:1051800037952795A795F0405395C9F77EF41F16DC
:10519000BA0B620B730B840BBAF09150A1F0FF0FA6
:1051A000BB1F661F771F881FC2F70EC0BA0F621F92
:1051B000731F841F48F4879577956795B795F79582
:1051C0009E3F08F0B0CF9395880F08F09927EE0F17
:1051D000979587950895E89409C097FB3EF49095BC
:1051E0008095709561957F4F8F4F9F4F9923A9F0C0
:1051F000F92F96E9BB279395F6958795779567954F
:10520000B795F111F8CFFAF4BB0F11F460FF1BC092
:105210006F5F7F4F8F4F9F4F16C0882311F096E925
:1052200011C0772321F09EE8872F762F05C06623D3
:1052300071F096E8862F70E060E02AF09A95660F8C
:10524000771F881FDAF7880F9695879597F9089545
:1052500097F99F6780E870E060E008959FEF80EC29
:10526000089500240A9416161706180609060895CC
:1052700000240A9412161306140605060895092E32
:105280000394000C11F4882352F0BB0F40F4BF2BA1
:1052900011F460FF04C06F5F7F4F8F4F9F4F0895E1
:1052A00057FD9058440F551F59F05F3F71F04795D7
:1052B000880F97FB991F61F09F3F79F087950895BC
:1052C000121613061406551FF2CF4695F1DF08C0DB
:1052D000161617061806991FF1CF869571056105F8
:1052E00008940895E894BB2766277727CB0197F9A0
:1052F00008950E948C290C943F290E94312938F08E
:105300000E94382920F0952311F00C9428290C9440
:105310002E2911240C9473290E94502970F3959F13
:10532000C1F3950F50E0551F629FF001729FBB279C
:10533000F00DB11D639FAA27F00DB11DAA1F649F38
:105340006627B00DA11D661F829F2227B00DA11DEB
:10535000621F739FB00DA11D621F839FA00D611D71
:10536000221F749F3327A00D611D231F849F600D92
:10537000211D822F762F6A2F11249F5750409AF0BB
:10538000F1F088234AF0EE0FFF1FBB1F661F771F47
:10539000881F91505040A9F79E3F510580F00C9412
:1053A00028290C9473295F3FE4F3983ED4F3869543
:1053B00077956795B795F795E7959F5FC1F7FE2BB2
:1053C000880F911D9695879597F90895A1E21A2E59
:1053D000AA1BBB1BFD010DC0AA1FBB1FEE1FFF1F99
:1053E000A217B307E407F50720F0A21BB30BE40BE9
:1053F000F50B661F771F881F991F1A9469F7609530
:105400007095809590959B01AC01BD01CF010895E9
:10541000EE0FFF1F0024001C0BBE0790F691E02D3D
:1054200009940E941C2AA59F900DB49F900DA49FE3
:10543000800D911D11240895A29FB001B39FC0015A
:10544000A39F700D811D1124911DB29F700D811DB0
:105450001124911D0895EF920F931F93CF93DF9323
:10546000E80134E047FD34E1042E000C550B57FFF2
:1054700003C0519541955109E32E022F242FAE010F
:105480000E94EE2CCE01DF91CF911F910F91EF90F2
:1054900008950F931F93CF93DF938230910510F4FB
:1054A00082E090E0E091740AF091750A30E020E02B
:1054B000B0E0A0E0309799F42115310509F44AC015
:1054C000281B390B24303105D8F58A819B81611561
:1054D000710589F1FB0193838283FE0111C0408134
:1054E00051810281138148175907E0F04817590785
:1054F00099F4109761F012960C93129713961C93DF
:105500003296CF01DF91CF911F910F9108950093B3
:10551000740A1093750AF4CF2115310551F0421722
:10552000530738F0A901DB019A01BD01DF01F80141
:10553000C1CFEF01F9CF9093750A8093740ACDCF54
:10554000FE01E20FF31F81939193225031093983B9
:105550002883D7CF2091720A3091730A232B41F40C
:1055600020910201309103013093730A2093720A53
:1055700020910001309101012115310541F42DB731
:105580003EB74091040150910501241B350BE09179
:10559000720AF091730AE217F307A0F42E1B3F0B77
:1055A0002817390778F0AC014E5F5F4F2417350795
:1055B00048F04E0F5F1F5093730A4093720A819315
:1055C00091939FCFF0E0E0E09CCFCF93DF930097E3
:1055D000E9F0FC01329713821282A091740AB09113
:1055E000750AED0130E020E01097A1F420813181AF
:1055F000820F931F2091720A3091730A281739077E
:1056000009F061C0F093730AE093720ADF91CF91C1
:105610000895EA01CE17DF07E8F54A815B819E0114
:1056200041155105B1F7E901FB83EA83499159918D
:10563000C40FD51FEC17FD0761F48081918102969C
:10564000840F951FE90199838883828193819B83CD
:105650008A83F0E0E0E012968D919C911397009779
:10566000B9F52D913C911197CD010296820F931FB0
:105670002091720A3091730A2817390739F630974A
:1056800051F51092750A1092740AB093730AA093A0
:10569000720ABCCFD383C28340815181840F951F8E
:1056A000C817D90761F44E5F5F4F88819981480F11
:1056B000591F518340838A819B8193838283211563
:1056C000310509F0B0CFF093750AE093740A9ECFCC
:1056D000FD01DC01C0CF13821282D7CF4F925F92BF
:1056E0006F927F928F929F92AF92BF92CF92DF92F2
:1056F000EF92FF920F931F93CF93DF938C0100974C
:1057000099F4CB01DF91CF911F910F91FF90EF9012
:10571000DF90CF90BF90AF909F908F907F906F90D1
:105720005F904F900C94492AFC01E60FF71F9C01F3
:1057300022503109E217F30708F4AEC0D901CD9128
:10574000DC911197C617D70720F1C530D10578F045
:10575000CE0104978617970750F0C61BD70B2297E8
:10576000C193D1936D937C93CF010E94E52AC80128
:10577000DF91CF911F910F91FF90EF90DF90CF902D
:10578000BF90AF909F908F907F906F905F904F9061
:1057900008955B01AC1ABD0A4C018C0E9D1EA091B0
:1057A000740AB091750A512C412CF12CE12C109700
:1057B00031F58091720A9091730A8815990509F064
:1057C0005CC04616570608F058C0809100019091C1
:1057D0000101009741F48DB79EB7409104015091AB
:1057E0000501841B950BE817F90708F055C0F093E5
:1057F000730AE093720AF90171836083B8CF8D91C7
:105800009C91119712966C90129713967C90139717
:10581000A815B90559F56C0142E0C40ED11CCA1493
:10582000DB0420F1AC014A195B09DA0112961597E5
:1058300080F06282738251834083D9016D937C939F
:10584000E114F10471F0D7011396FC93EE931297D3
:105850008ECF22968C0F9D1FF90191838083F301D7
:10586000EFCFF093750AE093740A81CF481659067A
:1058700008F42C017D01D3019ACFCB010E94492A63
:105880007C01009749F0AE01B8010E945C2CC80170
:105890000E94E52A87016BCF10E000E068CFFB0192
:1058A000DC0104C08D910190801921F441505040D9
:1058B000C8F7881B990B0895FB01DC0102C0019019
:1058C0000D9241505040D8F70895FC018191861700
:1058D00021F08823D9F7992708953197CF010895AA
:1058E000FB01DC0101900D920020E1F70895FB011E
:1058F000DC014150504048F001900D920020C9F762
:1059000001C01D9241505040E0F7089545325105C5
:1059100020F4423010F00C94912CFB011082CB014A
:105920000895BB274A3031F4992322F4BDE29095C3
:1059300081959F4F0C94D52C2532310520F42230CF
:1059400010F00C94A72CFA011082CA010895BB270D
:10595000FA01A62F6217710581059105330B30FB03
:1059600066F0AA27660F771F881F991FAA1FA21724
:1059700010F0A21B63953850A9F7A05DAA3308F078
:10598000A95DA19336F7B111B1931082CA010C94AD
:10599000422F4532510520F4423010F00C94D42CA3
:1059A000FB011082CB010895BB27FB015527AA27D5
:1059B000880F991FAA1FA41710F0A41B839550519C
:1059C000B9F7A05DAA3308F0A95DA193009779F714
:1059D000B111B1931192CB010C94422F8F929F92EF
:1059E000AF92BF92CF92DF92EF92FF920F931F93ED
:1059F000CF93DF93CDB7DEB729970FB6F894DEBF0C
:105A00000FBECDBF6A01F22EB02E102FFBE3AF2EDA
:105A1000A01608F41BE31F5F012F27E0AE014F5FC4
:105A20005F4F0E946A2EBC018981982F9970913036
:105A300009F44EC09BE2E1FC04C09E2D9170E0FC95
:105A400049C05E2D5071E82FE87083FF55C084E097
:105A5000911101C083E0EF2DE81B8F1508F0E0E005
:105A6000D6018E2F20E25523C9F1992329F0D601C2
:105A70009C93C60101966C0196012D5F3F4FE2FE9B
:105A800033C08EE4D6018C9391E411969C931197C8
:105A900012968C93D9018E2F90E281112AC0E20FC9
:105AA000F32FF11D10828EEF9FEF29960FB6F89419
:105AB000DEBF0FBECDBFDF91CF911F910F91FF9041
:105AC000EF90DF90CF90BF90AF909F908F90089510
:105AD0009DE2B7CF90E2B5CF2D9381508111FCCFDD
