:020000040000FA
:100000000C9411010C943B010C943B010C943B01AA
:100010000C943B010C943B010C943B010C943B0170
:100020000C943B010C943B010C943B010C943B0160
:100030000C943B010C946A010C943B010C943B0121
:100040000C943B010C943B010C9422270C943B0133
:100050000C94D0220C9406230C943B010C943B018D
:100060000C943B010C943B010C944C0D0C943B0103
:100070000C9467230C949D230C943B010C943B013E
:100080000C943B010C943B010C943B0100407A1012
:10009000F35A00A0724E18090010A5D4E80000E839
:1000A0007648170000E40B54020000CA9A3B000097
:1000B00000E1F505000080969800000040420F0026
:1000C0000000A08601000000102700000000E803E7
:1000D000000000006400000000000A0000000000B2
:1000E0000100000000002C76D888DC674F0823DF71
:1000F000C1DFAE59E1B1B796E5E3E453C63AE65144
:10010000997696E8E6C28426EB898C9B62ED407C6A
:100110006FFCEFBC9C9F40F2BAA56FA5F490055A06
:100120002AF75C936B6CF9676DC11BFCE0E40D472B
:10013000FEF520E6B500D0ED902E0300943577054E
:100140000080841E080000204E0A000000C80C3306
:100150003333330F986E12831141EF8D2114893B95
:10016000E65516CFFEE6DB18D1844B381BF77C1D15
:10017000901DA4BBE424203284725E228100C9F168
:1001800024ECA1E53D277C3C3E5E2B3D3F2F5B5D93
:100190003B2C2A225C000000000203000A0B000036
:1001A0000000050409080000000000000000000035
:1001B000000000000000010204081020408001023D
:1001C0000408102040800102040810204080010231
:1001D000040810204080020202020202020204040B
:1001E00004040404040403030303030303030101DD
:1001F0000101010101010000200023002600290067
:1002000000002200250028002B000000210024000F
:1002100027002A008401610C65127F153A23D1233F
:10022000960111241FBECFEFD0E4DEBFCDBF12E098
:10023000A0E0B1E0E0E8FFE500E00BBF02C00790FE
:100240000D92A630B107D9F72AE0A6E0B2E001C0CE
:100250001D92A636B207E1F711E0C0E1D1E004C07B
:100260002197FE010E94692ACA30D107C9F70E946E
:1002700013270C94B32F0C940000DC01ED91FC913A
:100280000190F081E02D09940CB405FC0DC09EBDD9
:1002900000000DB407FEFDCF9EB58EBD00000DB46D
:1002A00007FEFDCF8EB508958EBD00000DB407FE8C
:1002B000FDCF8EB59EBD00000DB407FEFDCF9EB5EF
:1002C0000895982F92959F708F702AE0929F800DCD
:1002D000112408951F920F920FB60F9211248F933D
:1002E000809107028F5F80930702809106028F5FE3
:1002F0008093060210928500109284008F910F90D7
:100300000FBE0F901F9018956BE071E08DE196E0A5
:100310000E9461256CE371E087E196E00E9461250F
:1003200064E072E081E196E00C94612581E196E061
:100330000E94EF2487E196E00E94EF248DE196E091
:100340000C94EF24CF93DF9361E570E083E296E0B5
:100350000E94E00B70E060E083E296E00E943D01C5
:1003600083E296E00E945E0C46E050E061E570E0BA
:1003700083E296E00E945B0C83E296E00E94530BBE
:100380000E9461018093080283E296E00E94530B71
:100390008F770E946101D82F83E296E00E94530B71
:1003A0008F770E946101C82F83E296E00E94530B71
:1003B0000E94610190E0B0E0A0E080930902909378
:1003C0000A02A0930B02B0930C0283E296E00E9413
:1003D000530B0E94610124E6829FC0011124092E63
:1003E000000CAA0BBB0B4091090250910A026091CC
:1003F0000B0270910C02840F951FA61FB71F8093EC
:10040000090290930A02A0930B02B0930C0283E2BC
:1004100096E00E94530B0E94610140E157E2849FE5
:100420009001859F300D1124032E000C440B550BB9
:100430008091090290910A02A0910B02B0910C02E6
:10044000280F391F4A1F5B1FA0E1BEE00E94722ADD
:10045000AB01BC012CE3C29FC0011124092E000C8A
:10046000AA0BBB0B8D0F911DA11DB11D840F951FF4
:10047000A61FB71F8093090290930A02A0930B0254
:10048000B0930C02DF91CF9108958F929F92AF921B
:10049000BF92EF92FF920F931F93CF93DF93CDB74D
:1004A000DEB7A7970FB6F894DEBF0FBECDBF61E0F1
:1004B00083E10E94872860E082E10E94872801E1B1
:1004C00012E08DE0E82E82E0F82E812C912C540170
:1004D000F80181918F01880E911CA11CB11CF6E0DE
:1004E0000D301F07A9F764E072E0CE0182960E94EA
:1004F00061250E94A2016CE471E0CE0182960E9407
:10050000C42660910D0670910E064AE0CE01019658
:100510000E94D925BE016F5F7F4FCE0182960E9457
:10052000BD26CE0101960E94EF2467EA71E0CE015C
:1005300082960E94C4264091090250910A0260915D
:100540000B0270910C022AE0CE0101960E94052652
:10055000BE016F5F7F4FCE0182960E94BD26CE0105
:1005600001960E94EF246AE871E0CE0182960E9413
:10057000C4264AE060910802CE0101960E948025BF
:10058000BE016F5F7F4FCE0182960E94BD26CE01D5
:1005900001960E94EF2467EA71E0CE0182960E94E4
:1005A000C4262AE0B501A401CE0101960E940526C9
:1005B000BE016F5F7F4FCE0182960E94BD26CE01A5
:1005C00001960E94EF2467EA71E0CE0182960E94B4
:1005D000C426F70161917F014AE0CE0101960E9495
:1005E0008025BE016F5F7F4FCE0182960E94BD269F
:1005F000CE0101960E94EF240E151F0521F7809170
:10060000060161E0882309F470C08EE00E9487280B
:1006100064E085EC96E00E94AF1063E571E088230A
:1006200009F45CC0409111065091120623E165EC7B
:1006300076E0CE0101960E94CF11CE0101960E9474
:10064000A30F882309F448C0BE016E5D7F4FCE0121
:1006500001960E945B24CE0101960E94910F61E0F9
:1006600084E00E94872860E08EE00E94872860E096
:100670008DE00E94872880910D0690910E060196CC
:10068000893FFAE29F0708F065C090930E068093B9
:100690000D0661E082E10E94872860E083E10E940C
:1006A000872861E070E080E090E00E949D27CE0105
:1006B00082960E94EF24A7960FB6F894DEBF0FBE75
:1006C000CDBFDF91CF911F910F91FF90EF90BF9021
:1006D000AF909F908F90089562E671E08BEB99E068
:1006E0000E946D2410920601BACF8DE00E948728E7
:1006F000AEA0BFA010E000E0FF24FA948DE10E94BC
:10070000B528892B19F0FA94F110F8CF82E390E024
:100710000E94D6277801FFEFEF1AFF0AB801CE0139
:1007200082960E940027FC0160818EE199E00E9480
:100730005024AE14BF0460F48EE199E00E94572467
:10074000BE016E5D7F4F8BEB99E00E945B248BCFE7
:100750008701D2CF10920E0610920D0660910F06FF
:10076000709110066F5F7F4F7093100660930F06B5
:100770004AE0CE014C960E94D925BE01645E7F4FAF
:10078000CE0101960E9449266CE671E0CE010196E9
:100790000E94E626BC0181E196E00E943226CE014D
:1007A00001960E94EF24CE014C960E94EF2461E74F
:1007B00071E08BEB99E00E94482461E176E08BEBDD
:1007C00099E00E945B2465CF0F931F93CF93DF9333
:1007D000C82F65E570E083E296E00E94E00B0C2EE6
:1007E000000CDD0BBE0183E296E00E943D0183E236
:1007F00096E00E945E0C41E050E065E570E083E227
:1008000096E00E945B0C83E296E00E94530B8C0101
:1008100065E570E083E296E00E94E00BBE016F5F49
:100820007F4F83E296E00E943D0183E296E00E94C2
:100830005E0C41E050E065E570E083E296E00E94E6
:100840005B0C83E296E00E94530B20E0382FC90135
:10085000800F911FDF91CF911F910F910895CF933A
:10086000DF93CDB7DEB7A1970FB6F894DEBF0FBE0A
:10087000CDBF61E083E10E94872860E082E10E94B1
:10088000872864E072E0CE014C960E9461250E94A8
:10089000A2016CE771E0CE014C960E94C4266091E3
:1008A0000D0670910E064AE0CE0101960E94D925F0
:1008B000BE016F5F7F4FCE014C960E94BD26CE01D8
:1008C00001960E94EF2467EA71E0CE014C960E94E7
:1008D000C4264091090250910A0260910B02709166
:1008E0000C022AE0CE0101960E940526BE016F5F30
:1008F0007F4FCE014C960E94BD26CE0101960E94EC
:10090000EF246AE871E0CE014C960E94C4264AE0CA
:1009100060910802CE0101960E948025BE016F5FA2
:100920007F4FCE014C960E94BD26CE0101960E94BB
:10093000EF2467EA71E0CE014C960E94C42688E05D
:100940000E94E4034AE0BC01CE0101960E94AD255D
:10095000BE016F5F7F4FCE014C960E94BD26CE0137
:1009600001960E94EF2467EA71E0CE014C960E9446
:10097000C4268AE00E94E4034AE0BC01CE0101964D
:100980000E94AD25BE016F5F7F4FCE014C960E9445
:10099000BD26CE0101960E94EF2467EA71E0CE01E8
:1009A0004C960E94C42684E00E94E4034AE0BC0105
:1009B000CE0101960E94AD25BE016F5F7F4FCE0133
:1009C0004C960E94BD26CE0101960E94EF2467EA54
:1009D00071E0CE014C960E94C42686E00E94E4039A
:1009E0004AE0BC01CE0101960E94AD25BE016F5FB9
:1009F0007F4FCE014C960E94BD26CE0101960E94EB
:100A0000EF2467EA71E0CE014C960E94C4268CE088
:100A10000E94E403BC01990F880B990B0E944E2998
:100A20002DEC3CEC4CEC5DE30E94DA2923E333E946
:100A300048E853E40E94DF28AB01BC0122E0CE016C
:100A400001960E946126BE016F5F7F4FCE014C96DA
:100A50000E94BD26CE0101960E94EF2480910601DE
:100A6000882349F164E085EC96E00E94AF1063E5CD
:100A700071E08823E9F1409111065091120623E1BB
:100A800065EC76E0CE0101960E94CF11CE01019671
:100A90000E94A30F882351F1BE01645E7F4FCE01F7
:100AA00001960E945B24CE0101960E94910F61E0A5
:100AB00084E00E94872861E082E10E94872860E04C
:100AC00083E10E94872861E070E080E090E00E946E
:100AD0009D27CE014C960E94EF24A1960FB6F89464
:100AE000DEBF0FBECDBFDF91CF91089562E671E00A
:100AF0008BEB99E00E946D2410920601D8CFCF9223
:100B0000DF92EF92FF920F931F93CF93DF93CDB7B6
:100B1000DEB7C254D1090FB6F894DEBF0FBECDBF09
:100B200026E040E052EC61E070E08EE199E00E9446
:100B30007E2226E040E052EC61E070E08BEB99E031
:100B40000E947E2240EA56E861E070E083E296E08F
:100B50000E94D20B63E871E08BEB99E00E946D2458
:100B600060E08BE10E944B2860E085E10E944B2809
:100B700060E08DE10E944B2861E086E10E944B28F5
:100B800061E087E10E944B2860E080E00E944B28F2
:100B900061E082E10E944B2861E082E10E948728A7
:100BA00061E083E10E944B2861E083E00E944B28D2
:100BB00061E084E00E944B2860E085E00E944B28C1
:100BC00060E086E00E944B2861E087E00E944B28AD
:100BD00061E083E10E94872861E084E00E94872829
:100BE00060E087E00E94872860E083E00E94872819
:100BF0006AE670E083E296E00E94E00B62E083E246
:100C000096E00E94760B60E671E083E296E00E9437
:100C10003D0183E296E00E945E0C6AE670E083E2AA
:100C200096E00E94E00B64E183E296E00E94760B7E
:100C300066E283E296E00E94760B69E183E296E049
:100C40000E94760B60EA83E296E00E94760B66E5EE
:100C500083E296E00E94760B60E083E296E00E94D9
:100C6000760B61E083E296E00E94760B83E296E0E9
:100C70000E945E0C6AE670E083E296E00E94E00B60
:100C80006AE183E296E00E94760B6FEB83E296E0E6
:100C90000E94760B83E296E00E945E0C6AE670E0AA
:100CA00083E296E00E94E00B66E283E296E00E9417
:100CB000760B6CE883E296E00E94760B83E296E086
:100CC0000E945E0C8BE10E94B52810E0892B09F090
:100CD00093C261E084E10E944B2861E084E10E94BC
:100CE000872815E060E570E080E090E00E949D2795
:100CF00061E08CE00E944B2861E08CE00E94872834
:100D000060E570E080E090E00E949D2760E08CE06C
:100D10000E948728115031F761E08CE00E948728FB
:100D200008EC10E084EB90E00E94D62761E08FE0B1
:100D30000E944B2861E08FE00E94872884EB90E0BE
:100D40000E94D62761E08FE00E944B2860E08FE090
:100D50000E9487280150110929F76CE871E08BEB9C
:100D600099E00E946D2461E082E00E944B2861E0DE
:100D700082E00E94872861E08AE10E944B2861E0BE
:100D80008AE10E94872860E087E10E94872861E06D
:100D900086E10E94872861E570E083E296E00E9488
:100DA000E00B63E283E296E00E94760B60E083E270
:100DB00096E00E94760B60E083E296E00E94760B5C
:100DC00065E083E296E00E94760B60E083E296E0C5
:100DD0000E94760B60E083E296E00E94760B67E962
:100DE00083E296E00E94760B60E083E296E00E9448
:100DF000760B60E083E296E00E94760B83E296E059
:100E00000E945E0C61E570E083E296E00E94E00BD8
:100E10006FE270E083E296E00E943D016CE270E0D8
:100E200083E296E00E943D0183E296E00E945E0C20
:100E300061E570E083E296E00E94E00B68E270E01A
:100E400083E296E00E943D0167E970E083E296E06C
:100E50000E943D0183E296E00E945E0C61E570E035
:100E600083E296E00E94E00B60E083E296E00E945D
:100E7000760B60E083E296E00E94760B60E083E20E
:100E800096E00E94760B60E083E296E00E94760B8B
:100E900060E083E296E00E94760B60E083E296E0F9
:100EA0000E94760B60E083E296E00E94760B83E27C
:100EB00096E00E945E0C65E971E0CE0101960E9409
:100EC000612567E176E0CE0101960E94D32665EAAE
:100ED00071E00E94E6266DE176E00E94D32667EA83
:100EE00071E00E94E626BC01CE01CD960E94492603
:100EF000CE0101960E94EF2469E570E083E296E05E
:100F00000E94E00B68E070E083E296E00E943D0101
:100F100070E060E083E296E00E943D0183E296E0AB
:100F20000E945E0C40E169E583E296E00E94580C65
:100F300010E183E296E00E94530B082F803130F4D9
:100F400069EA71E0CE01CD960E94C42640E1602F8F
:100F5000CE0101960E948025BE016F5F7F4FCE01BA
:100F6000CD960E94BD26CE0101960E94EF2411501D
:100F700001F76BEA71E0CE01CD960E94C42668E5C8
:100F800070E083E296E00E94E00B68E070E083E2AC
:100F900096E00E943D0170E060E083E296E00E94EE
:100FA0003D0183E296E00E945E0C40E168E583E249
:100FB00096E00E94580C10E183E296E00E94530BE9
:100FC000082F803130F469EA71E0CE01CD960E949D
:100FD000C42640E1602FCE0101960E948025BE010B
:100FE0006F5F7F4FCE01CD960E94BD26CE01019648
:100FF0000E94EF24115001F760E082E10E948728EF
:1010000064E085EC96E00E94AF10811108C063E5B2
:1010100071E08BEB99E00E946D241092060181E053
:1010200090E09093100680930F0660910F067091E8
:101030001006683C710508F00AC14AE0CE014C96E2
:101040000E94D925BE01645E7F4FCE0101960E94A9
:1010500049266CE671E0CE0101960E94E626BC01AD
:1010600081E196E00E943226CE0101960E94EF2493
:10107000CE014C960E94EF246091110670911206E9
:1010800085EC96E00E945A12882309F4E0C0809112
:101090000F06909110060196C4CF013108F04FC0A1
:1010A00061E570E083E296E00E94E00B68E270E0A8
:1010B00083E296E00E943D0165E070E083E296E005
:1010C0000E943D0183E296E00E945E0C88ECE82ECF
:1010D000F12C8AEF90E00E94D62761E08FE00E9419
:1010E0004B2861E08FE00E9487288AEF90E00E9401
:1010F000D62761E08FE00E944B2860E08FE00E94DD
:10110000872881E0E81AF10821F76AE670E083E2B7
:1011100096E00E94E00B68E183E296E00E94760B85
:101120006AE083E296E00E94760B83E296E00E94FA
:101130005E0C68E873E180E090E00E949D27111149
:101140005AC061E083E00E94872861E08CE00E9441
:101150004B2861E08CE00E94872808EC10E08AEFC1
:1011600090E00E94D62761E08FE00E944B2861E06A
:101170008FE00E9487288AEF90E00E94D62761E0E6
:101180008FE00E944B2860E08FE00E94872801508A
:10119000110929F708EC10E084EB90E00E94D627B3
:1011A00061E08FE00E944B2861E08FE00E94872879
:1011B00084EB90E00E94D62761E08FE00E944B28EC
:1011C00060E08FE00E9487280150110929F761E74C
:1011D00070E083E296E00E94E00B60E083E296E03C
:1011E0000E94760B63E183E296E00E94760B83E235
:1011F00096E00E945E0C11E000E06AE670E083E297
:1012000096E00E94E00B6DE270E083E296E00E94BF
:101210003D0183E296E00E945E0C41E050E06AE608
:1012200070E083E296E00E945B0C83E296E00E940D
:10123000530BF82EE894F7F80F1509F42ECF68EE4B
:1012400073E080E090E00E949D270F2DD6CF609143
:101250000F0670911006615071097093100660932B
:101260000F064AE0CE014C960E94D925BE01645E6D
:101270007F4FCE0101960E9449266CE671E0CE01B7
:1012800001960E94E626BC0181E196E00E9432268A
:10129000CE0101960E94EF24CE014C960E94EF24CD
:1012A00015E060E570E080E090E00E949D2761E03D
:1012B0008DE00E944B2861E08DE00E94872860E568
:1012C00070E080E090E00E949D2760E08DE00E9449
:1012D0008728115031F761E08DE00E948728409106
:1012E00011065091120623E165EC76E0CE014C9692
:1012F0000E94CF11CE014C960E94530F6B017C01CE
:1013000063EB71E08BEB99E00E9448242AE030E027
:10131000B701A6018BEB99E00E94DD2489E6C8168F
:1013200080E2D80689E5E806F10408F45BC0CE0146
:101330004C960E94910F60910F06709110066F5F9E
:101340007F4F7093100660930F064AE0CE01C79658
:101350000E94D925BE01695C7F4FCE0101960E9493
:1013600049266CE671E0CE0101960E94E626BC019A
:1013700081E196E00E943226CE0101960E94EF2480
:10138000CE01C7960E94EF2440911106509112069B
:1013900023E165EC76E0CE0101960E94CF118B81AE
:1013A0009C819F8F8E8F8D819E81AF81B88588A310
:1013B00099A3AAA3BBA389859A85AB85BC858CA379
:1013C0009DA3AEA3BFA3DE011D96FE01B896CE017C
:1013D000C5962D912193E817F907D9F78A8D9B8D32
:1013E0009EAB8DAB61E771E08BEB99E00E944824E6
:1013F00061E176E08BEB99E00E945B24CE014C9694
:101400000E94A30F882309F471C0BE01635C7F4F63
:10141000CE014C960E945B24CE014C960E94910F07
:10142000BE01635C7F4F8BEB99E00E945B2461E01F
:1014300082E10E94872861E084E10E944B2860E0FD
:1014400084E10E94872815E060E570E080E090E08C
:101450000E949D2761E08EE00E944B2861E08EE0B3
:101460000E94872860E570E080E090E00E949D2760
:1014700060E08EE00E948728115031F760E08CE038
:101480000E94872860E08DE00E94872861E082E06A
:101490000E944B2860E082E00E948728F894109216
:1014A00080008DE08093810087E998E9909389001E
:1014B00080938800109285001092840082E08093CF
:1014C0006F007894CE01CD960E94EF24CE5BDF4F63
:1014D0000FB6F894DEBF0FBECDBFDF91CF911F9145
:1014E0000F91FF90EF90DF90CF90089562E671E04A
:1014F0008BEB99E00E946D241092060191CFCDE014
:10150000D2E0199286E0CD30D807D9F761E087E1C3
:101510000E94872860E086E10E94872890E080E0B2
:101520000E94440161E086E10E9487281092070230
:1015300010920602189993C0809107028230D0F36E
:10154000109207028BE10E94B528682F8DE00E945F
:1015500087288BE10E94B528892B09F453C061E5E7
:1015600070E083E296E00E94E00B68E270E083E2C4
:1015700096E00E943D0165E070E083E296E00E9403
:101580003D0183E296E00E945E0C68EB7BE080E028
:1015900090E00E949D2708EC10E08AEF90E00E9406
:1015A000D62761E08FE00E944B2861E08FE00E9427
:1015B00087288AEF90E00E94D62761E08FE00E94A2
:1015C0004B2860E08FE00E9487280150110929F71D
:1015D0006AE670E083E296E00E94E00B68E183E255
:1015E00096E00E94760B6AE083E296E00E94760B1A
:1015F00083E296E00E945E0C60E177E280E090E09A
:101600000E949D2761E086E10E94872860E087E1D3
:101610000E9487280E944502EDE0F2E01192CE1769
:10162000DF07E1F7809106028C3020F0109206026D
:101630000E942F0461E087E10E94872860E086E134
:101640000E94872890E080E00E94440161E086E1EA
:101650000E94872810928500109284006BCF60E072
:1016600086E10E94872890E080E00E94440126E005
:10167000969587952A95E1F7FC01E35FFD4F808100
:101680008F3F11F08F5F808361E086E10E948728A1
:1016900051CF90E080E008958091530690915406D8
:1016A000891B990B089590915406809153062FEF52
:1016B0003FEF981748F4E92FF0E0EB5AF94F2081FB
:1016C00030E09F5F90935406C9010895E09154065D
:1016D00080915306E81730F4F0E0EB5AF94F80811F
:1016E00090E008958FEF9FEF08950895CF93DF93D3
:1016F0001F92CDB7DEB7698320912F062223F9F020
:1017000020913006203258F021E030E0FC01338394
:10171000228390E080E00F90DF91CF910895809137
:101720003106E82FF0E0EE5CF94F998190838F5FEE
:10173000809331068093300681E090E0ECCF61E049
:10174000CE0101960E94150DF7CFCF92DF92EF9256
:10175000FF920F931F93CF93DF937C01CB018A01FC
:1017600020912F06222389F0EB016B01C40ED51EB8
:10177000CC15DD0569F06991D701ED91FC910190DF
:10178000F081E02DC7010995F3CF642F0E94150D5C
:10179000C801DF91CF911F910F91FF90EF90DF90E3
:1017A000CF900895CB01BA010C94720C81E0809324
:1017B0002F0660935206109231061092300608955B
:1017C0000C94D60B0F93062F21E04091300662E374
:1017D00076E0809152060E94C50C1092310610925C
:1017E000300610922F060F9108954F925F926F92DC
:1017F0007F92AF92BF92CF92EF92FF920F931F937F
:10180000CF93DF935C01F62ED42F28013901EE200F
:1018100019F10E94D60BCE2DC43008F0C3E0C150A0
:10182000B8F028E0C29FC0011124A301920104C0B6
:1018300056954795379527958A95D2F7B901D501E1
:10184000ED91FC910190F081E02DC5010995E7CF64
:1018500060E0C5010E94E20B4D2FD13208F040E25A
:101860002C2D65E576E08F2D0E94850C1092540694
:1018700080935306DF91CF911F910F91FF90EF90CE
:10188000CF90BF90AF907F906F905F904F900895F2
:10189000CF92EF920F931F93C22EE12C00E010E045
:1018A00098010E94F50B1F910F91EF90CF90089532
:1018B00021E00C94480C21E00C94480C61E00C945D
:1018C000E20BE3E2F6E01382128288EE93E0A0E0FE
:1018D000B0E084839583A683B78382EC91E0918303
:1018E000808308959B01AC0160E072E18AE790E09B
:1018F0000E94472A205131094109510956954795BF
:10190000379527952093B80008954132E0F59091DE
:10191000C4069111FCCF91E09093C4062093C206B7
:101920002FEF209375067093BC066093BB06109250
:10193000BA06240F2093B9069093C3069091C3066C
:10194000880F892B8093C3068091C1068130C9F42A
:101950001092C1068091C3068093BB008091BC00A9
:1019600083FDF8CF85EC8093BC008091C406813064
:10197000E1F38091BA06841710F44091BA06842FDF
:10198000089585EEF0CF40E0FACF0F93413208F092
:1019900044C09091C4069111FCCF92E09093C4068C
:1019A0000093C2069FEF909375067093BC066093F8
:1019B000BB061092BA064093B9061092C3069091E6
:1019C000C306880F892B8093C3068091C10681309E
:1019D00011F51092C1068091C3068093BB008091DF
:1019E000BC0083FDF8CF85EC8093BC00222321F05E
:1019F0008091C4068230D1F3809175068F3F79F0D3
:101A000080917506803269F080917506803359F0B7
:101A100084E00F91089585EEE7CF81E0FACF80E072
:101A2000F8CF82E0F6CF83E0F4CF20919706260F1F
:101A30003327331F21323105ECF42091C406FC0119
:101A400090E080E0243069F082E00895A09197064C
:101A50002191AC014756594FA40FB52FB11D2C93BE
:101A60000196861798F380919706680F6093970602
:101A700080E0089581E0089585ED8093BC00809119
:101A8000BC0084FDFCCF1092C406089585EC8093C1
:101A9000BC001092C40608951F920F920FB60F92C9
:101AA00011240BB60F922F933F934F935F936F9335
:101AB0007F938F939F93AF93BF93EF93FF93809107
:101AC000B900887F803609F44EC008F041C08832E2
:101AD00009F4AAC028F5803109F49EC0C8F488230F
:101AE00009F407C1883009F497C0FF91EF91BF91C5
:101AF000AF919F918F917F916F915F914F913F91A6
:101B00002F910F900BBE0F900FBE0F901F90189546
:101B1000883109F489C0803241F78093750615C079
:101B2000803409F4A6C048F48033B9F38833E9F669
:101B3000809375060E94460DD8CF803509F489C080
:101B4000883509F49EC0883481F60E943C0DCDCFC3
:101B5000883909F494C038F5883729F050F488366C
:101B600011F0803711F683E08093C4061092760658
:101B700057C0883809F483C0803919F0803809F0DB
:101B8000B4CF80917606803208F079C0E091760675
:101B900081E08E0F809376068091BB00F0E0E958DB
:101BA000F94F80833DC0803B39F0E0F4803A09F47E
:101BB00085C0883A09F099CF84E08093C4061092DA
:101BC000980610929706E091BF06F091C00609951D
:101BD0008091970681110FC081E080939706109243
:101BE000990609C0803C09F482C0883C09F47FC092
:101BF000883B09F07ACFE091980681E08E0F8093C0
:101C00009806F0E0E756F94F80818093BB009091F1
:101C100098068091970631C08091C3068093BB00DF
:101C200085EC8093BC0061CF9091BA068091B90693
:101C30009817B8F58091BB069091BC06E091BA0662
:101C400021E02E0F2093BA06E80FF92FF11D8081B5
:101C5000E5CF2091BB063091BC06E091BA0681E049
:101C60008E0F8093BA068091BB00E20FF32FF11D17
:101C700080839091BA068091B906981788F285E81A
:101C8000D0CF2091BB063091BC06E091BA0681E02E
:101C90008E0F8093BA068091BB00E20FF32FF11DE7
:101CA00080838091C206811150CF81E08093C1066C
:101CB00084EA8093BC001092C40617CF0E94460DA0
:101CC00080917606803230F4E0917606F0E0E958B3
:101CD000F94F10826091760670E0E091BD06F091B8
:101CE000BE0687E796E0099510927606FECE85EC53
:101CF000E0CF1092750629CFCF93DF931F92CDB717
:101D0000DEB76983DC01ED91FC910280F381E02D67
:101D100041E050E0BE016F5F7F4F09950F90DF916A
:101D2000CF910895CF93DF93EC01E98DFA8D309731
:101D300049F481E090E09B838A8390E080E0DF912A
:101D4000CF91089513821282898D9A8D0E94071B6C
:101D5000E98DFA8D22813381232B59F7F0CFFC01D5
:101D6000818D928D009711F00C9496180895CF9361
:101D7000DF931F92CDB7DEB741E050E0BE016F5F49
:101D80007F4F0E94BA16019731F4898190E00F903D
:101D9000DF91CF9108958FEF9FEFF9CFFC01818DF7
:101DA000928D009711F00C94B70E8FEF9FEF08956E
:101DB0000F931F93CF93DF93EC01898D9A8D10E0E1
:101DC00000E0009799F00E94B70E8C010F3F1007BA
:101DD00069F0898D9A8DFC014285538564857585EE
:101DE00041505109610971090E940218C801DF912F
:101DF000CF911F910F910895EF92FF920F931F9330
:101E0000CF93DF93EC017B018A011B821A8288EE5B
:101E100093E0A0E0B0E08C839D83AE83BF8384ED2C
:101E200091E0998388838DE190E00E94AA2A9A8F9D
:101E3000898F009779F02DE1F701DC0101900D9277
:101E40002A95E1F74CE050E0B801CE010C960E94D3
:101E5000D82C188EDF91CF911F910F91FF90EF90AA
:101E60000895FC011382128288EE93E0A0E0B0E0B6
:101E700084839583A683B78384ED91E091838083E7
:101E8000128E118E14860895DC015996ED91FC9105
:101E9000309729F0628573858485958508956FEF65
:101EA0007FEFCB010895DC015996ED91FC913097BD
:101EB00029F06389748985899689089560E070E0C6
:101EC000CB010895CF92DF92EF92FF92CF93DF93F1
:101ED000FC01218D328D232B09F1EC010E94530F5F
:101EE0006B017C01CE010E94440FA7019601261BC5
:101EF000370B480B590BDA01C901811530E89307FC
:101F0000A105B10520F08FEF9FE7A0E0B0E0DF91E1
:101F1000CF91FF90EF90DF90CF90089590E080E018
:101F2000F6CFCF93DF93EC01898D9A8D009741F026
:101F30000E94DF18898D9A8D0E94462B1A8E198E69
:101F4000DF91CF910895DC015996ED91FC91309786
:101F500021F081E09581911101C080E008951F93E7
:101F6000CF93DF93CDB7DEB76D970FB6F894DEBF92
:101F70000FBECDBFAB011C821B8228EE31E03A833D
:101F800029831E8221E0BC01CE0101960E941A1A0B
:101F900011E081110CC010E0812F6D960FB6F894FE
:101FA000DEBF0FBECDBFDF91CF911F910895CE014F
:101FB00001960E94DF18F0CFEF92FF920F931F93CC
:101FC000CF93DF937B01DB012D913C91FC01E20F6C
:101FD000F31F60816F3211F42F5F3F4F8C01020FAE
:101FE000131FEA01F0E0E0E0D8017D918D017F321E
:101FF00049F0772339F02F5F3F4F31967993EC30DA
:10200000F10591F7E40FF51F1082FC01E20FF31FB9
:1020100040814F3211F42F5F3F4FF701318320830E
:10202000280F391F81E0D9019C91911101C080E0F6
:10203000DF91CF911F910F91FF90EF9008954F92F4
:102040005F926F927F928F929F92AF92BF92CF9248
:10205000DF92EF92FF920F931F93CF93DF93CDB751
:10206000DEB7C954D1090FB6F894DEBF0FBECDBF9D
:102070005C016B013A01490119A218A288EE91E0B6
:102080009F8F8E8F1BA21C821B829A8389831E8244
:102090002A961FAE1EAE2A978B017E018EE1E80EB6
:1020A000F11C44244394AE01455C5F4FBE01685B64
:1020B0007F4FC5010E94DC0F582E482F4425940104
:1020C000BE01655C7F4FC801F3010995811120C0F5
:1020D0000C151D05C9F480E0C75BDF4F0FB6F894FF
:1020E000DEBF0FBECDBFDF91CF911F910F91FF904B
:1020F000EF90DF90CF90BF90AF909F908F907F90A8
:102100006F905F904F900895C8010E94DF18E3CF51
:10211000552091F021E0AE01455C5F4FB801C70149
:102120000E941A1A582E0C151D0571F0C8010E9444
:10213000DF1851100EC0CFCF0C151D0519F0C801C6
:102140000E94DF1881E0C8CF882329F28E010F5F3B
:102150001F4F902F812F8701E92EF82EA4CF0F93C8
:102160001F93CF93DF93EC01162F8FA5882321F0C7
:10217000CE018A960E94DF18412F61E0CE010E94B5
:102180007C13811102C090E012C08E01045F1F4FCA
:1021900041E0BE01C8010E944120882371F0B801CE
:1021A000CE018A960E946A1691E0882361F3892FF6
:1021B000DF91CF911F910F91089540E0BE01C801BA
:1021C0000E9441208823F9F2EACFFC01DB0112963C
:1021D0008D919C9113979383828388EE91E09183F4
:1021E000808314968C911497848315968C911597FF
:1021F000858316964D915D916D917C9119974683DB
:102200005783608771871A964D915D916D917C918E
:102210001D9742875387648775871E964D915D9100
:102220006D917C91519746875787608B718B529641
:102230008C915297828B53964D915D916D917C91CB
:102240005697438B548B658B768B57964D915D914A
:102250006D917C915A97478B508F618F728F5B96EF
:102260008D919C91948F838F08954F925F926F927E
:102270007F928F929F92AF92BF92CF92DF92EF9216
:10228000FF920F931F93CF93DF93CDB7DEB7C75461
:10229000D1090FB6F894DEBF0FBECDBF5C014A0175
:1022A0003901665D7F4F7E018EE1E80EF11CC701AA
:1022B0000E94E5101C821B8288EE91E09A8389833C
:1022C0001E828401FE0131966F015E2C4F2C6FE25D
:1022D00070E0C8010E94C62C009709F455C0F801AF
:1022E00020812F3219F40F5F1F4FF1CF801B8D30EB
:1022F00008F08CE0E82EF12CA701B801CE01CB96B6
:102300000E94D82CEBE3F0E0EC0FFD1FEE0DFF1D5B
:102310001082C6010E94DF1821E0AE01455C5F4FCC
:10232000652D742DC6010E941A1A811121C0F50174
:102330001382128288EE91E0918380831582C50119
:10234000C95BDF4F0FB6F894DEBF0FBECDBFDF9184
:10235000CF911F910F91FF90EF90DF90CF90BF90A2
:10236000AF909F908F907F906F905F904F90089567
:102370000E0D1F1D852D942D0E94DF18C2015C2CAF
:102380004D2CC92ED82EA3CF08191909F30111839A
:102390000083652D742DC5010E94E510D0CFAF924A
:1023A000BF92CF92DF92FF920F931F93CF93DF9351
:1023B000CDB7DEB7C955D1090FB6F894DEBF0FBE51
:1023C000CDBF6C015B018A01F22E9E01285A3F4F5E
:1023D000CE01CB960E9435116A968EAD9FAD6A975D
:1023E000080F191FF8018081811110C0BE01655CC2
:1023F0007F4FCE0101960E94E51042EE51E0BE01F2
:102400006F5F7F4FC6010E94FC0E0FC019A218A279
:1024100088EE91E09F8F8E8F1BA221968FAD219722
:10242000811115C0C6010E94310FC601C75ADF4F86
:102430000FB6F894DEBF0FBECDBFDF91CF911F91D5
:102440000F91FF90DF90CF90BF90AF900895825092
:102450008230F8F4B501665D7F4F2F2DA801CE01C3
:102460004E960E941A1A8823E9F28F2D867041F049
:1024700049A95AA96BA97CA9CE014E960E940218BF
:10248000BE01625E7F4FCE0101960E94E510A80159
:10249000B6CF2F2DA801BE01655C7F4FCE014E96B1
:1024A0000E941A1A882309F4BDCFCE01CB960E9450
:1024B000DF18DBCFFB01BC01665D7F4F30E020E021
:1024C0004FEA5FE0CF010C941F10E5ECF6E01582B7
:1024D00016821186138682E090E0A0E0B0E0848747
:1024E0009587A687B78713A215A614A688EE91E054
:1024F00093A782A717A608959FB7F89420911C0967
:1025000080911A09213019F48DBB9FBF08958FBFA8
:10251000089520911C09222381F03FB7F89420915F
:102520001C09213069F42DB320931A094DB3209171
:102530001B09209524232DBB3FBF8CBD9DBD089555
:1025400030931A09FACF8EBD00000DB407FEFDCFFF
:102550008EB508958FEF0C94A31261E0FC01848185
:102560000E94872880910E07882339F010920E0769
:1025700080911C0981110C947C120895CF93DF93F4
:10258000EC0180910E07811109C081E080930E0754
:1025900080910F07909110070E94891260E08C8152
:1025A000DF91CF910C948728CF93DF93EC018E813C
:1025B000882389F08F8198859C012F5F3F4F388752
:1025C0002F838230924018F40E94AA12F3CFCE01DA
:1025D0000E94AD121E82DF91CF910895673028F0DE
:1025E00026E1FC01258380E00895623079F038F01F
:1025F0006430A9F090F06530A1F082E508C080E574
:1026000080930F0781E080931007089580E5809301
:102610000F071092100781E0089581E5F1CF81E561
:10262000F6CF82E5EDCF0F931F93CF93DF93EB01AE
:102630000E946C278B010E94AA128F3F69F00E94B2
:102640006C27601B710B6C177D07A8F380E0DF918E
:10265000CF911F910F91089581E0F9CF8F929F92B2
:10266000AF92BF92FF920F931F93CF93DF93EC0132
:10267000F62E49015A010E94D412CE010E94BE12C8
:102680006CE271E0CE010E9413138F2D80640E94D2
:10269000A31208E110E0D501C401002E04C0B695D4
:1026A000A795979587950A94D2F70E94A312085090
:1026B0001109083F8FEF180771F785E9FF2021F016
:1026C00088E0F8120DC087E80E94A31210E00E9473
:1026D000AA128A8787FF06C01F3F21F01F5FF7CF2E
:1026E0008FEFF2CFDF91CF911F910F91FF90BF90AD
:1026F000AF909F908F9008958F929F92AF92BF92CC
:10270000EF92FF920F931F93CF93DF93EC01E62E8E
:102710001B8619861E821D824C830E946C278B01AA
:1027200061E08C810E944B2861E08C810E948728A7
:102730000E94612182E580930F0781E0809310075A
:1027400080910F07909110070E9489122AE0F22EC3
:102750008FEF0E94A312FA94F110FACF80911C0916
:1027600081110E947C12CE010E94BE1220E030E056
:10277000A90160E0CE010E942E13F82E8A8781E025
:10278000F816C1F00E946C27601B710B613D774009
:1027900068F381E08D83CE010E94AD1280E0DF916D
:1027A000CF911F910F91FF90EF90BF90AF909F90AE
:1027B0008F9008952AEA31E040E050E068E0CE01D1
:1027C0000E942E1382FF25C0FB868B85812C912CC5
:1027D0005401823029F4812C912CA12C80E4B82E54
:1027E00020E030E0A90167E3CE010E942E13A5018D
:1027F000940169E2CE010E942E138A878823C1F0DA
:102800000E946C27601B710B613D774048F388E0A4
:10281000C1CF94E0F92E0E94AA128A87FA94F1108F
:10282000FACF8A3A11F082E0B5CF82E08B87CDCF24
:102830008B858230C1F420E030E0A9016AE3CE014B
:102840000E942E13882311F086E0A4CF0E94AA12C2
:10285000807C803C11F483E08B870E94AA120E9446
:10286000AA120E94AA12CE010E94AD126E2DCE01B4
:10287000DF91CF911F910F91FF90EF90BF90AF909C
:102880009F908F900C94EE120F931F93CF93DF9332
:10289000EC010E946C278B010E94AA128A878F3F4D
:1028A00091F40E946C27601B710B6D327140A0F394
:1028B0008FE08D83CE010E94AD1280E0DF91CF9139
:1028C0001F910F9108958E3F11F08DE0F2CF81E0BE
:1028D000F5CFCF92DF92EF92FF920F931F93CF939A
:1028E000DF93EC016901C801820F931F8130924090
:1028F00048F58E81882371F088819981AA81BB81F6
:1029000084179507A607B70729F48F819885C816FD
:10291000D90670F5488359836A837B838B8583301E
:1029200039F089E0440F551F661F771F8A95D1F74C
:102930009A01AB0161E1CE010E942E13882379F048
:1029400083E08D83CE010E94AD1280E0DF91CF91B4
:102950001F910F91FF90EF90DF90CF900895CE01DF
:102960000E944414882371F318861F8281E08E83AD
:102970008F8198858C159D0560F06701E00EF11E32
:10298000EC14FD0471F00E94AA12F60181936F010C
:10299000F7CF0E94AA128F819885019698878F831E
:1029A000E7CF8F819885080F191F18870F838985B6
:1029B000882319F00115124018F0CE010E94D4129C
:1029C00081E0C4CFEF92FF920F931F930115110581
:1029D00039F00E9469141F910F91FF90EF900895B4
:1029E00081E0F9CFEF92FF920F931F93790100E0FE
:1029F00012E030E020E00E9469141F910F91FF90D7
:102A0000EF900895EF92FF920F931F93CF93DF9370
:102A10008C01862F7A010E94A312E7018EEFF81A2B
:102A200089910E94A312CE15DF05D1F78FEF0E9486
:102A3000A3128FEF0E94A3120E94AA12F8018287AC
:102A40008F71853069F081E18583C8010E94AD12E4
:102A500080E0DF91CF911F910F91FF90EF9008954B
:102A600081E0F7CF0F931F93CF93DF93EC018901A0
:102A700082E1411551056105710599F08B8583301F
:102A800039F089E0440F551F661F771F8A95D1F7EB
:102A90009A01AB0168E1CE010E942E13882339F020
:102AA00084E08D83CE010E94AD1280E023C0A80196
:102AB0006EEFCE010E9402158823A1F368E572E053
:102AC000CE010E941313811102C085E1EACF20E0FC
:102AD00030E0A9016DE0CE010E942E13882311F091
:102AE00084E1DFCF0E94AA128111FACFCE010E94A9
:102AF000AD1281E0DF91CF911F910F910895EFE02A
:102B0000F7E080E5808381E0818308950895CF9385
:102B1000DF93EC019C012A5F3F4F41E050E060E011
:102B200070E08B8D9C8D0E94E01E8823A1F08F8920
:102B3000988DA98DBA8D892B8A2B8B2B59F48E8178
:102B40009F81A885B9858F8B988FA98FBA8F8C812B
:102B500080688C8381E0DF91CF9108958F929F925E
:102B6000AF92BF92CF92DF92EF92FF92CF93DF931B
:102B7000EC010E94871581110CC080E0DF91CF919C
:102B8000FF90EF90DF90CF90BF90AF909F908F908D
:102B90000895EB8DFC8DCE80DF80E884F98482E09F
:102BA000C81AD108E108F108858504C0CC0CDD1CE9
:102BB000EE1CFF1C8A95D2F786859785A089B1897E
:102BC000C80ED91EEA1EFB1E848146015701880EDD
:102BD000911CA11CB11C8C149D04AE04BF0461F0B7
:102BE00081E0881A9108A108B108C501B4010E94CA
:102BF0002E1D8111F0CFC1CFEB8DFC8D258580E09E
:102C000092E0A0E0B0E004C0880F991FAA1FBB1F8C
:102C10002A95D2F74B895C896D897E89840F951F2F
:102C2000A61FB71F8B8B9C8BAD8BBE8B81E0A6CF75
:102C3000CF93DF93EC01462F6E857F858889998934
:102C40000E94F31C882351F08A8920E2829FC001F0
:102C50001124865E984FDF91CF91089590E080E037
:102C6000FACFFB019B01255F3F4F40E241932E17B6
:102C70003F07E1F7DC0120E037E09D91492F9923E0
:102C800019F19E3229F43A3059F028E03AE0F5CFB4
:102C9000E6E8F1E08491882329F031969813FACF81
:102CA00080E017C03217A8F05FED590F5E3588F449
:102CB0008FE9890F8A3110F440EE490FFB01E20FD2
:102CC000F11D40832F5FD9CF81E0FB0190819032CD
:102CD00039F308950F931F93CF93DF93FC01258160
:102CE000222331F080E0DF91CF911F910F91089561
:102CF0008B01EC01FB018789803139F582E08D83FE
:102D00001F8A188E198E1A8E808D918DB0E0A0E0EA
:102D100025E0880F991FAA1FBB1F2A95D1F78B8B1F
:102D20009C8BAD8BBE8B1C8F0B8F81E08C831E82A6
:102D30001F82188619861A861B861C861D861E868B
:102D40001F86188A198A1A8ACECF803259F683E0F4
:102D50008D83428D538D648D758D4F8B588F698F08
:102D60007A8F9E012D5E3F4FC8010E94D31D8111B5
:102D7000DACFB8CF2F923F924F925F926F927F92AD
:102D80008F929F92AF92BF92CF92DF92EF92FF927B
:102D90000F931F93CF93DF93EC015B012A018D8189
:102DA000811115C08FEF9FEFDF91CF911F910F9190
:102DB000FF90EF90DF90CF90BF90AF909F908F905B
:102DC0007F906F905F904F903F902F9008958C81EF
:102DD00080FFE8CF0B891C892D893E894A855B8558
:102DE0006C857D85C201B0E0A0E068017901C41A5C
:102DF000D50AE60AF70AC816D906EA06FB0618F449
:102E00002801441A550A42011E0126E0220E311CF7
:102E10008114910409F4B3C04A855B856C857D8576
:102E20006A0181E0D8228B8D9C8D8A019B01E9E0AB
:102E30003695279517950795EA95D1F7ED81E230FC
:102E4000E1F5FC01628D738D848D958D600F711F8E
:102E5000821F931F612C22E0722E6C187D0886144D
:102E6000970408F434012C8126FD04C06114F2E0BB
:102E70007F0671F40091070110910801209109016A
:102E800030910A01061717072807390709F053C0C0
:102E900040E00E94F31C882309F484CFC601865EBB
:102EA000984FD5019C01260D371DFC012E173F07B9
:102EB00009F460C041914D93F9CFFC0174807A947C
:102EC0007022C114D10471F471100CC0452B462B33
:102ED000472B39F58F89988DA98DBA8D8E839F8365
:102EE000A887B987EB8DFC8D6E817F818885998558
:102EF0006250710981099109258504C0660F771F09
:102F0000881F991F2A95D2F7068517852089318950
:102F1000600F711F821F931F670D711D811D911D11
:102F200099CF4E815F816885798591010E94521DFC
:102F30008111D8CF37CF750183019601AB01BC0158
:102F400080911807909119070E94E214882309F4D0
:102F500029CFA60CB71C8A859B85AC85BD85860DBF
:102F6000971DA11DB11D8A879B87AC87BD878618D9
:102F700097084ECF281B390BA20EB31EECCFC2010F
:102F800013CFFF920F931F93CF93DF931F92CDB771
:102F9000DEB7FC0125812230C8F08C0142855385C3
:102FA0006485758585E076956795579547958A95EB
:102FB000D1F7F42FFF70FF2E41E050E0BE016F5FAC
:102FC0007F4FC8010E94BA16019719F090E080E087
:102FD00012C0F80182859385A485B5854F96A11D01
:102FE000B11D82879387A487B587F0E2FF9EC00159
:102FF0001124865E984F0F90DF91CF911F910F9112
:10300000FF9008958F929F92AF92BF92CF92DF92DE
:10301000EF92FF920F931F93CF93DF93EC018D817B
:1030200081110EC080E0DF91CF911F910F91FF9031
:10303000EF90DF90CF90BF90AF909F908F900895CA
:103040000B891C892D893E89041715072607370728
:1030500048F34A015B01823031F48A869B86AC8654
:10306000BD8681E0E0CF81149104A104B10449F44C
:103070001E821F82188619861A861B861C861D864C
:10308000F0CF0A851B852C853D85EB8DFC8D8585D4
:1030900090E00996B901A8014150510961097109EF
:1030A000082E04C076956795579547950A94D2F7F0
:1030B00075016401E1E0CE1AD108E108F10804C00D
:1030C000F694E794D794C7948A95D2F7C416D50698
:1030D000E606F70620F0012B022B032B11F58F8952
:1030E000988DA98DBA8D8E839F83A887B9878E010D
:1030F0000A5F1F4FC114D104E104F10409F4ADCFFC
:103100004E815F816885798598018B8D9C8D0E94A9
:10311000521D91E0C91AD108E108F1088111EACFE6
:1031200081CFC41AD50AE60AF70AE1CF0F931F939D
:10313000CF93DF93EC018D818823D9F18C8187FFB8
:1031400032C061E0CE010E9418168C01892B89F1F2
:103150008D81823048F48B899C89AD89BE89F801C4
:10316000848F958FA68FB78F8F89988DF801938F55
:10317000828F8F89988DA98DBA8DB58BA48BE091A4
:103180001107F0911207309759F0B8016A5E7F4F2E
:10319000C80148960995F801808D918D938B828B9B
:1031A0008C818F778C83DF91CF911F910F910C943D
:1031B000B81C80E0DF91CF911F910F910895CF93BC
:1031C000DF93EC010E949618882311F01D8281E0A4
:1031D000DF91CF9108954F925F926F927F928F927D
:1031E0009F92AF92BF92EF92FF920F931F93CF9354
:1031F000DF9300D000D0CDB7DEB7FC0185818130F0
:10320000A1F080E00F900F900F900F90DF91CF9181
:103210001F910F91FF90EF90BF90AF909F908F9074
:103220007F906F905F904F900895848181FFE9CFE8
:1032300083899489A589B68984179507A607B70756
:1032400000F3892B8A2B8B2B09F477C04A015B0191
:103250007F014284538464847584CF010E940218E4
:10326000882379F2F701838D948D81149104A10450
:10327000B10449F54789508D618D728D0E94EB1F15
:10328000882309F4BECFF701178A108E118E128E93
:10329000F701838A948AA58AB68A848180688483A8
:1032A000C7010E949618882309F4ABCFB501A40189
:1032B000441655066606770610F4B301A201C7014D
:1032C0000E9402189FCF46815781608571859E01BB
:1032D0002F5F3F4F0E94521D882309F492CFF701C0
:1032E000838D948D49815A816B817C81FC01278972
:1032F0002031F1F408EF1FEF20E030E040175107D4
:103300006207730728F60E94EB1F882309F479CF20
:10331000F70146815781608571850FEF1FEF2FEF11
:103320003FE0838D948D0E943E1E8111B1CF69CF05
:1033300008EF1FEF2FEF3FE0E1CF81E063CFCF92A7
:10334000DF92EF92FF921F93CF93DF93EC0180E225
:10335000689FF0011124E65EF84F9385917161F04A
:10336000842F827449F080E0DF91CF911F91FF900C
:10337000EF90DF90CF900895142F6A8B8091070112
:1033800090910801A0910901B0910A018E879F8751
:10339000A88BB98BC488D588F12CE12C7601DD246B
:1033A000CC24CF8AD88EE98EFA8E828D938DB0E0B0
:1033B000A0E0AC01BD014C295D296E297F294F8B0E
:1033C000588F698F7A8F8385887129F5848D958DC3
:1033D000A68DB78D8B8B9C8BAD8BBE8B81E08D8347
:1033E000812F8F708C831E821F82188619861A8601
:1033F0001B861C861D8681E016FFB6CF40E050E09C
:10340000BA01CE01DF91CF911F91FF90EF90DF9035
:10341000CF900C94EB18803109F0A5CF9E012D5E62
:103420003F4F8B8D9C8D0E94D31D882309F49BCF29
:1034300084E0D5CFBF92CF92DF92EF92FF920F93AD
:103440001F93CF93DF93CDB7DEB72B970FB6F894CA
:10345000DEBF0FBECDBFFC01358131110BC0C22EC6
:103460008B017C01BE016F5F7F4FCA010E94311644
:10347000811102C080E0A1C0F801838D948DF70115
:10348000948F838FF8011682178210861186128618
:10349000138614861586B12CF80182859385A48540
:1034A000B585438954896589768984179507A60768
:1034B000B70788F525E0B695A795979587952A953E
:1034C000D1F7F82FFF70DF2EC8010E94C1170097B7
:1034D00089F2FC012081222341F0253E09F059C0E8
:1034E000BB2029F0BB24B394D7CFB1100EC0F70195
:1034F000D28A4091070150910801609109017091B1
:103500000A0146875787608B718BFC01808181118E
:10351000E9CFBB24B3948C2D8271823109F0AACFFC
:10352000BB2009F45AC061E0C7010E9418168C0143
:10353000892B09F49FCF80E2F80111928A95E9F76F
:103540008BE0FE013196D80101900D928A95E1F74A
:10355000E0911107F0911207309709F44EC0B801BD
:10356000625F7F4FC80140960995F8018089918973
:10357000938B828B918F808F86859785978B868B97
:103580000E94B81C882309F475CF4C2DF70162897D
:1035900011C04BE050E0BC01CE0101960E94B02C5E
:1035A000892B09F079CF8C2D80734C2D6D2D8033B4
:1035B00009F460CFC7010E949F192B960FB6F894AB
:1035C000DEBF0FBECDBFDF91CF911F910F91FF9056
:1035D000EF90DF90CF90BF900895F8018581823001
:1035E00009F448CFC8010E94AE15882309F442CFE0
:1035F000F701128A0AE117E09ECF81E298E2F80112
:10360000918B808B80E098E097878687AECF2F9252
:103610003F924F925F926F927F928F929F92AF9262
:10362000BF92CF92DF92EF92FF920F931F93CF93AF
:10363000DF9300D000D0CDB7DEB78C016B011A014B
:10364000DC0115968C911597813009F0C8C014964D
:103650008C9181FFC4C082FDAEC04101D8011A9691
:103660004D915D916D917C911D978114910409F4A8
:1036700029C15B968D919C915C97FC0174802FEF22
:10368000270D2A013B0139E07694679457944794BB
:103690003A95D1F7722E74207A01F1E0FF22711071
:1036A00020C0E114F104E9F416964D915D916D91FD
:1036B0007C911997411551056105710509F098C074
:1036C00057968D919D910D90BC91A02D0097A105CD
:1036D000B10509F0AFC0C8010E948715882309F41D
:1036E0007EC080E092E08E199F09540188159905EB
:1036F00008F45C01D8015B964D915C915C9716963D
:103700008D919D910D90BC91A02D0297A109B109B9
:10371000FA01258504C0880F991FAA1FBB1F2A958F
:10372000D2F74685578560897189840F951FA61F3A
:10373000B71F9C01AD01270D311D411D511D2901F0
:103740003A01A11432E0B30609F07AC08091070172
:1037500090910801A0910901B0910A018415950585
:10376000A605B70559F48FEF9FEFDC0180930701A1
:1037700090930801A0930901B0930A019601B30147
:10378000A20180911807909119070E943215882391
:1037900031F19EEFD91A8A189B08F801828593852A
:1037A000A485B5858A0D9B1DA11DB11D82879387B8
:1037B000A487B58753CFF8014389548965897689F1
:1037C00082859385A485B585481759076A077B07C5
:1037D00009F443CFC8010E94021881113ECF81E055
:1037E00090E0D80113969C938E93129780E007C0C7
:1037F0009E012F5F3F4F0E94521D811102C090E039
:103800007BC089819A81AB81BC81F801238D348D85
:10381000F901278948EF5FEF60E070E0203121F087
:1038200048EF5FEF6FEF7FE084179507A607B707B4
:1038300008F051CFF80186839783A087B18751CFD5
:10384000E114F10491F5D8011A964D915D916D91B5
:103850007C911D9753968D919D910D90BC91A02DBB
:10386000481759076A077B0700F10E94B81C882394
:1038700009F4B5CF40920701509208016092090106
:1038800070920A0180911707816080931707970152
:10389000265E384FD601C9018A0D9B1DF9018E178E
:1038A0009F0759F04D914193FACF41E0C301B20116
:1038B0000E94F31C8111EBCF92CF821B930BC80E99
:1038C000D91E69CF14968C9114975396CD90DD90A4
:1038D000ED90FC905697C416D506E606F70618F547
:1038E000F801438B548B658B768B80688483F80159
:1038F000848183FD25C0C1010F900F900F900F9020
:10390000DF91CF911F910F91FF90EF90DF90CF90BB
:10391000BF90AF909F908F907F906F905F904F90EF
:103920003F902F9008952091110730911207232B7B
:10393000F1F221143104D9F2806814968C93D7CF18
:10394000C8010E949618882309F449CFD4CFCF9399
:10395000DF931F92CDB7DEB7698341E050E0BE012F
:103960006F5F7F4F0E94071B0F90DF91CF910895EB
:10397000809117078823A9F1409107015091080110
:103980006091090170910A012AE137E080911807DE
:10399000909119070E943215811102C080E00895AC
:1039A0004091130750911407609115077091160705
:1039B000411551056105710591F02AE137E08091CB
:1039C0001807909119070E943215882339F3109235
:1039D00013071092140710921507109216071092F1
:1039E000170781E00895CF92DF92EF92FF92CF9375
:1039F0006B017C01C42F8091070190910801A09177
:103A00000901B0910A018C159D05AE05BF05F9F0BD
:103A10000E94B81C811107C080E0CF91FF90EF9009
:103A2000DF90CF9008952AE137E0B701A601809199
:103A30001807909119070E94F214882369F3C09225
:103A40000701D0920801E0920901F0920A01409129
:103A500017074C2B4093170781E0DFCFCF92DF92FF
:103A6000EF92FF926B017C010E94B81C8823A9F0A1
:103A7000EAE1F7E0119289E0EA31F807D9F7C0925C
:103A80000701D0920801E0920901F0920A018091A9
:103A9000170781608093170781E0FF90EF90DF9018
:103AA000CF9008958F929F92AF92BF92CF92DF9264
:103AB000EF92FF920F931F93CF93DF93FC018185C9
:103AC0009285A385B4850196A11DB11D8417950724
:103AD000A607B70770F480E0DF91CF911F910F9197
:103AE000FF90EF90DF90CF90BF90AF909F908F901E
:103AF000089583889488A588B6888789803189F558
:103B0000BB27A72F962F852FE9016A017B018F0123
:103B1000BC01CD01680D791D8A1D9B1D8090070198
:103B200090900801A0900901B0900A0186169706AE
:103B3000A806B90601F5F8018789803111F5DD2461
:103B4000EE24FF24F601EE0FFF1FE65EF84F8081A2
:103B50009181B0E0A0E088839983AA83BB8381E050
:103B6000BBCFDB01CA01C7E0B695A79597958795AE
:103B7000CA95D1F7C9CF40E00E94F31C8111DBCF79
:103B8000AACFE894C7F8DD24EE24FF24F601EE0F57
:103B9000FF1FEE0FFF1FE65EF84F80819181A2812B
:103BA000B381BF70D8CF4F925F926F927F92AF92E6
:103BB000BF92CF92DF92EF92FF920F931F93CF931A
:103BC000DF9300D000D0CDB7DEB78C0149835A8394
:103BD0006B837C835901C12CD12C7601412C82E06E
:103BE000582E612C712C49815A816B817C819E01F8
:103BF0002F5F3F4FC8010E94521D882339F1F80101
:103C00008585A301920104C0220F331F441F551F55
:103C10008A95D2F7DA01C901C80ED91EEA1EFB1E29
:103C200049815A816B817C818789803111F188EFCC
:103C30009FEFAFEFBFE0481759076A077B0798F27D
:103C4000F501C082D182E282F38281E00F900F9071
:103C50000F900F90DF91CF911F910F91FF90EF90F8
:103C6000DF90CF90BF90AF907F906F905F904F901C
:103C7000089588EF9FEFA0E0B0E0DDCF4F925F9214
:103C80006F927F928F929F92AF92BF92CF92DF926C
:103C9000EF92FF920F931F93CF93DF93EC0142308B
:103CA00051056105710590F480E0DF91CF911F917E
:103CB0000F91FF90EF90DF90CF90BF90AF909F90CB
:103CC0008F907F906F905F904F90089589859A852F
:103CD000AB85BC850196A11DB11D84179507A6076C
:103CE000B70710F3CB88DC88ED88FE888F89803198
:103CF00009F042C0BB27A72F962F852F48015901F5
:103D00002A013B01C80ED91EEA1EFB1E8091070145
:103D100090910801A0910901B0910A01C816D90635
:103D2000EA06FB0699F58F898031C1F5B301A2013E
:103D3000552766277727440F551F465E584FFA01CF
:103D400091828082809117078160809317078A890A
:103D5000823080F08D819E81AF81B8858C0D9D1D54
:103D6000AE1DBF1D8093130790931407A0931507F2
:103D7000B093160781E099CFDB01CA01E7E0B69561
:103D8000A79597958795EA95D1F7B8CF40E0C701F9
:103D9000B6010E94F31C8111C6CF86CFB301A201E8
:103DA0004F77552766277727440F551F440F551F18
:103DB000465E584FFA0180829182A282B382C2CFBE
:103DC0002F923F924F925F926F927F928F929F922B
:103DD000AF92BF92CF92DF92EF92FF920F931F9319
:103DE000CF93DF93CDB7DEB72F970FB6F894DEBF32
:103DF0000FBECDBF3C01488759876A877B873F83C9
:103E00002E83D901CD90DD90ED90FC90C114D104AA
:103E1000E104F10439F0BFEFCB1ADB0AEB0AFB0A2D
:103E20001D8210C0FC01C080D180E280F380F1E0EF
:103E3000FD83088519852A853B85013011052105FB
:103E4000310571F7F30181859285A385B4858C01D5
:103E50009D010F5F1F4F2F4F3F4F0C871D872E87F0
:103E60003F8746015701212C312C2101F301818527
:103E70009285A385B485281639064A065B0608F0A4
:103E800044C00C851D852E853F85081519052A051A
:103E90003B0550F482E0882E912CA12CB12C92E0AD
:103EA000C92ED12CE12CF12C9E012F5F3F4FB50183
:103EB000A401C3010E94521D882339F1D501C40118
:103EC0000196A11DB11D49815A816B817C81452BD1
:103ED000462B472BA9F5AC01BD014C195D096E09B4
:103EE0007F09088519852A853B8540175107620798
:103EF000730741F50FEF1FEF2FEF3FE0B501A4016E
:103F0000C3010E943E1E811125C01D828D812F9606
:103F10000FB6F894DEBF0FBECDBFDF91CF911F91DA
:103F20000F91FF90EF90DF90CF90BF90AF909F9058
:103F30008F907F906F905F904F903F902F9008955B
:103F40006C017D011FEF211A310A410A510A4C010F
:103F50005D018CCFC814D904EA04FB0488F4140171
:103F6000250121E0221A31084108510895018401F8
:103F7000B201A101C3010E943E1E52014101C3CF03
:103F8000AE81BF814D915D916D917C91411551053F
:103F90006105710561F4EE81FF81C082D182E28208
:103FA000F382FD81F1110BC001E00D83AFCF9701CA
:103FB0008601C3010E943E1E8111EDCFA6CF1FEFE7
:103FC000C11AD10AE10AF10AD301CD92DD92ED9234
:103FD000FC9213979BCFAF92BF92CF92DF92EF925A
:103FE000FF920F931F93CF93DF9300D000D0CDB7F4
:103FF000DEB75C016A017B0182E090E0A0E0B0E006
:10400000F50180839183A283B3839E012F5F3F4F8D
:10401000B701A601C5010E94521D882381F100E06D
:1040200010E09801B701A601C5010E943E1E882339
:1040300031F1C980DA80EB80FC80F501878980311D
:10404000C9F088EF9FEFAFEFBFE0C816D906EA06C8
:10405000FB06D8F281E00F900F900F900F90DF9148
:10406000CF911F910F91FF90EF90DF90CF90BF9075
:10407000AF90089588EF9FEFA0E0B0E0E6CF80E03A
:10408000EACF8F929F92AF92BF92CF92DF92EF9240
:10409000FF920F931F93CF93DF93EC01142F709334
:1040A000190760931807442309F478C0453070F06D
:1040B00080E0DF91CF911F910F91FF90EF90DF9003
:1040C000CF90BF90AF909F908F90089540E060E0B8
:1040D00070E0CB010E94F31C882351F3812F8150A3
:1040E000990BAC0164E0440F551F6A95E1F7465EF9
:1040F000584FFA01E254FE4F80818F77C9F63C9603
:1041000080819181A281B38184369105A105B10599
:1041100078F24A535E4FFA01C080D180E280F3808A
:10412000C114D104E104F10419F240E0C701B60161
:104130000E94F31C882309F4BBCF8091250790913E
:1041400026078115924009F0B3CF90912A07992351
:1041500009F4AECF2091280730912907232B09F4C9
:10416000A7CF80912707882309F4A2CF9A8B8C834D
:104170001D8690E041E050E02D85E22FBA01022E2D
:1041800002C0660F771F0A94E2F78617970751F06F
:1041900031E0320F3D87283078F38ACFC12CD12C03
:1041A0007601C3CF209130073091310750E040E0D5
:1041B0002115310541F420913E0730913F07409190
:1041C0004007509141072D833E834F83588780914C
:1041D00028079091290746015701880E991EA11CB6
:1041E000B11C8B8A9C8AAD8ABE8A00912B071091E4
:1041F0002C07198F088FA0912A07B0E00E94722A1D
:10420000DC01CB01880D991DAA1DBB1D8A8F9B8FD8
:10421000AC8FBD8F25E0000F111F2A95E1F70150EB
:104220001E4F012F11270695800F911FA11DB11D53
:104230008E879F87A88BB98B00912D0710912E0731
:1042400030E020E00115110541F400913A0710918A
:104250003B0720913C0730913D07C81AD90AEA0A6A
:10426000FB0AC00ED11EE21EF31E04C0F694E794B2
:10427000D794C794EA95D2F7C986DA86EB86FC868E
:104280008CE025EFC2162FE0D206E104F10440F0E5
:1042900085EFC8168FEFD806E104F10420F480E121
:1042A0008F8B81E006CF8091460790914707A091C0
:1042B0004807B09149078A8F9B8FAC8FBD8F80E2F2
:1042C000EFCFCF93CFB7F89480911D09811127C00C
:1042D000EAEDF1E08491EAEBF1E09491E82FF0E06F
:1042E000EE0FFF1FE65FFD4FA591B491EC91E9231E
:1042F00021F461E084E00E94872861E084E00E946C
:104300004B288CB580618CBD8CB580648CBD61E020
:1043100087E00E944B2861E085E00E944B28809155
:104320001D098F5F80931D09CFBFCF910895FC01B8
:10433000918D228D892F90E0805C9F4F821B910987
:104340008F7399270895FC01918D828D981731F014
:10435000828DE80FF11D858D90E008958FEF9FEF1E
:104360000895FC01918D828D981761F0A28DAE0F9A
:10437000BF2FB11D5D968C91928D9F5F9F73928F21
:1043800090E008958FEF9FEF0895FC01538D448DC9
:10439000252F30E0842F90E0821B930B541710F0F0
:1043A000CF9608950197089580E393E2892B49F011
:1043B00080E090E0892B29F00E94302381110E9437
:1043C000000087EC93E2892B49F080E090E0892B94
:1043D00029F00E94C72381110C9400000895FC016C
:1043E000A48DA80FB92FB11DA35ABF4F2C91848D56
:1043F00090E001968F739927848FA689B7892C93B3
:10440000A089B1898C91837080648C93938D848D05
:10441000981306C00288F389E02D80818F7D808308
:104420000895CF93DF93EC01888D8823B9F0AA8992
:10443000BB89E889F9898C9185FD03C0808186FD5F
:104440000DC00FB607FCF7CF8C9185FFF2CF8081AE
:1044500085FFEDCFCE010E94EF21E9CFDF91CF9113
:104460000895EF92FF920F931F93CF93DF93EC0188
:1044700081E0888F9B8D8C8D98131AC0E889F9890B
:10448000808185FF15C09FB7F894EE89FF8960830E
:10449000E889F98980818370806480839FBF81E08F
:1044A00090E0DF91CF911F910F91FF90EF900895D1
:1044B000F62E0B8D10E00F5F1F4F0F731127E02EAC
:1044C0008C8D8E110CC00FB607FCFACFE889F989E4
:1044D000808185FFF5CFCE010E94EF21F1CFEB8DDA
:1044E000EC0FFD2FF11DE35AFF4FF0829FB7F894B8
:1044F0000B8FEA89FB8980818062CFCFCF92DF92D8
:10450000EF92FF921F93CF93DF93EC016A017B013F
:10451000122F60E874E88EE190E0A70196010E94F6
:10452000472A215031094109510956954795379538
:104530002795E889F98982E08083211580E1380791
:1045400098F0E889F989108260E472E48FE090E0E5
:10455000A70196010E94472A2150310941095109BA
:104560005695479537952795EC85FD853083EE85E3
:10457000FF852083188EEC89FD891083EA89FB89E9
:10458000808188698083EA89FB8980818F7D80832F
:10459000DF91CF911F91FF90EF90DF90CF90089522
:1045A0001F920F920FB60F9211240BB60F922F93FA
:1045B0008F939F93EF93FF93E0912E09F0912F0932
:1045C0008081E0913409F091350982FD1DC0908110
:1045D000809137098F5F8F7320913809821741F0DE
:1045E000E0913709F0E0E25EF64F958F809337094E
:1045F000FF91EF919F918F912F910F900BBE0F9094
:104600000FBE0F901F9018958081F2CF1F920F92CE
:104610000FB60F9211240BB60F922F933F934F9327
:104620005F936F937F938F939F93AF93BF93EF931A
:10463000FF938EE199E00E94EF21FF91EF91BF91EE
:10464000AF919F918F917F916F915F914F913F912A
:104650002F910F900BBE0F900FBE0F901F901895CB
:104660008EE199E00E94972121E0892B09F420E056
:10467000822F0895EEE1F9E01382128288EE93E032
:10468000A0E0B0E084839583A683B78384EF91E0B4
:104690009183808385EC90E09587848784EC90E01B
:1046A0009787868780EC90E0918B808B81EC90E0FF
:1046B000938B828B82EC90E0958B848B86EC90E0E0
:1046C000978B868B118E128E138E148E08951F92E7
:1046D0000F920FB60F9211240BB60F922F938F9358
:1046E0009F93EF93FF93E091CB09F091CC098081E8
:1046F000E091D109F091D20982FD1DC09081809195
:10470000D4098F5F8F732091D509821741F0E09112
:10471000D409F0E0E554F64F958F8093D409FF91CA
:10472000EF919F918F912F910F900BBE0F900FBE25
:104730000F901F9018958081F2CF1F920F920FB6A5
:104740000F9211240BB60F922F933F934F935F93C9
:104750006F937F938F939F93AF93BF93EF93FF9349
:104760008BEB99E00E94EF21FF91EF91BF91AF9108
:104770009F918F917F916F915F914F913F912F9179
:104780000F900BBE0F900FBE0F901F9018958BEBE4
:1047900099E00E94972121E0892B09F420E0822FE3
:1047A0000895EBEBF9E01382128288EE93E0A0E02B
:1047B000B0E084839583A683B78384EF91E09183EF
:1047C00080838DEC90E0958784878CEC90E09787D0
:1047D000868788EC90E0918B808B89EC90E0938BBE
:1047E000828B8AEC90E0958B848B8EEC90E0978B9B
:1047F000868B118E128E138E148E0895AF92BF92F7
:10480000CF92DF92EF92FF920F931F93CF93DF939C
:104810006C017B018B01040F151FEB015E01AE18CB
:10482000BF08C017D10759F06991D601ED91FC91ED
:104830000190F081E02DC6010995892B79F7C5011A
:10484000DF91CF911F910F91FF90EF90DF90CF906C
:10485000BF90AF900895FB0101900020E9F73197D8
:10486000AF01461B570BDC01ED91FC910280F381F7
:10487000E02D0994DB0114964D915C9115976D9193
:104880007C91DC01ED91FC910280F381E02D099493
:104890006115710511F00C942B2490E080E00895CF
:1048A000DC01ED91FC910190F081E02D099462E032
:1048B00072E00C942B240F931F93CF93DF93EC01A2
:1048C0000E943A248C01CE010E945724800F911F30
:1048D000DF91CF911F910F9108950F931F93CF9365
:1048E000DF938C01D0E0C0E06115710519F00E94E2
:1048F0002B24EC01C8010E9457248C0F9D1FDF91CF
:10490000CF911F910F9108958F929F92AF92BF9276
:10491000EF92FF920F931F93CF93DF93CDB7DEB744
:10492000A1970FB6F894DEBF0FBECDBF7C01FA0190
:10493000CB0119A2223008F42AE08E010F5D1F4F2F
:10494000822E912CB12CA12CBF01A50194010E94B3
:10495000472AF901CA016A300CF5605DD8016E93EF
:104960008D01232B242B252B79F790E080E01097E5
:1049700021F0BD01C7010E942B24A1960FB6F89427
:10498000DEBF0FBECDBFDF91CF911F910F91FF9082
:10499000EF90BF90AF909F908F900895695CDECFAD
:1049A0002115310541F4DC01ED91FC910190F0817C
:1049B000E02D642F09940C9484240F931F93CF93BC
:1049C000DF93EC010E94D0248C01CE010E94572479
:1049D000800F911FDF91CF911F910F910895FC01DE
:1049E00080819181009711F00C94462B0895CF930C
:1049F000DF93EC0188819981009711F00E94462B8A
:104A0000198218821D821C821B821A82DF91CF912B
:104A100008950F931F93CF93DF93EC018B016F5F8A
:104A20007F4F888199810E94CF2B009751F0998305
:104A300088831B830A8381E0DF91CF911F910F91BF
:104A4000089580E0F9CFCF93DF93EC0188819981BD
:104A5000892B49F08A819B818617970720F081E096
:104A6000DF91CF910895CE010E9409258823C1F3DB
:104A70008C819D81892B99F7E881F9811082EFCF94
:104A8000EF92FF920F931F93CF93DF93EC017B0183
:104A90008A01BA010E94232581110BC0CE010E9418
:104AA000F724CE01DF91CF911F910F91FF90EF90EE
:104AB00008951D830C83B701888199810E94D12CB0
:104AC000F0CFFC01118210821382128215821482AF
:104AD0006115710551F0FB0101900020E9F7319754
:104AE000AF01461B570B0C9440250895FB01019024
:104AF0000020E9F73197AF01461B570B0C94402576
:104B00000F931F93CF93DF93CDB7DEB729970FB6DF
:104B1000F894DEBF0FBECDBF8C01862FF801118245
:104B20001082138212821582148250E0BE016F5FE0
:104B30007F4F90E00E942A2DBE016F5F7F4FC8011A
:104B40000E94762529960FB6F894DEBF0FBECDBF22
:104B5000DF91CF911F910F9108950F931F93CF93E2
:104B6000DF93CDB7DEB762970FB6F894DEBF0FBE06
:104B7000CDBF8C01CB01F801118210821382128209
:104B80001582148250E0BE016F5F7F4F0E94E72CB8
:104B9000BE016F5F7F4FC8010E94762562960FB6F7
:104BA000F894DEBF0FBECDBFDF91CF911F910F9163
:104BB00008950F931F93CF93DF93CDB7DEB761971F
:104BC0000FB6F894DEBF0FBECDBF8C01CB01F8014C
:104BD00011821082138212821582148250E0BE016B
:104BE0006F5F7F4F0E942A2DBE016F5F7F4FC8010C
:104BF0000E94762561960FB6F894DEBF0FBECDBF3A
:104C0000DF91CF911F910F9108950F931F93CF9331
:104C1000DF93CDB7DEB7A1970FB6F894DEBF0FBE16
:104C2000CDBF8C01CB01BA01F80111821082138231
:104C300012821582148230E0AE014F5F5F4F0E94F6
:104C4000FD2CBE016F5F7F4FC8010E947625A196A3
:104C50000FB6F894DEBF0FBECDBFDF91CF911F918D
:104C60000F910895CF93DF93EC01FB01861797070F
:104C700049F0608171816115710541F04481558170
:104C80000E944025CE01DF91CF9108950E94F72424
:104C9000F9CFFC01118210821382128215821482D4
:104CA0000C943226CF93DF93EC016115710531F03E
:104CB0000E947625CE01DF91CF9108950E94F724BE
:104CC000F9CFEF92FF920F931F93CF93DF93CDB75E
:104CD000DEB7A1970FB6F894DEBF0FBECDBF7C0143
:104CE000CB01BA01F7011182108213821282158260
:104CF000148242E0420F8E010F5F1F4F0E948C2AE8
:104D0000BC01C7010E945226A1960FB6F894DEBFDF
:104D10000FBECDBFDF91CF911F910F91FF90EF900C
:104D20000895EF92FF920F931F93CF93DF93611536
:104D3000710541F480E0DF91CF911F910F91FF90B9
:104D4000EF90089541155105B1F07B01EC010C8104
:104D50001D81040F151FB8010E942325882351F3DC
:104D6000288139818C819D81B701820F931F0E9418
:104D7000D12C1D830C8381E0DECFFB014481558162
:104D8000608171810C9491266115710551F0FB01D0
:104D900001900020E9F73197AF01461B570B0C94A7
:104DA000912680E00895CF93DF93EC01FB014481CD
:104DB0005581608171810E949126811103C0CE01CD
:104DC0000E94F724CE01DF91CF910895CF93DF9316
:104DD000EC016115710539F4CE010E94F724CE0172
:104DE000DF91CF910895FB0101900020E9F7319701
:104DF000AF01461B570B0E949126882369F3EFCF22
:104E0000FC01248135816217730720F48081918130
:104E1000009729F41092580A88E59AE00895860FC1
:104E2000971F089508950E94E1270E9412270E946B
:104E30007F05C4EDD1E20E947F0A2097E1F30E9432
:104E4000D421F9CF1F920F920FB60F9211242F93F6
:104E50003F938F939F93AF93BF9380915E0A9091FE
:104E60005F0AA091600AB091610A30915D0A26E064
:104E7000230F2D3768F129E8230F0396A11DB11DDB
:104E800020935D0A80935E0A90935F0AA093600A64
:104E9000B093610A8091590A90915A0AA0915B0AD5
:104EA000B0915C0A0196A11DB11D8093590A90939F
:104EB0005A0AA0935B0AB0935C0ABF91AF919F918D
:104EC0008F913F912F910F900FBE0F901F901895CB
:104ED0000296A11DB11DD4CF2FB7F89460915E0A40
:104EE00070915F0A8091600A9091610A2FBF0895C6
:104EF0003FB7F8948091590A90915A0AA0915B0AA1
:104F0000B0915C0A26B5A89B05C02F3F19F0019609
:104F1000A11DB11D3FBFBA2FA92F982F8827BC0113
:104F2000CD01620F711D811D911D43E0660F771F3A
:104F3000881F991F4A95D1F708958F929F92AF923B
:104F4000BF92CF92DF92EF92FF926B017C010E94A1
:104F500078274B015C01C114D104E104F104E9F0AC
:104F60000E94DE280E947827681979098A099B091E
:104F7000683E73408105910570F321E0C21AD108A3
:104F8000E108F10888EE880E83E0981EA11CB11C90
:104F9000C114D104E104F10429F7FF90EF90DF90F0
:104FA000CF90BF90AF909F908F9008950000000029
:104FB0008330910528F0880F991F05970197F1F725
:104FC0000895789484B5836084BD85B5836085BD7C
:104FD000EEE6F0E0808181608083E1E8F0E082E04D
:104FE0008083808181608083E0E8F0E0808181605F
:104FF0008083E1EBF0E0808184608083E0EBF0E08F
:10500000808181608083E1E9F0E08081836080833A
:10501000E0E9F0E080818160808386E880937A0017
:105020001092C100089582508A3088F5E82FF0E090
:10503000E45EF74D0C94692A4428482826282C2839
:1050400047284728302836283A2840288091800071
:105050008F77809380000895809180008F7DF9CFB5
:105060008091B0008F778093B00008958091B00058
:105070008F7DF9CF809190008F7780939000089575
:10508000809190008F7DF9CF84B58F7784BD08958E
:1050900084B58F7DFBCFCF93DF9390E0FC01EA5482
:1050A000FE4F24918A529E4FFC0184918823C9F0BF
:1050B00090E0880F991FFC01E65FFD4FA591B49128
:1050C000FC01E050FE4FC591D49161110DC09FB716
:1050D000F8948C91209582238C93888128232883AF
:1050E0009FBFDF91CF910895623051F49FB7F8943C
:1050F0003C91822F809583238C93E8812E2BEFCFD8
:105100008FB7F894EC912E2B2C938FBFEACF1F937F
:10511000CF93DF93282F30E0F901EA56FE4F8491B8
:10512000F901EA54FE4FD491F901EA52FE4FC491BD
:10513000CC23A9F0162F81110E941328EC2FF0E048
:10514000EE0FFF1FE050FE4FA591B4918FB7F8947A
:10515000EC91111108C0D095DE23DC938FBFDF9155
:10516000CF911F910895DE2BF8CFCF93DF93282F97
:1051700030E0F901EA56FE4F8491F901EA54FE4FFE
:10518000D491F901EA52FE4FC491CC23A1F08111D0
:105190000E941328EC2FF0E0EE0FFF1FEA50FE4FA5
:1051A000A591B491EC91ED2381E090E009F480E0C9
:1051B000DF91CF91089580E090E0FACF08955058A4
:1051C000BB27AA270E94F7280C94A0290E949229A5
:1051D00038F00E94992920F039F49F3F19F426F401
:1051E0000C948F290EF4E095E7FB0C948929E92FA4
:1051F0000E94B12958F3BA1762077307840795070D
:1052000020F079F4A6F50C94D3290EF4E0950B2E3A
:10521000BA2FA02D0B01B90190010C01CA01A00108
:105220001124FF27591B99F0593F50F4503E68F163
:105230001A16F040A22F232F342F4427585FF3CFA4
:10524000469537952795A795F0405395C9F77EF475
:105250001F16BA0B620B730B840BBAF09150A1F0BE
:10526000FF0FBB1F661F771F881FC2F70EC0BA0F44
:10527000621F731F841F48F4879577956795B795CC
:10528000F7959E3F08F0B0CF9395880F08F09927C7
:10529000EE0F979587950895E89409C097FB3EF423
:1052A00090958095709561957F4F8F4F9F4F992373
:1052B000A9F0F92F96E9BB279395F69587957795F1
:1052C0006795B795F111F8CFFAF4BB0F11F460FFB1
:1052D0001BC06F5F7F4F8F4F9F4F16C0882311F009
:1052E00096E911C0772321F09EE8872F762F05C01D
:1052F000662371F096E8862F70E060E02AF09A95B8
:10530000660F771F881FDAF7880F9695879597F9AC
:10531000089597F99F6780E870E060E008959FEF37
:1053200080EC089500240A9416161706180609063C
:10533000089500240A94121613061406050608950B
:10534000092E0394000C11F4882352F0BB0F40F493
:10535000BF2B11F460FF04C06F5F7F4F8F4F9F4FD3
:10536000089557FD9058440F551F59F05F3F71F055
:105370004795880F97FB991F61F09F3F79F08795BC
:105380000895121613061406551FF2CF4695F1DF45
:1053900008C0161617061806991FF1CF86957105D5
:1053A000610508940895E894BB2766277727CB0109
:1053B00097F908950E94ED290C94A0290E94922942
:1053C00038F00E94992920F0952311F00C94892936
:1053D0000C948F2911240C94D4290E94B12970F3C4
:1053E000959FC1F3950F50E0551F629FF001729F8A
:1053F000BB27F00DB11D639FAA27F00DB11DAA1F99
:10540000649F6627B00DA11D661F829F2227B00DE5
:10541000A11D621F739FB00DA11D621F839FA00D70
:10542000611D221F749F3327A00D611D231F849FC0
:10543000600D211D822F762F6A2F11249F57504017
:105440009AF0F1F088234AF0EE0FFF1FBB1F661F92
:10545000771F881F91505040A9F79E3F510580F05B
:105460000C9489290C94D4295F3FE4F3983ED4F33B
:10547000869577956795B795F795E7959F5FC1F7FF
:10548000FE2B880F911D9695879597F90895A1E2B7
:105490001A2EAA1BBB1BFD010DC0AA1FBB1FEE1FAE
:1054A000FF1FA217B307E407F50720F0A21BB30BF9
:1054B000E40BF50B661F771F881F991F1A9469F775
:1054C00060957095809590959B01AC01BD01CF01D1
:1054D0000895EE0FFF1F0024001C0BBE0790F691ED
:1054E000E02D09940E947D2AA59F900DB49F900DF8
:1054F000A49F800D911D11240895A29FB001B39F18
:10550000C001A39F700D811D1124911DB29F700DCC
:10551000811D1124911D0895EF920F931F93CF9336
:10552000DF93E80134E047FD34E1042E000C550B15
:1055300057FF03C0519541955109E32E022F242FA7
:10554000AE010E944F2DCE01DF91CF911F910F919F
:10555000EF9008950F931F93CF93DF9382309105BF
:1055600010F482E090E0E091640AF091650A30E086
:1055700020E0B0E0A0E0309799F42115310509F45E
:105580004AC0281B390B24303105D8F58A819B810C
:105590006115710589F1FB0193838283FE0111C0BE
:1055A000408151810281138148175907E0F0481763
:1055B000590799F4109761F012960C93129713966D
:1055C0001C933296CF01DF91CF911F910F910895D7
:1055D0000093640A1093650AF4CF2115310551F048
:1055E0004217530738F0A901DB019A01BD01DF0121
:1055F000F801C1CFEF01F9CF9093650A8093640A57
:10560000CDCFFE01E20FF31F819391932250310918
:1056100039832883D7CF2091620A3091630A232BE4
:1056200041F420910201309103013093630A2093E9
:10563000620A20910001309101012115310541F4E8
:105640002DB73EB74091040150910501241B350B45
:10565000E091620AF091630AE217F307A0F42E1BAF
:105660003F0B2817390778F0AC014E5F5F4F2417C6
:10567000350748F04E0F5F1F5093630A4093620A4C
:10568000819391939FCFF0E0E0E09CCFCF93DF93A5
:105690000097E9F0FC01329713821282A091640A0C
:1056A000B091650AED0130E020E01097A1F420816F
:1056B0003181820F931F2091620A3091630A28176B
:1056C000390709F061C0F093630AE093620ADF9141
:1056D000CF910895EA01CE17DF07E8F54A815B8193
:1056E0009E0141155105B1F7E901FB83EA83499118
:1056F0005991C40FD51FEC17FD0761F4808191818A
:105700000296840F951FE901998388838281938192
:105710009B838A83F0E0E0E012968D919C91139731
:105720000097B9F52D913C911197CD010296820F0A
:10573000931F2091620A3091630A2817390739F6BE
:10574000309751F51092650A1092640AB093630A7B
:10575000A093620ABCCFD383C28340815181840F5E
:10576000951FC817D90761F44E5F5F4F88819981F3
:10577000480F591F518340838A819B819383828381
:105780002115310509F0B0CFF093650AE093640A62
:105790009ECFFD01DC01C0CF13821282D7CF4F9282
:1057A0005F926F927F928F929F92AF92BF92CF92B1
:1057B000DF92EF92FF920F931F93CF93DF938C01B1
:1057C000009799F4CB01DF91CF911F910F91FF903A
:1057D000EF90DF90CF90BF90AF909F908F907F9091
:1057E0006F905F904F900C94AA2AFC01E60FF71F70
:1057F0009C0122503109E217F30708F4AEC0D90129
:10580000CD91DC911197C617D70720F1C530D1058E
:1058100078F0CE0104978617970750F0C61BD70B78
:105820002297C193D1936D937C93CF010E94462B15
:10583000C801DF91CF911F910F91FF90EF90DF9002
:10584000CF90BF90AF909F908F907F906F905F9020
:105850004F9008955B01AC1ABD0A4C018C0E9D1E41
:10586000A091640AB091650A512C412CF12CE12CD5
:10587000109731F58091620A9091630A8815990515
:1058800009F05CC04616570608F058C08091000128
:1058900090910101009741F48DB79EB740910401AA
:1058A00050910501841B950BE817F90708F055C0C6
:1058B000F093630AE093620AF90171836083B8CFC1
:1058C0008D919C91119712966C90129713967C90E3
:1058D0001397A815B90559F56C0142E0C40ED11C07
:1058E000CA14DB0420F1AC014A195B09DA011296F3
:1058F000159780F06282738251834083D9016D9342
:105900007C93E114F10471F0D7011396FC93EE93AC
:1059100012978ECF22968C0F9D1FF9019183808361
:10592000F301EFCFF093650AE093640A81CF481644
:10593000590608F42C017D01D3019ACFCB010E94B6
:10594000AA2A7C01009749F0AE01B8010E94BD2C43
:10595000C8010E94462B87016BCF10E000E068CFA2
:10596000FB01DC0104C08D910190801921F44150AC
:105970005040C8F7881B990B0895FB01DC0102C059
:1059800001900D9241505040D8F70895FC0181914B
:10599000861721F08823D9F7992708953197CF01E9
:1059A0000895FB01DC0101900D920020E1F70895BC
:1059B000FB01DC014150504048F001900D92002065
:1059C000C9F701C01D9241505040E0F7089545329B
:1059D000510520F4423010F00C94F22CFB0110829F
:1059E000CB010895BB274A3031F4992322F4BDE25C
:1059F000909581959F4F0C94362D2532310520F4DA
:105A0000223010F00C94082DFA011082CA0108957A
:105A1000BB27FA01A62F6217710581059105330B8B
:105A200030FB66F0AA27660F771F881F991FAA1FF1
:105A3000A21710F0A21B63953850A9F7A05DAA33F6
:105A400008F0A95DA19336F7B111B1931082CA0194
:105A50000C94A32F4532510520F4423010F00C94E1
:105A6000352DFB011082CB010895BB27FB01552783
:105A7000AA27880F991FAA1FA41710F0A41B8395AB
:105A80005051B9F7A05DAA3308F0A95DA193009722
:105A900079F7B111B1931192CB010C94A32F8F928E
:105AA0009F92AF92BF92CF92DF92EF92FF920F93AD
:105AB0001F93CF93DF93CDB7DEB729970FB6F89436
:105AC000DEBF0FBECDBF6A01F22EB02E102FFBE35A
:105AD000AF2EA01608F41BE31F5F012F27E0AE01D5
