:020000040000FA
:100000000C9411010C943B010C943B010C943B01AA
:100010000C943B010C943B010C943B010C943B0170
:100020000C943B010C943B010C943B010C943B0160
:100030000C943B010C946A010C943B010C943B0121
:100040000C943B010C943B010C94AA240C943B01AE
:100050000C9458200C948E200C943B010C943B0182
:100060000C943B010C943B010C94D40A0C943B017E
:100070000C94EF200C9425210C943B010C943B0133
:100080000C943B010C943B010C943B0100407A1012
:10009000F35A00A0724E18090010A5D4E80000E839
:1000A0007648170000E40B54020000CA9A3B000097
:1000B00000E1F505000080969800000040420F0026
:1000C0000000A08601000000102700000000E803E7
:1000D000000000006400000000000A0000000000B2
:1000E0000100000000002C76D888DC674F0823DF71
:1000F000C1DFAE59E1B1B796E5E3E453C63AE65144
:10010000997696E8E6C28426EB898C9B62ED407C6A
:100110006FFCEFBC9C9F40F2BAA56FA5F490055A06
:100120002AF75C936B6CF9676DC11BFCE0E40D472B
:10013000FEF520E6B500D0ED902E0300943577054E
:100140000080841E080000204E0A000000C80C3306
:100150003333330F986E12831141EF8D2114893B95
:10016000E65516CFFEE6DB18D1844B381BF77C1D15
:10017000901DA4BBE424203284725E228100C9F168
:1001800024ECA1E53D277C3C3E5E2B3D3F2F5B5D93
:100190003B2C2A225C000000000203000A0B000036
:1001A0000000050409080000000000000000000035
:1001B000000000000000010204081020408001023D
:1001C0000408102040800102040810204080010231
:1001D000040810204080020202020202020204040B
:1001E00004040404040403030303030303030101DD
:1001F0000101010101010000200023002600290067
:1002000000002200250028002B000000210024000F
:1002100027002A007901E909ED0F0713C2205921AF
:100220008B0111241FBECFEFD0E4DEBFCDBF11E0A4
:10023000A0E0B1E0E0E9FAE500E00BBF02C0079002
:100240000D92A43FB107D9F72AE0A4EFB1E001C0B5
:100250001D92A935B207E1F711E0C0E1D1E004C079
:100260002197FE010E94F127CA30D107C9F70E94E9
:100270009B240C943B2D0C940000DC01ED91FC912F
:100280000190F081E02D09940CB405FC0DC09EBDD9
:1002900000000DB407FEFDCF9EB58EBD00000DB46D
:1002A00007FEFDCF8EB508958EBD00000DB407FE8C
:1002B000FDCF8EB59EBD00000DB407FEFDCF9EB5EF
:1002C0000895982F92959F708F702AE0929F800DCD
:1002D000112408951F920F920FB60F9211248F933D
:1002E00081E08093F4018F910F900FBE0F901F90CB
:1002F00018956BE071E080E196E00E94E9226CE3E2
:1003000071E08AE096E00E94E92263EF71E084E008
:1003100096E00C94E92284E096E00E9477228AE03D
:1003200096E00E94772280E196E00C947722CF93AA
:10033000DF9361E570E086E196E00E94680970E075
:1003400060E086E196E00E943D0186E196E00E9431
:10035000E60946E050E061E570E086E196E00E9443
:10036000E30986E196E00E94DB080E946101809328
:10037000F50186E196E00E94DB088F770E9461011B
:10038000D82F86E196E00E94DB088F770E946101FA
:10039000C82F86E196E00E94DB080E94610190E090
:1003A000B0E0A0E08093F6019093F701A093F801EC
:1003B000B093F90186E196E00E94DB080E9461019A
:1003C00024E6829FC0011124092E000CAA0BBB0B4E
:1003D0004091F6015091F7016091F8017091F90197
:1003E000840F951FA61FB71F8093F6019093F70106
:1003F000A093F801B093F90186E196E00E94DB0832
:100400000E94610140E157E2849F9001859F300D79
:100410001124032E000C440B550B8091F601909192
:10042000F701A091F801B091F901280F391F4A1F77
:100430005B1FA0E1BEE00E94FA27AB01BC012CE3E8
:10044000C29FC0011124092E000CAA0BBB0B8D0FFB
:10045000911DA11DB11D840F951FA61FB71F80936D
:10046000F6019093F701A093F801B093F901DF91A1
:10047000CF9108950F931F93CF93DF93C82F65E516
:1004800070E086E196E00E9468090C2E000CDD0BFE
:10049000BE0186E196E00E943D0186E196E00E9461
:1004A000E60941E050E065E570E086E196E00E94F3
:1004B000E30986E196E00E94DB088C0165E570E0C7
:1004C00086E196E00E946809BE016F5F7F4F86E17A
:1004D00096E00E943D0186E196E00E94E60941E037
:1004E00050E065E570E086E196E00E94E30986E170
:1004F00096E00E94DB0820E0382FC901800F911F91
:10050000DF91CF911F910F9108958F929F92AF929B
:10051000BF92EF92FF920F931F93CF93DF93CDB7CC
:10052000DEB7A7970FB6F894DEBF0FBECDBF61E070
:1005300083E10E940F2660E082E10E940F2603E023
:1005400012E08AEFE82E81E0F82E812C912C5401E4
:10055000F80181918F01880E911CA11CB11CF5E05E
:100560000A3F1F07A9F761E08EE00E940F2663EFA4
:1005700071E0CE0182960E94E9220E94970161E516
:1005800071E0CE0182960E944C2460910006709129
:1005900001064AE0CE0101960E946123BE016F5F11
:1005A0007F4FCE0182960E944524CE0101960E9483
:1005B000772260EA71E0CE0182960E944C2440913D
:1005C000F6015091F7016091F8017091F9012AE06C
:1005D000CE0101960E948D23BE016F5F7F4FCE0139
:1005E00082960E944524CE0101960E94772268E8F7
:1005F00071E0CE0182960E944C244AE06091F501A0
:10060000CE0101960E940823BE016F5F7F4FCE018D
:1006100082960E944524CE0101960E94772260EACC
:1006200071E0CE0182960E944C242AE0B501A4011B
:10063000CE0101960E948D23BE016F5F7F4FCE01D8
:1006400082960E944524CE0101960E94772260EA9C
:1006500071E0CE0182960E944C2488E00E943A020A
:100660004AE0BC01CE0101960E943523BE016F5FB6
:100670007F4FCE0182960E944524CE0101960E94B2
:10068000772260EA71E0CE0182960E944C248AE0D3
:100690000E943A024AE0BC01CE0101960E94352335
:1006A000BE016F5F7F4FCE0182960E944524CE012E
:1006B00001960E94772260EA71E0CE0182960E9444
:1006C0004C2484E00E943A024AE0BC01CE0101962B
:1006D0000E943523BE016F5F7F4FCE0182960E943C
:1006E0004524CE0101960E94772260EA71E0CE0196
:1006F00082960E944C2486E00E943A024AE0BC01A5
:10070000CE0101960E943523BE016F5F7F4FCE015F
:1007100082960E944524CE0101960E94772260EACB
:1007200071E0CE0182960E944C248CE00E943A0235
:10073000BC01990F880B990B0E94D6262DEC3CEC3E
:100740004CEC5DE30E94622723E333E948E853E47D
:100750000E946726AB01BC0122E0CE0101960E94F7
:10076000E923BE016F5F7F4FCE0182960E94452430
:10077000CE0101960E94772260EA71E0CE01829656
:100780000E944C24F70161917F014AE0CE0101965D
:100790000E940823BE016F5F7F4FCE0182960E94A8
:1007A0004524CE0101960E9477220E151F0521F7E0
:1007B00080910601882359F164E088EB96E00E945D
:1007C000370E68E571E0882309F487C0409104067C
:1007D0005091050623E168EB76E0CE0101960E9478
:1007E000570FCE0101960E942B0D882309F473C088
:1007F000BE016E5D7F4FCE0101960E94E321CE01C6
:1008000001960E94190D61E084E00E940F26AEA0BF
:10081000BFA010E000E0FF24FA9485E10E943D268D
:10082000892B19F0FA94F110F8CF82E390E00E943E
:100830005E257801FFEFEF1AFF0AB801CE0182961C
:100840000E948824FC01608181E199E00E94D82106
:10085000AE14BF0408F048C081E199E00E94DF2196
:10086000BE016E5D7F4F8EEA99E00E94E32160E059
:100870008EE00E940F26809100069091010601965D
:10088000893FFAE29F0790F5909301068093000656
:1008900061E082E10E940F2660E083E10E940F2662
:1008A00061E070E080E090E00E942525CE01829614
:1008B0000E947722A7960FB6F894DEBF0FBECDBF79
:1008C000DF91CF911F910F91FF90EF90BF90AF906C
:1008D0009F908F90089567E671E08EEA99E00E94FC
:1008E000F521109206018FCF870195CF1092010656
:1008F0001092000660910206709103066F5F7F4FB1
:1009000070930306609302064AE0CE014C960E9463
:100910006123BE01645E7F4FCE0101960E94D12308
:1009200061E771E0CE0101960E946E24BC0184E073
:1009300096E00E94BA23CE0101960E947722CE0152
:100940004C960E94772266E771E08EEA99E00E9459
:10095000D02164E076E08EEA99E00E94E32198CF0E
:10096000CF92DF92EF92FF920F931F93CF93DF937B
:10097000CDB7DEB7C254D1090FB6F894DEBF0FBEB3
:10098000CDBF26E040E052EC61E070E081E199E00B
:100990000E94062026E040E052EC61E070E08EEA22
:1009A00099E00E94062061E871E08EEA99E00E94D9
:1009B000F52161E08FE10E94D32561E08FE10E9483
:1009C0000F2660E08BE10E94D32560E085E10E9464
:1009D000D32561E086E10E94D32561E087E10E9492
:1009E000D32560E080E00E94D32561E082E10E948F
:1009F000D32561E082E10E940F2661E083E10E943D
:100A0000D32561E083E00E94D32561E084E00E9469
:100A1000D32560E085E00E94D32560E086E00E9457
:100A2000D32561E087E00E94D32561E083E10E9445
:100A30000F2661E084E00E940F2660E087E00E94BC
:100A40000F2661E084E10E94D32560E084E10E94EA
:100A50000F2615E060E570E080E090E00E9425251B
:100A600061E08CE00E94D32561E08CE00E940F26BB
:100A700060E570E080E090E00E94252560E08CE079
:100A80000E940F26115031F761E08CE00E940F2682
:100A900008EC10E084EB90E00E945E2561E08FE0BE
:100AA0000E94D32561E08FE00E940F2684EB90E046
:100AB0000E945E2561E08FE00E94D32560E08FE018
:100AC0000E940F260150110929F740EA56E861E01B
:100AD00070E086E196E00E945A096AE871E08EEAC9
:100AE00099E00E94F52161E082E00E94D32561E057
:100AF00082E00E940F2661E08AE10E94D32561E036
:100B00008AE10E940F2660E087E10E940F2661E0E3
:100B100086E10E940F2684E498E49093FB0580937D
:100B2000FA0561E570E086E196E00E94680963E2FB
:100B300086E196E00E94FE0860E086E196E00E9471
:100B4000FE0860E086E196E00E94FE0865E086E12E
:100B500096E00E94FE0860E086E196E00E94FE08B2
:100B600060E086E196E00E94FE0867E986E196E093
:100B70000E94FE0860E086E196E00E94FE0860E0C8
:100B800086E196E00E94FE0886E196E00E94E60972
:100B900061E570E086E196E00E9468096FE270E02E
:100BA00086E196E00E943D016CE270E086E196E00D
:100BB0000E943D0186E196E00E94E60961E570E051
:100BC00086E196E00E94680968E270E086E196E0BE
:100BD0000E943D0167E970E086E196E00E943D01D8
:100BE00086E196E00E94E60961E570E086E196E024
:100BF0000E94680960E086E196E00E94FE0860E0DD
:100C000086E196E00E94FE0860E086E196E00E94A0
:100C1000FE0860E086E196E00E94FE0860E086E162
:100C200096E00E94FE0860E086E196E00E94FE08E1
:100C300060E086E196E00E94FE0886E196E00E9470
:100C4000E6096091FA057091FB054AE0CE01019634
:100C50000E94612363E971E0CE014C960E94E92273
:100C60006AE076E0CE014C960E945B2460EA71E077
:100C70000E946E24BE016F5F7F4F0E945B2460EA7A
:100C800071E00E946E2460E176E00E945B2460EADD
:100C900071E00E946E24BC01CE01CD960E94D1234A
:100CA000CE014C960E947722CE0101960E947722B7
:100CB00068E570E086E196E00E94680968E070E00F
:100CC00086E196E00E943D0170E060E086E196E0FA
:100CD0000E943D0186E196E00E94E60940E168E558
:100CE00086E196E00E94E00910E186E196E00E942C
:100CF000DB08082F803130F46FE471E0CE01CD962F
:100D00000E944C2440E1602FCE0101960E940823EE
:100D1000BE016F5F7F4FCE01CD960E944524CE016C
:100D200001960E9477228091FC059091FD05A0918B
:100D3000FE05B091FF05800F911DA11DB11D80938F
:100D4000FC059093FD05A093FE05B093FF0511509F
:100D500061F660E082E10E940F2664E088EB96E095
:100D60000E94370E811108C068E571E08EEA99E0B3
:100D70000E94F5211092060181E090E09093030615
:100D8000809302066091020670910306683C71052B
:100D900078F54AE0CE014C960E946123BE01645E64
:100DA0007F4FCE0101960E94D12361E771E0CE0111
:100DB00001960E946E24BC0184E096E00E94BA2352
:100DC000CE0101960E947722CE014C960E94772296
:100DD000609104067091050688EB96E00E94E20F90
:100DE000882331F080910206909103060196C6CFC8
:100DF00060910206709103066150710970930306B9
:100E0000609302064AE0CE014C960E946123BE0127
:100E1000645E7F4FCE0101960E94D12361E771E0AD
:100E2000CE0101960E946E24BC0184E096E00E94EF
:100E3000BA23CE0101960E947722CE014C960E94E1
:100E4000772215E060E570E080E090E00E942525C3
:100E500061E08DE00E94D32561E08DE00E940F26C5
:100E600060E570E080E090E00E94252560E08DE084
:100E70000E940F26115031F761E08DE00E940F268D
:100E8000409104065091050623E168EB76E0CE011F
:100E90004C960E94570FCE014C960E94DB0C6B01C2
:100EA0007C0162EA71E08EEA99E00E94D0212AE09A
:100EB00030E0B701A6018EEA99E00E94652289E63A
:100EC000C81680E2D80689E5E806F10408F45BC09C
:100ED000CE014C960E94190D609102067091030696
:100EE0006F5F7F4F70930306609302064AE0CE0166
:100EF000C7960E946123BE01695C7F4FCE010196B7
:100F00000E94D12361E771E0CE0101960E946E2418
:100F1000BC0184E096E00E94BA23CE0101960E94B3
:100F20007722CE01C7960E94772240910406509105
:100F3000050623E168EB76E0CE0101960E94570F8B
:100F40008B819C819F8F8E8F8D819E81AF81B88593
:100F500088A399A3AAA3BBA389859A85AB85BC85E1
:100F60008CA39DA3AEA3BFA3DE011D96FE01B89680
:100F7000CE01C5962D912193E817F907D9F78A8DEF
:100F80009B8D9EAB8DAB66E771E08EEA99E00E9487
:100F9000D02164E076E08EEA99E00E94E321CE0160
:100FA0004C960E942B0D882309F466C0BE01635C39
:100FB0007F4FCE014C960E94E321CE014C960E94B9
:100FC000190DBE01635C7F4F8EEA99E00E94E32118
:100FD00061E082E10E940F2615E060E570E080E0AC
:100FE00090E00E94252561E08EE00E94D32561E01B
:100FF0008EE00E940F2660E570E080E090E00E94A5
:10100000252560E08EE00E940F26115031F760E048
:101010008CE00E940F2660E08DE00E940F26109267
:10102000F40180ED80937C00F894109280008DE0B4
:101030008093810083E294EF9093890080938800ED
:10104000109285001092840082E080936F00789463
:10105000CE01CD960E947722CE5BDF4F0FB6F8947B
:10106000DEBF0FBECDBFDF91CF911F910F91FF90DB
:10107000EF90DF90CF90089567E671E08EEA99E0F7
:101080000E94F521109206019CCF61E087E10E9449
:101090000F2660E086E10E940F2690E080E00E942B
:1010A000440161E086E10E940F261092F401189934
:1010B0005AC08091F4018823D1F38BE10E943D2630
:1010C000892B81F1C8ECD0E084EB90E00E945E2592
:1010D00061E08FE00E94D32561E08FE00E940F263F
:1010E00084EB90E00E945E2561E08FE00E94D325B2
:1010F00060E08FE00E940F26219731F76AE670E0EA
:1011000086E196E00E94680968E186E196E00E9427
:10111000FE086AE086E196E00E94FE0886E196E01D
:101120000E94E6091092F40161E086E10E940F2618
:1011300060E087E10E940F260E94850261E087E15E
:101140000E940F2660E086E10E940F2690E080E07A
:101150000E94440161E086E10E940F261092850002
:1011600010928400A4CF84E090E00E945E2560E0AD
:1011700086E10E940F2690E080E00E94440126E074
:10118000969587952A95E1F7FC01E650FE4F808100
:101190008F3F11F08F5F808361E086E10E940F2610
:1011A00086CF90E080E008958091460690914706B2
:1011B000891B990B089590914706809146062FEF61
:1011C0003FEF981748F4E92FF0E0E85BF94F2081F2
:1011D00030E09F5F90934706C9010895E09147066C
:1011E00080914606E81730F4F0E0E85BF94F808123
:1011F00090E008958FEF9FEF08950895CF93DF93C8
:101200001F92CDB7DEB76983209122062223F9F021
:1012100020912306203258F021E030E0FC01338396
:10122000228390E080E00F90DF91CF91089580912C
:101230002406E82FF0E0EB5DF94F998190838F5FF2
:10124000809324068093230681E090E0ECCF61E058
:10125000CE0101960E949D0AF7CFCF92DF92EF92C6
:10126000FF920F931F93CF93DF937C01CB018A01F1
:1012700020912206222389F0EB016B01C40ED51EBA
:10128000CC15DD0569F06991D701ED91FC910190D4
:10129000F081E02DC7010995F3CF642F0E949D0ACC
:1012A000C801DF91CF911F910F91FF90EF90DF90D8
:1012B000CF900895CB01BA010C94FA0981E0809394
:1012C0002206609345061092240610922306089584
:1012D0000C945E090F93062F21E04091230665E2EE
:1012E00076E0809145060E944D0A109224061092E5
:1012F0002306109222060F9108954F925F926F92EB
:101300007F92AF92BF92CF92EF92FF920F931F9373
:10131000CF93DF935C01F62ED42F28013901EE2004
:1013200019F10E945E09CE2DC43008F0C3E0C1500F
:10133000B8F028E0C29FC0011124A301920104C0AB
:1013400056954795379527958A95D2F7B901D501D6
:10135000ED91FC910190F081E02DC5010995E7CF59
:1013600060E0C5010E946A094D2FD13208F040E2C9
:101370002C2D68E476E08F2D0E940D0A109247060E
:1013800080934606DF91CF911F910F91FF90EF90D0
:10139000CF90BF90AF907F906F905F904F900895E7
:1013A000CF92EF920F931F93C22EE12C00E010E03A
:1013B00098010E947D091F910F91EF90CF900895A1
:1013C00021E00C94D00921E00C94D00961E00C9448
:1013D0006A09E6E1F6E01382128288EE93E0A0E06B
:1013E000B0E084839583A683B78381EB91E09183FA
:1013F000808308959B01AC0160E072E18AE790E090
:101400000E94CF272051310941095109569547952E
:10141000379527952093B80008954132E0F59091D3
:10142000B7069111FCCF91E09093B7062093B506D3
:101430002FEF209368067093AF066093AE0610926C
:10144000AD06240F2093AC069093B6069091B60695
:10145000880F892B8093B6068091B4068130C9F439
:101460001092B4068091B6068093BB008091BC00B8
:1014700083FDF8CF85EC8093BC008091B706813066
:10148000E1F38091AD06841710F44091AD06842FEE
:10149000089585EEF0CF40E0FACF0F93413208F087
:1014A00044C09091B7069111FCCF92E09093B7069B
:1014B0000093B5069FEF909368067093AF06609314
:1014C000AE061092AD064093AC061092B60690910F
:1014D000B606880F892B8093B6068091B4068130BA
:1014E00011F51092B4068091B6068093BB008091EE
:1014F000BC0083FDF8CF85EC8093BC00222321F053
:101500008091B7068230D1F3809168068F3F79F0E1
:1015100080916806803269F080916806803359F0C6
:1015200084E00F91089585EEE7CF81E0FACF80E067
:10153000F8CF82E0F6CF83E0F4CF20918A06260F21
:101540003327331F21323105ECF42091B706FC011B
:1015500090E080E0243069F082E00895A0918A064E
:101560002191AC014457594FA40FB52FB11D2C93B5
:101570000196861798F380918A06680F60938A0611
:1015800080E0089581E0089585ED8093BC0080910E
:10159000BC0084FDFCCF1092B706089585EC8093C3
:1015A000BC001092B70608951F920F920FB60F92CB
:1015B00011240BB60F922F933F934F935F936F932A
:1015C0007F938F939F93AF93BF93EF93FF938091FC
:1015D000B900887F803609F44EC008F041C08832D7
:1015E00009F4AAC028F5803109F49EC0C8F4882304
:1015F00009F407C1883009F497C0FF91EF91BF91BA
:10160000AF919F918F917F916F915F914F913F919A
:101610002F910F900BBE0F900FBE0F901F9018953B
:10162000883109F489C0803241F78093680615C07B
:10163000803409F4A6C048F48033B9F38833E9F65E
:10164000809368060E94CE0AD8CF803509F489C0FD
:10165000883509F49EC0883481F60E94C40ACDCF33
:10166000883909F494C038F5883729F050F4883661
:1016700011F0803711F683E08093B7061092690667
:1016800057C0883809F483C0803919F0803809F0D0
:10169000B4CF80916906803208F079C0E091690684
:1016A00081E08E0F809369068091BB00F0E0E659DF
:1016B000F94F80833DC0803B39F0E0F4803A09F473
:1016C00085C0883A09F099CF84E08093B7061092DC
:1016D0008B0610928A06E091B206F091B306099546
:1016E00080918A0681110FC081E080938A06109252
:1016F0008C0609C0803C09F482C0883C09F47FC094
:10170000883B09F07ACFE0918B0681E08E0F8093C1
:101710008B06F0E0E457F94F80818093BB009091F5
:101720008B0680918A0631C08091B6068093BB00FB
:1017300085EC8093BC0061CF9091AD068091AC06A2
:101740009817B8F58091AE069091AF06E091AD067E
:1017500021E02E0F2093AD06E80FF92FF11D8081B7
:10176000E5CF2091AE063091AF06E091AD0681E065
:101770008E0F8093AD068091BB00E20FF32FF11D19
:1017800080839091AD068091AC06981788F285E829
:10179000D0CF2091AE063091AF06E091AD0681E04A
:1017A0008E0F8093AD068091BB00E20FF32FF11DE9
:1017B00080838091B506811150CF81E08093B4067B
:1017C00084EA8093BC001092B70617CF0E94CE0A1D
:1017D00080916906803230F4E0916906F0E0E659C4
:1017E000F94F10826091690670E0E091B006F091C7
:1017F000B1068AE696E0099510926906FECE85EC60
:10180000E0CF1092680629CFCF93DF931F92CDB718
:10181000DEB76983DC01ED91FC910280F381E02D5C
:1018200041E050E0BE016F5F7F4F09950F90DF915F
:10183000CF910895CF93DF93EC01E98DFA8D309726
:1018400049F481E090E09B838A8390E080E0DF911F
:10185000CF91089513821282898D9A8D0E948F18DC
:10186000E98DFA8D22813381232B59F7F0CFFC01CA
:10187000818D928D009711F00C941E160895CF93D0
:10188000DF931F92CDB7DEB741E050E0BE016F5F3E
:101890007F4F0E944214019731F4898190E00F90AC
:1018A000DF91CF9108958FEF9FEFF9CFFC01818DEC
:1018B000928D009711F00C943F0C8FEF9FEF0895DD
:1018C0000F931F93CF93DF93EC01898D9A8D10E0D6
:1018D00000E0009799F00E943F0C8C010F3F100729
:1018E00069F0898D9A8DFC014285538564857585E3
:1018F00041505109610971090E948A15C801DF919F
:10190000CF911F910F910895EF92FF920F931F9324
:10191000CF93DF93EC017B018A011B821A8288EE50
:1019200093E0A0E0B0E08C839D83AE83BF8383EC23
:1019300091E0998388838DE190E00E9432289A8F0C
:10194000898F009779F02DE1F701DC0101900D926C
:101950002A95E1F74CE050E0B801CE010C960E94C8
:10196000602A188EDF91CF911F910F91FF90EF9019
:101970000895FC011382128288EE93E0A0E0B0E0AB
:1019800084839583A683B78383EC91E091838083DE
:10199000128E118E14860895DC015996ED91FC91FA
:1019A000309729F0628573858485958508956FEF5A
:1019B0007FEFCB010895DC015996ED91FC913097B2
:1019C00029F06389748985899689089560E070E0BB
:1019D000CB010895CF92DF92EF92FF92CF93DF93E6
:1019E000FC01218D328D232B09F1EC010E94DB0CCF
:1019F0006B017C01CE010E94CC0CA7019601261B35
:101A0000370B480B590BDA01C901811530E89307F0
:101A1000A105B10520F08FEF9FE7A0E0B0E0DF91D6
:101A2000CF91FF90EF90DF90CF90089590E080E00D
:101A3000F6CFCF93DF93EC01898D9A8D009741F01B
:101A40000E946716898D9A8D0E94CE281A8E198E53
:101A5000DF91CF910895DC015996ED91FC9130977B
:101A600021F081E09581911101C080E008951F93DC
:101A7000CF93DF93CDB7DEB76D970FB6F894DEBF87
:101A80000FBECDBFAB011C821B8227ED31E03A8334
:101A900029831E8221E0BC01CE0101960E94A2177B
:101AA00011E081110CC010E0812F6D960FB6F894F3
:101AB000DEBF0FBECDBFDF91CF911F910895CE0144
:101AC00001960E946716F0CFEF92FF920F931F933B
:101AD000CF93DF937B01DB012D913C91FC01E20F61
:101AE000F31F60816F3211F42F5F3F4F8C01020FA3
:101AF000131FEA01F0E0E0E0D8017D918D017F3213
:101B000049F0772339F02F5F3F4F31967993EC30CE
:101B1000F10591F7E40FF51F1082FC01E20FF31FAE
:101B200040814F3211F42F5F3F4FF7013183208303
:101B3000280F391F81E0D9019C91911101C080E0EB
:101B4000DF91CF911F910F91FF90EF9008954F92E9
:101B50005F926F927F928F929F92AF92BF92CF923D
:101B6000DF92EF92FF920F931F93CF93DF93CDB746
:101B7000DEB7C954D1090FB6F894DEBF0FBECDBF92
:101B80005C016B013A01490119A218A287ED91E0AD
:101B90009F8F8E8F1BA21C821B829A8389831E8239
:101BA0002A961FAE1EAE2A978B017E018EE1E80EAB
:101BB000F11C44244394AE01455C5F4FBE01685B59
:101BC0007F4FC5010E94640D582E482F4425940173
:101BD000BE01655C7F4FC801F3010995811120C0EA
:101BE0000C151D05C9F480E0C75BDF4F0FB6F894F4
:101BF000DEBF0FBECDBFDF91CF911F910F91FF9040
:101C0000EF90DF90CF90BF90AF909F908F907F909C
:101C10006F905F904F900895C8010E946716E3CFC0
:101C2000552091F021E0AE01455C5F4FB801C7013E
:101C30000E94A217582E0C151D0571F0C8010E94B4
:101C4000671651100EC0CFCF0C151D0519F0C80135
:101C50000E94671681E0C8CF882329F28E010F5FAA
:101C60001F4F902F812F8701E92EF82EA4CF0F93BD
:101C70001F93CF93DF93EC01162F8FA5882321F0BC
:101C8000CE018A960E946716412F61E0CE010E9424
:101C90000411811102C090E012C08E01045F1F4F39
:101CA00041E0BE01C8010E94C91D882371F0B8013E
:101CB000CE018A960E94F21391E0882361F3892F66
:101CC000DF91CF911F910F91089540E0BE01C801AF
:101CD0000E94C91D8823F9F2EACFFC01DB011296AC
:101CE0008D919C9113979383828387ED91E09183EB
:101CF000808314968C911497848315968C911597F4
:101D0000858316964D915D916D917C9119974683CF
:101D10005783608771871A964D915D916D917C9183
:101D20001D9742875387648775871E964D915D91F5
:101D30006D917C91519746875787608B718B529636
:101D40008C915297828B53964D915D916D917C91C0
:101D50005697438B548B658B768B57964D915D913F
:101D60006D917C915A97478B508F618F728F5B96E4
:101D70008D919C91948F838F08954F925F926F9273
:101D80007F928F929F92AF92BF92CF92DF92EF920B
:101D9000FF920F931F93CF93DF93CDB7DEB7C75456
:101DA000D1090FB6F894DEBF0FBECDBF5C014A016A
:101DB0003901665D7F4F7E018EE1E80EF11CC7019F
:101DC0000E946D0E1C821B8287ED91E09A838983AD
:101DD0001E828401FE0131966F015E2C4F2C6FE252
:101DE00070E0C8010E944E2A009709F455C0F8011E
:101DF00020812F3219F40F5F1F4FF1CF801B8D30E0
:101E000008F08CE0E82EF12CA701B801CE01CB96AA
:101E10000E94602AEBE3F0E0EC0FFD1FEE0DFF1DCA
:101E20001082C6010E94671621E0AE01455C5F4F3B
:101E3000652D742DC6010E94A217811121C0F501E4
:101E40001382128287ED91E0918380831582C50110
:101E5000C95BDF4F0FB6F894DEBF0FBECDBFDF9179
:101E6000CF911F910F91FF90EF90DF90CF90BF9097
:101E7000AF909F908F907F906F905F904F9008955C
:101E80000E0D1F1D852D942D0E946716C2015C2C1E
:101E90004D2CC92ED82EA3CF08191909F30111838F
:101EA0000083652D742DC5010E946D0ED0CFAF92B9
:101EB000BF92CF92DF92FF920F931F93CF93DF9346
:101EC000CDB7DEB7C955D1090FB6F894DEBF0FBE46
:101ED000CDBF6C015B018A01F22E9E01285A3F4F53
:101EE000CE01CB960E94BD0E6A968EAD9FAD6A97CD
:101EF000080F191FF8018081811110C0BE01655CB7
:101F00007F4FCE0101960E946D0E41ED51E0BE0162
:101F10006F5F7F4FC6010E94840C0FC019A218A2E8
:101F200087ED91E09F8F8E8F1BA221968FAD219719
:101F3000811115C0C6010E94B90CC601C75ADF4FF6
:101F40000FB6F894DEBF0FBECDBFDF91CF911F91CA
:101F50000F91FF90DF90CF90BF90AF900895825087
:101F60008230F8F4B501665D7F4F2F2DA801CE01B8
:101F70004E960E94A2178823E9F28F2D867041F0B9
:101F800049A95AA96BA97CA9CE014E960E948A152F
:101F9000BE01625E7F4FCE0101960E946D0EA801C8
:101FA000B6CF2F2DA801BE01655C7F4FCE014E96A6
:101FB0000E94A217882309F4BDCFCE01CB960E94C0
:101FC0006716DBCFFB01BC01665D7F4F30E020E090
:101FD00047E35DE0CF010C94A70DE8EBF6E0158236
:101FE00016821186138682E090E0A0E0B0E084873C
:101FF0009587A687B78713A215A614A687ED91E04B
:1020000093A782A717A608959FB7F89420910F0968
:1020100080910D09213019F48DBB9FBF08958FBFAA
:10202000089520910F09222381F03FB7F894209161
:102030000F09213069F42DB320930D094DB3209180
:102040000E09209524232DBB3FBF8CBD9DBD089557
:1020500030930D09FACF8EBD00000DB407FEFDCF01
:102060008EB508958FEF0C942B1061E0FC018481F4
:102070000E940F2680910107882339F010920107F2
:1020800080910F0981110C9404100895CF93DF9370
:10209000EC0180910107811109C081E08093010763
:1020A00080910207909103070E94111060E08C81DB
:1020B000DF91CF910C940F26CF93DF93EC018E81AB
:1020C000882389F08F8198859C012F5F3F4F388747
:1020D0002F838230924018F40E943210F3CFCE0149
:1020E0000E9435101E82DF91CF910895673028F04D
:1020F00026E1FC01258380E00895623079F038F014
:102100006430A9F090F06530A1F082E508C080E568
:102110008093020781E080930307089580E5809310
:1021200002071092030781E0089581E5F1CF81E570
:10213000F6CF82E5EDCF0F931F93CF93DF93EB01A3
:102140000E94F4248B010E9432108F3F69F00E949C
:10215000F424601B710B6C177D07A8F380E0DF91FE
:10216000CF911F910F91089581E0F9CF8F929F92A7
:10217000AF92BF92FF920F931F93CF93DF93EC0127
:10218000F62E49015A010E945C10CE010E944610B1
:102190006CE271E0CE010E949B108F2D80640E9442
:1021A0002B1008E110E0D501C401002E04C0B69543
:1021B000A795979587950A94D2F70E942B100850FF
:1021C0001109083F8FEF180771F785E9FF2021F00B
:1021D00088E0F8120DC087E80E942B1010E00E94E2
:1021E00032108A8787FF06C01F3F21F01F5FF7CF9D
:1021F0008FEFF2CFDF91CF911F910F91FF90BF90A2
:10220000AF909F908F9008958F929F92AF92BF92C0
:10221000EF92FF920F931F93CF93DF93EC01E62E83
:102220001B8619861E821D824C830E94F4248B011A
:1022300061E08C810E94D32561E08C810E940F2691
:102240000E94E91E82E58093020781E080930307E4
:1022500080910207909103070E9411102AE0F22E4C
:102260008FEF0E942B10FA94F110FACF80910F0992
:1022700081110E940410CE010E94461020E030E03F
:10228000A90160E0CE010E94B610F82E8A8781E095
:10229000F816C1F00E94F424601B710B613D774079
:1022A00068F381E08D83CE010E94351080E0DF91DC
:1022B000CF911F910F91FF90EF90BF90AF909F90A3
:1022C0008F9008952AEA31E040E050E068E0CE01C6
:1022D0000E94B61082FF25C0FB868B85812C912C35
:1022E0005401823029F4812C912CA12C80E4B82E49
:1022F00020E030E0A90167E3CE010E94B610A501FD
:10230000940169E2CE010E94B6108A878823C1F049
:102310000E94F424601B710B613D774048F388E014
:10232000C1CF94E0F92E0E9432108A87FA94F110FE
:10233000FACF8A3A11F082E0B5CF82E08B87CDCF19
:102340008B858230C1F420E030E0A9016AE3CE0140
:102350000E94B610882311F086E0A4CF0E943210AC
:10236000807C803C11F483E08B870E9432100E94B5
:1023700032100E943210CE010E9435106E2DCE0117
:10238000DF91CF911F910F91FF90EF90BF90AF9091
:102390009F908F900C9476100F931F93CF93DF93A1
:1023A000EC010E94F4248B010E9432108A878F3F37
:1023B00091F40E94F424601B710B6D327140A0F304
:1023C0008FE08D83CE010E94351080E0DF91CF91A8
:1023D0001F910F9108958E3F11F08DE0F2CF81E0B3
:1023E000F5CFCF92DF92EF92FF920F931F93CF938F
:1023F000DF93EC016901C801820F931F8130924085
:1024000048F58E81882371F088819981AA81BB81EA
:1024100084179507A607B70729F48F819885C816F2
:10242000D90670F5488359836A837B838B85833013
:1024300039F089E0440F551F661F771F8A95D1F741
:102440009A01AB0161E1CE010E94B610882379F0B8
:1024500083E08D83CE010E94351080E0DF91CF9123
:102460001F910F91FF90EF90DF90CF900895CE01D4
:102470000E94CC11882371F318861F8281E08E831D
:102480008F8198858C159D0560F06701E00EF11E27
:10249000EC14FD0471F00E943210F60181936F017B
:1024A000F7CF0E9432108F819885019698878F838D
:1024B000E7CF8F819885080F191F18870F838985AB
:1024C000882319F00115124018F0CE010E945C100B
:1024D00081E0C4CFEF92FF920F931F930115110576
:1024E00039F00E94F1111F910F91FF90EF90089524
:1024F00081E0F9CFEF92FF920F931F93790100E0F3
:1025000012E030E020E00E94F1111F910F91FF9046
:10251000EF900895EF92FF920F931F93CF93DF9365
:102520008C01862F7A010E942B10E7018EEFF81A9A
:1025300089910E942B10CE15DF05D1F78FEF0E94F5
:102540002B108FEF0E942B100E943210F80182870F
:102550008F71853069F081E18583C8010E94351053
:1025600080E0DF91CF911F910F91FF90EF90089540
:1025700081E0F7CF0F931F93CF93DF93EC01890195
:1025800082E1411551056105710599F08B85833014
:1025900039F089E0440F551F661F771F8A95D1F7E0
:1025A0009A01AB0168E1CE010E94B610882339F090
:1025B00084E08D83CE010E94351080E023C0A80105
:1025C0006EEFCE010E948A128823A1F368E572E0C3
:1025D000CE010E949B10811102C085E1EACF20E06C
:1025E00030E0A9016DE0CE010E94B610882311F001
:1025F00084E1DFCF0E9432108111FACFCE010E9418
:10260000351081E0DF91CF911F910F910895E2E0A5
:10261000F7E080E5808381E0818308950895CF937A
:10262000DF93EC019C012A5F3F4F41E050E060E006
:1026300070E08B8D9C8D0E94681C8823A1F08F898F
:10264000988DA98DBA8D892B8A2B8B2B59F48E816D
:102650009F81A885B9858F8B988FA98FBA8F8C8120
:1026600080688C8381E0DF91CF9108958F929F9253
:10267000AF92BF92CF92DF92EF92FF92CF93DF9310
:10268000EC010E940F1381110CC080E0DF91CF910B
:10269000FF90EF90DF90CF90BF90AF909F908F9082
:1026A0000895EB8DFC8DCE80DF80E884F98482E094
:1026B000C81AD108E108F108858504C0CC0CDD1CDE
:1026C000EE1CFF1C8A95D2F786859785A089B18973
:1026D000C80ED91EEA1EFB1E848146015701880ED2
:1026E000911CA11CB11C8C149D04AE04BF0461F0AC
:1026F00081E0881A9108A108B108C501B4010E94BF
:10270000B61A8111F0CFC1CFEB8DFC8D258580E00D
:1027100092E0A0E0B0E004C0880F991FAA1FBB1F81
:102720002A95D2F74B895C896D897E89840F951F24
:10273000A61FB71F8B8B9C8BAD8BBE8B81E0A6CF6A
:10274000CF93DF93EC01462F6E857F858889998929
:102750000E947B1A882351F08A8920E2829FC0015F
:102760001124835F984FDF91CF91089590E080E02E
:10277000FACFFB019B01255F3F4F40E241932E17AB
:102780003F07E1F7DC0120E037E09D91492F9923D5
:1027900019F19E3229F43A3059F028E03AE0F5CFA9
:1027A000E6E8F1E08491882329F031969813FACF76
:1027B00080E017C03217A8F05FED590F5E3588F43E
:1027C0008FE9890F8A3110F440EE490FFB01E20FC7
:1027D000F11D40832F5FD9CF81E0FB0190819032C2
:1027E00039F308950F931F93CF93DF93FC01258155
:1027F000222331F080E0DF91CF911F910F91089556
:102800008B01EC01FB018789803139F582E08D83F2
:102810001F8A188E198E1A8E808D918DB0E0A0E0DF
:1028200025E0880F991FAA1FBB1F2A95D1F78B8B14
:102830009C8BAD8BBE8B1C8F0B8F81E08C831E829B
:102840001F82188619861A861B861C861D861E8680
:102850001F86188A198A1A8ACECF803259F683E0E9
:102860008D83428D538D648D758D4F8B588F698FFD
:102870007A8F9E012D5E3F4FC8010E945B1B811124
:10288000DACFB8CF2F923F924F925F926F927F92A2
:102890008F929F92AF92BF92CF92DF92EF92FF9270
:1028A0000F931F93CF93DF93EC015B012A018D817E
:1028B000811115C08FEF9FEFDF91CF911F910F9185
:1028C000FF90EF90DF90CF90BF90AF909F908F9050
:1028D0007F906F905F904F903F902F9008958C81E4
:1028E00080FFE8CF0B891C892D893E894A855B854D
:1028F0006C857D85C201B0E0A0E068017901C41A51
:10290000D50AE60AF70AC816D906EA06FB0618F43D
:102910002801441A550A42011E0126E0220E311CEC
:102920008114910409F4B3C04A855B856C857D856B
:102930006A0181E0D8228B8D9C8D8A019B01E9E0A0
:102940003695279517950795EA95D1F7ED81E230F1
:10295000E1F5FC01628D738D848D958D600F711F83
:10296000821F931F612C22E0722E6C187D08861442
:10297000970408F434012C8126FD04C06114F2E0B0
:102980007F0671F40091070110910801209109015F
:1029900030910A01061717072807390709F053C0B5
:1029A00040E00E947B1A882309F484CFC601835F2C
:1029B000984FD5019C01260D371DFC012E173F07AE
:1029C00009F460C041914D93F9CFFC0174807A9471
:1029D0007022C114D10471F471100CC0452B462B28
:1029E000472B39F58F89988DA98DBA8D8E839F835A
:1029F000A887B987EB8DFC8D6E817F81888599854D
:102A00006250710981099109258504C0660F771FFD
:102A1000881F991F2A95D2F7068517852089318945
:102A2000600F711F821F931F670D711D811D911D06
:102A300099CF4E815F816885798591010E94DA1A6C
:102A40008111D8CF37CF750183019601AB01BC014D
:102A500080910B0790910C070E946A12882309F459
:102A600029CFA60CB71C8A859B85AC85BD85860DB4
:102A7000971DA11DB11D8A879B87AC87BD878618CE
:102A800097084ECF281B390BA20EB31EECCFC20104
:102A900013CFFF920F931F93CF93DF931F92CDB766
:102AA000DEB7FC0125812230C8F08C0142855385B8
:102AB0006485758585E076956795579547958A95E0
:102AC000D1F7F42FFF70FF2E41E050E0BE016F5FA1
:102AD0007F4FC8010E944214019719F090E080E0F6
:102AE00012C0F80182859385A485B5854F96A11DF6
:102AF000B11D82879387A487B587F0E2FF9EC0014E
:102B00001124835F984F0F90DF91CF911F910F9108
:102B1000FF9008958F929F92AF92BF92CF92DF92D3
:102B2000EF92FF920F931F93CF93DF93EC018D8170
:102B300081110EC080E0DF91CF911F910F91FF9026
:102B4000EF90DF90CF90BF90AF909F908F900895BF
:102B50000B891C892D893E8904171507260737071D
:102B600048F34A015B01823031F48A869B86AC8649
:102B7000BD8681E0E0CF81149104A104B10449F441
:102B80001E821F82188619861A861B861C861D8641
:102B9000F0CF0A851B852C853D85EB8DFC8D8585C9
:102BA00090E00996B901A8014150510961097109E4
:102BB000082E04C076956795579547950A94D2F7E5
:102BC00075016401E1E0CE1AD108E108F10804C002
:102BD000F694E794D794C7948A95D2F7C416D5068D
:102BE000E606F70620F0012B022B032B11F58F8947
:102BF000988DA98DBA8D8E839F83A887B9878E0102
:102C00000A5F1F4FC114D104E104F10409F4ADCFF0
:102C10004E815F816885798598018B8D9C8D0E949E
:102C2000DA1A91E0C91AD108E108F1088111EACF56
:102C300081CFC41AD50AE60AF70AE1CF0F931F9392
:102C4000CF93DF93EC018D818823D9F18C8187FFAD
:102C500032C061E0CE010E94A0138C01892B89F162
:102C60008D81823048F48B899C89AD89BE89F801B9
:102C7000848F958FA68FB78F8F89988DF801938F4A
:102C8000828F8F89988DA98DBA8DB58BA48BE09199
:102C90000407F0910507309759F0B8016A5E7F4F3D
:102CA000C80148960995F801808D918D938B828B90
:102CB0008C818F778C83DF91CF911F910F910C9432
:102CC000401A80E0DF91CF911F910F910895CF932B
:102CD000DF93EC010E941E16882311F01D8281E013
:102CE000DF91CF9108954F925F926F927F928F9272
:102CF0009F92AF92BF92EF92FF920F931F93CF9349
:102D0000DF9300D000D0CDB7DEB7FC0185818130E4
:102D1000A1F080E00F900F900F900F90DF91CF9176
:102D20001F910F91FF90EF90BF90AF909F908F9069
:102D30007F906F905F904F900895848181FFE9CFDD
:102D400083899489A589B68984179507A607B7074B
:102D500000F3892B8A2B8B2B09F477C04A015B0186
:102D60007F014284538464847584CF010E948A1554
:102D7000882379F2F701838D948D81149104A10445
:102D8000B10449F54789508D618D728D0E94731D84
:102D9000882309F4BECFF701178A108E118E128E88
:102DA000F701838A948AA58AB68A8481806884839D
:102DB000C7010E941E16882309F4ABCFB501A401F8
:102DC000441655066606770610F4B301A201C70142
:102DD0000E948A159FCF46815781608571859E012B
:102DE0002F5F3F4F0E94DA1A882309F492CFF70130
:102DF000838D948D49815A816B817C81FC01278967
:102E00002031F1F408EF1FEF20E030E040175107C8
:102E10006207730728F60E94731D882309F479CF8F
:102E2000F70146815781608571850FEF1FEF2FEF06
:102E30003FE0838D948D0E94C61B8111B1CF69CF75
:102E400008EF1FEF2FEF3FE0E1CF81E063CFCF929C
:102E5000DF92EF92FF921F93CF93DF93EC0180E21A
:102E6000689FF0011124E35FF84F9385917161F041
:102E7000842F827449F080E0DF91CF911F91FF9001
:102E8000EF90DF90CF900895142F6A8B8091070107
:102E900090910801A0910901B0910A018E879F8746
:102EA000A88BB98BC488D588F12CE12C7601DD2460
:102EB000CC24CF8AD88EE98EFA8E828D938DB0E0A5
:102EC000A0E0AC01BD014C295D296E297F294F8B03
:102ED000588F698F7A8F8385887129F5848D958DB8
:102EE000A68DB78D8B8B9C8BAD8BBE8B81E08D833C
:102EF000812F8F708C831E821F82188619861A86F6
:102F00001B861C861D8681E016FFB6CF40E050E090
:102F1000BA01CE01DF91CF911F91FF90EF90DF902A
:102F2000CF900C947316803109F0A5CF9E012D5ED1
:102F30003F4F8B8D9C8D0E945B1B882309F49BCF98
:102F400084E0D5CFBF92CF92DF92EF92FF920F93A2
:102F50001F93CF93DF93CDB7DEB72B970FB6F894BF
:102F6000DEBF0FBECDBFFC01358131110BC0C22EBB
:102F70008B017C01BE016F5F7F4FCA010E94B913B4
:102F8000811102C080E0A1C0F801838D948DF7010A
:102F9000948F838FF801168217821086118612860D
:102FA000138614861586B12CF80182859385A48535
:102FB000B585438954896589768984179507A6075D
:102FC000B70788F525E0B695A795979587952A9533
:102FD000D1F7F82FFF70DF2EC8010E944915009726
:102FE00089F2FC012081222341F0253E09F059C0DD
:102FF000BB2029F0BB24B394D7CFB1100EC0F7018A
:10300000D28A4091070150910801609109017091A5
:103010000A0146875787608B718BFC018081811183
:10302000E9CFBB24B3948C2D8271823109F0AACFF1
:10303000BB2009F45AC061E0C7010E94A0138C01B3
:10304000892B09F49FCF80E2F80111928A95E9F764
:103050008BE0FE013196D80101900D928A95E1F73F
:10306000E0910407F0910507309709F44EC0B801CC
:10307000625F7F4FC80140960995F8018089918968
:10308000938B828B918F808F86859785978B868B8C
:103090000E94401A882309F475CF4C2DF7016289EC
:1030A00011C04BE050E0BC01CE0101960E94382ACD
:1030B000892B09F079CF8C2D80734C2D6D2D8033A9
:1030C00009F460CFC7010E9427172B960FB6F8941A
:1030D000DEBF0FBECDBFDF91CF911F910F91FF904B
:1030E000EF90DF90CF90BF900895F80185818230F6
:1030F00009F448CFC8010E943613882309F442CF4F
:10310000F701128A0DE017E09ECF81E298E2F80104
:10311000918B808B80E098E097878687AECF2F9247
:103120003F924F925F926F927F928F929F92AF9257
:10313000BF92CF92DF92EF92FF920F931F93CF93A4
:10314000DF9300D000D0CDB7DEB78C016B011A0140
:10315000DC0115968C911597813009F0C8C0149642
:103160008C9181FFC4C082FDAEC04101D8011A9686
:103170004D915D916D917C911D978114910409F49D
:1031800029C15B968D919C915C97FC0174802FEF17
:10319000270D2A013B0139E07694679457944794B0
:1031A0003A95D1F7722E74207A01F1E0FF22711066
:1031B00020C0E114F104E9F416964D915D916D91F2
:1031C0007C911997411551056105710509F098C069
:1031D00057968D919D910D90BC91A02D0097A105C2
:1031E000B10509F0AFC0C8010E940F13882309F48C
:1031F0007EC080E092E08E199F09540188159905E0
:1032000008F45C01D8015B964D915C915C97169631
:103210008D919D910D90BC91A02D0297A109B109AE
:10322000FA01258504C0880F991FAA1FBB1F2A9584
:10323000D2F74685578560897189840F951FA61F2F
:10324000B71F9C01AD01270D311D411D511D2901E5
:103250003A01A11432E0B30609F07AC08091070167
:1032600090910801A0910901B0910A01841595057A
:10327000A605B70559F48FEF9FEFDC018093070196
:1032800090930801A0930901B0930A019601B3013C
:10329000A20180910B0790910C070E94BA1288231B
:1032A00031F19EEFD91A8A189B08F801828593851F
:1032B000A485B5858A0D9B1DA11DB11D82879387AD
:1032C000A487B58753CFF8014389548965897689E6
:1032D00082859385A485B585481759076A077B07BA
:1032E00009F443CFC8010E948A1581113ECF81E0C5
:1032F00090E0D80113969C938E93129780E007C0BC
:103300009E012F5F3F4F0E94DA1A811102C090E0A8
:103310007BC089819A81AB81BC81F801238D348D7A
:10332000F901278948EF5FEF60E070E0203121F07C
:1033300048EF5FEF6FEF7FE084179507A607B707A9
:1033400008F051CFF80186839783A087B18751CFCA
:10335000E114F10491F5D8011A964D915D916D91AA
:103360007C911D9753968D919D910D90BC91A02DB0
:10337000481759076A077B0700F10E94401A882303
:1033800009F4B5CF409207015092080160920901FB
:1033900070920A0180910A07816080930A07970161
:1033A000235F384FD601C9018A0D9B1DF9018E1785
:1033B0009F0759F04D914193FACF41E0C301B2010B
:1033C0000E947B1A8111EBCF92CF821B930BC80E08
:1033D000D91E69CF14968C9114975396CD90DD9099
:1033E000ED90FC905697C416D506E606F70618F53C
:1033F000F801438B548B658B768B80688483F8014E
:10340000848183FD25C0C1010F900F900F900F9014
:10341000DF91CF911F910F91FF90EF90DF90CF90B0
:10342000BF90AF909F908F907F906F905F904F90E4
:103430003F902F9008952091040730910507232B8A
:10344000F1F221143104D9F2806814968C93D7CF0D
:10345000C8010E941E16882309F449CFD4CFCF9308
:10346000DF931F92CDB7DEB7698341E050E0BE0124
:103470006F5F7F4F0E948F180F90DF91CF9108955B
:1034800080910A078823A9F1409107015091080112
:103490006091090170910A012DE037E080910B07DE
:1034A00090910C070E94BA12811102C080E0089529
:1034B000409106075091070760910807709109072E
:1034C000411551056105710591F02DE037E08091BE
:1034D0000B0790910C070E94BA12882339F31092BF
:1034E000060710920707109208071092090710921A
:1034F0000A0781E00895CF92DF92EF92FF92CF9377
:103500006B017C01C42F8091070190910801A0916B
:103510000901B0910A018C159D05AE05BF05F9F0B2
:103520000E94401A811107C080E0CF91FF90EF9078
:10353000DF90CF9008952DE037E0B701A60180918C
:103540000B0790910C070E947A12882369F3C092AE
:103550000701D0920801E0920901F0920A0140911E
:103560000A074C2B40930A0781E0DFCFCF92DF920E
:10357000EF92FF926B017C010E94401A8823A9F010
:10358000EDE0F7E0119289E0ED30F807D9F7C0924D
:103590000701D0920801E0920901F0920A0180919E
:1035A0000A07816080930A0781E0FF90EF90DF9027
:1035B000CF9008958F929F92AF92BF92CF92DF9259
:1035C000EF92FF920F931F93CF93DF93FC018185BE
:1035D0009285A385B4850196A11DB11D8417950719
:1035E000A607B70770F480E0DF91CF911F910F918C
:1035F000FF90EF90DF90CF90BF90AF909F908F9013
:10360000089583889488A588B6888789803189F54C
:10361000BB27A72F962F852FE9016A017B018F0118
:10362000BC01CD01680D791D8A1D9B1D809007018D
:1036300090900801A0900901B0900A0186169706A3
:10364000A806B90601F5F8018789803111F5DD2456
:10365000EE24FF24F601EE0FFF1FE35FF84F808199
:103660009181B0E0A0E088839983AA83BB8381E045
:10367000BBCFDB01CA01C7E0B695A79597958795A3
:10368000CA95D1F7C9CF40E00E947B1A8111DBCFE8
:10369000AACFE894C7F8DD24EE24FF24F601EE0F4C
:1036A000FF1FEE0FFF1FE35FF84F80819181A28122
:1036B000B381BF70D8CF4F925F926F927F92AF92DB
:1036C000BF92CF92DF92EF92FF920F931F93CF930F
:1036D000DF9300D000D0CDB7DEB78C0149835A8389
:1036E0006B837C835901C12CD12C7601412C82E063
:1036F000582E612C712C49815A816B817C819E01ED
:103700002F5F3F4FC8010E94DA1A882339F1F80170
:103710008585A301920104C0220F331F441F551F4A
:103720008A95D2F7DA01C901C80ED91EEA1EFB1E1E
:1037300049815A816B817C818789803111F188EFC1
:103740009FEFAFEFBFE0481759076A077B0798F272
:10375000F501C082D182E282F38281E00F900F9066
:103760000F900F90DF91CF911F910F91FF90EF90ED
:10377000DF90CF90BF90AF907F906F905F904F9011
:10378000089588EF9FEFA0E0B0E0DDCF4F925F9209
:103790006F927F928F929F92AF92BF92CF92DF9261
:1037A000EF92FF920F931F93CF93DF93EC01423080
:1037B00051056105710590F480E0DF91CF911F9173
:1037C0000F91FF90EF90DF90CF90BF90AF909F90C0
:1037D0008F907F906F905F904F90089589859A8524
:1037E000AB85BC850196A11DB11D84179507A60761
:1037F000B70710F3CB88DC88ED88FE888F8980318D
:1038000009F042C0BB27A72F962F852F48015901E9
:103810002A013B01C80ED91EEA1EFB1E809107013A
:1038200090910801A0910901B0910A01C816D9062A
:10383000EA06FB0699F58F898031C1F5B301A20133
:10384000552766277727440F551F435F584FFA01C6
:103850009182808280910A07816080930A078A8919
:10386000823080F08D819E81AF81B8858C0D9D1D49
:10387000AE1DBF1D8093060790930707A09308070E
:10388000B093090781E099CFDB01CA01E7E0B69563
:10389000A79597958795EA95D1F7B8CF40E0C701EE
:1038A000B6010E947B1A8111C6CF86CFB301A20157
:1038B0004F77552766277727440F551F440F551F0D
:1038C000435F584FFA0180829182A282B382C2CFB5
:1038D0002F923F924F925F926F927F928F929F9220
:1038E000AF92BF92CF92DF92EF92FF920F931F930E
:1038F000CF93DF93CDB7DEB72F970FB6F894DEBF27
:103900000FBECDBF3C01488759876A877B873F83BD
:103910002E83D901CD90DD90ED90FC90C114D1049F
:10392000E104F10439F0BFEFCB1ADB0AEB0AFB0A22
:103930001D8210C0FC01C080D180E280F380F1E0E4
:10394000FD83088519852A853B85013011052105F0
:10395000310571F7F30181859285A385B4858C01CA
:103960009D010F5F1F4F2F4F3F4F0C871D872E87E5
:103970003F8746015701212C312C2101F30181851C
:103980009285A385B485281639064A065B0608F099
:1039900044C00C851D852E853F85081519052A050F
:1039A0003B0550F482E0882E912CA12CB12C92E0A2
:1039B000C92ED12CE12CF12C9E012F5F3F4FB50178
:1039C000A401C3010E94DA1A882339F1D501C40188
:1039D0000196A11DB11D49815A816B817C81452BC6
:1039E000462B472BA9F5AC01BD014C195D096E09A9
:1039F0007F09088519852A853B854017510762078D
:103A0000730741F50FEF1FEF2FEF3FE0B501A40162
:103A1000C3010E94C61B811125C01D828D812F9676
:103A20000FB6F894DEBF0FBECDBFDF91CF911F91CF
:103A30000F91FF90EF90DF90CF90BF90AF909F904D
:103A40008F907F906F905F904F903F902F90089550
:103A50006C017D011FEF211A310A410A510A4C0104
:103A60005D018CCFC814D904EA04FB0488F4140166
:103A7000250121E0221A31084108510895018401ED
:103A8000B201A101C3010E94C61B52014101C3CF73
:103A9000AE81BF814D915D916D917C914115510534
:103AA0006105710561F4EE81FF81C082D182E282FD
:103AB000F382FD81F1110BC001E00D83AFCF9701BF
:103AC0008601C3010E94C61B8111EDCFA6CF1FEF57
:103AD000C11AD10AE10AF10AD301CD92DD92ED9229
:103AE000FC9213979BCFAF92BF92CF92DF92EF924F
:103AF000FF920F931F93CF93DF9300D000D0CDB7E9
:103B0000DEB75C016A017B0182E090E0A0E0B0E0FA
:103B1000F50180839183A283B3839E012F5F3F4F82
:103B2000B701A601C5010E94DA1A882381F100E0DD
:103B300010E09801B701A601C5010E94C61B8823A9
:103B400031F1C980DA80EB80FC80F5018789803112
:103B5000C9F088EF9FEFAFEFBFE0C816D906EA06BD
:103B6000FB06D8F281E00F900F900F900F90DF913D
:103B7000CF911F910F91FF90EF90DF90CF90BF906A
:103B8000AF90089588EF9FEFA0E0B0E0E6CF80E02F
:103B9000EACF8F929F92AF92BF92CF92DF92EF9235
:103BA000FF920F931F93CF93DF93EC01142F709329
:103BB0000C0760930B07442309F478C0453070F07C
:103BC00080E0DF91CF911F910F91FF90EF90DF90F8
:103BD000CF90BF90AF909F908F90089540E060E0AD
:103BE00070E0CB010E947B1A882351F3812F815012
:103BF000990BAC0164E0440F551F6A95E1F7435FF0
:103C0000584FFA01E254FE4F80818F77C9F63C96F7
:103C100080819181A281B38184369105A105B1058E
:103C200078F24A535E4FFA01C080D180E280F3807F
:103C3000C114D104E104F10419F240E0C701B60156
:103C40000E947B1A882309F4BBCF809118079091BA
:103C500019078115924009F0B3CF90911D07992360
:103C600009F4AECF20911B0730911C07232B09F4D8
:103C7000A7CF80911A07882309F4A2CF9A8B8C834F
:103C80001D8690E041E050E02D85E22FBA01022E22
:103C900002C0660F771F0A94E2F78617970751F064
:103CA00031E0320F3D87283078F38ACFC12CD12CF8
:103CB0007601C3CF209123073091240750E040E0E4
:103CC0002115310541F4209131073091320740919F
:103CD0003307509134072D833E834F83588780915B
:103CE0001B0790911C0746015701880E991EA11CC5
:103CF000B11C8B8A9C8AAD8ABE8A00911E071091E6
:103D00001F07198F088FA0911D07B0E00E94FA27A6
:103D1000DC01CB01880D991DAA1DBB1D8A8F9B8FCD
:103D2000AC8FBD8F25E0000F111F2A95E1F70150E0
:103D30001E4F012F11270695800F911FA11DB11D48
:103D40008E879F87A88BB98B009120071091210740
:103D500030E020E00115110541F400912D0710918C
:103D60002E0720912F0730913007C81AD90AEA0A86
:103D7000FB0AC00ED11EE21EF31E04C0F694E794A7
:103D8000D794C794EA95D2F7C986DA86EB86FC8683
:103D90008CE025EFC2162FE0D206E104F10440F0DA
:103DA00085EFC8168FEFD806E104F10420F480E116
:103DB0008F8B81E006CF8091390790913A07A091CF
:103DC0003B07B0913C078A8F9B8FAC8FBD8F80E201
:103DD000EFCFCF93CFB7F89480911009811127C00E
:103DE000EAEDF1E08491EAEBF1E09491E82FF0E064
:103DF000EE0FFF1FE65FFD4FA591B491EC91E92313
:103E000021F461E084E00E940F2661E084E00E94DA
:103E1000D3258CB580618CBD8CB580648CBD61E090
:103E200087E00E94D32561E085E00E94D325809140
:103E300010098F5F80931009CFBFCF910895FC01C7
:103E4000918D228D892F90E0805C9F4F821B91097C
:103E50008F7399270895FC01918D828D981731F009
:103E6000828DE80FF11D858D90E008958FEF9FEF13
:103E70000895FC01918D828D981761F0A28DAE0F8F
:103E8000BF2FB11D5D968C91928D9F5F9F73928F16
:103E900090E008958FEF9FEF0895FC01538D448DBE
:103EA000252F30E0842F90E0821B930B541710F0E5
:103EB000CF9608950197089588EB90E2892B49F0F9
:103EC00080E090E0892B29F00E94B82081110E94A7
:103ED00000008FE491E2892B49F080E090E0892B8B
:103EE00029F00E944F2181110C9400000895FC01DB
:103EF000A48DA80FB92FB11DA35ABF4F2C91848D4B
:103F000090E001968F739927848FA689B7892C93A7
:103F1000A089B1898C91837080648C93938D848DFA
:103F2000981306C00288F389E02D80818F7D8083FD
:103F30000895CF93DF93EC01888D8823B9F0AA8987
:103F4000BB89E889F9898C9185FD03C0808186FD54
:103F50000DC00FB607FCF7CF8C9185FFF2CF8081A3
:103F600085FFEDCFCE010E94771FE9CFDF91CF9182
:103F70000895EF92FF920F931F93CF93DF93EC017D
:103F800081E0888F9B8D8C8D98131AC0E889F98900
:103F9000808185FF15C09FB7F894EE89FF89608303
:103FA000E889F98980818370806480839FBF81E084
:103FB00090E0DF91CF911F910F91FF90EF900895C6
:103FC000F62E0B8D10E00F5F1F4F0F731127E02EA1
:103FD0008C8D8E110CC00FB607FCFACFE889F989D9
:103FE000808185FFF5CFCE010E94771FF1CFEB8D49
:103FF000EC0FFD2FF11DE35AFF4FF0829FB7F894AD
:104000000B8FEA89FB8980818062CFCFCF92DF92CC
:10401000EF92FF921F93CF93DF93EC016A017B0134
:10402000122F60E874E88EE190E0A70196010E94EB
:10403000CF272150310941095109569547953795A8
:104040002795E889F98982E08083211580E1380786
:1040500098F0E889F989108260E472E48FE090E0DA
:10406000A70196010E94CF2721503109410951092A
:104070005695479537952795EC85FD853083EE85D8
:10408000FF852083188EEC89FD891083EA89FB89DE
:10409000808188698083EA89FB8980818F7D808324
:1040A000DF91CF911F91FF90EF90DF90CF90089517
:1040B0001F920F920FB60F9211240BB60F922F93EF
:1040C0008F939F93EF93FF93E0912109F091220941
:1040D0008081E0912709F091280982FD1DC090811F
:1040E00080912A098F5F8F7320912B09821741F0ED
:1040F000E0912A09F0E0EF5EF64F958F80932A0950
:10410000FF91EF919F918F912F910F900BBE0F9088
:104110000FBE0F901F9018958081F2CF1F920F92C3
:104120000FB60F9211240BB60F922F933F934F931C
:104130005F936F937F938F939F93AF93BF93EF930F
:10414000FF9381E199E00E94771FFF91EF91BF916A
:10415000AF919F918F917F916F915F914F913F911F
:104160002F910F900BBE0F900FBE0F901F901895C0
:1041700081E199E00E941F1F21E0892B09F420E0D2
:10418000822F0895E1E1F9E01382128288EE93E034
:10419000A0E0B0E084839583A683B78383EE91E0AB
:1041A0009183808385EC90E09587848784EC90E010
:1041B0009787868780EC90E0918B808B81EC90E0F4
:1041C000938B828B82EC90E0958B848B86EC90E0D5
:1041D000978B868B118E128E138E148E08951F92DC
:1041E0000F920FB60F9211240BB60F922F938F934D
:1041F0009F93EF93FF93E091BE09F091BF098081F7
:10420000E091C409F091C50982FD1DC090818091A3
:10421000C7098F5F8F732091C809821741F0E09121
:10422000C709F0E0E255F64F958F8093C709FF91DB
:10423000EF919F918F912F910F900BBE0F900FBE1A
:104240000F901F9018958081F2CF1F920F920FB69A
:104250000F9211240BB60F922F933F934F935F93BE
:104260006F937F938F939F93AF93BF93EF93FF933E
:104270008EEA99E00E94771FFF91EF91BF91AF9175
:104280009F918F917F916F915F914F913F912F916E
:104290000F900BBE0F900FBE0F901F9018958EEAD7
:1042A00099E00E941F1F21E0892B09F420E0822F52
:1042B0000895EEEAF9E01382128288EE93E0A0E01E
:1042C000B0E084839583A683B78383EE91E09183E6
:1042D00080838DEC90E0958784878CEC90E09787C5
:1042E000868788EC90E0918B808B89EC90E0938BB3
:1042F000828B8AEC90E0958B848B8EEC90E0978B90
:10430000868B118E128E138E148E0895AF92BF92EB
:10431000CF92DF92EF92FF920F931F93CF93DF9391
:104320006C017B018B01040F151FEB015E01AE18C0
:10433000BF08C017D10759F06991D601ED91FC91E2
:104340000190F081E02DC6010995892B79F7C5010F
:10435000DF91CF911F910F91FF90EF90DF90CF9061
:10436000BF90AF900895FB0101900020E9F73197CD
:10437000AF01461B570BDC01ED91FC910280F381EC
:10438000E02D0994DB0114964D915C9115976D9188
:104390007C91DC01ED91FC910280F381E02D099488
:1043A0006115710511F00C94B32190E080E008953F
:1043B000DC01ED91FC910190F081E02D099461EF19
:1043C00071E00C94B3210F931F93CF93DF93EC0113
:1043D0000E94C2218C01CE010E94DF21800F911F1B
:1043E000DF91CF911F910F9108950F931F93CF935A
:1043F000DF938C01D0E0C0E06115710519F00E94D7
:10440000B321EC01C8010E94DF218C0F9D1FDF91B9
:10441000CF911F910F9108958F929F92AF92BF926B
:10442000EF92FF920F931F93CF93DF93CDB7DEB739
:10443000A1970FB6F894DEBF0FBECDBF7C01FA0185
:10444000CB0119A2223008F42AE08E010F5D1F4F24
:10445000822E912CB12CA12CBF01A50194010E94A8
:10446000CF27F901CA016A300CF5605DD8016E935F
:104470008D01232B242B252B79F790E080E01097DA
:1044800021F0BD01C7010E94B321A1960FB6F89497
:10449000DEBF0FBECDBFDF91CF911F910F91FF9077
:1044A000EF90BF90AF909F908F900895695CDECFA2
:1044B0002115310541F4DC01ED91FC910190F08171
:1044C000E02D642F09940C940C220F931F93CF932B
:1044D000DF93EC010E9458228C01CE010E94DF2163
:1044E000800F911FDF91CF911F910F910895FC01D3
:1044F00080819181009711F00C94CE280895CF937C
:10450000DF93EC0188819981009711F00E94CE28F9
:10451000198218821D821C821B821A82DF91CF9120
:1045200008950F931F93CF93DF93EC018B016F5F7F
:104530007F4F888199810E945729009751F0998374
:1045400088831B830A8381E0DF91CF911F910F91B4
:10455000089580E0F9CFCF93DF93EC0188819981B2
:10456000892B49F08A819B818617970720F081E08B
:10457000DF91CF910895CE010E9491228823C1F34B
:104580008C819D81892B99F7E881F9811082EFCF89
:10459000EF92FF920F931F93CF93DF93EC017B0178
:1045A0008A01BA010E94AB2281110BC0CE010E9488
:1045B0007F22CE01DF91CF911F910F91FF90EF905D
:1045C00008951D830C83B701888199810E94592A1F
:1045D000F0CFFC01118210821382128215821482A4
:1045E0006115710551F0FB0101900020E9F7319749
:1045F000AF01461B570B0C94C8220895FB01019094
:104600000020E9F73197AF01461B570B0C94C822E5
:104610000F931F93CF93DF93CDB7DEB729970FB6D4
:10462000F894DEBF0FBECDBF8C01862FF80111823A
:104630001082138212821582148250E0BE016F5FD5
:104640007F4F90E00E94B22ABE016F5F7F4FC8018A
:104650000E94FE2229960FB6F894DEBF0FBECDBF92
:10466000DF91CF911F910F9108950F931F93CF93D7
:10467000DF93CDB7DEB762970FB6F894DEBF0FBEFB
:10468000CDBF8C01CB01F8011182108213821282FE
:104690001582148250E0BE016F5F7F4F0E946F2A27
:1046A000BE016F5F7F4FC8010E94FE2262960FB667
:1046B000F894DEBF0FBECDBFDF91CF911F910F9158
:1046C00008950F931F93CF93DF93CDB7DEB7619714
:1046D0000FB6F894DEBF0FBECDBF8C01CB01F80141
:1046E00011821082138212821582148250E0BE0160
:1046F0006F5F7F4F0E94B22ABE016F5F7F4FC8017C
:104700000E94FE2261960FB6F894DEBF0FBECDBFA9
:10471000DF91CF911F910F9108950F931F93CF9326
:10472000DF93CDB7DEB7A1970FB6F894DEBF0FBE0B
:10473000CDBF8C01CB01BA01F80111821082138226
:1047400012821582148230E0AE014F5F5F4F0E94EB
:10475000852ABE016F5F7F4FC8010E94FE22A1968D
:104760000FB6F894DEBF0FBECDBFDF91CF911F9182
:104770000F910895CF93DF93EC01FB018617970704
:1047800049F0608171816115710541F04481558165
:104790000E94C822CE01DF91CF9108950E947F220E
:1047A000F9CFFC01118210821382128215821482C9
:1047B0000C94BA23CF93DF93EC016115710531F0AE
:1047C0000E94FE22CE01DF91CF9108950E947F22A8
:1047D000F9CFEF92FF920F931F93CF93DF93CDB753
:1047E000DEB7A1970FB6F894DEBF0FBECDBF7C0138
:1047F000CB01BA01F7011182108213821282158255
:10480000148242E0420F8E010F5F1F4F0E94142856
:10481000BC01C7010E94DA23A1960FB6F894DEBF4F
:104820000FBECDBFDF91CF911F910F91FF90EF9001
:104830000895EF92FF920F931F93CF93DF9361152B
:10484000710541F480E0DF91CF911F910F91FF90AE
:10485000EF90089541155105B1F07B01EC010C81F9
:104860001D81040F151FB8010E94AB22882351F34C
:10487000288139818C819D81B701820F931F0E940D
:10488000592A1D830C8381E0DECFFB0144815581D1
:10489000608171810C9419246115710551F0FB013F
:1048A00001900020E9F73197AF01461B570B0C949C
:1048B000192480E00895CF93DF93EC01FB0144813C
:1048C0005581608171810E941924811103C0CE013C
:1048D0000E947F22CE01DF91CF910895CF93DF9385
:1048E000EC016115710539F4CE010E947F22CE01E1
:1048F000DF91CF910895FB0101900020E9F73197F6
:10490000AF01461B570B0E941924882369F3EFCF90
:10491000FC01248135816217730720F48081918125
:10492000009729F410924B0A8BE49AE00895860FC1
:10493000971F089508950E9469250E949A240E9455
:10494000B004CCE5DFE10E9445082097E1F30E9426
:104950005C1FF9CF1F920F920FB60F9211242F9365
:104960003F938F939F93AF93BF938091510A909100
:10497000520AA091530AB091540A3091500A26E08D
:10498000230F2D3768F129E8230F0396A11DB11DD0
:104990002093500A8093510A9093520AA093530A8D
:1049A000B093540A80914C0A90914D0AA0914E0AFE
:1049B000B0914F0A0196A11DB11D80934C0A9093AE
:1049C0004D0AA0934E0AB0934F0ABF91AF919F91A9
:1049D0008F913F912F910F900FBE0F901F901895C0
:1049E0000296A11DB11DD4CF2FB7F8946091510A42
:1049F0007091520A8091530A9091540A2FBF0895E2
:104A00003FB7F89480914C0A90914D0AA0914E0ABC
:104A1000B0914F0A26B5A89B05C02F3F19F001960B
:104A2000A11DB11D3FBFBA2FA92F982F8827BC0108
:104A3000CD01620F711D811D911D43E0660F771F2F
:104A4000881F991F4A95D1F708958F929F92AF9230
:104A5000BF92CF92DF92EF92FF926B017C010E9496
:104A600000254B015C01C114D104E104F104E9F01B
:104A70000E9466260E940025681979098A099B0907
:104A8000683E73408105910570F321E0C21AD10898
:104A9000E108F10888EE880E83E0981EA11CB11C85
:104AA000C114D104E104F10429F7FF90EF90DF90E5
:104AB000CF90BF90AF909F908F900895000000001E
:104AC0008330910528F0880F991F05970197F1F71A
:104AD0000895789484B5836084BD85B5836085BD71
:104AE000EEE6F0E0808181608083E1E8F0E082E042
:104AF0008083808181608083E0E8F0E08081816054
:104B00008083E1EBF0E0808184608083E0EBF0E083
:104B1000808181608083E1E9F0E08081836080832F
:104B2000E0E9F0E080818160808386E880937A000C
:104B30001092C100089582508A3088F5E82FF0E085
:104B4000EC55FA4D0C94F127CC25D025AE25B42593
:104B5000CF25CF25B825BE25C225C8258091800048
:104B60008F77809380000895809180008F7DF9CFAA
:104B70008091B0008F778093B00008958091B0004D
:104B80008F7DF9CF809190008F778093900008956A
:104B9000809190008F7DF9CF84B58F7784BD089583
:104BA00084B58F7DFBCFCF93DF9390E0FC01EA5477
:104BB000FE4F24918A529E4FFC0184918823C9F0B4
:104BC00090E0880F991FFC01E65FFD4FA591B4911D
:104BD000FC01E050FE4FC591D49161110DC09FB70B
:104BE000F8948C91209582238C93888128232883A4
:104BF0009FBFDF91CF910895623051F49FB7F89431
:104C00003C91822F809583238C93E8812E2BEFCFCC
:104C10008FB7F894EC912E2B2C938FBFEACF1F9374
:104C2000CF93DF93282F30E0F901EA56FE4F8491AD
:104C3000F901EA54FE4FD491F901EA52FE4FC491B2
:104C4000CC23A9F0162F81110E949B25EC2FF0E0B8
:104C5000EE0FFF1FE050FE4FA591B4918FB7F8946F
:104C6000EC91111108C0D095DE23DC938FBFDF914A
:104C7000CF911F910895DE2BF8CFCF93DF93282F8C
:104C800030E0F901EA56FE4F8491F901EA54FE4FF3
:104C9000D491F901EA52FE4FC491CC23A1F08111C5
:104CA0000E949B25EC2FF0E0EE0FFF1FEA50FE4F15
:104CB000A591B491EC91ED2381E090E009F480E0BE
:104CC000DF91CF91089580E090E0FACF0895505899
:104CD000BB27AA270E947F260C9428270E941A2708
:104CE00038F00E94212720F039F49F3F19F426F470
:104CF0000C9417270EF4E095E7FB0C941127E92F8D
:104D00000E94392758F3BA1762077307840795077B
:104D100020F079F4A6F50C945B270EF4E0950B2EA9
:104D2000BA2FA02D0B01B90190010C01CA01A001FD
:104D30001124FF27591B99F0593F50F4503E68F158
:104D40001A16F040A22F232F342F4427585FF3CF99
:104D5000469537952795A795F0405395C9F77EF46A
:104D60001F16BA0B620B730B840BBAF09150A1F0B3
:104D7000FF0FBB1F661F771F881FC2F70EC0BA0F39
:104D8000621F731F841F48F4879577956795B795C1
:104D9000F7959E3F08F0B0CF9395880F08F09927BC
:104DA000EE0F979587950895E89409C097FB3EF418
:104DB00090958095709561957F4F8F4F9F4F992368
:104DC000A9F0F92F96E9BB279395F69587957795E6
:104DD0006795B795F111F8CFFAF4BB0F11F460FFA6
:104DE0001BC06F5F7F4F8F4F9F4F16C0882311F0FE
:104DF00096E911C0772321F09EE8872F762F05C012
:104E0000662371F096E8862F70E060E02AF09A95AC
:104E1000660F771F881FDAF7880F9695879597F9A1
:104E2000089597F99F6780E870E060E008959FEF2C
:104E300080EC089500240A94161617061806090631
:104E4000089500240A941216130614060506089500
:104E5000092E0394000C11F4882352F0BB0F40F488
:104E6000BF2B11F460FF04C06F5F7F4F8F4F9F4FC8
:104E7000089557FD9058440F551F59F05F3F71F04A
:104E80004795880F97FB991F61F09F3F79F08795B1
:104E90000895121613061406551FF2CF4695F1DF3A
:104EA00008C0161617061806991FF1CF86957105CA
:104EB000610508940895E894BB2766277727CB01FE
:104EC00097F908950E9475270C9428270E941A27A5
:104ED00038F00E94212720F0952311F00C9411271F
:104EE0000C94172711240C945C270E94392770F327
:104EF000959FC1F3950F50E0551F629FF001729F7F
:104F0000BB27F00DB11D639FAA27F00DB11DAA1F8D
:104F1000649F6627B00DA11D661F829F2227B00DDA
:104F2000A11D621F739FB00DA11D621F839FA00D65
:104F3000611D221F749F3327A00D611D231F849FB5
:104F4000600D211D822F762F6A2F11249F5750400C
:104F50009AF0F1F088234AF0EE0FFF1FBB1F661F87
:104F6000771F881F91505040A9F79E3F510580F050
:104F70000C9411270C945C275F3FE4F3983ED4F324
:104F8000869577956795B795F795E7959F5FC1F7F4
:104F9000FE2B880F911D9695879597F90895A1E2AC
:104FA0001A2EAA1BBB1BFD010DC0AA1FBB1FEE1FA3
:104FB000FF1FA217B307E407F50720F0A21BB30BEE
:104FC000E40BF50B661F771F881F991F1A9469F76A
:104FD00060957095809590959B01AC01BD01CF01C6
:104FE0000895EE0FFF1F0024001C0BBE0790F691E2
:104FF000E02D09940E940528A59F900DB49F900D67
:10500000A49F800D911D11240895A29FB001B39F0C
:10501000C001A39F700D811D1124911DB29F700DC1
:10502000811D1124911D0895EF920F931F93CF932B
:10503000DF93E80134E047FD34E1042E000C550B0A
:1050400057FF03C0519541955109E32E022F242F9C
:10505000AE010E94D72ACE01DF91CF911F910F910F
:10506000EF9008950F931F93CF93DF9382309105B4
:1050700010F482E090E0E091570AF091580A30E095
:1050800020E0B0E0A0E0309799F42115310509F453
:105090004AC0281B390B24303105D8F58A819B8101
:1050A0006115710589F1FB0193838283FE0111C0B3
:1050B000408151810281138148175907E0F0481758
:1050C000590799F4109761F012960C931297139662
:1050D0001C933296CF01DF91CF911F910F910895CC
:1050E0000093570A1093580AF4CF2115310551F057
:1050F0004217530738F0A901DB019A01BD01DF0116
:10510000F801C1CFEF01F9CF9093580A8093570A65
:10511000CDCFFE01E20FF31F81939193225031090D
:1051200039832883D7CF2091550A3091560A232BF3
:1051300041F420910201309103013093560A2093EB
:10514000550A20910001309101012115310541F4EA
:105150002DB73EB74091040150910501241B350B3A
:10516000E091550AF091560AE217F307A0F42E1BBE
:105170003F0B2817390778F0AC014E5F5F4F2417BB
:10518000350748F04E0F5F1F5093560A4093550A5B
:10519000819391939FCFF0E0E0E09CCFCF93DF939A
:1051A0000097E9F0FC01329713821282A091570A0E
:1051B000B091580AED0130E020E01097A1F4208171
:1051C0003181820F931F2091550A3091560A28177A
:1051D000390709F061C0F093560AE093550ADF9150
:1051E000CF910895EA01CE17DF07E8F54A815B8188
:1051F0009E0141155105B1F7E901FB83EA8349910D
:105200005991C40FD51FEC17FD0761F4808191817E
:105210000296840F951FE901998388838281938187
:105220009B838A83F0E0E0E012968D919C91139726
:105230000097B9F52D913C911197CD010296820FFF
:10524000931F2091550A3091560A2817390739F6CD
:10525000309751F51092580A1092570AB093560A97
:10526000A093550ABCCFD383C28340815181840F60
:10527000951FC817D90761F44E5F5F4F88819981E8
:10528000480F591F518340838A819B819383828376
:105290002115310509F0B0CFF093580AE093570A71
:1052A0009ECFFD01DC01C0CF13821282D7CF4F9277
:1052B0005F926F927F928F929F92AF92BF92CF92A6
:1052C000DF92EF92FF920F931F93CF93DF938C01A6
:1052D000009799F4CB01DF91CF911F910F91FF902F
:1052E000EF90DF90CF90BF90AF909F908F907F9086
:1052F0006F905F904F900C943228FC01E60FF71FDF
:105300009C0122503109E217F30708F4AEC0D9011D
:10531000CD91DC911197C617D70720F1C530D10583
:1053200078F0CE0104978617970750F0C61BD70B6D
:105330002297C193D1936D937C93CF010E94CE2885
:10534000C801DF91CF911F910F91FF90EF90DF90F7
:10535000CF90BF90AF909F908F907F906F905F9015
:105360004F9008955B01AC1ABD0A4C018C0E9D1E36
:10537000A091570AB091580A512C412CF12CE12CE4
:10538000109731F58091550A9091560A8815990524
:1053900009F05CC04616570608F058C0809100011D
:1053A00090910101009741F48DB79EB7409104019F
:1053B00050910501841B950BE817F90708F055C0BB
:1053C000F093560AE093550AF90171836083B8CFD0
:1053D0008D919C91119712966C90129713967C90D8
:1053E0001397A815B90559F56C0142E0C40ED11CFC
:1053F000CA14DB0420F1AC014A195B09DA011296E8
:10540000159780F06282738251834083D9016D9336
:105410007C93E114F10471F0D7011396FC93EE93A1
:1054200012978ECF22968C0F9D1FF9019183808356
:10543000F301EFCFF093580AE093570A81CF481653
:10544000590608F42C017D01D3019ACFCB010E94AB
:1054500032287C01009749F0AE01B8010E94452A2C
:10546000C8010E94CE2887016BCF10E000E068CF12
:10547000FB01DC0104C08D910190801921F44150A1
:105480005040C8F7881B990B0895FB01DC0102C04E
:1054900001900D9241505040D8F70895FC01819140
:1054A000861721F08823D9F7992708953197CF01DE
:1054B0000895FB01DC0101900D920020E1F70895B1
:1054C000FB01DC014150504048F001900D9200205A
:1054D000C9F701C01D9241505040E0F70895453290
:1054E000510520F4423010F00C947A2AFB0110820E
:1054F000CB010895BB274A3031F4992322F4BDE251
:10550000909581959F4F0C94BE2A2532310520F449
:10551000223010F00C94902AFA011082CA010895EA
:10552000BB27FA01A62F6217710581059105330B80
:1055300030FB66F0AA27660F771F881F991FAA1FE6
:10554000A21710F0A21B63953850A9F7A05DAA33EB
:1055500008F0A95DA19336F7B111B1931082CA0189
:105560000C942B2D4532510520F4423010F00C9450
:10557000BD2AFB011082CB010895BB27FB015527F3
:10558000AA27880F991FAA1FA41710F0A41B8395A0
:105590005051B9F7A05DAA3308F0A95DA193009717
:1055A00079F7B111B1931192CB010C942B2D8F92FD
:1055B0009F92AF92BF92CF92DF92EF92FF920F93A2
:1055C0001F93CF93DF93CDB7DEB729970FB6F8942B
:1055D000DEBF0FBECDBF6A01F22EB02E102FFBE34F
:1055E000AF2EA01608F41BE31F5F012F27E0AE01CA
:1055F0004F5F5F4F0E94532CBC018981982F997097
:10560000913009F44EC09BE2E1FC04C09E2D9170E4
:10561000E0FC49C05E2D5071E82FE87083FF55C053
:1056200084E0911101C083E0EF2DE81B8F1508F095
:10563000E0E0D6018E2F20E25523C9F1992329F00D
:10564000D6019C93C60101966C0196012D5F3F4FD8
:10565000E2FE33C08EE4D6018C9391E411969C93C4
:10566000119712968C93D9018E2F90E281112AC046
:10567000E20FF32FF11D10828EEF9FEF29960FB6E8
:10568000F894DEBF0FBECDBFDF91CF911F910F9178
:10569000FF90EF90DF90CF90BF90AF909F908F9052
:1056A00008959DE2B7CF90E2B5CF2D93815081113F
:1056B000FCCFCE0ED11CE0E0C1CF8EE6D6018C939C
:1056C00091E6CCCF9D938150D1CF482F447082FF7B
:1056D0003DC084E0911101C083E08F1510F4EF2DDF
:1056E000E81BD6018E2F20E2552309F1992329F0DA
:1056F000D6019C93C60101966C0196012D5F3F4F28
:10570000E2FE1BC089E4D6018C938EE411968C9343
:10571000119786E412968C93D9018E2F90E28823FC
:1057200009F4A6CF9D938150FACF2D93815081111A
:10573000FCCFCE0ED11CE0E0D9CF89E6D6018C9308
:105740008EE611968C93119786E6E4CF9B0177FF46
:1057500002C030E020E0A1E0B0E0911102C0B0E072
:10576000A0E0F9013196AE0FBF1F8B2C912CBB200E
:1057700009F461C05401EFEFAE1ABE0AAA0DBB1DB9
:10578000FA161B0619F014F04F2D4A1B511188C050
:10579000E3FC59C07601A42FB0E2A1114FC0C40EA2
:1057A000D11C992309F45BC040E0D6011196F601A3
:1057B00090836D01552309F448C0012F060F9A818B
:1057C000582F507184FF03C0913309F40150101613
:1057D0000CF047C0093008F008E0EEE2FE2E5B0155
:1057E000A01AB10885019194819491082F3F320746
:1057F00029F4D601FC92F60131966F016217730706
:1058000094F1021713077CF5DB01A21BB30BAA244A
:10581000A394B12CAC0EBD1EAA0DBB1D11968C918C
:1058200021503109D601119628153905F4F0F601F9
:1058300080836D01DBCFB12CA12CA0CFF701B193F8
:105840007F01A150AACF9111B0CFD601942F50E380
:1058500002C05D9391509111FCCFC40ED11C40E069
:10586000ACCF01E0BACF80E3DBCF6217730731F42E
:10587000963388F4953311F4552369F0F60180834B
:10588000FD01842F90E2811108C0A40FB11D1C926C
:1058900090E080E0F3CE81E3F1CF91938150F3CF9C
:1058A000911183CF8ACF283008F027E03327DA011F
:1058B000990F311D87FD916000966105710539F4DE
:1058C00032602E5F3D9330E32A95E1F708959F3FC4
:1058D00030F080387105610509F03C5F3C5F3D9315
:1058E000913008F08068911DDF93CF931F930F9341
:1058F000FF92EF92192F987F9695E92F969596959E
:10590000E90FFF27EA51FF4F99273327EE24FF24A1
:10591000A701E70105900894079428F4360FE71EC5
:10592000F81E491F511D660F771F881F991F069487
:10593000A1F70590079428F4E70EF81E491F561F9B
:10594000C11D770F881F991F661F0694A1F7059048
:10595000079428F4F80E491F561FC71FD11D880F42
:10596000991F661F771F0694A1F70590079420F4EE
:10597000490F561FC71FD81F990F661F771F881F13
:105980000694A9F784911095177041F0D695C795A4
:1059900057954795F794E7941A95C1F7ECE8F0E02E
:1059A00068941590159135916591959105907FE2D8
:1059B0007395E118F10A430B560BC90BD009C0F7D8
:1059C000E10CF11E431F561FC91FD01D7EF470331A
:1059D00011F48A95E6CFE894015030F0080F0AF4EC
:1059E0000027021708F4202F2395022F7A3328F07E
:1059F00079E37D932A95E9F710C07D932A9589F67E
:105A0000069497956795379517951794E118F10ABD
:105A1000430B560BC90BD00998F023957E917395D3
:105A20007A3308F070E37C932013B8F77E917061AD
:105A30007D9330F0839571E37D9370E32A95E1F7D0
:105A40001124EF90FF900F911F91CF91DF91992733
:105A500087FD90950895DC01FC01672F71917723F4
:105A6000E1F7329704C07C916D9370836291AE1719
:105A7000BF07C8F3089511E0C0E1D1E004C0FE0102
:105A80000E94F1272196C131D107C9F7F894FFCFC1
:105A90000000590A800001FFFFFFFF633730666690
:105AA00039343938376437646439356336323062B3
:105AB0003865326436626134373131666633623755
:105AC0003066342C43494275696C6400302E302EA8
:105AD000302D312D43494275696C642E413530308B
